{"abi":[{"type":"constructor","inputs":[],"stateMutability":"nonpayable"},{"type":"fallback","stateMutability":"payable"},{"type":"receive","stateMutability":"payable"},{"type":"function","name":"DEFAULT_ADMIN_ROLE","inputs":[],"outputs":[{"name":"","type":"bytes32","internalType":"bytes32"}],"stateMutability":"view"},{"type":"function","name":"addCurrentValues","inputs":[{"name":"_usd","type":"uint256","internalType":"uint256"},{"name":"_token","type":"address[]","internalType":"address[]"},{"name":"_tWethValue","type":"uint256[]","internalType":"uint256[]"},{"name":"_tUsdt","type":"uint256[]","internalType":"uint256[]"}],"outputs":[],"stateMutability":"nonpayable"},{"type":"function","name":"addInitialValues","inputs":[{"name":"_usd","type":"uint256","internalType":"uint256"},{"name":"_token","type":"address[]","internalType":"address[]"},{"name":"_tUsdt","type":"uint256[]","internalType":"uint256[]"}],"outputs":[],"stateMutability":"nonpayable"},{"type":"function","name":"addTokens","inputs":[{"name":"_tokens","type":"address[]","internalType":"address[]"}],"outputs":[],"stateMutability":"nonpayable"},{"type":"function","name":"addWhitelisted","inputs":[{"name":"_user","type":"address","internalType":"address"}],"outputs":[],"stateMutability":"nonpayable"},{"type":"function","name":"adminWithdrawWholeFundTokens","inputs":[],"outputs":[],"stateMutability":"nonpayable"},{"type":"function","name":"adminWithdrawWholeFundWETH","inputs":[{"name":"tokensData","type":"bytes","internalType":"bytes"}],"outputs":[],"stateMutability":"nonpayable"},{"type":"function","name":"calcCurrentTokensShareOfPortfo","inputs":[],"outputs":[{"name":"_tokens","type":"address[]","internalType":"address[]"},{"name":"tokensShare","type":"uint256[]","internalType":"uint256[]"}],"stateMutability":"nonpayable"},{"type":"function","name":"calcUserTokenShare","inputs":[{"name":"_user","type":"address","internalType":"address"},{"name":"_token","type":"address","internalType":"address"}],"outputs":[{"name":"userTShare","type":"uint256","internalType":"uint256"}],"stateMutability":"nonpayable"},{"type":"function","name":"checkSwapQueue","inputs":[{"name":"_user","type":"address","internalType":"address"}],"outputs":[{"name":"","type":"address[]","internalType":"address[]"}],"stateMutability":"view"},{"type":"function","name":"deposit","inputs":[{"name":"wethAmount","type":"uint256","internalType":"uint256"},{"name":"tokensData","type":"bytes","internalType":"bytes"}],"outputs":[],"stateMutability":"payable"},{"type":"function","name":"depositETH","inputs":[],"outputs":[],"stateMutability":"payable"},{"type":"function","name":"doRebalance","inputs":[{"name":"tokensData","type":"bytes","internalType":"bytes"}],"outputs":[],"stateMutability":"nonpayable"},{"type":"function","name":"getFee","inputs":[{"name":"wethAmount","type":"uint256","internalType":"uint256"}],"outputs":[{"name":"","type":"uint256","internalType":"uint256"}],"stateMutability":"payable"},{"type":"function","name":"getRoleAdmin","inputs":[{"name":"role","type":"bytes32","internalType":"bytes32"}],"outputs":[{"name":"","type":"bytes32","internalType":"bytes32"}],"stateMutability":"view"},{"type":"function","name":"grantRole","inputs":[{"name":"role","type":"bytes32","internalType":"bytes32"},{"name":"account","type":"address","internalType":"address"}],"outputs":[],"stateMutability":"nonpayable"},{"type":"function","name":"hasRole","inputs":[{"name":"role","type":"bytes32","internalType":"bytes32"},{"name":"account","type":"address","internalType":"address"}],"outputs":[{"name":"","type":"bool","internalType":"bool"}],"stateMutability":"view"},{"type":"function","name":"liquidate","inputs":[{"name":"tokensData","type":"bytes","internalType":"bytes"}],"outputs":[],"stateMutability":"nonpayable"},{"type":"function","name":"paused","inputs":[],"outputs":[{"name":"","type":"bool","internalType":"bool"}],"stateMutability":"view"},{"type":"function","name":"removeTokens","inputs":[{"name":"_index","type":"uint256[]","internalType":"uint256[]"}],"outputs":[],"stateMutability":"nonpayable"},{"type":"function","name":"removeWhitelisted","inputs":[{"name":"_user","type":"address","internalType":"address"}],"outputs":[],"stateMutability":"nonpayable"},{"type":"function","name":"renounceRole","inputs":[{"name":"role","type":"bytes32","internalType":"bytes32"},{"name":"callerConfirmation","type":"address","internalType":"address"}],"outputs":[],"stateMutability":"nonpayable"},{"type":"function","name":"revokeRole","inputs":[{"name":"role","type":"bytes32","internalType":"bytes32"},{"name":"account","type":"address","internalType":"address"}],"outputs":[],"stateMutability":"nonpayable"},{"type":"function","name":"setFeeData","inputs":[{"name":"depositFee","type":"uint8","internalType":"uint8"},{"name":"WithdrawFee","type":"uint8","internalType":"uint8"}],"outputs":[],"stateMutability":"nonpayable"},{"type":"function","name":"supportsInterface","inputs":[{"name":"interfaceId","type":"bytes4","internalType":"bytes4"}],"outputs":[{"name":"","type":"bool","internalType":"bool"}],"stateMutability":"view"},{"type":"function","name":"swapUserQueueBuy","inputs":[{"name":"_user","type":"address","internalType":"address"},{"name":"tokensData","type":"bytes","internalType":"bytes"}],"outputs":[],"stateMutability":"nonpayable"},{"type":"function","name":"tokens","inputs":[{"name":"","type":"uint256","internalType":"uint256"}],"outputs":[{"name":"","type":"address","internalType":"address"}],"stateMutability":"view"},{"type":"function","name":"tokensList","inputs":[],"outputs":[{"name":"","type":"address[]","internalType":"address[]"}],"stateMutability":"view"},{"type":"function","name":"updateFee","inputs":[{"name":"_feeAmount","type":"uint16","internalType":"uint16"}],"outputs":[],"stateMutability":"nonpayable"},{"type":"function","name":"updateSlippageTolerance","inputs":[{"name":"_slippageTolerance","type":"uint256","internalType":"uint256"}],"outputs":[],"stateMutability":"nonpayable"},{"type":"function","name":"userAddresses","inputs":[{"name":"","type":"uint256","internalType":"uint256"}],"outputs":[{"name":"","type":"address","internalType":"address"}],"stateMutability":"view"},{"type":"function","name":"userTokenBalance","inputs":[{"name":"_user","type":"address","internalType":"address"},{"name":"_token","type":"address","internalType":"address"}],"outputs":[{"name":"userTBalance","type":"uint256","internalType":"uint256"}],"stateMutability":"nonpayable"},{"type":"function","name":"userTokensBalance","inputs":[{"name":"_user","type":"address","internalType":"address"}],"outputs":[{"name":"","type":"address[]","internalType":"address[]"},{"name":"","type":"uint256[]","internalType":"uint256[]"}],"stateMutability":"nonpayable"},{"type":"function","name":"userWithdrawWholeFundWETH","inputs":[{"name":"tokensData","type":"bytes","internalType":"bytes"}],"outputs":[],"stateMutability":"nonpayable"},{"type":"function","name":"users","inputs":[{"name":"","type":"address","internalType":"address"}],"outputs":[{"name":"wethValueFirst","type":"uint256","internalType":"uint256"},{"name":"usdtValueFirst","type":"uint256","internalType":"uint256"},{"name":"round","type":"uint256","internalType":"uint256"}],"stateMutability":"view"},{"type":"function","name":"usersReb","inputs":[{"name":"","type":"address","internalType":"address"}],"outputs":[{"name":"round","type":"uint256","internalType":"uint256"}],"stateMutability":"view"},{"type":"function","name":"withdraw","inputs":[{"name":"tokensData","type":"bytes","internalType":"bytes"}],"outputs":[],"stateMutability":"nonpayable"},{"type":"function","name":"withdrawAllInKind","inputs":[],"outputs":[],"stateMutability":"nonpayable"},{"type":"function","name":"withdrawInKind","inputs":[{"name":"_token","type":"address","internalType":"address"},{"name":"_amount","type":"uint256","internalType":"uint256"},{"name":"_round","type":"uint256","internalType":"uint256"}],"outputs":[],"stateMutability":"nonpayable"},{"type":"event","name":"AMTout","inputs":[{"name":"amtOut","type":"uint256","indexed":false,"internalType":"uint256"}],"anonymous":false},{"type":"event","name":"Balance","inputs":[{"name":"sender","type":"address","indexed":false,"internalType":"address"},{"name":"bal","type":"uint256","indexed":false,"internalType":"uint256"}],"anonymous":false},{"type":"event","name":"BoughtAmount","inputs":[{"name":"buyer","type":"address","indexed":true,"internalType":"address"},{"name":"BoughtAmt","type":"uint256","indexed":false,"internalType":"uint256"},{"name":"tokenSymb","type":"string","indexed":false,"internalType":"string"},{"name":"uniV","type":"string","indexed":false,"internalType":"string"}],"anonymous":false},{"type":"event","name":"CurrentValuesSet","inputs":[{"name":"currentUSD","type":"uint256","indexed":false,"internalType":"uint256"},{"name":"tokens","type":"address[]","indexed":false,"internalType":"address[]"},{"name":"tUSD","type":"uint256[]","indexed":false,"internalType":"uint256[]"}],"anonymous":false},{"type":"event","name":"DepositReceived","inputs":[{"name":"user","type":"address","indexed":true,"internalType":"address"},{"name":"amount","type":"uint256","indexed":false,"internalType":"uint256"}],"anonymous":false},{"type":"event","name":"DoRebalance","inputs":[{"name":"pool","type":"address[]","indexed":false,"internalType":"address[]"},{"name":"uniV","type":"uint8[]","indexed":false,"internalType":"uint8[]"}],"anonymous":false},{"type":"event","name":"DoRebalance2","inputs":[{"name":"pool","type":"address[]","indexed":false,"internalType":"address[]"},{"name":"shares","type":"uint256[]","indexed":false,"internalType":"uint256[]"}],"anonymous":false},{"type":"event","name":"DoRebalance3","inputs":[{"name":"token","type":"address","indexed":false,"internalType":"address"}],"anonymous":false},{"type":"event","name":"FeeReceived","inputs":[{"name":"owner","type":"address","indexed":true,"internalType":"address"},{"name":"amount","type":"uint256","indexed":false,"internalType":"uint256"}],"anonymous":false},{"type":"event","name":"FundsRecieved","inputs":[{"name":"sender","type":"address","indexed":true,"internalType":"address"},{"name":"ethAmount","type":"uint256","indexed":false,"internalType":"uint256"}],"anonymous":false},{"type":"event","name":"InMemoryLength","inputs":[{"name":"len","type":"uint256","indexed":false,"internalType":"uint256"}],"anonymous":false},{"type":"event","name":"InMemoryLength","inputs":[{"name":"tokens","type":"address[]","indexed":false,"internalType":"address[]"}],"anonymous":false},{"type":"event","name":"InitValuesSet","inputs":[{"name":"initUSD","type":"uint256","indexed":false,"internalType":"uint256"},{"name":"tokens","type":"address[]","indexed":false,"internalType":"address[]"},{"name":"tUSD","type":"uint256[]","indexed":false,"internalType":"uint256[]"}],"anonymous":false},{"type":"event","name":"MyUsdtVALUE","inputs":[{"name":"usdtVal","type":"uint256","indexed":false,"internalType":"uint256"}],"anonymous":false},{"type":"event","name":"PRICE","inputs":[{"name":"price","type":"uint256","indexed":false,"internalType":"uint256"}],"anonymous":false},{"type":"event","name":"Paused","inputs":[{"name":"account","type":"address","indexed":false,"internalType":"address"}],"anonymous":false},{"type":"event","name":"Pool","inputs":[{"name":"pool","type":"address","indexed":false,"internalType":"address"}],"anonymous":false},{"type":"event","name":"PortfoTokenBalances","inputs":[{"name":"daiCount","type":"uint256","indexed":false,"internalType":"uint256"}],"anonymous":false},{"type":"event","name":"PortfoTokenInitialUSDTPrices","inputs":[{"name":"daiInitialUsdtPrice","type":"uint256","indexed":false,"internalType":"uint256"}],"anonymous":false},{"type":"event","name":"PortfoTokenPricesETH","inputs":[{"name":"daiETHPrice","type":"uint256","indexed":false,"internalType":"uint256"}],"anonymous":false},{"type":"event","name":"Rebalanced","inputs":[{"name":"OccureTime","type":"uint256","indexed":false,"internalType":"uint256"}],"anonymous":false},{"type":"event","name":"RemovedFromWhitelist","inputs":[{"name":"account","type":"address","indexed":true,"internalType":"address"}],"anonymous":false},{"type":"event","name":"RoleAdminChanged","inputs":[{"name":"role","type":"bytes32","indexed":true,"internalType":"bytes32"},{"name":"previousAdminRole","type":"bytes32","indexed":true,"internalType":"bytes32"},{"name":"newAdminRole","type":"bytes32","indexed":true,"internalType":"bytes32"}],"anonymous":false},{"type":"event","name":"RoleGranted","inputs":[{"name":"role","type":"bytes32","indexed":true,"internalType":"bytes32"},{"name":"account","type":"address","indexed":true,"internalType":"address"},{"name":"sender","type":"address","indexed":true,"internalType":"address"}],"anonymous":false},{"type":"event","name":"RoleRevoked","inputs":[{"name":"role","type":"bytes32","indexed":true,"internalType":"bytes32"},{"name":"account","type":"address","indexed":true,"internalType":"address"},{"name":"sender","type":"address","indexed":true,"internalType":"address"}],"anonymous":false},{"type":"event","name":"SQRTPriceX","inputs":[{"name":"SQRT","type":"uint256","indexed":false,"internalType":"uint256"}],"anonymous":false},{"type":"event","name":"ShowDepositedTokensData","inputs":[{"name":"tokenIn","type":"address[]","indexed":false,"internalType":"address[]"},{"name":"tokenOut","type":"address[]","indexed":false,"internalType":"address[]"}],"anonymous":false},{"type":"event","name":"ShowTokensDataEvent","inputs":[{"name":"pool","type":"address[]","indexed":false,"internalType":"address[]"},{"name":"uniV","type":"uint8[]","indexed":false,"internalType":"uint8[]"}],"anonymous":false},{"type":"event","name":"SwapFailed","inputs":[{"name":"user","type":"address","indexed":true,"internalType":"address"},{"name":"amount","type":"uint256","indexed":false,"internalType":"uint256"},{"name":"tokenName","type":"string","indexed":false,"internalType":"string"},{"name":"reason","type":"string","indexed":false,"internalType":"string"}],"anonymous":false},{"type":"event","name":"SwapSuccessful","inputs":[{"name":"user","type":"address","indexed":true,"internalType":"address"},{"name":"wethAmountPerToken","type":"uint256","indexed":false,"internalType":"uint256"},{"name":"receivedTokenAmount","type":"int256","indexed":false,"internalType":"int256"},{"name":"tokenName","type":"string","indexed":false,"internalType":"string"},{"name":"uniswapV","type":"string","indexed":false,"internalType":"string"}],"anonymous":false},{"type":"event","name":"TOTALETH","inputs":[{"name":"Total","type":"uint256","indexed":false,"internalType":"uint256"},{"name":"admin","type":"address","indexed":false,"internalType":"address"},{"name":"ContractBalance","type":"uint256","indexed":false,"internalType":"uint256"}],"anonymous":false},{"type":"event","name":"TokenData","inputs":[{"name":"route","type":"address","indexed":false,"internalType":"address"},{"name":"tokenOut","type":"address","indexed":false,"internalType":"address"},{"name":"usdVal","type":"uint256","indexed":false,"internalType":"uint256"},{"name":"wethVal","type":"uint256","indexed":false,"internalType":"uint256"},{"name":"uniV","type":"uint8","indexed":false,"internalType":"uint8"}],"anonymous":false},{"type":"event","name":"TokenDataBytes","inputs":[{"name":"tokenData","type":"bytes","indexed":false,"internalType":"bytes"}],"anonymous":false},{"type":"event","name":"TokenRemoved","inputs":[{"name":"tokens","type":"address","indexed":false,"internalType":"address"}],"anonymous":false},{"type":"event","name":"TokenSharesUpdated","inputs":[{"name":"status","type":"bool","indexed":false,"internalType":"bool"}],"anonymous":false},{"type":"event","name":"TokensAdded","inputs":[{"name":"addedTokens","type":"address[]","indexed":false,"internalType":"address[]"}],"anonymous":false},{"type":"event","name":"TokensList","inputs":[{"name":"list","type":"address[]","indexed":false,"internalType":"address[]"}],"anonymous":false},{"type":"event","name":"TokensWithdrawAllInKindEvent","inputs":[{"name":"token","type":"address","indexed":false,"internalType":"address"},{"name":"bal","type":"uint256","indexed":false,"internalType":"uint256"}],"anonymous":false},{"type":"event","name":"Unpaused","inputs":[{"name":"account","type":"address","indexed":false,"internalType":"address"}],"anonymous":false},{"type":"event","name":"UserAdded","inputs":[{"name":"user","type":"address","indexed":true,"internalType":"address"}],"anonymous":false},{"type":"event","name":"UserDataCheck","inputs":[{"name":"buyer","type":"address","indexed":true,"internalType":"address"},{"name":"tokens","type":"address[]","indexed":false,"internalType":"address[]"},{"name":"wethValueFirst","type":"uint256","indexed":false,"internalType":"uint256"},{"name":"usdtValueFirst","type":"uint256","indexed":false,"internalType":"uint256"}],"anonymous":false},{"type":"event","name":"UserRound","inputs":[{"name":"userRound","type":"uint256","indexed":false,"internalType":"uint256"}],"anonymous":false},{"type":"event","name":"UserTokenBalance","inputs":[{"name":"token","type":"address","indexed":false,"internalType":"address"},{"name":"round","type":"uint256","indexed":false,"internalType":"uint256"},{"name":"tokenbalance","type":"uint256","indexed":false,"internalType":"uint256"}],"anonymous":false},{"type":"event","name":"UserTokenBalance","inputs":[{"name":"user","type":"address","indexed":false,"internalType":"address"},{"name":"token","type":"address","indexed":false,"internalType":"address"},{"name":"userTokenBalance","type":"uint256","indexed":false,"internalType":"uint256"}],"anonymous":false},{"type":"event","name":"UserTokenBalanceRound","inputs":[{"name":"user","type":"address","indexed":false,"internalType":"address"},{"name":"token","type":"address","indexed":false,"internalType":"address"},{"name":"round","type":"uint256","indexed":false,"internalType":"uint256"},{"name":"userTokenBalance","type":"uint256","indexed":false,"internalType":"uint256"}],"anonymous":false},{"type":"event","name":"UserTokensBalance","inputs":[{"name":"user","type":"address","indexed":false,"internalType":"address"},{"name":"tokens","type":"address[]","indexed":false,"internalType":"address[]"},{"name":"userTokensBalance","type":"uint256[]","indexed":false,"internalType":"uint256[]"}],"anonymous":false},{"type":"event","name":"UserWhitelisted","inputs":[{"name":"account","type":"address","indexed":true,"internalType":"address"}],"anonymous":false},{"type":"event","name":"V3ETH","inputs":[{"name":"isV3","type":"bool","indexed":false,"internalType":"bool"}],"anonymous":false},{"type":"event","name":"WETHVALUE","inputs":[{"name":"wethVal","type":"uint256","indexed":false,"internalType":"uint256"}],"anonymous":false},{"type":"event","name":"WethBalanceAdmin","inputs":[{"name":"wethBalance","type":"uint256","indexed":false,"internalType":"uint256"},{"name":"admin","type":"address","indexed":false,"internalType":"address"}],"anonymous":false},{"type":"event","name":"WithdrawEvent","inputs":[{"name":"user","type":"address","indexed":false,"internalType":"address"},{"name":"withAmt","type":"int256","indexed":false,"internalType":"int256"}],"anonymous":false},{"type":"event","name":"WithdrawEvent","inputs":[{"name":"token","type":"address","indexed":false,"internalType":"address"},{"name":"withAmt","type":"uint256","indexed":false,"internalType":"uint256"}],"anonymous":false},{"type":"event","name":"handleSwapEvent","inputs":[{"name":"amount","type":"uint256","indexed":false,"internalType":"uint256"},{"name":"tokenIn","type":"address","indexed":false,"internalType":"address"},{"name":"tokenOut","type":"address","indexed":false,"internalType":"address"},{"name":"minAmtOut","type":"uint256","indexed":false,"internalType":"uint256"}],"anonymous":false},{"type":"event","name":"handleSwapEventAmtOut","inputs":[{"name":"minAmtOut","type":"uint256[]","indexed":false,"internalType":"uint256[]"},{"name":"pairAddress","type":"address[]","indexed":false,"internalType":"address[]"}],"anonymous":false},{"type":"event","name":"handleTokenToTokenSwapEvent","inputs":[{"name":"token","type":"address","indexed":false,"internalType":"address"},{"name":"userTokenBalance","type":"uint256","indexed":false,"internalType":"uint256"},{"name":"tokenOut","type":"address","indexed":false,"internalType":"address"}],"anonymous":false},{"type":"event","name":"handleWETHToTokenSwapEvent","inputs":[{"name":"token","type":"address","indexed":false,"internalType":"address"},{"name":"ethAmtPerToken","type":"uint256","indexed":false,"internalType":"uint256"},{"name":"tokenOut","type":"address","indexed":false,"internalType":"address"}],"anonymous":false},{"type":"event","name":"howMuch","inputs":[{"name":"sender","type":"address","indexed":true,"internalType":"address"},{"name":"amt","type":"uint256","indexed":false,"internalType":"uint256"}],"anonymous":false},{"type":"event","name":"tTokenBalanceEvent","inputs":[{"name":"Token","type":"address","indexed":false,"internalType":"address"},{"name":"tBalance","type":"uint256","indexed":false,"internalType":"uint256"}],"anonymous":false},{"type":"event","name":"trace","inputs":[{"name":"sender","type":"address","indexed":true,"internalType":"address"},{"name":"amt","type":"uint256","indexed":false,"internalType":"uint256"},{"name":"line","type":"string","indexed":false,"internalType":"string"}],"anonymous":false},{"type":"event","name":"trace4","inputs":[{"name":"sender","type":"address","indexed":true,"internalType":"address"},{"name":"amt","type":"int256","indexed":false,"internalType":"int256"},{"name":"line","type":"string","indexed":false,"internalType":"string"}],"anonymous":false},{"type":"event","name":"withdrawAllInKindEvent","inputs":[{"name":"token","type":"address","indexed":false,"internalType":"address"},{"name":"remained","type":"uint256","indexed":false,"internalType":"uint256"}],"anonymous":false},{"type":"event","name":"withdrawInKindEvent","inputs":[{"name":"token","type":"address","indexed":false,"internalType":"address"},{"name":"beforeWithAmt","type":"uint256","indexed":false,"internalType":"uint256"},{"name":"withAmt","type":"uint256","indexed":false,"internalType":"uint256"},{"name":"remained","type":"uint256","indexed":false,"internalType":"uint256"}],"anonymous":false},{"type":"error","name":"AccessControlBadConfirmation","inputs":[]},{"type":"error","name":"AccessControlUnauthorizedAccount","inputs":[{"name":"account","type":"address","internalType":"address"},{"name":"neededRole","type":"bytes32","internalType":"bytes32"}]},{"type":"error","name":"EnforcedPause","inputs":[]},{"type":"error","name":"ExpectedPause","inputs":[]},{"type":"error","name":"ReentrancyGuardReentrantCall","inputs":[]}],"bytecode":{"object":"0x60e06040527ff23ec0bb4210edd5cba85afd05127efcd2fc6a781bfed49188da1081670b22d86003556004805461ffff191660641790556103e86008556101f460095534801561004e57600080fd5b5060016000819055805460ff191690556004805462010000600160b01b03191633620100000217815573edf6066a2b290c185783862c7f4776a2c8077ad160a0819052604080516315ab88c960e31b81529051919263ad5c46489282820192602092908290030181865afa1580156100ca573d6000803e3d6000fd5b505050506040513d601f19601f820116820180604052508101906100ee91906101ed565b6001600160a01b03908116608081905260c052600454610117916000916201000090041661013d565b5060035460045461013791906201000090046001600160a01b031661013d565b5061021d565b60008281526002602090815260408083206001600160a01b038516845290915281205460ff166101e35760008381526002602090815260408083206001600160a01b03861684529091529020805460ff1916600117905561019b3390565b6001600160a01b0316826001600160a01b0316847f2f8788117e7eff1d82e926ec794901d17c78024a50270940304540a733656f0d60405160405180910390a45060016101e7565b5060005b92915050565b6000602082840312156101ff57600080fd5b81516001600160a01b038116811461021657600080fd5b9392505050565b60805160a05160c0516158496102ed6000396000818161193b015281816127d10152818161285b0152612e62015260006146660152600081816108a701528181610937015281816109e801528181610c5901528181610cc901528181610d4e01528181610e4101528181610f91015281816110e201528181611a1801528181611b6401528181611ecd01528181611f3d0152818161208e0152818161211401528181612227015281816122de01528181612b3901528181612d2801528181613797015261460c01526158496000f3fe60806040526004361061021c5760003560e01c80635c975abb11610122578063b47064c8116100a5578063e9075b631161006c578063e9075b63146106fd578063f6326fb31461071d578063fc228e6b14610725578063fcee45f414610745578063ff59bcd01461075857005b8063b47064c814610658578063bd5dc20214610678578063c2bc7a221461068d578063d547741f146106bd578063d8575ded146106dd57005b806399303e9d116100e957806399303e9d1461058a578063a217fddf146105aa578063a2ae2770146105bf578063a87430ba146105df578063b21e19901461063857005b80635c975abb1461050a5780635d3035191461052257806378d254b11461053557806391d148541461054a578063949b18181461056a57005b80632c30ad5b116101aa5780633f5cc468116101715780633f5cc4681461045d5780634ae05c7d1461047d5780634f64b2be1461049d578063502c9bd5146104d557806350cf643c146104f557005b80632c30ad5b146103bb5780632c6cda93146103d05780632f2ff15d146103f057806331038fbd1461041057806336568abe1461043d57005b80631721539b116101ee5780631721539b146102ef578063238afe4b1461030f578063248a9ca31461032f57806327cdd8f91461036d578063291d95491461039b57005b806301ffc9a71461025a5780630968f2641461028f5780630f9da743146102af57806310154bad146102cf57005b366102585760405134815233907ff6f2f45bd3eb780a1d109af5711b045983100a7d1e5a1b5fa5b9f1dd3debd0679060200160405180910390a2005b005b34801561026657600080fd5b5061027a6102753660046147dc565b610778565b60405190151581526020015b60405180910390f35b34801561029b57600080fd5b506102586102aa3660046148cb565b6107af565b3480156102bb57600080fd5b506102586102ca3660046148ff565b610a6c565b3480156102db57600080fd5b506102586102ea36600461492d565b610a7e565b3480156102fb57600080fd5b5061025861030a3660046148cb565b610ae4565b34801561031b57600080fd5b5061025861032a3660046148cb565b610ec6565b34801561033b57600080fd5b5061035f61034a3660046148ff565b60009081526002602052604090206001015490565b604051908152602001610286565b34801561037957600080fd5b5061038d61038836600461492d565b611187565b6040516102869291906149c1565b3480156103a757600080fd5b506102586103b636600461492d565b6112bd565b3480156103c757600080fd5b5061025861131a565b3480156103dc57600080fd5b506102586103eb3660046149f6565b611427565b3480156103fc57600080fd5b5061025861040b366004614a13565b61148e565b34801561041c57600080fd5b5061043061042b36600461492d565b6114b9565b6040516102869190614a43565b34801561044957600080fd5b50610258610458366004614a13565b611532565b34801561046957600080fd5b50610258610478366004614a65565b61156a565b34801561048957600080fd5b50610258610498366004614ade565b611601565b3480156104a957600080fd5b506104bd6104b83660046148ff565b6116b7565b6040516001600160a01b039091168152602001610286565b3480156104e157600080fd5b506104bd6104f03660046148ff565b6116e1565b34801561050157600080fd5b5061038d6116f1565b34801561051657600080fd5b5060015460ff1661027a565b610258610530366004614b1f565b6118c1565b34801561054157600080fd5b50610258611b8a565b34801561055657600080fd5b5061027a610565366004614a13565b611dfa565b34801561057657600080fd5b5061035f610585366004614b65565b611e25565b34801561059657600080fd5b506102586105a5366004614b93565b611e58565b3480156105b657600080fd5b5061035f600081565b3480156105cb57600080fd5b506102586105da3660046148cb565b611fb7565b3480156105eb57600080fd5b5061061d6105fa36600461492d565b600f602081905260009182526040909120600e8101549181015460109091015483565b60408051938452602084019290925290820152606001610286565b34801561064457600080fd5b50610258610653366004614bcc565b612153565b34801561066457600080fd5b5061035f610673366004614b65565b6122b6565b34801561068457600080fd5b5061043061241f565b34801561069957600080fd5b5061035f6106a836600461492d565b60106020526000908152604090206002015481565b3480156106c957600080fd5b506102586106d8366004614a13565b612481565b3480156106e957600080fd5b506102586106f8366004614c79565b6124a6565b34801561070957600080fd5b50610258610718366004614cf6565b6125a1565b610258612755565b34801561073157600080fd5b506102586107403660046148cb565b61291d565b61035f6107533660046148ff565b612de1565b34801561076457600080fd5b50610258610773366004614d4e565b612f3e565b60006001600160e01b03198216637965db0b60e01b14806107a957506301ffc9a760e01b6001600160e01b03198316145b92915050565b6000805160206157d48339815191526107c781612f80565b6107cf612f8a565b336000908152600f602090815260408083206005805483518186028101860190945280845291949390919083018282801561083357602002820191906000526020600020905b81546001600160a01b03168152600190910190602001808311610815575b505050505090506000808061084787612fb0565b925050915060005b84518110156109a757600061087d3387848151811061087057610870614de5565b60200260200101516122b6565b9050801561099e5760006109128888858151811061089d5761089d614de5565b60200260200101517f00000000000000000000000000000000000000000000000000000000000000008887815181106108d8576108d8614de5565b60200260200101518888815181106108f2576108f2614de5565b602002602001015160ff1660031461090b57600061302f565b600161302f565b90507f4f7a3cd4c558c24335e118a71cd17a390ebc7fa3b5f1f928e3d2616cc28839647f000000000000000000000000000000000000000000000000000000000000000082604051610965929190614dfb565b60405180910390a16109778187614e2a565b955061099c3388858151811061098f5761098f614de5565b60200260200101516130b9565b505b5060010161084f565b50600083116109d15760405162461bcd60e51b81526004016109c890614e3d565b60405180910390fd5b60405163a9059cbb60e01b81526001600160a01b037f0000000000000000000000000000000000000000000000000000000000000000169063a9059cbb90610a1f9033908790600401614dfb565b6020604051808303816000875af1158015610a3e573d6000803e3d6000fd5b505050506040513d601f19601f82011682018060405250810190610a629190614e7e565b5050505050505050565b600354610a7881612f80565b50600855565b600354610a8a81612f80565b610a9382613111565b610aab6000805160206157d4833981519152836131c0565b506040516001600160a01b038316907f7409cb8e690bcd1487fd4fd27dad3fa92388d201ba6f953631d6d6b26299f84990600090a25050565b600354610af081612f80565b6000806005805480602002602001604051908101604052809291908181526020018280548015610b4957602002820191906000526020600020905b81546001600160a01b03168152600190910190602001808311610b2b575b5050505050905060006007805490506001600160401b03811115610b6f57610b6f614806565b604051908082528060200260200182016040528015610b98578160200160208202803683370190505b50905060008080610ba888612fb0565b925050915060005b8451811015610e0957600f6000868381518110610bcf57610bcf614de5565b60200260200101516001600160a01b03166001600160a01b03168152602001908152602001600020965060005b8651811015610e00576000878281518110610c1957610c19614de5565b602002602001015190506000610c48888581518110610c3a57610c3a614de5565b6020026020010151836122b6565b90508015610df6576000610ca48b847f00000000000000000000000000000000000000000000000000000000000000008a8881518110610c8a57610c8a614de5565b60200260200101518a89815181106108f2576108f2614de5565b90507f4f7a3cd4c558c24335e118a71cd17a390ebc7fa3b5f1f928e3d2616cc28839647f000000000000000000000000000000000000000000000000000000000000000082604051610cf7929190614dfb565b60405180910390a1610d098189614e2a565b6040516370a0823160e01b815230600482018190529199507f134e340554ff8a7d64280a2a28b982df554e2595e5bf45cd39368f31099172a691906001600160a01b037f000000000000000000000000000000000000000000000000000000000000000016906370a08231906024016020604051808303816000875af1158015610d97573d6000803e3d6000fd5b505050506040513d601f19601f82011682018060405250810190610dbb9190614e99565b604051610dc9929190614dfb565b60405180910390a1610df4898681518110610de657610de6614de5565b6020026020010151846130b9565b505b5050600101610bfc565b50600101610bb0565b5060008311610e2a5760405162461bcd60e51b81526004016109c890614e3d565b60405163a9059cbb60e01b81526001600160a01b037f0000000000000000000000000000000000000000000000000000000000000000169063a9059cbb90610e789033908790600401614dfb565b6020604051808303816000875af1158015610e97573d6000803e3d6000fd5b505050506040513d601f19601f82011682018060405250810190610ebb9190614e7e565b505050505050505050565b6000805160206157d4833981519152610ede81612f80565b610ee6612f8a565b610eee613254565b60008080610efb85612fb0565b9250509150600080610f0c33611187565b9150915060005b8251811015611093576000828281518110610f3057610f30614de5565b602002602001015190506000811115610ff257336000908152600f602052604081208751610fe2919084908a9087908110610f6d57610f6d614de5565b6020026020010151888781518110610f8757610f87614de5565b60200260200101517f00000000000000000000000000000000000000000000000000000000000000008b8981518110610fc257610fc2614de5565b602002602001015160ff16600314610fdb57600061327e565b600161327e565b9050610fee8189614e2a565b9750505b60015b336000908152600f6020526040902060100154811161108957336000908152600f602052604081208651600390910190829088908790811061103957611039614de5565b60200260200101516001600160a01b03166001600160a01b03168152602001908152602001600020600083815260200190815260200160002081905550808061108190614eb2565b915050610ff5565b5050600101610f13565b50600454600090612710906110ac9061ffff1688614ecb565b6110b69190614ef8565b9050600086116110d85760405162461bcd60e51b81526004016109c890614e3d565b6001600160a01b037f00000000000000000000000000000000000000000000000000000000000000001663a9059cbb33611112848a614f0c565b6040518363ffffffff1660e01b815260040161112f929190614dfb565b6020604051808303816000875af115801561114e573d6000803e3d6000fd5b505050506040513d601f19601f820116820180604052508101906111729190614e7e565b505050505050506111836001600055565b5050565b606080600060058054806020026020016040519081016040528092919081815260200182805480156111e257602002820191906000526020600020905b81546001600160a01b031681526001909101906020018083116111c4575b50505050509050600081516001600160401b0381111561120457611204614806565b60405190808252806020026020018201604052801561122d578160200160208202803683370190505b50905060005b8251811015611277576112528684838151811061087057610870614de5565b82828151811061126457611264614de5565b6020908102919091010152600101611233565b507f26784236629ddf6658746bfdfbc768fabc38620c54387ee41fdbe476606c9d598583836040516112ab93929190614f1f565b60405180910390a19094909350915050565b6003546112c981612f80565b6112e16000805160206157d483398151915283613494565b506040516001600160a01b038316907fcdd2e9b91a56913d370075169cefa1602ba36be5301664f752192bb1709df75790600090a25050565b60035461132681612f80565b6000611330613501565b905060008082806020019051810190611349919061503c565b9150915060005b825181101561142057600083828151811061136d5761136d614de5565b60200260200101519050806001600160a01b031663a9059cbb600460029054906101000a90046001600160a01b03168585815181106113ae576113ae614de5565b60200260200101516040518363ffffffff1660e01b81526004016113d3929190614dfb565b6020604051808303816000875af11580156113f2573d6000803e3d6000fd5b505050506040513d601f19601f820116820180604052508101906114169190614e7e565b5050600101611350565b5050505050565b60035461143381612f80565b61012c61ffff831611156114755760405162461bcd60e51b8152602060048201526009602482015268139bdd0815985b1a5960ba1b60448201526064016109c8565b506004805461ffff191661ffff92909216919091179055565b6000828152600260205260409020600101546114a981612f80565b6114b383836131c0565b50505050565b6001600160a01b0381166000908152600f6020908152604091829020600b0180548351818402810184019094528084526060939283018282801561152657602002820191906000526020600020905b81546001600160a01b03168152600190910190602001808311611508575b50505050509050919050565b6001600160a01b038116331461155b5760405163334bd91960e11b815260040160405180910390fd5b6115658282613494565b505050565b60035461157681612f80565b61012c60ff841611801590611590575061012c60ff831611155b6115dc5760405162461bcd60e51b815260206004820152601960248201527f4465706f73697420666565206d757374206265203c3d2033250000000000000060448201526064016109c8565b506013805460ff9283166101000261ffff199091169290931691909117919091179055565b60035461160d81612f80565b60005b8281101561167957600584848381811061162c5761162c614de5565b9050602002016020810190611641919061492d565b815460018082018455600093845260209093200180546001600160a01b0319166001600160a01b039290921691909117905501611610565b507f7d713019ad8a7d0879c2e785f8924ee9dd744ef744ec6b6d00391087054c5eb760056040516116aa91906150d9565b60405180910390a1505050565b600581815481106116c757600080fd5b6000918252602090912001546001600160a01b0316905081565b600781815481106116c757600080fd5b6060806000611714600460029054906101000a90046001600160a01b0316611187565b50905080516001600160401b0381111561173057611730614806565b604051908082528060200260200182016040528015611759578160200160208202803683370190505b50925080516001600160401b0381111561177557611775614806565b60405190808252806020026020018201604052801561179e578160200160208202803683370190505b50915060005b81518110156118bb576117cf8282815181106117c2576117c2614de5565b6020026020010151613637565b8382815181106117e1576117e1614de5565b6020026020010181815250508181815181106117ff576117ff614de5565b602002602001015184828151811061181957611819614de5565b60200260200101906001600160a01b031690816001600160a01b03168152505082818151811061184b5761184b614de5565b602002602001015160126000306001600160a01b03166001600160a01b03168152602001908152602001600020600401600084848151811061188f5761188f614de5565b6020908102919091018101516001600160a01b03168252810191909152604001600020556001016117a4565b50509091565b6118c9612f8a565b341561192457306001600160a01b031663f6326fb3346040518263ffffffff1660e01b81526004016000604051808303818588803b15801561190a57600080fd5b505af115801561191e573d6000803e3d6000fd5b50505050505b6040516370a0823160e01b815233600482015282907f00000000000000000000000000000000000000000000000000000000000000006001600160a01b0316906370a08231906024016020604051808303816000875af115801561198c573d6000803e3d6000fd5b505050506040513d601f19601f820116820180604052508101906119b09190614e99565b116119f65760405162461bcd60e51b8152602060048201526016602482015275131858dac81bd98819195c1bdcda5d08185b5bdd5b9d60521b60448201526064016109c8565b6040516323b872dd60e01b8152336004820152306024820152604481018390527f00000000000000000000000000000000000000000000000000000000000000006001600160a01b0316906323b872dd906064016020604051808303816000875af1158015611a69573d6000803e3d6000fd5b505050506040513d601f19601f82011682018060405250810190611a8d9190614e7e565b50341580611a9a57508134145b611ada5760405162461bcd60e51b815260206004820152601160248201527015dc9bdb99c8185b5bdd5b9d081cd95b9d607a1b60448201526064016109c8565b6000806000611ae884612fb0565b336000908152600f6020526040812060108101805495985093965091945090929190611b1383614eb2565b909155508690506000611b2582612de1565b905080836000016000856010015481526020019081526020016000206000828254611b509190614e2a565b9091555050600e8301829055610a628382887f00000000000000000000000000000000000000000000000000000000000000008989613757565b6000805160206157d4833981519152611ba281612f80565b611baa612f8a565b611bb2613254565b336000908152600f6020908152604080832060058054835181860281018601909452808452919493909190830182828015611c1657602002820191906000526020600020905b81546001600160a01b03168152600190910190602001808311611bf8575b505050505090506000805b8251811015611de9576000611c423385848151811061087057610870614de5565b905080600003611c525750611de1565b60045461271090611c679061ffff1683614ecb565b611c719190614ef8565b925060015b85601001548111611ceb576000866003016000878681518110611c9b57611c9b614de5565b60200260200101516001600160a01b03166001600160a01b031681526020019081526020016000206000838152602001908152602001600020819055508080611ce390614eb2565b915050611c76565b50838281518110611cfe57611cfe614de5565b60200260200101516001600160a01b031663a9059cbb338584611d219190614f0c565b6040518363ffffffff1660e01b8152600401611d3e929190614dfb565b6020604051808303816000875af1158015611d5d573d6000803e3d6000fd5b505050506040513d601f19601f82011682018060405250810190611d819190614e7e565b507f5a8b8a408d12238048a9febf3b2803b72102a8439110af59c063eb5efb963cc8848381518110611db557611db5614de5565b60200260200101518483611dc99190614f0c565b604051611dd7929190614dfb565b60405180910390a1505b600101611c21565b50505050611df76001600055565b50565b60009182526002602090815260408084206001600160a01b0393909316845291905290205460ff1690565b6000611e308261388b565b612710611e3d85856122b6565b611e479190614ecb565b611e519190614ef8565b9392505050565b600354611e6481612f80565b6001600160a01b0383166000908152600f60205260408120600b01546001600160401b03811115611e9757611e97614806565b604051908082528060200260200182016040528015611ec0578160200160208202803683370190505b50905060008151611ef1867f00000000000000000000000000000000000000000000000000000000000000006122b6565b611efb9190614ef8565b90506000806000611f0b87612fb0565b92509250925060005b8551811015610ebb576001600160a01b0389166000908152600f60205260409020611f639086867f00000000000000000000000000000000000000000000000000000000000000008787613757565b6001600160a01b0389166000908152600f60205260409020600b01805480611f8d57611f8d6150ec565b600082815260209020810160001990810180546001600160a01b0319169055019055600101611f14565b600354611fc381612f80565b60008080611fd085612fb0565b92505091506000611fdf613501565b905060008082806020019051810190611ff8919061503c565b9150915060005b82518110156120d857600082828151811061201c5761201c614de5565b6020026020010151905060008111156120cf576004546201000090046001600160a01b03166000908152600f6020526040812088516120bf919084908b908790811061206a5761206a614de5565b602002602001015188878151811061208457612084614de5565b60200260200101517f00000000000000000000000000000000000000000000000000000000000000008c8981518110610fc257610fc2614de5565b90506120cb818a614e2a565b9850505b50600101611fff565b50600086116120f95760405162461bcd60e51b81526004016109c890614e3d565b6004805460405163a9059cbb60e01b81526001600160a01b037f000000000000000000000000000000000000000000000000000000000000000081169363a9059cbb93610e789362010000909104909216918b9101614dfb565b60035461215f81612f80565b3060009081526012602052604081206001018990555b8681101561226c5783838281811061218f5761218f614de5565b9050602002013560126000306001600160a01b03166001600160a01b0316815260200190815260200160002060060160008a8a858181106121d2576121d2614de5565b90506020020160208101906121e7919061492d565b6001600160a01b0316815260208101919091526040016000205585858281811061221357612213614de5565b3060009081526012602090815260408083207f00000000000000000000000000000000000000000000000000000000000000006001600160a01b0316845260070182529091209102929092013590915550600101612175565b507ff69c120c9bdac65eed5fd4fb2356403e9185dd3cd88d7d3661316af3d6b5b5ba88888886866040516122a4959493929190615102565b60405180910390a15050505050505050565b6001600160a01b0382166000908152600f6020526040812060015b816010015481116123cc577f00000000000000000000000000000000000000000000000000000000000000006001600160a01b0316846001600160a01b0316036123355760008181526020839052604090205461232e9084614e2a565b9250612368565b6001600160a01b038416600090815260038301602090815260408083208484529091529020546123659084614e2a565b92505b604080516001600160a01b03808816825286166020820152908101829052606081018490527f777cfde1454a81e7691e17017cf22bcbfafe2ac50fcb7a3e55c8fec4df0aa8369060800160405180910390a1806123c481614eb2565b9150506122d1565b50604080516001600160a01b038087168252851660208201529081018390527f79d8fd5972edfe880f72cea137f4db05f170a97f8d77fef3f357a1da3f75e9f39060600160405180910390a15092915050565b6060600580548060200260200160405190810160405280929190818152602001828054801561247757602002820191906000526020600020905b81546001600160a01b03168152600190910190602001808311612459575b5050505050905090565b60008281526002602052604090206001015461249c81612f80565b6114b38383613494565b6003546124b281612f80565b3060009081526012602052604081208790555b84811015612559578383828181106124df576124df614de5565b9050602002013560126000306001600160a01b03166001600160a01b03168152602001908152602001600020600501600088888581811061252257612522614de5565b9050602002016020810190612537919061492d565b6001600160a01b031681526020810191909152604001600020556001016124c5565b507fb3f38411015d2860720d2457652810e1ebbb90f57a5e6bf56a2296f53e0e0b0a8686868686604051612591959493929190615102565b60405180910390a1505050505050565b6000805160206157d48339815191526125b981612f80565b6125c1612f8a565b6125c9613254565b336000818152600f60205260408120916125e390876122b6565b9050848110156126355760405162461bcd60e51b815260206004820152601a60248201527f496e73756666696369656e7420746f6b656e2062616c616e636500000000000060448201526064016109c8565b60405163a9059cbb60e01b81526001600160a01b0387169063a9059cbb906126639033908990600401614dfb565b6020604051808303816000875af1158015612682573d6000803e3d6000fd5b505050506040513d601f19601f820116820180604052508101906126a69190614e7e565b506001600160a01b03861660009081526003830160209081526040808320878452909152812080548792906126dc908490614f0c565b90915550506001600160a01b038616600081815260038401602090815260408083208884528252918290205482519384529083018490528282018890526060830152517f530796677cf45a1d5bbe24a3dc7f9696fee24a5d8e181bd974d066bc7fc936219181900360800190a150506114b36001600055565b60405134815233907ff61343035c632e243deee876d170a0d52c510288cdea23c132a775ff2cfdda159060200160405180910390a2600034116127cf5760405162461bcd60e51b815260206004820152601260248201527109aeae6e840e6cadcc840e6dedaca408aa8960731b60448201526064016109c8565b7f00000000000000000000000000000000000000000000000000000000000000006001600160a01b031663d0e30db0346040518263ffffffff1660e01b81526004016000604051808303818588803b15801561282a57600080fd5b505af115801561283e573d6000803e3d6000fd5b505060405163a9059cbb60e01b8152600093506001600160a01b037f000000000000000000000000000000000000000000000000000000000000000016925063a9059cbb91506128949033903490600401614dfb565b6020604051808303816000875af11580156128b3573d6000803e3d6000fd5b505050506040513d601f19601f820116820180604052508101906128d79190614e7e565b905080611df75760405162461bcd60e51b815260206004820152601460248201527315d15512081d1c985b9cd9995c8819985a5b195960621b60448201526064016109c8565b60035461292981612f80565b600080600061293785612fb0565b9250925092506000806005805490506001600160401b0381111561295d5761295d614806565b604051908082528060200260200182016040528015612986578160200160208202803683370190505b50905060005b600554811015612ace576000600582815481106129ab576129ab614de5565b6000918252602090912001546040516370a0823160e01b81523060048201526001600160a01b03909116906370a0823190602401602060405180830381865afa1580156129fc573d6000803e3d6000fd5b505050506040513d601f19601f82011682018060405250810190612a209190614e99565b90506000612a7760058481548110612a3a57612a3a614de5565b9060005260206000200160009054906101000a90046001600160a01b0316898581518110612a6a57612a6a614de5565b60200260200101516138f6565b9050612a838183614ecb565b848481518110612a9557612a95614de5565b602002602001018181525050838381518110612ab357612ab3614de5565b6020026020010151850194505050808060010191505061298c565b50600554600090612adf9084614ef8565b6005549091506000906001600160401b03811115612aff57612aff614806565b604051908082528060200260200182016040528015612b28578160200160208202803683370190505b50905060005b8151811015612b8a577f0000000000000000000000000000000000000000000000000000000000000000828281518110612b6a57612b6a614de5565b6001600160a01b0390921660209283029190910190910152600101612b2e565b5060005b600554811015612da25782848281518110612bab57612bab614de5565b60200260200101511115612c9657600083858381518110612bce57612bce614de5565b6020026020010151612be09190614f0c565b90506000612c2a60058481548110612bfa57612bfa614de5565b9060005260206000200160009054906101000a90046001600160a01b03168b8581518110612a6a57612a6a614de5565b612c349083614ef8565b6004546201000090046001600160a01b03166000908152600f6020526040902060058054929350612c8f9284918e9188908110612c7357612c73614de5565b6000918252602090912001546001600160a01b0316888d613757565b5050612d9a565b6000848281518110612caa57612caa614de5565b602002602001015184612cbd9190614f0c565b90506000612cd760058481548110612bfa57612bfa614de5565b612ce19083614ef8565b6004546201000090046001600160a01b03166000908152600f602052604090208b51919250612d979183908d9087908110612d1e57612d1e614de5565b60200260200101517f000000000000000000000000000000000000000000000000000000000000000060058881548110612d5a57612d5a614de5565b9060005260206000200160009054906101000a90046001600160a01b03168d8981518110612d8a57612d8a614de5565b6020026020010151613a04565b50505b600101612b8e565b506040514281527fc306af072396b02bf3a9782c10065cc7ff4aa842934a43f0b76f997b291237c89060200160405180910390a1505050505050505050565b600454600090829082906201000090046001600160a01b03163303612e04575060005b612e0d82613a2b565b6004546201000090046001600160a01b03166000908152600a6020526040812080549293508392909190612e42908490614e2a565b90915550506004805460405163a9059cbb60e01b81526001600160a01b037f000000000000000000000000000000000000000000000000000000000000000081169363a9059cbb93612ea1936201000090910490921691869101614dfb565b6020604051808303816000875af1158015612ec0573d6000803e3d6000fd5b505050506040513d601f19601f82011682018060405250810190612ee49190614e7e565b50600454604051828152620100009091046001600160a01b0316907fbb527541f6cc244ae00ab689f8c23d072a30a3b4176021df62ea1c2bac8aa2269060200160405180910390a2612f368183614f0c565b949350505050565b600354612f4a81612f80565b60005b825181101561156557612f78838281518110612f6b57612f6b614de5565b6020026020010151613a4d565b600101612f4d565b611df78133613b0d565b60015460ff1615612fae5760405163d93c066560e01b815260040160405180910390fd5b565b606080606083806020019051810190612fc99190615188565b815183519396509194509250148015612fe3575080518251145b6130285760405162461bcd60e51b8152602060048201526016602482015275082e4e4c2f240d8cadccee8d0e640dad2e6dac2e8c6d60531b60448201526064016109c8565b9193909250565b6001600160a01b038085166000908152600387016020908152604080832060108a015484529091528120546004549192909183916130749162010000900416886122b6565b821161309b57600454613096906201000090046001600160a01b0316886122b6565b61309d565b815b90506130ad8882878a8a8961327e565b98975050505050505050565b6001600160a01b0382166000908152600f60205260408120905b81601001548110156114b3576001600160a01b03831660009081526003830160209081526040808320601086015484529091528120556001016130d3565b6001600160a01b0381166000908152600e602052604090205460ff16611df7576007805460018082019092557fa66cc928b5edb82af9bd49922954155ab7b0942694bea4ce44661d9a8736c6880180546001600160a01b0319166001600160a01b0384169081179091556000818152600e6020526040808220805460ff1916909417909355915190917f19ef9a4877199f89440a26acb26895ec02ed86f2df1aeaa90dc18041b892f71f91a250565b60006131cc8383611dfa565b61324c5760008381526002602090815260408083206001600160a01b03861684529091529020805460ff191660011790556132043390565b6001600160a01b0316826001600160a01b0316847f2f8788117e7eff1d82e926ec794901d17c78024a50270940304540a733656f0d60405160405180910390a45060016107a9565b5060006107a9565b60026000540361327757604051633ee5aeb560e01b815260040160405180910390fd5b6002600055565b6040805160028082526060820183526000928392919060208301908036833701905050905084816000815181106132b7576132b7614de5565b60200260200101906001600160a01b031690816001600160a01b03168152505083816001815181106132eb576132eb614de5565b6001600160a01b039290921660209283029190910182015260408051600280825260608201835260009391929091830190803683370190505090506000846134005760405163d06ca61f60e01b815273edf6066a2b290c185783862c7f4776a2c8077ad19063d06ca61f90613366908c908790600401615289565b600060405180830381865afa158015613383573d6000803e3d6000fd5b505050506040513d6000823e601f3d908101601f191682016040526133ab91908101906152a2565b91506000826001815181106133c2576133c2614de5565b6020026020010151116133d65760006133f9565b6133f9826001815181106133ec576133ec614de5565b6020026020010151613b38565b905061345f565b600061340c898b613b57565b90507f119f109a4c45ef7659aebb9b22f1582c2470d883746aad95a1015ffa58ee3c278160405161343f91815260200190565b60405180910390a161345281600a613c04565b6001600160a01b03169150505b841561347d576134738a8a8a8a8a86613ca4565b935050505061348a565b6134738a8a898985613fcb565b9695505050505050565b60006134a08383611dfa565b1561324c5760008381526002602090815260408083206001600160a01b0386168085529252808320805460ff1916905551339286917ff6391f5c32d9c69d2a47ea670b442974b53935d1edc7fd64eb21e047a839171b9190a45060016107a9565b6005546060906000906001600160401b0381111561352157613521614806565b60405190808252806020026020018201604052801561354a578160200160208202803683370190505b50905060005b60055481101561360d5760006005828154811061356f5761356f614de5565b6000918252602090912001546040516370a0823160e01b81523060048201526001600160a01b03909116915081906370a0823190602401602060405180830381865afa1580156135c3573d6000803e3d6000fd5b505050506040513d601f19601f820116820180604052508101906135e79190614e99565b8383815181106135f9576135f9614de5565b602090810291909101015250600101613550565b506005816040516020016136229291906152d6565b60405160208183030381529060405291505090565b6000806000836001600160a01b031663313ce5676040518163ffffffff1660e01b8152600401602060405180830381865afa15801561367a573d6000803e3d6000fd5b505050506040513d601f19601f8201168201806040525081019061369e91906152e9565b6136a990600a6153ed565b6004549091506136c8906201000090046001600160a01b0316856122b6565b3060009081526012602090815260408083206001600160a01b0389168452600601909152812054919350908290613700908590614ecb565b61370a9190614ef8565b3060009081526012602052604090206001015490915061372d9061271090614ecb565b61373961271083614ecb565b613744906064614ecb565b61374e9190614ef8565b95945050505050565b60005b825181101561388257600082828151811061377757613777614de5565b602002602001015160ff16600314613790576000613793565b60015b90507f00000000000000000000000000000000000000000000000000000000000000006001600160a01b03168483815181106137d1576137d1614de5565b60200260200101516001600160a01b03161461383857613833888686518a6137f99190614ef8565b87868151811061380b5761380b614de5565b60200260200101518a878151811061382557613825614de5565b602002602001015186614469565b613879565b613877888686858151811061384f5761384f614de5565b602002602001015189868151811061386957613869614de5565b60200260200101518561302f565b505b5060010161375a565b50505050505050565b6040516370a0823160e01b81523060048201526000906001600160a01b038316906370a0823190602401602060405180830381865afa1580156138d2573d6000803e3d6000fd5b505050506040513d601f19601f820116820180604052508101906107a99190614e99565b6000806139038484614477565b9050600061392573c2132d05d31c914a87c6611c10748aeb04b58e8f85614477565b90506000856001600160a01b031663313ce5676040518163ffffffff1660e01b8152600401602060405180830381865afa158015613967573d6000803e3d6000fd5b505050506040513d601f19601f8201168201806040525081019061398b91906152e9565b905060126006600061399d84846153fc565b6139a890600a6153ed565b6139b29087614ecb565b905060006139c083856153fc565b6139cb90600a6153ed565b6139d59087614ecb565b90506139e284600a6153ed565b6139ec8284614ecb565b6139f69190614ef8565b9a9950505050505050505050565b60008160ff16600314613a18576000613a1b565b60015b9050610a6287878686898661470b565b60045460009061271090613a439061ffff1684614ecb565b6107a99190614ef8565b7f4c910b69fe65a61f7531b9c5042b2329ca7179c77290aa7e2eb3afa3c8511fd360058281548110613a8157613a81614de5565b600091825260209182902001546040516001600160a01b0390911681520160405180910390a1604051630f5a905960e11b8152600560048201526024810182905273__$da2c24a56e52dea748b2558a206372ffcf$__90631eb520b29060440160006040518083038186803b158015613af957600080fd5b505af4158015611420573d6000803e3d6000fd5b613b178282611dfa565b61118357808260405163e2517d3f60e01b81526004016109c8929190614dfb565b6000612710600854612710613b4d9190614f0c565b613a439084614ecb565b6000808390506000816001600160a01b0316633850c7bd6040518163ffffffff1660e01b815260040160e060405180830381865afa158015613b9d573d6000803e3d6000fd5b505050506040513d601f19601f82011682018060405250810190613bc19190615415565b50505050505090506000816001600160a01b0316826001600160a01b0316613be99190614ecb565b905080613bfa86600160c01b614ecb565b61348a9190614ef8565b6000806064613c138482614e2a565b613c1d9086614ecb565b613c279190614ef8565b905060006064613c378582614f0c565b613c419087614ecb565b613c4b9190614ef8565b90506000613c588361471b565b613c6690600160601b614ecb565b90506000613c738361471b565b613c8190600160601b614ecb565b90506002613c8f82846154b3565b613c9991906154d2565b979650505050505050565b600b860180546001810182556000918252602080832090910180546001600160a01b0319166001600160a01b038781169182179092556040805160c0810182528a8152898416948101948552808201928352878416606082019081528785166080830181815260a084019182529351635e6583af60e11b815292516004840152955185166024830152925184166044820152915183166064830152519091166084820152905160a4820152819073__$22f20692cfdb72c79fdb2b4b1018fecaf2$__9063bccb075e9060c401602060405180830381865af4925050508015613da9575060408051601f3d908101601f19168201909252613da691810190614e99565b60015b613e4357613db5615501565b806308c379a003613e0c5750613dc961551d565b80613dd45750613e0e565b336000805160206157b483398151915285613dee89614774565b84604051613dfe939291906155f0565b60405180910390a250613c99565b505b336000805160206157b483398151915284613e2888614774565b604051613e36929190615626565b60405180910390a2613c99565b809150856001600160a01b03166000805160206157f483398151915283604051613e8a9181526040602082018190526003908201526232353160e81b606082015260800190565b60405180910390a26001600160a01b038516600090815260078a016020908152604080832060108d015484529091528120549003613f10576001600160a01b038516600081815260038b016020908152604080832060108e01548452825280832086905592825260028c0190529081208054849290613f0a908490614e2a565b90915550505b337f9c6004e315787e1885bcde9008594c954fd1a11118bbff03456860197d43d4598984613f3d89614774565b604051613f4c93929190615674565b60405180910390a260108901546001600160a01b038616600081815260038c0160209081526040808320858452825291829020548251938452908301939093528101919091527f1bc2b3f820211226bc165290157d33d56732d91a35b705d34c3c343a735e24329060600160405180910390a150979650505050505050565b600b850180546001810182556000918252602080832090910180546001600160a01b0319166001600160a01b0387811691821790925560408051608081018252898152938401918252868316848201908152606085018781529151635cb0482d60e11b81529451600486015291518316602485015290519091166044830152516064820152819073__$22f20692cfdb72c79fdb2b4b1018fecaf2$__9063b960905a90608401600060405180830381865af49250505080156140af57506040513d6000823e601f3d908101601f191682016040526140ac91908101906152a2565b60015b614149576140bb615501565b806308c379a00361411257506140cf61551d565b806140da5750614114565b336000805160206157b4833981519152856140f489614774565b84604051614104939291906156b9565b60405180910390a25061348a565b505b336000805160206157b48339815191528461412e88614774565b60405161413c9291906156d2565b60405180910390a261348a565b8060018151811061415c5761415c614de5565b60200260200101519150856001600160a01b03166000805160206157f4833981519152856040516141aa9181526040602082018190526003908201526234373960e81b606082015260800190565b60405180910390a2856001600160a01b03166000805160206157f4833981519152826000815181106141de576141de614de5565b60200260200101516040516142109181526040602082018190526003908201526232373360e81b606082015260800190565b60405180910390a2856001600160a01b03166000805160206157f48339815191528260018151811061424457614244614de5565b6020026020010151604051614276918152604060208201819052600390820152620c8dcd60ea1b606082015260800190565b60405180910390a26001600160a01b0385166000908152600789016020908152604080832060108c0154845290915281205490036142fc576001600160a01b038516600081815260038a016020908152604080832060108d01548452825280832086905592825260028b01905290812080548492906142f6908490614e2a565b90915550505b337f9c6004e315787e1885bcde9008594c954fd1a11118bbff03456860197d43d459888461432989614774565b604051614338939291906156eb565b60405180910390a260108801546001600160a01b038616600081815260038b0160209081526040808320858452825291829020548251938452908301939093528101919091527f1bc2b3f820211226bc165290157d33d56732d91a35b705d34c3c343a735e24329060600160405180910390a16010880154736b175474e89094c44da98b954eedeac495271d0f600090815260038a01602090815260408083208484528252918290205482516001600160a01b038a1681529182019390935280820192909252517f1bc2b3f820211226bc165290157d33d56732d91a35b705d34c3c343a735e24329181900360600190a187600b0180548061443c5761443c6150ec565b600082815260209020810160001990810180546001600160a01b0319169055019055509695505050505050565b61388286858488878661327e565b60006001600160a01b0382161561453a5760008290506000816001600160a01b0316633850c7bd6040518163ffffffff1660e01b815260040160e060405180830381865afa1580156144cd573d6000803e3d6000fd5b505050506040513d601f19601f820116820180604052508101906144f19190615415565b5050505050509050600060c0826001600160a01b0316836001600160a01b031661451b9190614ecb565b61452d90670de0b6b3a7640000614ecb565b901c93506107a992505050565b6000836001600160a01b031663313ce5676040518163ffffffff1660e01b8152600401602060405180830381865afa15801561457a573d6000803e3d6000fd5b505050506040513d601f19601f8201168201806040525081019061459e91906152e9565b905060006145b060ff8316600a615730565b604080516002808252606082018352929350600092909160208301908036833701905050905085816000815181106145ea576145ea614de5565b60200260200101906001600160a01b031690816001600160a01b0316815250507f00000000000000000000000000000000000000000000000000000000000000008160018151811061463e5761463e614de5565b6001600160a01b03928316602091820292909201015260405163d06ca61f60e01b81526000917f0000000000000000000000000000000000000000000000000000000000000000169063d06ca61f9061469d9086908690600401615289565b600060405180830381865afa1580156146ba573d6000803e3d6000fd5b505050506040513d6000823e601f3d908101601f191682016040526146e291908101906152a2565b9050806001815181106146f7576146f7614de5565b602002602001015194505050505092915050565b6000613c9987878588888761327e565b600080600261472b846001614e2a565b6147359190614ef8565b90508291505b8181101561476e579050806002816147538186614ef8565b61475d9190614e2a565b6147679190614ef8565b905061473b565b50919050565b6060816001600160a01b03166395d89b416040518163ffffffff1660e01b8152600401600060405180830381865afa1580156147b4573d6000803e3d6000fd5b505050506040513d6000823e601f3d908101601f191682016040526107a9919081019061573c565b6000602082840312156147ee57600080fd5b81356001600160e01b031981168114611e5157600080fd5b634e487b7160e01b600052604160045260246000fd5b601f8201601f191681016001600160401b038111828210171561484157614841614806565b6040525050565b60006001600160401b0382111561486157614861614806565b50601f01601f191660200190565b600082601f83011261488057600080fd5b813561488b81614848565b604051614898828261481c565b8281528560208487010111156148ad57600080fd5b82602086016020830137600092810160200192909252509392505050565b6000602082840312156148dd57600080fd5b81356001600160401b038111156148f357600080fd5b612f368482850161486f565b60006020828403121561491157600080fd5b5035919050565b6001600160a01b0381168114611df757600080fd5b60006020828403121561493f57600080fd5b8135611e5181614918565b600081518084526020840193506020830160005b828110156149855781516001600160a01b031686526020958601959091019060010161495e565b5093949350505050565b600081518084526020840193506020830160005b828110156149855781518652602095860195909101906001016149a3565b6040815260006149d4604083018561494a565b828103602084015261374e818561498f565b61ffff81168114611df757600080fd5b600060208284031215614a0857600080fd5b8135611e51816149e6565b60008060408385031215614a2657600080fd5b823591506020830135614a3881614918565b809150509250929050565b602081526000611e51602083018461494a565b60ff81168114611df757600080fd5b60008060408385031215614a7857600080fd5b8235614a8381614a56565b91506020830135614a3881614a56565b60008083601f840112614aa557600080fd5b5081356001600160401b03811115614abc57600080fd5b6020830191508360208260051b8501011115614ad757600080fd5b9250929050565b60008060208385031215614af157600080fd5b82356001600160401b03811115614b0757600080fd5b614b1385828601614a93565b90969095509350505050565b60008060408385031215614b3257600080fd5b8235915060208301356001600160401b03811115614b4f57600080fd5b614b5b8582860161486f565b9150509250929050565b60008060408385031215614b7857600080fd5b8235614b8381614918565b91506020830135614a3881614918565b60008060408385031215614ba657600080fd5b8235614bb181614918565b915060208301356001600160401b03811115614b4f57600080fd5b60008060008060008060006080888a031215614be757600080fd5b8735965060208801356001600160401b03811115614c0457600080fd5b614c108a828b01614a93565b90975095505060408801356001600160401b03811115614c2f57600080fd5b614c3b8a828b01614a93565b90955093505060608801356001600160401b03811115614c5a57600080fd5b614c668a828b01614a93565b989b979a50959850939692959293505050565b600080600080600060608688031215614c9157600080fd5b8535945060208601356001600160401b03811115614cae57600080fd5b614cba88828901614a93565b90955093505060408601356001600160401b03811115614cd957600080fd5b614ce588828901614a93565b969995985093965092949392505050565b600080600060608486031215614d0b57600080fd5b8335614d1681614918565b95602085013595506040909401359392505050565b60006001600160401b03821115614d4457614d44614806565b5060051b60200190565b600060208284031215614d6057600080fd5b81356001600160401b03811115614d7657600080fd5b8201601f81018413614d8757600080fd5b8035614d9281614d2b565b604051614d9f828261481c565b80915082815260208101915060208360051b850101925086831115614dc357600080fd5b6020840193505b8284101561348a578335825260209384019390910190614dca565b634e487b7160e01b600052603260045260246000fd5b6001600160a01b03929092168252602082015260400190565b634e487b7160e01b600052601160045260246000fd5b808201808211156107a9576107a9614e14565b6020808252601290820152714e6f2045544820746f20776974686472617760701b604082015260600190565b80518015158114614e7957600080fd5b919050565b600060208284031215614e9057600080fd5b611e5182614e69565b600060208284031215614eab57600080fd5b5051919050565b600060018201614ec457614ec4614e14565b5060010190565b80820281158282048414176107a9576107a9614e14565b634e487b7160e01b600052601260045260246000fd5b600082614f0757614f07614ee2565b500490565b818103818111156107a9576107a9614e14565b6001600160a01b0384168152606060208201819052600090614f439083018561494a565b828103604084015261348a818561498f565b600082601f830112614f6657600080fd5b8151614f7181614d2b565b604051614f7e828261481c565b80915082815260208101915060208360051b860101925085831115614fa257600080fd5b602085015b83811015614fc8578051614fba81614918565b835260209283019201614fa7565b5095945050505050565b600082601f830112614fe357600080fd5b8151614fee81614d2b565b604051614ffb828261481c565b80915082815260208101915060208360051b86010192508583111561501f57600080fd5b602085015b83811015614fc8578051835260209283019201615024565b6000806040838503121561504f57600080fd5b82516001600160401b0381111561506557600080fd5b61507185828601614f55565b92505060208301516001600160401b0381111561508d57600080fd5b614b5b85828601614fd2565b6000815480845260208401935082600052602060002060005b828110156149855781546001600160a01b03168652602090950194600191820191016150b2565b602081526000611e516020830184615099565b634e487b7160e01b600052603160045260246000fd5b858152606060208201819052810184905260008560808301825b8781101561514c57823561512f81614918565b6001600160a01b031682526020928301929091019060010161511c565b5083810360408501528481526001600160fb1b0385111561516c57600080fd5b8460051b91508186602083013701602001979650505050505050565b60008060006060848603121561519d57600080fd5b83516001600160401b038111156151b357600080fd5b6151bf86828701614f55565b93505060208401516001600160401b038111156151db57600080fd5b6151e786828701614f55565b92505060408401516001600160401b0381111561520357600080fd5b8401601f8101861361521457600080fd5b805161521f81614d2b565b60405161522c828261481c565b80915082815260208101915060208360051b85010192508883111561525057600080fd5b6020840193505b8284101561527b57835161526a81614a56565b825260209384019390910190615257565b809450505050509250925092565b828152604060208201526000612f36604083018461494a565b6000602082840312156152b457600080fd5b81516001600160401b038111156152ca57600080fd5b612f3684828501614fd2565b6040815260006149d46040830185615099565b6000602082840312156152fb57600080fd5b8151611e5181614a56565b6001815b60018411156153415780850481111561532557615325614e14565b600184161561533357908102905b60019390931c92800261530a565b935093915050565b600082615358575060016107a9565b81615365575060006107a9565b816001811461537b5760028114615385576153a1565b60019150506107a9565b60ff84111561539657615396614e14565b50506001821b6107a9565b5060208310610133831016604e8410600b84101617156153c4575081810a6107a9565b6153d16000198484615306565b80600019048211156153e5576153e5614e14565b029392505050565b6000611e5160ff841683615349565b60ff82811682821603908111156107a9576107a9614e14565b600080600080600080600060e0888a03121561543057600080fd5b875161543b81614918565b8097505060208801518060020b811461545357600080fd5b6040890151909650615464816149e6565b6060890151909550615475816149e6565b6080890151909450615486816149e6565b60a089015190935061549781614a56565b91506154a560c08901614e69565b905092959891949750929550565b6001600160a01b0381811683821601908111156107a9576107a9614e14565b60006001600160a01b038316806154eb576154eb614ee2565b6001600160a01b03929092169190910492915050565b600060033d111561551a5760046000803e5060005160e01c5b90565b600060443d101561552b5790565b6040513d600319016004823e80513d60248201116001600160401b038211171561555457505090565b80820180516001600160401b0381111561556f575050505090565b3d8401600319018282016020011115615589575050505090565b6155986020828501018561481c565b509392505050565b60005b838110156155bb5781810151838201526020016155a3565b50506000910152565b600081518084526155dc8160208601602086016155a0565b601f01601f19169290920160200192915050565b6001600160a01b0384168152606060208201819052600090615614908301856155c4565b828103604084015261348a81856155c4565b6001600160a01b038316815260606020820181905260009061564a908301846155c4565b828103604084015261374e81600b81526a14ddd85c0819985a5b195960aa1b602082015260400190565b83815282602082015260806040820152600061569360808301846155c4565b82810360608401526002815261563360f01b602082015260408101915050949350505050565b83815260606020820152600061561460608301856155c4565b82815260606020820152600061564a60608301846155c4565b83815282602082015260806040820152600061570a60808301846155c4565b828103606084015260028152612b1960f11b602082015260408101915050949350505050565b6000611e518383615349565b60006020828403121561574e57600080fd5b81516001600160401b0381111561576457600080fd5b8201601f8101841361577557600080fd5b805161578081614848565b60405161578d828261481c565b8281528660208486010111156157a257600080fd5b61348a8360208301602087016155a056fed24517bb053209af5f1d6b05c7180d697782d89045c90b2885f8ac5f3d0e52e7679b4db551486bdc8b8c3d86cea88bd774cea7c203e4aa4e3b39b7bb5f64bc14d45e62304229506e33641fdf7497156ede5ecb77c835a95918d87007fca09e3fa26469706673582212200de03466ec458562f6a83d2aa5e9ad232e377d8c5c087481c9a95c2ad30b8d0664736f6c634300081a0033","linkReferences":{"src/UniSwap_pm5.sol":{"UniswapSwapLibrary":[{"start":16448,"length":20},{"start":17217,"length":20}]},"src/pm5.sol":{"ArrayElemenetRemover":[{"start":15793,"length":20}]}}},"methodIdentifiers":{"DEFAULT_ADMIN_ROLE()":"a217fddf","addCurrentValues(uint256,address[],uint256[],uint256[])":"b21e1990","addInitialValues(uint256,address[],uint256[])":"d8575ded","addTokens(address[])":"4ae05c7d","addWhitelisted(address)":"10154bad","adminWithdrawWholeFundTokens()":"2c30ad5b","adminWithdrawWholeFundWETH(bytes)":"a2ae2770","calcCurrentTokensShareOfPortfo()":"50cf643c","calcUserTokenShare(address,address)":"949b1818","checkSwapQueue(address)":"31038fbd","deposit(uint256,bytes)":"5d303519","depositETH()":"f6326fb3","doRebalance(bytes)":"fc228e6b","getFee(uint256)":"fcee45f4","getRoleAdmin(bytes32)":"248a9ca3","grantRole(bytes32,address)":"2f2ff15d","hasRole(bytes32,address)":"91d14854","liquidate(bytes)":"1721539b","paused()":"5c975abb","removeTokens(uint256[])":"ff59bcd0","removeWhitelisted(address)":"291d9549","renounceRole(bytes32,address)":"36568abe","revokeRole(bytes32,address)":"d547741f","setFeeData(uint8,uint8)":"3f5cc468","supportsInterface(bytes4)":"01ffc9a7","swapUserQueueBuy(address,bytes)":"99303e9d","tokens(uint256)":"4f64b2be","tokensList()":"bd5dc202","updateFee(uint16)":"2c6cda93","updateSlippageTolerance(uint256)":"0f9da743","userAddresses(uint256)":"502c9bd5","userTokenBalance(address,address)":"b47064c8","userTokensBalance(address)":"27cdd8f9","userWithdrawWholeFundWETH(bytes)":"238afe4b","users(address)":"a87430ba","usersReb(address)":"c2bc7a22","withdraw(bytes)":"0968f264","withdrawAllInKind()":"78d254b1","withdrawInKind(address,uint256,uint256)":"e9075b63"},"id":56}