{
  "abi": [
    {
      "type": "constructor",
      "inputs": [],
      "stateMutability": "nonpayable"
    },
    {
      "type": "fallback",
      "stateMutability": "payable"
    },
    {
      "type": "receive",
      "stateMutability": "payable"
    },
    {
      "type": "function",
      "name": "DEFAULT_ADMIN_ROLE",
      "inputs": [],
      "outputs": [
        {
          "name": "",
          "type": "bytes32",
          "internalType": "bytes32"
        }
      ],
      "stateMutability": "view"
    },
    {
      "type": "function",
      "name": "addTokens",
      "inputs": [
        {
          "name": "_tokens",
          "type": "address[]",
          "internalType": "address[]"
        }
      ],
      "outputs": [],
      "stateMutability": "nonpayable"
    },
    {
      "type": "function",
      "name": "addWhitelisted",
      "inputs": [
        {
          "name": "_user",
          "type": "address",
          "internalType": "address"
        }
      ],
      "outputs": [],
      "stateMutability": "nonpayable"
    },
    {
      "type": "function",
      "name": "adminWithdrawWholeFundTokens",
      "inputs": [],
      "outputs": [],
      "stateMutability": "nonpayable"
    },
    {
      "type": "function",
      "name": "adminWithdrawWholeFundWETH",
      "inputs": [
        {
          "name": "tokensData",
          "type": "bytes",
          "internalType": "bytes"
        }
      ],
      "outputs": [],
      "stateMutability": "nonpayable"
    },
    {
      "type": "function",
      "name": "calculateUserTotalValueInUSD",
      "inputs": [
        {
          "name": "_user",
          "type": "address",
          "internalType": "address"
        }
      ],
      "outputs": [
        {
          "name": "",
          "type": "uint256",
          "internalType": "uint256"
        }
      ],
      "stateMutability": "view"
    },
    {
      "type": "function",
      "name": "checkSwapQueue",
      "inputs": [
        {
          "name": "_user",
          "type": "address",
          "internalType": "address"
        }
      ],
      "outputs": [
        {
          "name": "",
          "type": "address[]",
          "internalType": "address[]"
        }
      ],
      "stateMutability": "view"
    },
    {
      "type": "function",
      "name": "checkUsersWithSwapQueue",
      "inputs": [],
      "outputs": [
        {
          "name": "_user",
          "type": "address[]",
          "internalType": "address[]"
        },
        {
          "name": "_swpQueue",
          "type": "address[]",
          "internalType": "address[]"
        }
      ],
      "stateMutability": "view"
    },
    {
      "type": "function",
      "name": "deposit",
      "inputs": [
        {
          "name": "wethAmount",
          "type": "uint256",
          "internalType": "uint256"
        },
        {
          "name": "tokensData",
          "type": "bytes",
          "internalType": "bytes"
        }
      ],
      "outputs": [],
      "stateMutability": "payable"
    },
    {
      "type": "function",
      "name": "depositRecoveryBalance",
      "inputs": [
        {
          "name": "wethAmount",
          "type": "uint256",
          "internalType": "uint256"
        }
      ],
      "outputs": [],
      "stateMutability": "payable"
    },
    {
      "type": "function",
      "name": "doRebalance",
      "inputs": [
        {
          "name": "tokensData",
          "type": "bytes",
          "internalType": "bytes"
        }
      ],
      "outputs": [],
      "stateMutability": "nonpayable"
    },
    {
      "type": "function",
      "name": "getRoleAdmin",
      "inputs": [
        {
          "name": "role",
          "type": "bytes32",
          "internalType": "bytes32"
        }
      ],
      "outputs": [
        {
          "name": "",
          "type": "bytes32",
          "internalType": "bytes32"
        }
      ],
      "stateMutability": "view"
    },
    {
      "type": "function",
      "name": "getUserPortfolioShare",
      "inputs": [
        {
          "name": "user",
          "type": "address",
          "internalType": "address"
        }
      ],
      "outputs": [
        {
          "name": "",
          "type": "uint256",
          "internalType": "uint256"
        }
      ],
      "stateMutability": "view"
    },
    {
      "type": "function",
      "name": "getUserTokenShare",
      "inputs": [
        {
          "name": "_user",
          "type": "address",
          "internalType": "address"
        },
        {
          "name": "_token",
          "type": "address",
          "internalType": "address"
        }
      ],
      "outputs": [
        {
          "name": "",
          "type": "uint256",
          "internalType": "uint256"
        }
      ],
      "stateMutability": "view"
    },
    {
      "type": "function",
      "name": "getUserTokenTotalValueInUSDC",
      "inputs": [
        {
          "name": "_user",
          "type": "address",
          "internalType": "address"
        },
        {
          "name": "_token",
          "type": "address",
          "internalType": "address"
        }
      ],
      "outputs": [
        {
          "name": "",
          "type": "uint256",
          "internalType": "uint256"
        }
      ],
      "stateMutability": "view"
    },
    {
      "type": "function",
      "name": "grantRole",
      "inputs": [
        {
          "name": "role",
          "type": "bytes32",
          "internalType": "bytes32"
        },
        {
          "name": "account",
          "type": "address",
          "internalType": "address"
        }
      ],
      "outputs": [],
      "stateMutability": "nonpayable"
    },
    {
      "type": "function",
      "name": "hasRole",
      "inputs": [
        {
          "name": "role",
          "type": "bytes32",
          "internalType": "bytes32"
        },
        {
          "name": "account",
          "type": "address",
          "internalType": "address"
        }
      ],
      "outputs": [
        {
          "name": "",
          "type": "bool",
          "internalType": "bool"
        }
      ],
      "stateMutability": "view"
    },
    {
      "type": "function",
      "name": "needToRebalance",
      "inputs": [
        {
          "name": "tokensData",
          "type": "bytes",
          "internalType": "bytes"
        }
      ],
      "outputs": [
        {
          "name": "need",
          "type": "bool",
          "internalType": "bool"
        }
      ],
      "stateMutability": "nonpayable"
    },
    {
      "type": "function",
      "name": "pauseOrUnpause",
      "inputs": [
        {
          "name": "_pState",
          "type": "bool",
          "internalType": "bool"
        }
      ],
      "outputs": [],
      "stateMutability": "nonpayable"
    },
    {
      "type": "function",
      "name": "paused",
      "inputs": [],
      "outputs": [
        {
          "name": "",
          "type": "bool",
          "internalType": "bool"
        }
      ],
      "stateMutability": "view"
    },
    {
      "type": "function",
      "name": "removeToken",
      "inputs": [
        {
          "name": "_index",
          "type": "uint256",
          "internalType": "uint256"
        }
      ],
      "outputs": [],
      "stateMutability": "nonpayable"
    },
    {
      "type": "function",
      "name": "removeWhitelisted",
      "inputs": [
        {
          "name": "_user",
          "type": "address",
          "internalType": "address"
        }
      ],
      "outputs": [],
      "stateMutability": "nonpayable"
    },
    {
      "type": "function",
      "name": "renounceRole",
      "inputs": [
        {
          "name": "role",
          "type": "bytes32",
          "internalType": "bytes32"
        },
        {
          "name": "callerConfirmation",
          "type": "address",
          "internalType": "address"
        }
      ],
      "outputs": [],
      "stateMutability": "nonpayable"
    },
    {
      "type": "function",
      "name": "revokeRole",
      "inputs": [
        {
          "name": "role",
          "type": "bytes32",
          "internalType": "bytes32"
        },
        {
          "name": "account",
          "type": "address",
          "internalType": "address"
        }
      ],
      "outputs": [],
      "stateMutability": "nonpayable"
    },
    {
      "type": "function",
      "name": "setFeeData",
      "inputs": [
        {
          "name": "depositFee",
          "type": "uint8",
          "internalType": "uint8"
        },
        {
          "name": "WithdrawFee",
          "type": "uint8",
          "internalType": "uint8"
        }
      ],
      "outputs": [],
      "stateMutability": "nonpayable"
    },
    {
      "type": "function",
      "name": "supportsInterface",
      "inputs": [
        {
          "name": "interfaceId",
          "type": "bytes4",
          "internalType": "bytes4"
        }
      ],
      "outputs": [
        {
          "name": "",
          "type": "bool",
          "internalType": "bool"
        }
      ],
      "stateMutability": "view"
    },
    {
      "type": "function",
      "name": "swapUserQueueBuy",
      "inputs": [
        {
          "name": "_user",
          "type": "address",
          "internalType": "address"
        },
        {
          "name": "tokensData",
          "type": "bytes",
          "internalType": "bytes"
        }
      ],
      "outputs": [],
      "stateMutability": "nonpayable"
    },
    {
      "type": "function",
      "name": "tokensList",
      "inputs": [],
      "outputs": [
        {
          "name": "",
          "type": "address[]",
          "internalType": "address[]"
        }
      ],
      "stateMutability": "view"
    },
    {
      "type": "function",
      "name": "updateSlippageTolerance",
      "inputs": [
        {
          "name": "_slippageTolerance",
          "type": "uint256",
          "internalType": "uint256"
        }
      ],
      "outputs": [],
      "stateMutability": "nonpayable"
    },
    {
      "type": "function",
      "name": "userTokensBalance",
      "inputs": [
        {
          "name": "_user",
          "type": "address",
          "internalType": "address"
        }
      ],
      "outputs": [
        {
          "name": "",
          "type": "address[]",
          "internalType": "address[]"
        },
        {
          "name": "",
          "type": "uint256[]",
          "internalType": "uint256[]"
        }
      ],
      "stateMutability": "view"
    },
    {
      "type": "function",
      "name": "userWithdrawWholeFundWETH",
      "inputs": [
        {
          "name": "tokensData",
          "type": "bytes",
          "internalType": "bytes"
        },
        {
          "name": "percentage",
          "type": "uint256",
          "internalType": "uint256"
        }
      ],
      "outputs": [],
      "stateMutability": "nonpayable"
    },
    {
      "type": "function",
      "name": "users",
      "inputs": [
        {
          "name": "",
          "type": "address",
          "internalType": "address"
        }
      ],
      "outputs": [
        {
          "name": "tSharePortfo",
          "type": "uint256",
          "internalType": "uint256"
        },
        {
          "name": "wethValueFirst",
          "type": "uint256",
          "internalType": "uint256"
        },
        {
          "name": "usdtValueFirst",
          "type": "uint256",
          "internalType": "uint256"
        },
        {
          "name": "round",
          "type": "uint256",
          "internalType": "uint256"
        }
      ],
      "stateMutability": "view"
    },
    {
      "type": "function",
      "name": "usersList",
      "inputs": [],
      "outputs": [
        {
          "name": "",
          "type": "address[]",
          "internalType": "address[]"
        }
      ],
      "stateMutability": "view"
    },
    {
      "type": "function",
      "name": "withdrawAccumulatedFees",
      "inputs": [],
      "outputs": [],
      "stateMutability": "nonpayable"
    },
    {
      "type": "function",
      "name": "withdrawAllInKind",
      "inputs": [],
      "outputs": [],
      "stateMutability": "nonpayable"
    },
    {
      "type": "function",
      "name": "withdrawETH",
      "inputs": [],
      "outputs": [],
      "stateMutability": "nonpayable"
    },
    {
      "type": "event",
      "name": "AMTout",
      "inputs": [
        {
          "name": "amtOut",
          "type": "uint256",
          "indexed": false,
          "internalType": "uint256"
        }
      ],
      "anonymous": false
    },
    {
      "type": "event",
      "name": "Balance",
      "inputs": [
        {
          "name": "sender",
          "type": "address",
          "indexed": false,
          "internalType": "address"
        },
        {
          "name": "bal",
          "type": "uint256",
          "indexed": false,
          "internalType": "uint256"
        }
      ],
      "anonymous": false
    },
    {
      "type": "event",
      "name": "CurrentValuesSet",
      "inputs": [
        {
          "name": "currentUSD",
          "type": "uint256",
          "indexed": false,
          "internalType": "uint256"
        },
        {
          "name": "tokens",
          "type": "address[]",
          "indexed": false,
          "internalType": "address[]"
        },
        {
          "name": "tUSD",
          "type": "uint256[]",
          "indexed": false,
          "internalType": "uint256[]"
        }
      ],
      "anonymous": false
    },
    {
      "type": "event",
      "name": "DepositReceived",
      "inputs": [
        {
          "name": "user",
          "type": "address",
          "indexed": true,
          "internalType": "address"
        },
        {
          "name": "amount",
          "type": "uint256",
          "indexed": false,
          "internalType": "uint256"
        }
      ],
      "anonymous": false
    },
    {
      "type": "event",
      "name": "FeeReceived",
      "inputs": [
        {
          "name": "owner",
          "type": "address",
          "indexed": true,
          "internalType": "address"
        },
        {
          "name": "amount",
          "type": "uint256",
          "indexed": false,
          "internalType": "uint256"
        }
      ],
      "anonymous": false
    },
    {
      "type": "event",
      "name": "FeesWithdrawn",
      "inputs": [
        {
          "name": "owner",
          "type": "address",
          "indexed": true,
          "internalType": "address"
        },
        {
          "name": "amount",
          "type": "uint256",
          "indexed": false,
          "internalType": "uint256"
        },
        {
          "name": "tokenType",
          "type": "string",
          "indexed": false,
          "internalType": "string"
        }
      ],
      "anonymous": false
    },
    {
      "type": "event",
      "name": "FundsRecieved",
      "inputs": [
        {
          "name": "sender",
          "type": "address",
          "indexed": true,
          "internalType": "address"
        },
        {
          "name": "ethAmount",
          "type": "uint256",
          "indexed": false,
          "internalType": "uint256"
        }
      ],
      "anonymous": false
    },
    {
      "type": "event",
      "name": "InitValuesSet",
      "inputs": [
        {
          "name": "initUSD",
          "type": "uint256",
          "indexed": false,
          "internalType": "uint256"
        },
        {
          "name": "tokens",
          "type": "address[]",
          "indexed": false,
          "internalType": "address[]"
        },
        {
          "name": "tUSD",
          "type": "uint256[]",
          "indexed": false,
          "internalType": "uint256[]"
        }
      ],
      "anonymous": false
    },
    {
      "type": "event",
      "name": "PRICE",
      "inputs": [
        {
          "name": "price",
          "type": "uint256",
          "indexed": false,
          "internalType": "uint256"
        }
      ],
      "anonymous": false
    },
    {
      "type": "event",
      "name": "Paused",
      "inputs": [
        {
          "name": "account",
          "type": "address",
          "indexed": false,
          "internalType": "address"
        }
      ],
      "anonymous": false
    },
    {
      "type": "event",
      "name": "Pool",
      "inputs": [
        {
          "name": "pool",
          "type": "address",
          "indexed": false,
          "internalType": "address"
        }
      ],
      "anonymous": false
    },
    {
      "type": "event",
      "name": "PortfoTokenBalances",
      "inputs": [
        {
          "name": "daiCount",
          "type": "uint256",
          "indexed": false,
          "internalType": "uint256"
        }
      ],
      "anonymous": false
    },
    {
      "type": "event",
      "name": "PortfoTokenInitialUSDTPrices",
      "inputs": [
        {
          "name": "daiInitialUsdtPrice",
          "type": "uint256",
          "indexed": false,
          "internalType": "uint256"
        }
      ],
      "anonymous": false
    },
    {
      "type": "event",
      "name": "PortfoTokenPricesETH",
      "inputs": [
        {
          "name": "daiETHPrice",
          "type": "uint256",
          "indexed": false,
          "internalType": "uint256"
        }
      ],
      "anonymous": false
    },
    {
      "type": "event",
      "name": "Rebalanced",
      "inputs": [
        {
          "name": "OccureTime",
          "type": "uint256",
          "indexed": false,
          "internalType": "uint256"
        }
      ],
      "anonymous": false
    },
    {
      "type": "event",
      "name": "RemovedFromWhitelist",
      "inputs": [
        {
          "name": "account",
          "type": "address",
          "indexed": true,
          "internalType": "address"
        }
      ],
      "anonymous": false
    },
    {
      "type": "event",
      "name": "RoleAdminChanged",
      "inputs": [
        {
          "name": "role",
          "type": "bytes32",
          "indexed": true,
          "internalType": "bytes32"
        },
        {
          "name": "previousAdminRole",
          "type": "bytes32",
          "indexed": true,
          "internalType": "bytes32"
        },
        {
          "name": "newAdminRole",
          "type": "bytes32",
          "indexed": true,
          "internalType": "bytes32"
        }
      ],
      "anonymous": false
    },
    {
      "type": "event",
      "name": "RoleGranted",
      "inputs": [
        {
          "name": "role",
          "type": "bytes32",
          "indexed": true,
          "internalType": "bytes32"
        },
        {
          "name": "account",
          "type": "address",
          "indexed": true,
          "internalType": "address"
        },
        {
          "name": "sender",
          "type": "address",
          "indexed": true,
          "internalType": "address"
        }
      ],
      "anonymous": false
    },
    {
      "type": "event",
      "name": "RoleRevoked",
      "inputs": [
        {
          "name": "role",
          "type": "bytes32",
          "indexed": true,
          "internalType": "bytes32"
        },
        {
          "name": "account",
          "type": "address",
          "indexed": true,
          "internalType": "address"
        },
        {
          "name": "sender",
          "type": "address",
          "indexed": true,
          "internalType": "address"
        }
      ],
      "anonymous": false
    },
    {
      "type": "event",
      "name": "SQRTPriceX",
      "inputs": [
        {
          "name": "SQRT",
          "type": "uint256",
          "indexed": false,
          "internalType": "uint256"
        }
      ],
      "anonymous": false
    },
    {
      "type": "event",
      "name": "ShowDepositedTokensData",
      "inputs": [
        {
          "name": "tokenIn",
          "type": "address[]",
          "indexed": false,
          "internalType": "address[]"
        },
        {
          "name": "tokenOut",
          "type": "address[]",
          "indexed": false,
          "internalType": "address[]"
        }
      ],
      "anonymous": false
    },
    {
      "type": "event",
      "name": "ShowTokensDataEvent",
      "inputs": [
        {
          "name": "pool",
          "type": "address[]",
          "indexed": false,
          "internalType": "address[]"
        },
        {
          "name": "uniV",
          "type": "uint8[]",
          "indexed": false,
          "internalType": "uint8[]"
        }
      ],
      "anonymous": false
    },
    {
      "type": "event",
      "name": "SwapFailed",
      "inputs": [
        {
          "name": "user",
          "type": "address",
          "indexed": true,
          "internalType": "address"
        },
        {
          "name": "amount",
          "type": "uint256",
          "indexed": false,
          "internalType": "uint256"
        },
        {
          "name": "tokenName",
          "type": "string",
          "indexed": false,
          "internalType": "string"
        },
        {
          "name": "reason",
          "type": "string",
          "indexed": false,
          "internalType": "string"
        }
      ],
      "anonymous": false
    },
    {
      "type": "event",
      "name": "SwapSuccessful",
      "inputs": [
        {
          "name": "user",
          "type": "address",
          "indexed": true,
          "internalType": "address"
        },
        {
          "name": "wethAmountPerToken",
          "type": "uint256",
          "indexed": false,
          "internalType": "uint256"
        },
        {
          "name": "receivedTokenAmount",
          "type": "int256",
          "indexed": false,
          "internalType": "int256"
        },
        {
          "name": "tokenName",
          "type": "string",
          "indexed": false,
          "internalType": "string"
        },
        {
          "name": "uniswapV",
          "type": "string",
          "indexed": false,
          "internalType": "string"
        }
      ],
      "anonymous": false
    },
    {
      "type": "event",
      "name": "TOTALETH",
      "inputs": [
        {
          "name": "Total",
          "type": "uint256",
          "indexed": false,
          "internalType": "uint256"
        },
        {
          "name": "admin",
          "type": "address",
          "indexed": false,
          "internalType": "address"
        },
        {
          "name": "ContractBalance",
          "type": "uint256",
          "indexed": false,
          "internalType": "uint256"
        }
      ],
      "anonymous": false
    },
    {
      "type": "event",
      "name": "TokenData",
      "inputs": [
        {
          "name": "route",
          "type": "address",
          "indexed": false,
          "internalType": "address"
        },
        {
          "name": "tokenOut",
          "type": "address",
          "indexed": false,
          "internalType": "address"
        },
        {
          "name": "usdVal",
          "type": "uint256",
          "indexed": false,
          "internalType": "uint256"
        },
        {
          "name": "wethVal",
          "type": "uint256",
          "indexed": false,
          "internalType": "uint256"
        },
        {
          "name": "uniV",
          "type": "uint8",
          "indexed": false,
          "internalType": "uint8"
        }
      ],
      "anonymous": false
    },
    {
      "type": "event",
      "name": "TokenDataBytes",
      "inputs": [
        {
          "name": "tokenData",
          "type": "bytes",
          "indexed": false,
          "internalType": "bytes"
        }
      ],
      "anonymous": false
    },
    {
      "type": "event",
      "name": "TokenRemoved",
      "inputs": [
        {
          "name": "tokens",
          "type": "address",
          "indexed": false,
          "internalType": "address"
        }
      ],
      "anonymous": false
    },
    {
      "type": "event",
      "name": "TokenSharesUpdated",
      "inputs": [
        {
          "name": "status",
          "type": "bool",
          "indexed": false,
          "internalType": "bool"
        }
      ],
      "anonymous": false
    },
    {
      "type": "event",
      "name": "TokensAdded",
      "inputs": [
        {
          "name": "addedTokens",
          "type": "address[]",
          "indexed": false,
          "internalType": "address[]"
        }
      ],
      "anonymous": false
    },
    {
      "type": "event",
      "name": "TokensList",
      "inputs": [
        {
          "name": "list",
          "type": "address[]",
          "indexed": false,
          "internalType": "address[]"
        }
      ],
      "anonymous": false
    },
    {
      "type": "event",
      "name": "TokensWithdrawAllInKindEvent",
      "inputs": [
        {
          "name": "token",
          "type": "address",
          "indexed": false,
          "internalType": "address"
        },
        {
          "name": "bal",
          "type": "uint256",
          "indexed": false,
          "internalType": "uint256"
        }
      ],
      "anonymous": false
    },
    {
      "type": "event",
      "name": "Unpaused",
      "inputs": [
        {
          "name": "account",
          "type": "address",
          "indexed": false,
          "internalType": "address"
        }
      ],
      "anonymous": false
    },
    {
      "type": "event",
      "name": "UserAdded",
      "inputs": [
        {
          "name": "user",
          "type": "address",
          "indexed": true,
          "internalType": "address"
        }
      ],
      "anonymous": false
    },
    {
      "type": "event",
      "name": "UserTokenBalance",
      "inputs": [
        {
          "name": "token",
          "type": "address",
          "indexed": false,
          "internalType": "address"
        },
        {
          "name": "round",
          "type": "uint256",
          "indexed": false,
          "internalType": "uint256"
        },
        {
          "name": "tokenbalance",
          "type": "uint256",
          "indexed": false,
          "internalType": "uint256"
        }
      ],
      "anonymous": false
    },
    {
      "type": "event",
      "name": "UserTokenBalance",
      "inputs": [
        {
          "name": "user",
          "type": "address",
          "indexed": false,
          "internalType": "address"
        },
        {
          "name": "token",
          "type": "address",
          "indexed": false,
          "internalType": "address"
        },
        {
          "name": "userTokenBalance",
          "type": "uint256",
          "indexed": false,
          "internalType": "uint256"
        }
      ],
      "anonymous": false
    },
    {
      "type": "event",
      "name": "UserTokenBalanceRound",
      "inputs": [
        {
          "name": "user",
          "type": "address",
          "indexed": false,
          "internalType": "address"
        },
        {
          "name": "token",
          "type": "address",
          "indexed": false,
          "internalType": "address"
        },
        {
          "name": "round",
          "type": "uint256",
          "indexed": false,
          "internalType": "uint256"
        },
        {
          "name": "userTokenBalance",
          "type": "uint256",
          "indexed": false,
          "internalType": "uint256"
        }
      ],
      "anonymous": false
    },
    {
      "type": "event",
      "name": "UserTokensBalance",
      "inputs": [
        {
          "name": "user",
          "type": "address",
          "indexed": false,
          "internalType": "address"
        },
        {
          "name": "tokens",
          "type": "address[]",
          "indexed": false,
          "internalType": "address[]"
        },
        {
          "name": "userTokensBalance",
          "type": "uint256[]",
          "indexed": false,
          "internalType": "uint256[]"
        }
      ],
      "anonymous": false
    },
    {
      "type": "event",
      "name": "UserWhitelisted",
      "inputs": [
        {
          "name": "account",
          "type": "address",
          "indexed": true,
          "internalType": "address"
        }
      ],
      "anonymous": false
    },
    {
      "type": "event",
      "name": "V3ETH",
      "inputs": [
        {
          "name": "isV3",
          "type": "bool",
          "indexed": false,
          "internalType": "bool"
        }
      ],
      "anonymous": false
    },
    {
      "type": "event",
      "name": "WETHVALUE",
      "inputs": [
        {
          "name": "wethVal",
          "type": "uint256",
          "indexed": false,
          "internalType": "uint256"
        }
      ],
      "anonymous": false
    },
    {
      "type": "event",
      "name": "WethBalanceAdmin",
      "inputs": [
        {
          "name": "wethBalance",
          "type": "uint256",
          "indexed": false,
          "internalType": "uint256"
        },
        {
          "name": "admin",
          "type": "address",
          "indexed": false,
          "internalType": "address"
        }
      ],
      "anonymous": false
    },
    {
      "type": "event",
      "name": "WithdrawEvent",
      "inputs": [
        {
          "name": "user",
          "type": "address",
          "indexed": false,
          "internalType": "address"
        },
        {
          "name": "withAmt",
          "type": "int256",
          "indexed": false,
          "internalType": "int256"
        }
      ],
      "anonymous": false
    },
    {
      "type": "event",
      "name": "WithdrawEvent",
      "inputs": [
        {
          "name": "token",
          "type": "address",
          "indexed": false,
          "internalType": "address"
        },
        {
          "name": "withAmt",
          "type": "uint256",
          "indexed": false,
          "internalType": "uint256"
        }
      ],
      "anonymous": false
    },
    {
      "type": "event",
      "name": "handleSwapEvent",
      "inputs": [
        {
          "name": "amount",
          "type": "uint256",
          "indexed": false,
          "internalType": "uint256"
        },
        {
          "name": "tokenIn",
          "type": "address",
          "indexed": false,
          "internalType": "address"
        },
        {
          "name": "tokenOut",
          "type": "address",
          "indexed": false,
          "internalType": "address"
        },
        {
          "name": "minAmtOut",
          "type": "uint256",
          "indexed": false,
          "internalType": "uint256"
        }
      ],
      "anonymous": false
    },
    {
      "type": "event",
      "name": "handleSwapEventAmtOut",
      "inputs": [
        {
          "name": "minAmtOut",
          "type": "uint256[]",
          "indexed": false,
          "internalType": "uint256[]"
        },
        {
          "name": "pairAddress",
          "type": "address[]",
          "indexed": false,
          "internalType": "address[]"
        }
      ],
      "anonymous": false
    },
    {
      "type": "event",
      "name": "handleTokenToTokenSwapEvent",
      "inputs": [
        {
          "name": "token",
          "type": "address",
          "indexed": false,
          "internalType": "address"
        },
        {
          "name": "userTokenBalance",
          "type": "uint256",
          "indexed": false,
          "internalType": "uint256"
        },
        {
          "name": "tokenOut",
          "type": "address",
          "indexed": false,
          "internalType": "address"
        }
      ],
      "anonymous": false
    },
    {
      "type": "event",
      "name": "handleWETHToTokenSwapEvent",
      "inputs": [
        {
          "name": "token",
          "type": "address",
          "indexed": false,
          "internalType": "address"
        },
        {
          "name": "ethAmtPerToken",
          "type": "uint256",
          "indexed": false,
          "internalType": "uint256"
        },
        {
          "name": "tokenOut",
          "type": "address",
          "indexed": false,
          "internalType": "address"
        }
      ],
      "anonymous": false
    },
    {
      "type": "event",
      "name": "howMuch",
      "inputs": [
        {
          "name": "sender",
          "type": "address",
          "indexed": true,
          "internalType": "address"
        },
        {
          "name": "amt",
          "type": "uint256",
          "indexed": false,
          "internalType": "uint256"
        }
      ],
      "anonymous": false
    },
    {
      "type": "event",
      "name": "withdrawAllInKindEvent",
      "inputs": [
        {
          "name": "token",
          "type": "address",
          "indexed": false,
          "internalType": "address"
        },
        {
          "name": "remained",
          "type": "uint256",
          "indexed": false,
          "internalType": "uint256"
        }
      ],
      "anonymous": false
    },
    {
      "type": "event",
      "name": "withdrawInKindEvent",
      "inputs": [
        {
          "name": "token",
          "type": "address",
          "indexed": false,
          "internalType": "address"
        },
        {
          "name": "beforeWithAmt",
          "type": "uint256",
          "indexed": false,
          "internalType": "uint256"
        },
        {
          "name": "withAmt",
          "type": "uint256",
          "indexed": false,
          "internalType": "uint256"
        },
        {
          "name": "remained",
          "type": "uint256",
          "indexed": false,
          "internalType": "uint256"
        }
      ],
      "anonymous": false
    },
    {
      "type": "error",
      "name": "AccessControlBadConfirmation",
      "inputs": []
    },
    {
      "type": "error",
      "name": "AccessControlUnauthorizedAccount",
      "inputs": [
        {
          "name": "account",
          "type": "address",
          "internalType": "address"
        },
        {
          "name": "neededRole",
          "type": "bytes32",
          "internalType": "bytes32"
        }
      ]
    },
    {
      "type": "error",
      "name": "EnforcedPause",
      "inputs": []
    },
    {
      "type": "error",
      "name": "ExpectedPause",
      "inputs": []
    },
    {
      "type": "error",
      "name": "ReentrancyGuardReentrantCall",
      "inputs": []
    }
  ],
  "bytecode": {
    "object": "0x60e06040527ff23ec0bb4210edd5cba85afd05127efcd2fc6a781bfed49188da1081670b22d86003556004805461ffff191660641790556103e860085534801561004857600080fd5b5060016000819055805460ff191690556004805462010000600160b01b03191633620100000217815573edf6066a2b290c185783862c7f4776a2c8077ad160a0819052604080516315ab88c960e31b81529051919263ad5c46489282820192602092908290030181865afa1580156100c4573d6000803e3d6000fd5b505050506040513d601f19601f820116820180604052508101906100e8919061021d565b6001600160a01b03908116608081905260c052600454610111916000916201000090041661016d565b5060035460045461013191906201000090046001600160a01b031661016d565b506040805180820190915260045461ffff168082526020909101819052600f805463ffffffff191682176201000090920291909117905561024d565b60008281526002602090815260408083206001600160a01b038516845290915281205460ff166102135760008381526002602090815260408083206001600160a01b03861684529091529020805460ff191660011790556101cb3390565b6001600160a01b0316826001600160a01b0316847f2f8788117e7eff1d82e926ec794901d17c78024a50270940304540a733656f0d60405160405180910390a4506001610217565b5060005b92915050565b60006020828403121561022f57600080fd5b81516001600160a01b038116811461024657600080fd5b9392505050565b60805160a05160c051615fcf61032b60003960008181611172015281816111fc01528181611332015281816113bc015281816136920152614c7a015260006145c401526000818161093101528181610c0001528181610f2f0152818161152501528181611ea901528181611f190152818161206a015281816120e7015281816125430152818161289b0152818161291d015281816129a301528181612f7801528181613298015281816133c0015281816137fc01528181613c4001528181613f8f0152818161456a015281816149f80152614bad0152615fcf6000f3fe6080604052600436106101fb5760003560e01c80635d3035191161010c57806399303e9d1161009a578063bd5dc2021161006c578063bd5dc20214610621578063d547741f14610636578063e086e5ec14610656578063e10813531461066b578063fc228e6b1461068b57005b806399303e9d14610567578063a217fddf14610587578063a2ae27701461059c578063a87430ba146105bc57005b806377b6af52116100de57806377b6af52146104da57806378d254b1146104ef578063791e38de1461050457806389296eec1461052757806391d148541461054757005b80635d3035191461046757806361ab36631461047a57806366de72671461049a5780636a4e9b7a146104ba57005b80632e185ec71161018957806336c5d7241161015b57806336c5d724146103dc5780633f5cc468146103fc57806346cdf2f11461041c5780634ae05c7d1461042f5780635c975abb1461044f57005b80632e185ec71461035a5780632f2ff15d1461036f57806331038fbd1461038f57806336568abe146103bc57005b8063252aa530116101cd578063252aa530146102b757806326519373146102d757806327cdd8f9146102f7578063291d9549146103255780632c30ad5b1461034557005b806301ffc9a7146102045780630f9da7431461023957806310154bad14610259578063248a9ca31461027957005b3661020257005b005b34801561021057600080fd5b5061022461021f366004615188565b6106ab565b60405190151581526020015b60405180910390f35b34801561024557600080fd5b506102026102543660046151b9565b6106e2565b34801561026557600080fd5b506102026102743660046151e7565b6106f4565b34801561028557600080fd5b506102a96102943660046151b9565b60009081526002602052604090206001015490565b604051908152602001610230565b3480156102c357600080fd5b506102026102d2366004615212565b610726565b3480156102e357600080fd5b506102026102f23660046152f4565b61074c565b34801561030357600080fd5b506103176103123660046151e7565b610c91565b6040516102309291906153af565b34801561033157600080fd5b506102026103403660046151e7565b610d99565b34801561035157600080fd5b50610202610dbd565b34801561036657600080fd5b50610202610ed8565b34801561037b57600080fd5b5061020261038a3660046153d4565b610fac565b34801561039b57600080fd5b506103af6103aa3660046151e7565b610fd7565b6040516102309190615404565b3480156103c857600080fd5b506102026103d73660046153d4565b611050565b3480156103e857600080fd5b506102026103f73660046151b9565b611083565b34801561040857600080fd5b50610202610417366004615426565b6110e9565b61020261042a3660046151b9565b61115e565b34801561043b57600080fd5b5061020261044a366004615454565b611292565b34801561045b57600080fd5b5060015460ff16610224565b6102026104753660046154c9565b61130a565b34801561048657600080fd5b506102a96104953660046151e7565b611556565b3480156104a657600080fd5b506102a96104b536600461550f565b6115b6565b3480156104c657600080fd5b506102246104d536600461553d565b61168a565b3480156104e657600080fd5b506103af6117c1565b3480156104fb57600080fd5b50610202611823565b34801561051057600080fd5b50610519611b1a565b604051610230929190615571565b34801561053357600080fd5b506102a961054236600461550f565b611d17565b34801561055357600080fd5b506102246105623660046153d4565b611e09565b34801561057357600080fd5b50610202610582366004615596565b611e34565b34801561059357600080fd5b506102a9600081565b3480156105a857600080fd5b506102026105b736600461553d565b611f93565b3480156105c857600080fd5b506106016105d73660046151e7565b600c6020526000908152604090206003810154600f82015460108301546011909301549192909184565b604080519485526020850193909352918301526060820152608001610230565b34801561062d57600080fd5b506103af612154565b34801561064257600080fd5b506102026106513660046153d4565b6121b4565b34801561066257600080fd5b506102026121d9565b34801561067757600080fd5b506102a96106863660046151e7565b612211565b34801561069757600080fd5b506102026106a636600461553d565b612262565b60006001600160e01b03198216637965db0b60e01b14806106dc57506301ffc9a760e01b6001600160e01b03198316145b92915050565b6003546106ee816122a2565b50600855565b600354610700816122a2565b610709826122ac565b610721600080516020615f7a83398151915283612333565b505050565b600354610732816122a2565b8115610744576107406123c7565b5050565b61074061241b565b600080516020615f7a833981519152610764816122a2565b61076c612454565b61077461247a565b60008080610781866124a4565b925050915060008061079233610c91565b915091506000806107a1612a11565b909250905060006107b561271060646155e5565b6127106107c28c856155e5565b6107cc91906155e5565b6107d69190615612565b905060005b8551811015610bd35760006107f2612710856155e5565b61271087848151811061080757610807615626565b602002602001015187858151811061082157610821615626565b602002602001015161083391906155e5565b61083d91906155e5565b6108479190615612565b9050600061085861271060646155e5565b6127108e89868151811061086e5761086e615626565b602002602001015161088091906155e5565b61088a91906155e5565b6108949190615612565b905083821115610aa85781848885815181106108b2576108b2615626565b60200260200101516108c491906155e5565b6108ce9190615612565b90506000610982600c6000336001600160a01b03166001600160a01b03168152602001908152602001600020838d878151811061090d5761090d615626565b60200260200101518c888151811061092757610927615626565b60200260200101517f00000000000000000000000000000000000000000000000000000000000000008f8a8151811061096257610962615626565b602002602001015160ff1660031461097b576000612bce565b6001612bce565b905060015b336000908152600c60205260409020601101548111610a2c57336000908152600c602052604081208b518592600590920191908d90899081106109cc576109cc615626565b60200260200101516001600160a01b03166001600160a01b0316815260200190815260200160002060008381526020019081526020016000206000828254610a14919061563c565b90915550819050610a248161564f565b915050610987565b50336000908152600c602052604081208a518492600490920191908c9088908110610a5957610a59615626565b60200260200101516001600160a01b03166001600160a01b031681526020019081526020016000206000828254610a90919061563c565b90915550610aa09050818d615668565b9b5050610bc9565b336000908152600c602052604081208b51610ad2919084908e908890811061090d5761090d615626565b905060015b336000908152600c60205260409020601101548111610b6b57336000908152600c602052604081208b5160059091019082908d9089908110610b1b57610b1b615626565b60200260200101516001600160a01b03166001600160a01b031681526020019081526020016000206000838152602001908152602001600020819055508080610b639061564f565b915050610ad7565b50336000908152600c602052604081208a5160049091019082908c9088908110610b9757610b97615626565b6020908102919091018101516001600160a01b0316825281019190915260400160002055610bc5818d615668565b9b50505b50506001016107db565b506000610be1896002612dab565b60405163a9059cbb60e01b8152336004820152602481018290529091507f00000000000000000000000000000000000000000000000000000000000000006001600160a01b03169063a9059cbb906044016020604051808303816000875af1158015610c51573d6000803e3d6000fd5b505050506040513d601f19601f82011682018060405250810190610c75919061567b565b50610c7e612e05565b5050505050505050506107216001600055565b60608060006005805480602002602001604051908101604052809291908181526020018280548015610cec57602002820191906000526020600020905b81546001600160a01b03168152600190910190602001808311610cce575b50505050509050600081516001600160401b03811115610d0e57610d0e61522f565b604051908082528060200260200182016040528015610d37578160200160208202803683370190505b50905060005b8251811015610d8e57610d6986848381518110610d5c57610d5c615626565b6020026020010151612f50565b828281518110610d7b57610d7b615626565b6020908102919091010152600101610d3d565b509094909350915050565b600354610da5816122a2565b610721600080516020615f7a8339815191528361301f565b600354610dc9816122a2565b6000610dd361308c565b905060008082806020019051810190610dec91906157a2565b9150915060005b8251811015610ed157828181518110610e0e57610e0e615626565b60200260200101516001600160a01b031663a9059cbb600460029054906101000a90046001600160a01b0316848481518110610e4c57610e4c615626565b60200260200101516040518363ffffffff1660e01b8152600401610e859291906001600160a01b03929092168252602082015260400190565b6020604051808303816000875af1158015610ea4573d6000803e3d6000fd5b505050506040513d601f19601f82011682018060405250810190610ec8919061567b565b50600101610df3565b5050505050565b600354610ee4816122a2565b610eec61247a565b600a5415610f9f57600a805460009091556004805460405163a9059cbb60e01b81526001600160a01b0362010000909204821692810192909252602482018390527f0000000000000000000000000000000000000000000000000000000000000000169063a9059cbb906044016020604051808303816000875af1158015610f78573d6000803e3d6000fd5b505050506040513d601f19601f82011682018060405250810190610f9c919061567b565b50505b610fa96001600055565b50565b600082815260026020526040902060010154610fc7816122a2565b610fd18383612333565b50505050565b6001600160a01b0381166000908152600c6020908152604091829020600e0180548351818402810184019094528084526060939283018282801561104457602002820191906000526020600020905b81546001600160a01b03168152600190910190602001808311611026575b50505050509050919050565b6001600160a01b03811633146110795760405163334bd91960e11b815260040160405180910390fd5b610721828261301f565b604051630f5a905960e11b81526005600482015260248101829052731a84415a04a98af6dbc477875dd9edbf6df1337790631eb520b29060440160006040518083038186803b1580156110d557600080fd5b505af4158015610ed1573d6000803e3d6000fd5b6003546110f5816122a2565b600f60ff841660000361111c57805463ffff0000191660ff84166201000002178155610fd1565b8260ff1660000361113a57805461ffff191660ff8516178155610fd1565b805460ff94851663ffffffff19909116179290931662010000029190911790915550565b60035461116a816122a2565b3415611277577f00000000000000000000000000000000000000000000000000000000000000006001600160a01b031663d0e30db0346040518263ffffffff1660e01b81526004016000604051808303818588803b1580156111cb57600080fd5b505af11580156111df573d6000803e3d6000fd5b505060405163a9059cbb60e01b81523060048201523460248201527f00000000000000000000000000000000000000000000000000000000000000006001600160a01b0316935063a9059cbb925060440190506020604051808303816000875af1158015611251573d6000803e3d6000fd5b505050506040513d601f19601f82011682018060405250810190611275919061567b565b505b81600960008282546112899190615668565b90915550505050565b60035461129e816122a2565b60005b82811015610fd15760058484838181106112bd576112bd615626565b90506020020160208101906112d291906151e7565b815460018082018455600093845260209093200180546001600160a01b0319166001600160a01b0392909216919091179055016112a1565b611312612454565b600080516020615f7a83398151915261132a816122a2565b3415611437577f00000000000000000000000000000000000000000000000000000000000000006001600160a01b031663d0e30db0346040518263ffffffff1660e01b81526004016000604051808303818588803b15801561138b57600080fd5b505af115801561139f573d6000803e3d6000fd5b505060405163a9059cbb60e01b81523060048201523460248201527f00000000000000000000000000000000000000000000000000000000000000006001600160a01b0316935063a9059cbb925060440190506020604051808303816000875af1158015611411573d6000803e3d6000fd5b505050506040513d601f19601f82011682018060405250810190611435919061567b565b505b6000806000611445856124a4565b336000908152600c60205260408120601181018054959850939650919450909291906114708361564f565b909155508790506000611484826001612dab565b9050808360000160008560110154815260200190815260200160002060008282546114af9190615668565b9091555050600f8301829055306000908152600e60205260408120865160059091019190879082906114e3576114e3615626565b60200260200101516001600160a01b03166001600160a01b031681526020019081526020016000205460000361151d5761151d82896131c2565b61154b8382887f00000000000000000000000000000000000000000000000000000000000000008989613258565b505050505050505050565b600080805b6005548110156115af576000611598856005848154811061157e5761157e615626565b6000918252602090912001546001600160a01b03166115b6565b90506115a48184615668565b92505060010161155b565b5092915050565b600080826001600160a01b031663313ce5676040518163ffffffff1660e01b8152600401602060405180830381865afa1580156115f7573d6000803e3d6000fd5b505050506040513d601f19601f8201168201806040525081019061161b91906157ff565b60ff169050600061162c8585612f50565b9050600061163b83601261563c565b61164690600a615903565b61165090836155e5565b9050600061165d8661338c565b90506000670de0b6b3a764000061167483856155e5565b61167e9190615612565b98975050505050505050565b600080611696836124a4565b509150506000805b82518110156117b957306000908152600e60205260408120845160059091019082908690859081106116d2576116d2615626565b60200260200101516001600160a01b03166001600160a01b03168152602001908152602001600020549050600061172185848151811061171457611714615626565b602002602001015161338c565b905060006117318361271061590f565b61173d8361271061590f565b611747919061593f565b905060006117578461271061590f565b61176283606461590f565b61176c919061595f565b90506000811261178757611780818761598d565b9550611794565b611791868261593f565b95505b600a8612156117a45760006117a7565b60015b9750506001909301925061169e915050565b505050919050565b6060600780548060200260200160405190810160405280929190818152602001828054801561181957602002820191906000526020600020905b81546001600160a01b031681526001909101906020018083116117fb575b5050505050905090565b600080516020615f7a83398151915261183b816122a2565b611843612454565b61184b61247a565b336000908152600c60209081526040808320600580548351818602810186019094528084529194939091908301828280156118af57602002820191906000526020600020905b81546001600160a01b03168152600190910190602001808311611891575b505050505090506000805b8251811015611b045760006118db33858481518110610d5c57610d5c615626565b9050806000036118eb5750611afc565b6118f6816002613423565b925060015b856011015481116119b657600086600501600087868151811061192057611920615626565b60200260200101516001600160a01b03166001600160a01b03168152602001908152602001600020600083815260200190815260200160002081905550600086600401600087868151811061197757611977615626565b60200260200101516001600160a01b03166001600160a01b031681526020019081526020016000208190555080806119ae9061564f565b9150506118fb565b508382815181106119c9576119c9615626565b60200260200101516001600160a01b031663a9059cbb3385846119ec919061563c565b6040516001600160e01b031960e085901b1681526001600160a01b03909216600483015260248201526044016020604051808303816000875af1158015611a37573d6000803e3d6000fd5b505050506040513d601f19601f82011682018060405250810190611a5b919061567b565b50838281518110611a6e57611a6e615626565b60209081029190910101516004805460405163a9059cbb60e01b8152620100009091046001600160a01b03908116928201929092526024810186905291169063a9059cbb906044016020604051808303816000875af1158015611ad5573d6000803e3d6000fd5b505050506040513d601f19601f82011682018060405250810190611af9919061567b565b50505b6001016118ba565b50611b0d612e05565b505050610fa96001600055565b60608060006007805490506001600160401b03811115611b3c57611b3c61522f565b604051908082528060200260200182016040528015611b65578160200160208202803683370190505b506007549093506001600160401b03811115611b8357611b8361522f565b604051908082528060200260200182016040528015611bac578160200160208202803683370190505b50915060005b8351811015611d1157600c600060078381548110611bd257611bd2615626565b60009182526020808320909101546001600160a01b03168352820192909252604001812092505b600e830154811015611cad5760006001600160a01b031683600e018281548110611c2557611c25615626565b6000918252602090912001546001600160a01b031614611ca55782600e018181548110611c5457611c54615626565b9060005260206000200160009054906101000a90046001600160a01b0316848281518110611c8457611c84615626565b60200260200101906001600160a01b031690816001600160a01b0316815250505b600101611bf9565b5060078181548110611cc157611cc1615626565b9060005260206000200160009054906101000a90046001600160a01b0316848281518110611cf157611cf1615626565b6001600160a01b0390921660209283029190910190910152600101611bb2565b50509091565b600080611d248484612f50565b90506000611d318461347f565b90506000846001600160a01b031663313ce5676040518163ffffffff1660e01b8152600401602060405180830381865afa158015611d73573d6000803e3d6000fd5b505050506040513d601f19601f82011682018060405250810190611d9791906157ff565b905081600003611dad57600093505050506106dc565b6000611dba8260126159ad565b611dc590600a6159c6565b611dcf90856155e5565b90506000611dde8360126159ad565b611de990600a6159c6565b611df390856155e5565b9050806116748368056bc75e2d631000006155e5565b60009182526002602090815260408084206001600160a01b0393909316845291905290205460ff1690565b600354611e40816122a2565b6001600160a01b0383166000908152600c60205260408120600e01546001600160401b03811115611e7357611e7361522f565b604051908082528060200260200182016040528015611e9c578160200160208202803683370190505b50905060008151611ecd867f0000000000000000000000000000000000000000000000000000000000000000612f50565b611ed79190615612565b90506000806000611ee7876124a4565b92509250925060005b855181101561154b576001600160a01b0389166000908152600c60205260409020611f3f9086867f00000000000000000000000000000000000000000000000000000000000000008787613258565b6001600160a01b0389166000908152600c60205260409020600e01805480611f6957611f696159d5565b600082815260209020810160001990810180546001600160a01b0319169055019055600101611ef0565b600354611f9f816122a2565b60008080611fac856124a4565b92505091506000611fbb61308c565b905060008082806020019051810190611fd491906157a2565b9150915060005b82518110156120b4576000828281518110611ff857611ff8615626565b6020026020010151905060008111156120ab576004546201000090046001600160a01b03166000908152600c60205260408120885161209b919084908b908790811061204657612046615626565b602002602001015188878151811061206057612060615626565b60200260200101517f00000000000000000000000000000000000000000000000000000000000000008c898151811061096257610962615626565b90506120a7818a615668565b9850505b50600101611fdb565b506004805460405163a9059cbb60e01b81526001600160a01b0362010000909204821692810192909252602482018890527f0000000000000000000000000000000000000000000000000000000000000000169063a9059cbb906044016020604051808303816000875af1158015612130573d6000803e3d6000fd5b505050506040513d601f19601f8201168201806040525081019061154b919061567b565b60606005805480602002602001604051908101604052809291908181526020018280548015611819576020028201919060005260206000209081546001600160a01b031681526001909101906020018083116117fb575050505050905090565b6000828152600260205260409020600101546121cf816122a2565b610fd1838361301f565b6003546121e5816122a2565b60405133904780156108fc02916000818181858888f19350505050158015610740573d6000803e3d6000fd5b60008061221d83611556565b905060006122296134ea565b90508060000361223d575060009392505050565b8061225083670de0b6b3a76400006155e5565b61225a9190615612565b949350505050565b60035461226e816122a2565b60008061227a846124a4565b925050915060008061228a612a11565b9150915061229a84838386613609565b505050505050565b610fa98133613919565b6001600160a01b0381166000908152600b602052604090205460ff16610fa9576007805460018181019092557fa66cc928b5edb82af9bd49922954155ab7b0942694bea4ce44661d9a8736c6880180546001600160a01b0384166001600160a01b031990911681179091556000908152600b60205260409020805460ff1916909117905550565b600061233f8383611e09565b6123bf5760008381526002602090815260408083206001600160a01b03861684529091529020805460ff191660011790556123773390565b6001600160a01b0316826001600160a01b0316847f2f8788117e7eff1d82e926ec794901d17c78024a50270940304540a733656f0d60405160405180910390a45060016106dc565b5060006106dc565b6123cf612454565b6001805460ff1916811790557f62e78cea01bee320cd4e420270b5ea74000d11b0c9f74754ebdbfc544b05a258335b6040516001600160a01b03909116815260200160405180910390a1565b612423613956565b6001805460ff191690557f5db9ee0a495bf2e6ff9c91a7834c1ba4fdd244a5e8aa4e537bd38aeae4b073aa336123fe565b60015460ff16156124785760405163d93c066560e01b815260040160405180910390fd5b565b60026000540361249d57604051633ee5aeb560e01b815260040160405180910390fd5b6002600055565b6060806060838060200190518101906124bd91906159eb565b815191945091506000906124d39060019061563c565b6001600160401b038111156124ea576124ea61522f565b604051908082528060200260200182016040528015612513578160200160208202803683370190505b50925060005b8451811015612a085784818151811061253457612534615626565b602002602001015191506000807f00000000000000000000000000000000000000000000000000000000000000006001600160a01b0316846001600160a01b0316630dfe16816040518163ffffffff1660e01b8152600401602060405180830381865afa1580156125a9573d6000803e3d6000fd5b505050506040513d601f19601f820116820180604052508101906125cd9190615ac2565b6001600160a01b0316036126a857836001600160a01b0316630dfe16816040518163ffffffff1660e01b8152600401602060405180830381865afa158015612619573d6000803e3d6000fd5b505050506040513d601f19601f8201168201806040525081019061263d9190615ac2565b9150836001600160a01b031663d21220a76040518163ffffffff1660e01b8152600401602060405180830381865afa15801561267d573d6000803e3d6000fd5b505050506040513d601f19601f820116820180604052508101906126a19190615ac2565b9050612771565b836001600160a01b031663d21220a76040518163ffffffff1660e01b8152600401602060405180830381865afa1580156126e6573d6000803e3d6000fd5b505050506040513d601f19601f8201168201806040525081019061270a9190615ac2565b9150836001600160a01b0316630dfe16816040518163ffffffff1660e01b8152600401602060405180830381865afa15801561274a573d6000803e3d6000fd5b505050506040513d601f19601f8201168201806040525081019061276e9190615ac2565b90505b6001600160a01b038116732791bca1f2de4661ed88a30c99a7a9449aa841741461289157808684815181106127a8576127a8615626565b60200260200101906001600160a01b031690816001600160a01b0316815250508683815181106127da576127da615626565b6020908102919091018101516001600160a01b0380841660008181526011909452604090932080549282166001600160a01b03199384161781556002810180549287169284169290921790915560030180549091169091179055845185908490811061284857612848615626565b602002602001015160116000836001600160a01b03166001600160a01b0316815260200190815260200160002060030160146101000a81548160ff021916908360ff1602179055505b6001600160a01b037f00000000000000000000000000000000000000000000000000000000000000008116600090815260116020526040902060010154161580156128f857506001600160a01b038116732791bca1f2de4661ed88a30c99a7a9449aa84174145b156129fe5786838151811061290f5761290f615626565b6020026020010151601160007f00000000000000000000000000000000000000000000000000000000000000006001600160a01b03166001600160a01b0316815260200190815260200160002060010160006101000a8154816001600160a01b0302191690836001600160a01b0316021790555084838151811061299557612995615626565b6020026020010151601160007f00000000000000000000000000000000000000000000000000000000000000006001600160a01b03166001600160a01b0316815260200190815260200160002060030160146101000a81548160ff021916908360ff1602179055505b5050600101612519565b50509193909250565b60606000806005805490506001600160401b03811115612a3357612a3361522f565b604051908082528060200260200182016040528015612a5c578160200160208202803683370190505b50905080516001600160401b03811115612a7857612a7861522f565b604051908082528060200260200182016040528015612aa1578160200160208202803683370190505b50925060005b600554811015611d11576000612ae360058381548110612ac957612ac9615626565b6000918252602090912001546001600160a01b0316613979565b9050600060058381548110612afa57612afa615626565b6000918252602090912001546040516370a0823160e01b81523060048201526001600160a01b03909116915081906370a0823190602401602060405180830381865afa158015612b4e573d6000803e3d6000fd5b505050506040513d601f19601f82011682018060405250810190612b729190615adf565b848481518110612b8457612b84615626565b602002602001018181525050600082905080878581518110612ba857612ba8615626565b6020908102919091010152612bbd8187615668565b95505060019092019150612aa79050565b604080516002808252606082018352600092839291906020830190803683370190505090508481600081518110612c0757612c07615626565b60200260200101906001600160a01b031690816001600160a01b0316815250508381600181518110612c3b57612c3b615626565b6001600160a01b03929092166020928302919091018201526040805160028082526060820183526000939192909183019080368337019050509050600084612d505760405163d06ca61f60e01b815273edf6066a2b290c185783862c7f4776a2c8077ad19063d06ca61f90612cb6908c908790600401615af8565b600060405180830381865afa158015612cd3573d6000803e3d6000fd5b505050506040513d6000823e601f3d908101601f19168201604052612cfb9190810190615b11565b9150600082600181518110612d1257612d12615626565b602002602001015111612d26576000612d49565b612d4982600181518110612d3c57612d3c615626565b6020026020010151613ace565b9050612d76565b6000612d5c898b613af7565b9050612d6981600a613ba7565b6001600160a01b03169150505b8415612d9457612d8a8a8a8a8a8a86613c3c565b9350505050612da1565b612d8a8a8a898985613f59565b9695505050505050565b600454600090839082906201000090046001600160a01b03163303612dce575060005b612dd88285613423565b905080600a6000828254612dec9190615668565b90915550612dfc9050818361563c565b95945050505050565b60005b600754811015610fa957600060078281548110612e2757612e27615626565b60009182526020808320909101546001600160a01b0316808352600c9091526040822090925090805b600554811015612f4057600060058281548110612e6f57612e6f615626565b60009182526020808320909101546001600160a01b031680835260048701909152604082205490925090612ea28361338c565b9050826001600160a01b031663313ce5676040518163ffffffff1660e01b8152600401602060405180830381865afa158015612ee2573d6000803e3d6000fd5b505050506040513d601f19601f82011682018060405250810190612f0691906157ff565b612f1190600a6159c6565b612f1b82846155e5565b612f259190615612565b612f2f9086615668565b94505060019092019150612e509050565b505060019092019150612e089050565b6001600160a01b0382166000908152600c6020526040812060015b81601101548111613017577f00000000000000000000000000000000000000000000000000000000000000006001600160a01b0316846001600160a01b0316148015612fb8575080600214155b15612fdd57600081815260208390526040902054612fd69084615668565b9250613005565b6001600160a01b03841660009081526004830160205260409020546130029084615668565b92505b8061300f8161564f565b915050612f6b565b505092915050565b600061302b8383611e09565b156123bf5760008381526002602090815260408083206001600160a01b0386168085529252808320805460ff1916905551339286917ff6391f5c32d9c69d2a47ea670b442974b53935d1edc7fd64eb21e047a839171b9190a45060016106dc565b6005546060906000906001600160401b038111156130ac576130ac61522f565b6040519080825280602002602001820160405280156130d5578160200160208202803683370190505b50905060005b600554811015613198576000600582815481106130fa576130fa615626565b6000918252602090912001546040516370a0823160e01b81523060048201526001600160a01b03909116915081906370a0823190602401602060405180830381865afa15801561314e573d6000803e3d6000fd5b505050506040513d601f19601f820116820180604052508101906131729190615adf565b83838151811061318457613184615626565b6020908102919091010152506001016130db565b506005816040516020016131ad929190615b45565b60405160208183030381529060405291505090565b306000908152600e602052604081208390556131dd826124a4565b5091505060005b8151811015610fd15761320282828151811061171457611714615626565b306000908152600e6020526040812084516005909101919085908590811061322c5761322c615626565b6020908102919091018101516001600160a01b03168252810191909152604001600020556001016131e4565b60005b825181101561338357600082828151811061327857613278615626565b602002602001015160ff16600314613291576000613294565b60015b90507f00000000000000000000000000000000000000000000000000000000000000006001600160a01b03168483815181106132d2576132d2615626565b60200260200101516001600160a01b03161461333957613334888686518a6132fa9190615612565b87868151811061330c5761330c615626565b60200260200101518a878151811061332657613326615626565b602002602001015186614293565b61337a565b613378888686858151811061335057613350615626565b602002602001015189868151811061336a5761336a615626565b6020026020010151856142a1565b505b5060010161325b565b50505050505050565b6001600160a01b03808216600090815260116020526040812054909182916133b69185911661431f565b6001600160a01b037f000000000000000000000000000000000000000000000000000000000000000081811660009081526011602052604081206001015493945092613402921661431f565b90506000670de0b6b3a764000061341983856155e5565b612dfc9190615612565b6000600f600183600281111561343b5761343b615b9f565b03613465578054612710906134549061ffff16866155e5565b61345e9190615612565b91506115af565b8054612710906122509062010000900461ffff16866155e5565b6040516370a0823160e01b81523060048201526000906001600160a01b038316906370a0823190602401602060405180830381865afa1580156134c6573d6000803e3d6000fd5b505050506040513d601f19601f820116820180604052508101906106dc9190615adf565b600080805b6005548110156136035760006005828154811061350e5761350e615626565b60009182526020808320909101546040805163313ce56760e01b815290516001600160a01b039092169450849263313ce567926004808401938290030181865afa158015613560573d6000803e3d6000fd5b505050506040513d601f19601f8201168201806040525081019061358491906157ff565b905060006135918361347f565b905060006135a08360126159ad565b6135ab90600a6159c6565b6135b590836155e5565b905060006135c28561338c565b90506000670de0b6b3a76400006135d983856155e5565b6135e39190615612565b90506135ef8189615668565b975050600190950194506134ef9350505050565b50919050565b6136586040518061012001604052806060815260200160608152602001606081526020016000815260200160608152602001600081526020016060815260200160608152602001606081525090565b84815260208101849052608081018290526136716146c4565b6060840152604080840191909152516370a0823160e01b81523060048201527f00000000000000000000000000000000000000000000000000000000000000006001600160a01b031691506370a08231906024016020604051808303816000875af11580156136e4573d6000803e3d6000fd5b505050506040513d601f19601f820116820180604052508101906137089190615adf565b60a08201526005546001600160401b038111156137275761372761522f565b604051908082528060200260200182016040528015613750578160200160208202803683370190505b5060c08201526005546001600160401b038111156137705761377061522f565b604051908082528060200260200182016040528015613799578160200160208202803683370190505b5060e08201526005546001600160401b038111156137b9576137b961522f565b6040519080825280602002602001820160405280156137e2578160200160208202803683370190505b5061010082015260005b81610100015151811015613852577f0000000000000000000000000000000000000000000000000000000000000000826101000151828151811061383257613832615626565b6001600160a01b03909216602092830291909101909101526001016137ec565b5061385d818461484c565b60005b60055481101561229a5760005b600754811015613910576139086007828154811061388d5761388d615626565b600091825260209182902001546005805460408051828602810186019091528181526001600160a01b03909316938301828280156138f457602002820191906000526020600020905b81546001600160a01b031681526001909101906020018083116138d6575b50505050508560c001518660e00151614d2a565b60010161386d565b50600101613860565b6139238282611e09565b6107405760405163e2517d3f60e01b81526001600160a01b03821660048201526024810183905260440160405180910390fd5b60015460ff1661247857604051638dfc202b60e01b815260040160405180910390fd5b6040516370a0823160e01b81523060048201526000908190819084906001600160a01b038216906370a0823190602401602060405180830381865afa1580156139c6573d6000803e3d6000fd5b505050506040513d601f19601f820116820180604052508101906139ea9190615adf565b92506139f58561338c565b91506000856001600160a01b031663313ce5676040518163ffffffff1660e01b8152600401602060405180830381865afa158015613a37573d6000803e3d6000fd5b505050506040513d601f19601f82011682018060405250810190613a5b91906157ff565b905060128160ff161115613a985760128160ff161115613a9857613a808160126159ad565b613a8b90600a6159c6565b613a959085615612565b93505b6000670de0b6b3a7640000613aad85876155e5565b613ab79190615612565b9050613ac38187615668565b979650505050505050565b6000612710600854612710613ae3919061563c565b613aed90846155e5565b6106dc9190615612565b6000808390506000816001600160a01b0316633850c7bd6040518163ffffffff1660e01b815260040160e060405180830381865afa158015613b3d573d6000803e3d6000fd5b505050506040513d601f19601f82011682018060405250810190613b619190615bcc565b50505050505090506000816001600160a01b0316826001600160a01b0316613b8991906155e5565b90506000613b9b86600160601b6155e5565b9050613ac38282615612565b6000806064613bb68482615668565b613bc090866155e5565b613bca9190615612565b905060006064613bda858261563c565b613be490876155e5565b613bee9190615612565b90506000613bfb8361508c565b613c0990600160601b6155e5565b90506000613c168361508c565b613c2490600160601b6155e5565b90506002613c328284615c65565b613ac39190615c84565b60007f00000000000000000000000000000000000000000000000000000000000000006001600160a01b0316836001600160a01b031603613cac57600e87018054600181018255600091825260209091200180546001600160a01b0319166001600160a01b038616179055613cdd565b600e87018054600181018255600091825260209091200180546001600160a01b0319166001600160a01b0385161790555b6040805160c0810182528781526001600160a01b0387811660208301908152878216838501908152878316606085019081528784166080860181815260a087019182529651635e6583af60e11b81529551600487015292518416602486015290518316604485015251821660648401529251166084820152905160a482015260009073c439194cf13f3812c1888b5635b06c98687f5a399063bccb075e9060c401602060405180830381865af4925050508015613db7575060408051601f3d908101601f19168201909252613db491810190615adf565b60015b613e5157613dc3615cb3565b806308c379a003613e1a5750613dd7615ccf565b80613de25750613e1c565b33600080516020615f5a83398151915285613dfc896150df565b84604051613e0c93929190615da2565b60405180910390a250613ac3565b505b33600080516020615f5a83398151915284613e36886150df565b604051613e44929190615dd8565b60405180910390a2613ac3565b6001600160a01b038516600090815260098a016020908152604080832060118d0154845290915281205491925082919003613ed4576001600160a01b038516600081815260058b016020908152604080832060118e01548452825280832086905592825260048c0190529081208054849290613ece908490615668565b90915550505b337f9c6004e315787e1885bcde9008594c954fd1a11118bbff03456860197d43d4598984613f01896150df565b604051613f1093929190615e26565b60405180910390a288600e01805480613f2b57613f2b6159d5565b600082815260209020810160001990810180546001600160a01b031916905501905550979650505050505050565b600e850180546001810182556000918252602082200180546001600160a01b0319166001600160a01b03868116919091179091557f0000000000000000000000000000000000000000000000000000000000000000811690841603613fed57600e86018054600181018255600091825260209091200180546001600160a01b0319166001600160a01b03861617905561401e565b600e86018054600181018255600091825260209091200180546001600160a01b0319166001600160a01b0385161790555b604080516080810182528681526001600160a01b0386811660208301908152868216838501908152606084018781529451635cb0482d60e11b815293516004850152905182166024840152511660448201529051606482015260009073c439194cf13f3812c1888b5635b06c98687f5a399063b960905a90608401600060405180830381865af49250505080156140d757506040513d6000823e601f3d908101601f191682016040526140d49190810190615b11565b60015b614171576140e3615cb3565b806308c379a00361413a57506140f7615ccf565b80614102575061413c565b33600080516020615f5a8339815191528561411c896150df565b8460405161412c93929190615e6b565b60405180910390a250612da1565b505b33600080516020615f5a83398151915284614156886150df565b604051614164929190615e84565b60405180910390a2612da1565b8060018151811061418457614184615626565b6020908102919091018101516001600160a01b038716600090815260098b018352604080822060118d0154835290935291822054909350900361420f576001600160a01b038516600081815260058a016020908152604080832060118d01548452825280832086905592825260048b0190529081208054849290614209908490615668565b90915550505b337f9c6004e315787e1885bcde9008594c954fd1a11118bbff03456860197d43d459888461423c896150df565b60405161424b93929190615e9d565b60405180910390a287600e01805480614266576142666159d5565b600082815260209020810160001990810180546001600160a01b0319169055019055509695505050505050565b613383868584888786612bce565b6001600160a01b038085166000908152600587016020908152604080832060118a015484529091528120546004549192909183916142e6916201000090041688612f50565b821161430d57600454614308906201000090046001600160a01b031688612f50565b61430f565b815b905061167e8882878a8a89612bce565b600080836001600160a01b031663313ce5676040518163ffffffff1660e01b8152600401602060405180830381865afa158015614360573d6000803e3d6000fd5b505050506040513d601f19601f8201168201806040525081019061438491906157ff565b905060126001600160a01b038416156144fe5760008490506000816001600160a01b0316633850c7bd6040518163ffffffff1660e01b815260040160e060405180830381865afa1580156143dc573d6000803e3d6000fd5b505050506040513d601f19601f820116820180604052508101906144009190615bcc565b50505050505090506000816001600160a01b0316826001600160a01b031661442891906155e5565b9050876001600160a01b0316836001600160a01b0316630dfe16816040518163ffffffff1660e01b8152600401602060405180830381865afa158015614472573d6000803e3d6000fd5b505050506040513d601f19601f820116820180604052508101906144969190615ac2565b6001600160a01b0316036144cf57600160c01b6144b485600a6159c6565b6144be90836155e5565b6144c89190615612565b95506144f6565b806144db86600a6159c6565b6144e990600160c01b6155e5565b6144f39190615612565b95505b505050614663565b600061450e60ff8416600a615903565b6040805160028082526060820183529293506000929091602083019080368337019050509050868160008151811061454857614548615626565b60200260200101906001600160a01b031690816001600160a01b0316815250507f00000000000000000000000000000000000000000000000000000000000000008160018151811061459c5761459c615626565b6001600160a01b03928316602091820292909201015260405163d06ca61f60e01b81526000917f0000000000000000000000000000000000000000000000000000000000000000169063d06ca61f906145fb9086908690600401615af8565b600060405180830381865afa158015614618573d6000803e3d6000fd5b505050506040513d6000823e601f3d908101601f191682016040526146409190810190615b11565b90508060018151811061465557614655615626565b602002602001015195505050505b8060ff168260ff1610156146975761467b82826159ad565b61468690600a6159c6565b61469090846155e5565b9250613017565b8060ff168260ff161115613017576146af81836159ad565b6146ba90600a6159c6565b612dfc9084615612565b60608060006005805490506001600160401b038111156146e6576146e661522f565b60405190808252806020026020018201604052801561470f578160200160208202803683370190505b506005549092506001600160401b0381111561472d5761472d61522f565b604051908082528060200260200182016040528015614756578160200160208202803683370190505b50925060005b60055481101561484657306000908152600e6020526040812060058054918101918391908590811061479057614790615626565b60009182526020808320909101546001600160a01b0316835282019290925260400190205490506147c18184615668565b9250808483815181106147d6576147d6615626565b602002602001018181525050600582815481106147f5576147f5615626565b9060005260206000200160009054906101000a90046001600160a01b031685838151811061482557614825615626565b6001600160a01b03909216602092830291909101909101525060010161475c565b50909192565b60005b6005548110156107215760008360600151838560400151848151811061487757614877615626565b602002602001015161488991906155e5565b6148939190615612565b9050600081856020015184815181106148ae576148ae615626565b6020026020010151116148e957846020015183815181106148d1576148d1615626565b6020026020010151826148e4919061563c565b614912565b818560200151848151811061490057614900615626565b6020026020010151614912919061563c565b905060006149466005858154811061492c5761492c615626565b6000918252602090912001546001600160a01b031661338c565b614952612710846155e5565b61495c9190615612565b9050828660200151858151811061497557614975615626565b602002602001015110614a96576004546201000090046001600160a01b03166000908152600c6020526040902086518051614a3a92918491889081106149bd576149bd615626565b6020026020010151600588815481106149d8576149d8615626565b9060005260206000200160009054906101000a90046001600160a01b03167f00000000000000000000000000000000000000000000000000000000000000008b608001518a81518110614a2d57614a2d615626565b6020026020010151615147565b600754614a479082615612565b8660c001518581518110614a5d57614a5d615626565b60200260200101818152505060008660e001518581518110614a8157614a81615626565b91151560209283029190910190910152614d1f565b8286602001518581518110614aad57614aad615626565b60200260200101511015614d1f576000612710614b3b60058781548110614ad657614ad6615626565b9060005260206000200160009054906101000a90046001600160a01b03166011600060058a81548110614b0b57614b0b615626565b60009182526020808320909101546001600160a01b0390811684529083019390935260409091019020541661431f565b614b459190615612565b614b4f90836155e5565b9050600081118015614b6357508060095410155b15614d1d576004546201000090046001600160a01b03166000908152600c6020526040902087518051614c0e9291849189908110614ba357614ba3615626565b60200260200101517f000000000000000000000000000000000000000000000000000000000000000060058a81548110614bdf57614bdf615626565b60009182526020909120015460808d015180516001600160a01b03909216918c908110614a2d57614a2d615626565b600754614c1b9082615612565b8760c001518681518110614c3157614c31615626565b60200260200101818152505060018760e001518681518110614c5557614c55615626565b911515602092830291909101909101526040516370a0823160e01b81523060048201527f00000000000000000000000000000000000000000000000000000000000000006001600160a01b0316906370a08231906024016020604051808303816000875af1158015614ccb573d6000803e3d6000fd5b505050506040513d601f19601f82011682018060405250810190614cef9190615adf565b8760a00151614cfe919061563c565b60a0880181905260098054600090614d1790849061563c565b90915550505b505b50505060010161484f565b60005b8351811015610ed157818181518110614d4857614d48615626565b602002602001015115156000151503614ef75760015b6001600160a01b0386166000908152600c60205260409020601101548111614e5e576001600160a01b0386166000908152600c60205260409020601101548451859084908110614db057614db0615626565b6020026020010151614dc29190615612565b600c6000886001600160a01b03166001600160a01b031681526020019081526020016000206005016000878581518110614dfe57614dfe615626565b60200260200101516001600160a01b03166001600160a01b0316815260200190815260200160002060008381526020019081526020016000206000828254614e46919061563c565b90915550819050614e568161564f565b915050614d5e565b50828181518110614e7157614e71615626565b6020026020010151600c6000876001600160a01b03166001600160a01b031681526020019081526020016000206004016000868481518110614eb557614eb5615626565b60200260200101516001600160a01b03166001600160a01b031681526020019081526020016000206000828254614eec919061563c565b909155506150849050565b60015b6001600160a01b0386166000908152600c6020526040902060110154811015614ff0576001600160a01b0386166000908152600c60205260409020601101548451859084908110614f4d57614f4d615626565b6020026020010151614f5f9190615612565b600c6000886001600160a01b03166001600160a01b031681526020019081526020016000206005016000878581518110614f9b57614f9b615626565b60200260200101516001600160a01b03166001600160a01b0316815260200190815260200160002060008381526020019081526020016000206000828254614fe39190615668565b9091555050600101614efa565b5082818151811061500357615003615626565b6020026020010151600c6000876001600160a01b03166001600160a01b03168152602001908152602001600020600401600086848151811061504757615047615626565b60200260200101516001600160a01b03166001600160a01b03168152602001908152602001600020600082825461507e9190615668565b90915550505b600101614d2d565b600080600261509c846001615668565b6150a69190615612565b90508291505b81811015613603579050806002816150c48186615612565b6150ce9190615668565b6150d89190615612565b90506150ac565b6060816001600160a01b03166395d89b416040518163ffffffff1660e01b8152600401600060405180830381865afa15801561511f573d6000803e3d6000fd5b505050506040513d6000823e601f3d908101601f191682016040526106dc9190810190615ee2565b60008160ff1660031461515b57600061515e565b60015b905061516e878786868986615178565b5050505050505050565b6000613ac3878785888887612bce565b60006020828403121561519a57600080fd5b81356001600160e01b0319811681146151b257600080fd5b9392505050565b6000602082840312156151cb57600080fd5b5035919050565b6001600160a01b0381168114610fa957600080fd5b6000602082840312156151f957600080fd5b81356151b2816151d2565b8015158114610fa957600080fd5b60006020828403121561522457600080fd5b81356151b281615204565b634e487b7160e01b600052604160045260246000fd5b601f8201601f191681016001600160401b038111828210171561526a5761526a61522f565b6040525050565b60006001600160401b0382111561528a5761528a61522f565b50601f01601f191660200190565b600082601f8301126152a957600080fd5b81356152b481615271565b6040516152c18282615245565b8281528560208487010111156152d657600080fd5b82602086016020830137600092810160200192909252509392505050565b6000806040838503121561530757600080fd5b82356001600160401b0381111561531d57600080fd5b61532985828601615298565b95602094909401359450505050565b600081518084526020840193506020830160005b828110156153735781516001600160a01b031686526020958601959091019060010161534c565b5093949350505050565b600081518084526020840193506020830160005b82811015615373578151865260209586019590910190600101615391565b6040815260006153c26040830185615338565b8281036020840152612dfc818561537d565b600080604083850312156153e757600080fd5b8235915060208301356153f9816151d2565b809150509250929050565b6020815260006151b26020830184615338565b60ff81168114610fa957600080fd5b6000806040838503121561543957600080fd5b823561544481615417565b915060208301356153f981615417565b6000806020838503121561546757600080fd5b82356001600160401b0381111561547d57600080fd5b8301601f8101851361548e57600080fd5b80356001600160401b038111156154a457600080fd5b8560208260051b84010111156154b957600080fd5b6020919091019590945092505050565b600080604083850312156154dc57600080fd5b8235915060208301356001600160401b038111156154f957600080fd5b61550585828601615298565b9150509250929050565b6000806040838503121561552257600080fd5b823561552d816151d2565b915060208301356153f9816151d2565b60006020828403121561554f57600080fd5b81356001600160401b0381111561556557600080fd5b61225a84828501615298565b6040815260006155846040830185615338565b8281036020840152612dfc8185615338565b600080604083850312156155a957600080fd5b82356155b4816151d2565b915060208301356001600160401b038111156154f957600080fd5b634e487b7160e01b600052601160045260246000fd5b80820281158282048414176106dc576106dc6155cf565b634e487b7160e01b600052601260045260246000fd5b600082615621576156216155fc565b500490565b634e487b7160e01b600052603260045260246000fd5b818103818111156106dc576106dc6155cf565b600060018201615661576156616155cf565b5060010190565b808201808211156106dc576106dc6155cf565b60006020828403121561568d57600080fd5b81516151b281615204565b60006001600160401b038211156156b1576156b161522f565b5060051b60200190565b600082601f8301126156cc57600080fd5b81516156d781615698565b6040516156e48282615245565b80915082815260208101915060208360051b86010192508583111561570857600080fd5b602085015b8381101561572e578051615720816151d2565b83526020928301920161570d565b5095945050505050565b600082601f83011261574957600080fd5b815161575481615698565b6040516157618282615245565b80915082815260208101915060208360051b86010192508583111561578557600080fd5b602085015b8381101561572e57805183526020928301920161578a565b600080604083850312156157b557600080fd5b82516001600160401b038111156157cb57600080fd5b6157d7858286016156bb565b92505060208301516001600160401b038111156157f357600080fd5b61550585828601615738565b60006020828403121561581157600080fd5b81516151b281615417565b6001815b60018411156158575780850481111561583b5761583b6155cf565b600184161561584957908102905b60019390931c928002615820565b935093915050565b60008261586e575060016106dc565b8161587b575060006106dc565b8160018114615891576002811461589b576158b7565b60019150506106dc565b60ff8411156158ac576158ac6155cf565b50506001821b6106dc565b5060208310610133831016604e8410600b84101617156158da575081810a6106dc565b6158e7600019848461581c565b80600019048211156158fb576158fb6155cf565b029392505050565b60006151b2838361585f565b80820260008212600160ff1b8414161561592b5761592b6155cf565b81810583148215176106dc576106dc6155cf565b81810360008312801583831316838312821617156115af576115af6155cf565b60008261596e5761596e6155fc565b600160ff1b821460001984141615615988576159886155cf565b500590565b8082018281126000831280158216821582161715613017576130176155cf565b60ff82811682821603908111156106dc576106dc6155cf565b60006151b260ff84168361585f565b634e487b7160e01b600052603160045260246000fd5b600080604083850312156159fe57600080fd5b82516001600160401b03811115615a1457600080fd5b615a20858286016156bb565b92505060208301516001600160401b03811115615a3c57600080fd5b8301601f81018513615a4d57600080fd5b8051615a5881615698565b604051615a658282615245565b80915082815260208101915060208360051b850101925087831115615a8957600080fd5b6020840193505b82841015615ab4578351615aa381615417565b825260209384019390910190615a90565b809450505050509250929050565b600060208284031215615ad457600080fd5b81516151b2816151d2565b600060208284031215615af157600080fd5b5051919050565b82815260406020820152600061225a6040830184615338565b600060208284031215615b2357600080fd5b81516001600160401b03811115615b3957600080fd5b61225a84828501615738565b6040808252835490820181905260008481526020812090916060840190835b81811015615b8b5783546001600160a01b0316835260019384019360209093019201615b64565b50508381036020850152612da1818661537d565b634e487b7160e01b600052602160045260246000fd5b805161ffff81168114615bc757600080fd5b919050565b600080600080600080600060e0888a031215615be757600080fd5b8751615bf2816151d2565b8097505060208801518060020b8114615c0a57600080fd5b9550615c1860408901615bb5565b9450615c2660608901615bb5565b9350615c3460808901615bb5565b925060a0880151615c4481615417565b60c0890151909250615c5581615204565b8091505092959891949750929550565b6001600160a01b0381811683821601908111156106dc576106dc6155cf565b60006001600160a01b03831680615c9d57615c9d6155fc565b6001600160a01b03929092169190910492915050565b600060033d1115615ccc5760046000803e5060005160e01c5b90565b600060443d1015615cdd5790565b6040513d600319016004823e80513d60248201116001600160401b0382111715615d0657505090565b80820180516001600160401b03811115615d21575050505090565b3d8401600319018282016020011115615d3b575050505090565b615d4a60208285010185615245565b509392505050565b60005b83811015615d6d578181015183820152602001615d55565b50506000910152565b60008151808452615d8e816020860160208601615d52565b601f01601f19169290920160200192915050565b6001600160a01b0384168152606060208201819052600090615dc690830185615d76565b8281036040840152612da18185615d76565b6001600160a01b0383168152606060208201819052600090615dfc90830184615d76565b8281036040840152612dfc81600b81526a14ddd85c0819985a5b195960aa1b602082015260400190565b838152826020820152608060408201526000615e456080830184615d76565b82810360608401526002815261563360f01b602082015260408101915050949350505050565b838152606060208201526000615dc66060830185615d76565b828152606060208201526000615dfc6060830184615d76565b838152826020820152608060408201526000615ebc6080830184615d76565b828103606084015260028152612b1960f11b602082015260408101915050949350505050565b600060208284031215615ef457600080fd5b81516001600160401b03811115615f0a57600080fd5b8201601f81018413615f1b57600080fd5b8051615f2681615271565b604051615f338282615245565b828152866020848601011115615f4857600080fd5b612da1836020830160208701615d5256fed24517bb053209af5f1d6b05c7180d697782d89045c90b2885f8ac5f3d0e52e7679b4db551486bdc8b8c3d86cea88bd774cea7c203e4aa4e3b39b7bb5f64bc14a26469706673582212201400b7cac83e4a7a5b18c52fa8dcb42d2f1126d0014f034bbfb836c04fb4363c64736f6c634300081a0033",
    "linkReferences": {}
  },
  "methodIdentifiers": {
    "DEFAULT_ADMIN_ROLE()": "a217fddf",
    "addTokens(address[])": "4ae05c7d",
    "addWhitelisted(address)": "10154bad",
    "adminWithdrawWholeFundTokens()": "2c30ad5b",
    "adminWithdrawWholeFundWETH(bytes)": "a2ae2770",
    "calculateUserTotalValueInUSD(address)": "61ab3663",
    "checkSwapQueue(address)": "31038fbd",
    "checkUsersWithSwapQueue()": "791e38de",
    "deposit(uint256,bytes)": "5d303519",
    "depositRecoveryBalance(uint256)": "46cdf2f1",
    "doRebalance(bytes)": "fc228e6b",
    "getRoleAdmin(bytes32)": "248a9ca3",
    "getUserPortfolioShare(address)": "e1081353",
    "getUserTokenShare(address,address)": "89296eec",
    "getUserTokenTotalValueInUSDC(address,address)": "66de7267",
    "grantRole(bytes32,address)": "2f2ff15d",
    "hasRole(bytes32,address)": "91d14854",
    "needToRebalance(bytes)": "6a4e9b7a",
    "pauseOrUnpause(bool)": "252aa530",
    "paused()": "5c975abb",
    "removeToken(uint256)": "36c5d724",
    "removeWhitelisted(address)": "291d9549",
    "renounceRole(bytes32,address)": "36568abe",
    "revokeRole(bytes32,address)": "d547741f",
    "setFeeData(uint8,uint8)": "3f5cc468",
    "supportsInterface(bytes4)": "01ffc9a7",
    "swapUserQueueBuy(address,bytes)": "99303e9d",
    "tokensList()": "bd5dc202",
    "updateSlippageTolerance(uint256)": "0f9da743",
    "userTokensBalance(address)": "27cdd8f9",
    "userWithdrawWholeFundWETH(bytes,uint256)": "26519373",
    "users(address)": "a87430ba",
    "usersList()": "77b6af52",
    "withdrawAccumulatedFees()": "2e185ec7",
    "withdrawAllInKind()": "78d254b1",
    "withdrawETH()": "e086e5ec"
  },
  "id": 33
}