{
  "abi": [
    {
      "type": "constructor",
      "inputs": [],
      "stateMutability": "nonpayable"
    },
    {
      "type": "fallback",
      "stateMutability": "payable"
    },
    {
      "type": "receive",
      "stateMutability": "payable"
    },
    {
      "type": "function",
      "name": "DEFAULT_ADMIN_ROLE",
      "inputs": [],
      "outputs": [
        {
          "name": "",
          "type": "bytes32",
          "internalType": "bytes32"
        }
      ],
      "stateMutability": "view"
    },
    {
      "type": "function",
      "name": "addTokens",
      "inputs": [
        {
          "name": "_tokens",
          "type": "address[]",
          "internalType": "address[]"
        }
      ],
      "outputs": [],
      "stateMutability": "nonpayable"
    },
    {
      "type": "function",
      "name": "addWhitelisted",
      "inputs": [
        {
          "name": "_user",
          "type": "address",
          "internalType": "address"
        }
      ],
      "outputs": [],
      "stateMutability": "nonpayable"
    },
    {
      "type": "function",
      "name": "adminWithdrawWholeFundTokens",
      "inputs": [],
      "outputs": [],
      "stateMutability": "nonpayable"
    },
    {
      "type": "function",
      "name": "adminWithdrawWholeFundWETH",
      "inputs": [
        {
          "name": "tokensData",
          "type": "bytes",
          "internalType": "bytes"
        }
      ],
      "outputs": [],
      "stateMutability": "nonpayable"
    },
    {
      "type": "function",
      "name": "calculateUserTotalValueInUSD",
      "inputs": [
        {
          "name": "_user",
          "type": "address",
          "internalType": "address"
        }
      ],
      "outputs": [
        {
          "name": "",
          "type": "uint256",
          "internalType": "uint256"
        }
      ],
      "stateMutability": "view"
    },
    {
      "type": "function",
      "name": "checkSwapQueue",
      "inputs": [
        {
          "name": "_user",
          "type": "address",
          "internalType": "address"
        }
      ],
      "outputs": [
        {
          "name": "",
          "type": "address[]",
          "internalType": "address[]"
        }
      ],
      "stateMutability": "view"
    },
    {
      "type": "function",
      "name": "checkUsersWithSwapQueue",
      "inputs": [],
      "outputs": [
        {
          "name": "_user",
          "type": "address[]",
          "internalType": "address[]"
        },
        {
          "name": "_swpQueue",
          "type": "address[]",
          "internalType": "address[]"
        }
      ],
      "stateMutability": "view"
    },
    {
      "type": "function",
      "name": "deposit",
      "inputs": [
        {
          "name": "wethAmount",
          "type": "uint256",
          "internalType": "uint256"
        },
        {
          "name": "tokensData",
          "type": "bytes",
          "internalType": "bytes"
        }
      ],
      "outputs": [],
      "stateMutability": "payable"
    },
    {
      "type": "function",
      "name": "depositRecoveryBalance",
      "inputs": [
        {
          "name": "wethAmount",
          "type": "uint256",
          "internalType": "uint256"
        }
      ],
      "outputs": [],
      "stateMutability": "payable"
    },
    {
      "type": "function",
      "name": "doRebalance",
      "inputs": [
        {
          "name": "tokensData",
          "type": "bytes",
          "internalType": "bytes"
        }
      ],
      "outputs": [],
      "stateMutability": "nonpayable"
    },
    {
      "type": "function",
      "name": "getFee",
      "inputs": [
        {
          "name": "wethAmount",
          "type": "uint256",
          "internalType": "uint256"
        },
        {
          "name": "_direction",
          "type": "uint8",
          "internalType": "enum PM5.FeeDirection"
        }
      ],
      "outputs": [
        {
          "name": "",
          "type": "uint256",
          "internalType": "uint256"
        }
      ],
      "stateMutability": "payable"
    },
    {
      "type": "function",
      "name": "getRoleAdmin",
      "inputs": [
        {
          "name": "role",
          "type": "bytes32",
          "internalType": "bytes32"
        }
      ],
      "outputs": [
        {
          "name": "",
          "type": "bytes32",
          "internalType": "bytes32"
        }
      ],
      "stateMutability": "view"
    },
    {
      "type": "function",
      "name": "getUserPortfolioShare",
      "inputs": [
        {
          "name": "user",
          "type": "address",
          "internalType": "address"
        }
      ],
      "outputs": [
        {
          "name": "",
          "type": "uint256",
          "internalType": "uint256"
        }
      ],
      "stateMutability": "view"
    },
    {
      "type": "function",
      "name": "getUserTokenShare",
      "inputs": [
        {
          "name": "_user",
          "type": "address",
          "internalType": "address"
        },
        {
          "name": "_token",
          "type": "address",
          "internalType": "address"
        }
      ],
      "outputs": [
        {
          "name": "",
          "type": "uint256",
          "internalType": "uint256"
        }
      ],
      "stateMutability": "view"
    },
    {
      "type": "function",
      "name": "getUserTokenTotalValueInUSDC",
      "inputs": [
        {
          "name": "_user",
          "type": "address",
          "internalType": "address"
        },
        {
          "name": "_token",
          "type": "address",
          "internalType": "address"
        }
      ],
      "outputs": [
        {
          "name": "",
          "type": "uint256",
          "internalType": "uint256"
        }
      ],
      "stateMutability": "view"
    },
    {
      "type": "function",
      "name": "grantRole",
      "inputs": [
        {
          "name": "role",
          "type": "bytes32",
          "internalType": "bytes32"
        },
        {
          "name": "account",
          "type": "address",
          "internalType": "address"
        }
      ],
      "outputs": [],
      "stateMutability": "nonpayable"
    },
    {
      "type": "function",
      "name": "hasRole",
      "inputs": [
        {
          "name": "role",
          "type": "bytes32",
          "internalType": "bytes32"
        },
        {
          "name": "account",
          "type": "address",
          "internalType": "address"
        }
      ],
      "outputs": [
        {
          "name": "",
          "type": "bool",
          "internalType": "bool"
        }
      ],
      "stateMutability": "view"
    },
    {
      "type": "function",
      "name": "needToRebalance",
      "inputs": [
        {
          "name": "tokensData",
          "type": "bytes",
          "internalType": "bytes"
        }
      ],
      "outputs": [
        {
          "name": "need",
          "type": "bool",
          "internalType": "bool"
        }
      ],
      "stateMutability": "nonpayable"
    },
    {
      "type": "function",
      "name": "pauseOrUnpause",
      "inputs": [
        {
          "name": "_pState",
          "type": "bool",
          "internalType": "bool"
        }
      ],
      "outputs": [],
      "stateMutability": "nonpayable"
    },
    {
      "type": "function",
      "name": "paused",
      "inputs": [],
      "outputs": [
        {
          "name": "",
          "type": "bool",
          "internalType": "bool"
        }
      ],
      "stateMutability": "view"
    },
    {
      "type": "function",
      "name": "removeToken",
      "inputs": [
        {
          "name": "_index",
          "type": "uint256",
          "internalType": "uint256"
        }
      ],
      "outputs": [],
      "stateMutability": "nonpayable"
    },
    {
      "type": "function",
      "name": "removeWhitelisted",
      "inputs": [
        {
          "name": "_user",
          "type": "address",
          "internalType": "address"
        }
      ],
      "outputs": [],
      "stateMutability": "nonpayable"
    },
    {
      "type": "function",
      "name": "renounceRole",
      "inputs": [
        {
          "name": "role",
          "type": "bytes32",
          "internalType": "bytes32"
        },
        {
          "name": "callerConfirmation",
          "type": "address",
          "internalType": "address"
        }
      ],
      "outputs": [],
      "stateMutability": "nonpayable"
    },
    {
      "type": "function",
      "name": "revokeRole",
      "inputs": [
        {
          "name": "role",
          "type": "bytes32",
          "internalType": "bytes32"
        },
        {
          "name": "account",
          "type": "address",
          "internalType": "address"
        }
      ],
      "outputs": [],
      "stateMutability": "nonpayable"
    },
    {
      "type": "function",
      "name": "setFeeData",
      "inputs": [
        {
          "name": "depositFee",
          "type": "uint8",
          "internalType": "uint8"
        },
        {
          "name": "WithdrawFee",
          "type": "uint8",
          "internalType": "uint8"
        }
      ],
      "outputs": [],
      "stateMutability": "nonpayable"
    },
    {
      "type": "function",
      "name": "supportsInterface",
      "inputs": [
        {
          "name": "interfaceId",
          "type": "bytes4",
          "internalType": "bytes4"
        }
      ],
      "outputs": [
        {
          "name": "",
          "type": "bool",
          "internalType": "bool"
        }
      ],
      "stateMutability": "view"
    },
    {
      "type": "function",
      "name": "swapUserQueueBuy",
      "inputs": [
        {
          "name": "_user",
          "type": "address",
          "internalType": "address"
        },
        {
          "name": "tokensData",
          "type": "bytes",
          "internalType": "bytes"
        }
      ],
      "outputs": [],
      "stateMutability": "nonpayable"
    },
    {
      "type": "function",
      "name": "tokensList",
      "inputs": [],
      "outputs": [
        {
          "name": "",
          "type": "address[]",
          "internalType": "address[]"
        }
      ],
      "stateMutability": "view"
    },
    {
      "type": "function",
      "name": "updateSlippageTolerance",
      "inputs": [
        {
          "name": "_slippageTolerance",
          "type": "uint256",
          "internalType": "uint256"
        }
      ],
      "outputs": [],
      "stateMutability": "nonpayable"
    },
    {
      "type": "function",
      "name": "userTokensBalance",
      "inputs": [
        {
          "name": "_user",
          "type": "address",
          "internalType": "address"
        }
      ],
      "outputs": [
        {
          "name": "",
          "type": "address[]",
          "internalType": "address[]"
        },
        {
          "name": "",
          "type": "uint256[]",
          "internalType": "uint256[]"
        }
      ],
      "stateMutability": "view"
    },
    {
      "type": "function",
      "name": "userWithdrawWholeFundWETH",
      "inputs": [
        {
          "name": "tokensData",
          "type": "bytes",
          "internalType": "bytes"
        },
        {
          "name": "percentage",
          "type": "uint256",
          "internalType": "uint256"
        }
      ],
      "outputs": [],
      "stateMutability": "nonpayable"
    },
    {
      "type": "function",
      "name": "users",
      "inputs": [
        {
          "name": "",
          "type": "address",
          "internalType": "address"
        }
      ],
      "outputs": [
        {
          "name": "tSharePortfo",
          "type": "uint256",
          "internalType": "uint256"
        },
        {
          "name": "wethValueFirst",
          "type": "uint256",
          "internalType": "uint256"
        },
        {
          "name": "usdtValueFirst",
          "type": "uint256",
          "internalType": "uint256"
        },
        {
          "name": "round",
          "type": "uint256",
          "internalType": "uint256"
        }
      ],
      "stateMutability": "view"
    },
    {
      "type": "function",
      "name": "usersList",
      "inputs": [],
      "outputs": [
        {
          "name": "",
          "type": "address[]",
          "internalType": "address[]"
        }
      ],
      "stateMutability": "view"
    },
    {
      "type": "function",
      "name": "withdrawAccumulatedFees",
      "inputs": [],
      "outputs": [],
      "stateMutability": "nonpayable"
    },
    {
      "type": "function",
      "name": "withdrawAllInKind",
      "inputs": [],
      "outputs": [],
      "stateMutability": "nonpayable"
    },
    {
      "type": "function",
      "name": "withdrawETH",
      "inputs": [],
      "outputs": [],
      "stateMutability": "nonpayable"
    },
    {
      "type": "event",
      "name": "AMTout",
      "inputs": [
        {
          "name": "amtOut",
          "type": "uint256",
          "indexed": false,
          "internalType": "uint256"
        }
      ],
      "anonymous": false
    },
    {
      "type": "event",
      "name": "Balance",
      "inputs": [
        {
          "name": "sender",
          "type": "address",
          "indexed": false,
          "internalType": "address"
        },
        {
          "name": "bal",
          "type": "uint256",
          "indexed": false,
          "internalType": "uint256"
        }
      ],
      "anonymous": false
    },
    {
      "type": "event",
      "name": "CurrentValuesSet",
      "inputs": [
        {
          "name": "currentUSD",
          "type": "uint256",
          "indexed": false,
          "internalType": "uint256"
        },
        {
          "name": "tokens",
          "type": "address[]",
          "indexed": false,
          "internalType": "address[]"
        },
        {
          "name": "tUSD",
          "type": "uint256[]",
          "indexed": false,
          "internalType": "uint256[]"
        }
      ],
      "anonymous": false
    },
    {
      "type": "event",
      "name": "DepositReceived",
      "inputs": [
        {
          "name": "user",
          "type": "address",
          "indexed": true,
          "internalType": "address"
        },
        {
          "name": "amount",
          "type": "uint256",
          "indexed": false,
          "internalType": "uint256"
        }
      ],
      "anonymous": false
    },
    {
      "type": "event",
      "name": "FeeReceived",
      "inputs": [
        {
          "name": "owner",
          "type": "address",
          "indexed": true,
          "internalType": "address"
        },
        {
          "name": "amount",
          "type": "uint256",
          "indexed": false,
          "internalType": "uint256"
        }
      ],
      "anonymous": false
    },
    {
      "type": "event",
      "name": "FeesWithdrawn",
      "inputs": [
        {
          "name": "owner",
          "type": "address",
          "indexed": true,
          "internalType": "address"
        },
        {
          "name": "amount",
          "type": "uint256",
          "indexed": false,
          "internalType": "uint256"
        },
        {
          "name": "tokenType",
          "type": "string",
          "indexed": false,
          "internalType": "string"
        }
      ],
      "anonymous": false
    },
    {
      "type": "event",
      "name": "FundsRecieved",
      "inputs": [
        {
          "name": "sender",
          "type": "address",
          "indexed": true,
          "internalType": "address"
        },
        {
          "name": "ethAmount",
          "type": "uint256",
          "indexed": false,
          "internalType": "uint256"
        }
      ],
      "anonymous": false
    },
    {
      "type": "event",
      "name": "InitValuesSet",
      "inputs": [
        {
          "name": "initUSD",
          "type": "uint256",
          "indexed": false,
          "internalType": "uint256"
        },
        {
          "name": "tokens",
          "type": "address[]",
          "indexed": false,
          "internalType": "address[]"
        },
        {
          "name": "tUSD",
          "type": "uint256[]",
          "indexed": false,
          "internalType": "uint256[]"
        }
      ],
      "anonymous": false
    },
    {
      "type": "event",
      "name": "PRICE",
      "inputs": [
        {
          "name": "price",
          "type": "uint256",
          "indexed": false,
          "internalType": "uint256"
        }
      ],
      "anonymous": false
    },
    {
      "type": "event",
      "name": "Paused",
      "inputs": [
        {
          "name": "account",
          "type": "address",
          "indexed": false,
          "internalType": "address"
        }
      ],
      "anonymous": false
    },
    {
      "type": "event",
      "name": "Pool",
      "inputs": [
        {
          "name": "pool",
          "type": "address",
          "indexed": false,
          "internalType": "address"
        }
      ],
      "anonymous": false
    },
    {
      "type": "event",
      "name": "PortfoTokenBalances",
      "inputs": [
        {
          "name": "daiCount",
          "type": "uint256",
          "indexed": false,
          "internalType": "uint256"
        }
      ],
      "anonymous": false
    },
    {
      "type": "event",
      "name": "PortfoTokenInitialUSDTPrices",
      "inputs": [
        {
          "name": "daiInitialUsdtPrice",
          "type": "uint256",
          "indexed": false,
          "internalType": "uint256"
        }
      ],
      "anonymous": false
    },
    {
      "type": "event",
      "name": "PortfoTokenPricesETH",
      "inputs": [
        {
          "name": "daiETHPrice",
          "type": "uint256",
          "indexed": false,
          "internalType": "uint256"
        }
      ],
      "anonymous": false
    },
    {
      "type": "event",
      "name": "Rebalanced",
      "inputs": [
        {
          "name": "OccureTime",
          "type": "uint256",
          "indexed": false,
          "internalType": "uint256"
        }
      ],
      "anonymous": false
    },
    {
      "type": "event",
      "name": "RemovedFromWhitelist",
      "inputs": [
        {
          "name": "account",
          "type": "address",
          "indexed": true,
          "internalType": "address"
        }
      ],
      "anonymous": false
    },
    {
      "type": "event",
      "name": "RoleAdminChanged",
      "inputs": [
        {
          "name": "role",
          "type": "bytes32",
          "indexed": true,
          "internalType": "bytes32"
        },
        {
          "name": "previousAdminRole",
          "type": "bytes32",
          "indexed": true,
          "internalType": "bytes32"
        },
        {
          "name": "newAdminRole",
          "type": "bytes32",
          "indexed": true,
          "internalType": "bytes32"
        }
      ],
      "anonymous": false
    },
    {
      "type": "event",
      "name": "RoleGranted",
      "inputs": [
        {
          "name": "role",
          "type": "bytes32",
          "indexed": true,
          "internalType": "bytes32"
        },
        {
          "name": "account",
          "type": "address",
          "indexed": true,
          "internalType": "address"
        },
        {
          "name": "sender",
          "type": "address",
          "indexed": true,
          "internalType": "address"
        }
      ],
      "anonymous": false
    },
    {
      "type": "event",
      "name": "RoleRevoked",
      "inputs": [
        {
          "name": "role",
          "type": "bytes32",
          "indexed": true,
          "internalType": "bytes32"
        },
        {
          "name": "account",
          "type": "address",
          "indexed": true,
          "internalType": "address"
        },
        {
          "name": "sender",
          "type": "address",
          "indexed": true,
          "internalType": "address"
        }
      ],
      "anonymous": false
    },
    {
      "type": "event",
      "name": "SQRTPriceX",
      "inputs": [
        {
          "name": "SQRT",
          "type": "uint256",
          "indexed": false,
          "internalType": "uint256"
        }
      ],
      "anonymous": false
    },
    {
      "type": "event",
      "name": "ShowDepositedTokensData",
      "inputs": [
        {
          "name": "tokenIn",
          "type": "address[]",
          "indexed": false,
          "internalType": "address[]"
        },
        {
          "name": "tokenOut",
          "type": "address[]",
          "indexed": false,
          "internalType": "address[]"
        }
      ],
      "anonymous": false
    },
    {
      "type": "event",
      "name": "ShowTokensDataEvent",
      "inputs": [
        {
          "name": "pool",
          "type": "address[]",
          "indexed": false,
          "internalType": "address[]"
        },
        {
          "name": "uniV",
          "type": "uint8[]",
          "indexed": false,
          "internalType": "uint8[]"
        }
      ],
      "anonymous": false
    },
    {
      "type": "event",
      "name": "SwapFailed",
      "inputs": [
        {
          "name": "user",
          "type": "address",
          "indexed": true,
          "internalType": "address"
        },
        {
          "name": "amount",
          "type": "uint256",
          "indexed": false,
          "internalType": "uint256"
        },
        {
          "name": "tokenName",
          "type": "string",
          "indexed": false,
          "internalType": "string"
        },
        {
          "name": "reason",
          "type": "string",
          "indexed": false,
          "internalType": "string"
        }
      ],
      "anonymous": false
    },
    {
      "type": "event",
      "name": "SwapSuccessful",
      "inputs": [
        {
          "name": "user",
          "type": "address",
          "indexed": true,
          "internalType": "address"
        },
        {
          "name": "wethAmountPerToken",
          "type": "uint256",
          "indexed": false,
          "internalType": "uint256"
        },
        {
          "name": "receivedTokenAmount",
          "type": "int256",
          "indexed": false,
          "internalType": "int256"
        },
        {
          "name": "tokenName",
          "type": "string",
          "indexed": false,
          "internalType": "string"
        },
        {
          "name": "uniswapV",
          "type": "string",
          "indexed": false,
          "internalType": "string"
        }
      ],
      "anonymous": false
    },
    {
      "type": "event",
      "name": "TOTALETH",
      "inputs": [
        {
          "name": "Total",
          "type": "uint256",
          "indexed": false,
          "internalType": "uint256"
        },
        {
          "name": "admin",
          "type": "address",
          "indexed": false,
          "internalType": "address"
        },
        {
          "name": "ContractBalance",
          "type": "uint256",
          "indexed": false,
          "internalType": "uint256"
        }
      ],
      "anonymous": false
    },
    {
      "type": "event",
      "name": "TokenData",
      "inputs": [
        {
          "name": "route",
          "type": "address",
          "indexed": false,
          "internalType": "address"
        },
        {
          "name": "tokenOut",
          "type": "address",
          "indexed": false,
          "internalType": "address"
        },
        {
          "name": "usdVal",
          "type": "uint256",
          "indexed": false,
          "internalType": "uint256"
        },
        {
          "name": "wethVal",
          "type": "uint256",
          "indexed": false,
          "internalType": "uint256"
        },
        {
          "name": "uniV",
          "type": "uint8",
          "indexed": false,
          "internalType": "uint8"
        }
      ],
      "anonymous": false
    },
    {
      "type": "event",
      "name": "TokenDataBytes",
      "inputs": [
        {
          "name": "tokenData",
          "type": "bytes",
          "indexed": false,
          "internalType": "bytes"
        }
      ],
      "anonymous": false
    },
    {
      "type": "event",
      "name": "TokenRemoved",
      "inputs": [
        {
          "name": "tokens",
          "type": "address",
          "indexed": false,
          "internalType": "address"
        }
      ],
      "anonymous": false
    },
    {
      "type": "event",
      "name": "TokenSharesUpdated",
      "inputs": [
        {
          "name": "status",
          "type": "bool",
          "indexed": false,
          "internalType": "bool"
        }
      ],
      "anonymous": false
    },
    {
      "type": "event",
      "name": "TokensAdded",
      "inputs": [
        {
          "name": "addedTokens",
          "type": "address[]",
          "indexed": false,
          "internalType": "address[]"
        }
      ],
      "anonymous": false
    },
    {
      "type": "event",
      "name": "TokensList",
      "inputs": [
        {
          "name": "list",
          "type": "address[]",
          "indexed": false,
          "internalType": "address[]"
        }
      ],
      "anonymous": false
    },
    {
      "type": "event",
      "name": "TokensWithdrawAllInKindEvent",
      "inputs": [
        {
          "name": "token",
          "type": "address",
          "indexed": false,
          "internalType": "address"
        },
        {
          "name": "bal",
          "type": "uint256",
          "indexed": false,
          "internalType": "uint256"
        }
      ],
      "anonymous": false
    },
    {
      "type": "event",
      "name": "Unpaused",
      "inputs": [
        {
          "name": "account",
          "type": "address",
          "indexed": false,
          "internalType": "address"
        }
      ],
      "anonymous": false
    },
    {
      "type": "event",
      "name": "UserAdded",
      "inputs": [
        {
          "name": "user",
          "type": "address",
          "indexed": true,
          "internalType": "address"
        }
      ],
      "anonymous": false
    },
    {
      "type": "event",
      "name": "UserTokenBalance",
      "inputs": [
        {
          "name": "token",
          "type": "address",
          "indexed": false,
          "internalType": "address"
        },
        {
          "name": "round",
          "type": "uint256",
          "indexed": false,
          "internalType": "uint256"
        },
        {
          "name": "tokenbalance",
          "type": "uint256",
          "indexed": false,
          "internalType": "uint256"
        }
      ],
      "anonymous": false
    },
    {
      "type": "event",
      "name": "UserTokenBalance",
      "inputs": [
        {
          "name": "user",
          "type": "address",
          "indexed": false,
          "internalType": "address"
        },
        {
          "name": "token",
          "type": "address",
          "indexed": false,
          "internalType": "address"
        },
        {
          "name": "userTokenBalance",
          "type": "uint256",
          "indexed": false,
          "internalType": "uint256"
        }
      ],
      "anonymous": false
    },
    {
      "type": "event",
      "name": "UserTokenBalanceRound",
      "inputs": [
        {
          "name": "user",
          "type": "address",
          "indexed": false,
          "internalType": "address"
        },
        {
          "name": "token",
          "type": "address",
          "indexed": false,
          "internalType": "address"
        },
        {
          "name": "round",
          "type": "uint256",
          "indexed": false,
          "internalType": "uint256"
        },
        {
          "name": "userTokenBalance",
          "type": "uint256",
          "indexed": false,
          "internalType": "uint256"
        }
      ],
      "anonymous": false
    },
    {
      "type": "event",
      "name": "UserTokensBalance",
      "inputs": [
        {
          "name": "user",
          "type": "address",
          "indexed": false,
          "internalType": "address"
        },
        {
          "name": "tokens",
          "type": "address[]",
          "indexed": false,
          "internalType": "address[]"
        },
        {
          "name": "userTokensBalance",
          "type": "uint256[]",
          "indexed": false,
          "internalType": "uint256[]"
        }
      ],
      "anonymous": false
    },
    {
      "type": "event",
      "name": "UserWhitelisted",
      "inputs": [
        {
          "name": "account",
          "type": "address",
          "indexed": true,
          "internalType": "address"
        }
      ],
      "anonymous": false
    },
    {
      "type": "event",
      "name": "V3ETH",
      "inputs": [
        {
          "name": "isV3",
          "type": "bool",
          "indexed": false,
          "internalType": "bool"
        }
      ],
      "anonymous": false
    },
    {
      "type": "event",
      "name": "WETHVALUE",
      "inputs": [
        {
          "name": "wethVal",
          "type": "uint256",
          "indexed": false,
          "internalType": "uint256"
        }
      ],
      "anonymous": false
    },
    {
      "type": "event",
      "name": "WethBalanceAdmin",
      "inputs": [
        {
          "name": "wethBalance",
          "type": "uint256",
          "indexed": false,
          "internalType": "uint256"
        },
        {
          "name": "admin",
          "type": "address",
          "indexed": false,
          "internalType": "address"
        }
      ],
      "anonymous": false
    },
    {
      "type": "event",
      "name": "WithdrawEvent",
      "inputs": [
        {
          "name": "user",
          "type": "address",
          "indexed": false,
          "internalType": "address"
        },
        {
          "name": "withAmt",
          "type": "int256",
          "indexed": false,
          "internalType": "int256"
        }
      ],
      "anonymous": false
    },
    {
      "type": "event",
      "name": "WithdrawEvent",
      "inputs": [
        {
          "name": "token",
          "type": "address",
          "indexed": false,
          "internalType": "address"
        },
        {
          "name": "withAmt",
          "type": "uint256",
          "indexed": false,
          "internalType": "uint256"
        }
      ],
      "anonymous": false
    },
    {
      "type": "event",
      "name": "handleSwapEvent",
      "inputs": [
        {
          "name": "amount",
          "type": "uint256",
          "indexed": false,
          "internalType": "uint256"
        },
        {
          "name": "tokenIn",
          "type": "address",
          "indexed": false,
          "internalType": "address"
        },
        {
          "name": "tokenOut",
          "type": "address",
          "indexed": false,
          "internalType": "address"
        },
        {
          "name": "minAmtOut",
          "type": "uint256",
          "indexed": false,
          "internalType": "uint256"
        }
      ],
      "anonymous": false
    },
    {
      "type": "event",
      "name": "handleSwapEventAmtOut",
      "inputs": [
        {
          "name": "minAmtOut",
          "type": "uint256[]",
          "indexed": false,
          "internalType": "uint256[]"
        },
        {
          "name": "pairAddress",
          "type": "address[]",
          "indexed": false,
          "internalType": "address[]"
        }
      ],
      "anonymous": false
    },
    {
      "type": "event",
      "name": "handleTokenToTokenSwapEvent",
      "inputs": [
        {
          "name": "token",
          "type": "address",
          "indexed": false,
          "internalType": "address"
        },
        {
          "name": "userTokenBalance",
          "type": "uint256",
          "indexed": false,
          "internalType": "uint256"
        },
        {
          "name": "tokenOut",
          "type": "address",
          "indexed": false,
          "internalType": "address"
        }
      ],
      "anonymous": false
    },
    {
      "type": "event",
      "name": "handleWETHToTokenSwapEvent",
      "inputs": [
        {
          "name": "token",
          "type": "address",
          "indexed": false,
          "internalType": "address"
        },
        {
          "name": "ethAmtPerToken",
          "type": "uint256",
          "indexed": false,
          "internalType": "uint256"
        },
        {
          "name": "tokenOut",
          "type": "address",
          "indexed": false,
          "internalType": "address"
        }
      ],
      "anonymous": false
    },
    {
      "type": "event",
      "name": "howMuch",
      "inputs": [
        {
          "name": "sender",
          "type": "address",
          "indexed": true,
          "internalType": "address"
        },
        {
          "name": "amt",
          "type": "uint256",
          "indexed": false,
          "internalType": "uint256"
        }
      ],
      "anonymous": false
    },
    {
      "type": "event",
      "name": "withdrawAllInKindEvent",
      "inputs": [
        {
          "name": "token",
          "type": "address",
          "indexed": false,
          "internalType": "address"
        },
        {
          "name": "remained",
          "type": "uint256",
          "indexed": false,
          "internalType": "uint256"
        }
      ],
      "anonymous": false
    },
    {
      "type": "event",
      "name": "withdrawInKindEvent",
      "inputs": [
        {
          "name": "token",
          "type": "address",
          "indexed": false,
          "internalType": "address"
        },
        {
          "name": "beforeWithAmt",
          "type": "uint256",
          "indexed": false,
          "internalType": "uint256"
        },
        {
          "name": "withAmt",
          "type": "uint256",
          "indexed": false,
          "internalType": "uint256"
        },
        {
          "name": "remained",
          "type": "uint256",
          "indexed": false,
          "internalType": "uint256"
        }
      ],
      "anonymous": false
    },
    {
      "type": "error",
      "name": "AccessControlBadConfirmation",
      "inputs": []
    },
    {
      "type": "error",
      "name": "AccessControlUnauthorizedAccount",
      "inputs": [
        {
          "name": "account",
          "type": "address",
          "internalType": "address"
        },
        {
          "name": "neededRole",
          "type": "bytes32",
          "internalType": "bytes32"
        }
      ]
    },
    {
      "type": "error",
      "name": "EnforcedPause",
      "inputs": []
    },
    {
      "type": "error",
      "name": "ExpectedPause",
      "inputs": []
    },
    {
      "type": "error",
      "name": "ReentrancyGuardReentrantCall",
      "inputs": []
    }
  ],
  "bytecode": {
    "object": "0x60e06040527ff23ec0bb4210edd5cba85afd05127efcd2fc6a781bfed49188da1081670b22d86003556004805461ffff191660641790556103e860085534801561004857600080fd5b5060016000819055805460ff191690556004805462010000600160b01b03191633620100000217815573edf6066a2b290c185783862c7f4776a2c8077ad160a0819052604080516315ab88c960e31b81529051919263ad5c46489282820192602092908290030181865afa1580156100c4573d6000803e3d6000fd5b505050506040513d601f19601f820116820180604052508101906100e8919061021d565b6001600160a01b03908116608081905260c052600454610111916000916201000090041661016d565b5060035460045461013191906201000090046001600160a01b031661016d565b506040805180820190915260045461ffff168082526020909101819052600f805463ffffffff191682176201000090920291909117905561024d565b60008281526002602090815260408083206001600160a01b038516845290915281205460ff166102135760008381526002602090815260408083206001600160a01b03861684529091529020805460ff191660011790556101cb3390565b6001600160a01b0316826001600160a01b0316847f2f8788117e7eff1d82e926ec794901d17c78024a50270940304540a733656f0d60405160405180910390a4506001610217565b5060005b92915050565b60006020828403121561022f57600080fd5b81516001600160a01b038116811461024657600080fd5b9392505050565b60805160a05160c051615fd4610324600039600081816111df0152818161126d015281816113ad0152818161143b015281816138c30152613e0501526000614c0601526000818161090b01528181610c1301528181610f42015281816115ae01528181611f3201528181611fa2015281816120f3015281816121a5015281816126a0015281816129f801528181612a7a01528181612b000152818161307b015281816133f70152818161351f01528181613a2601528181613d3201528181614282015281816145d10152614bac0152615fd46000f3fe6080604052600436106102065760003560e01c80635c975abb1161011757806391d14854116100a5578063bd5dc2021161006c578063bd5dc2021461063f578063d547741f14610654578063e086e5ec14610674578063e108135314610689578063fc228e6b146106a957005b806391d148541461056557806399303e9d14610585578063a217fddf146105a5578063a2ae2770146105ba578063a87430ba146105da57005b80636a4e9b7a116100e95780636a4e9b7a146104d857806377b6af52146104f857806378d254b11461050d578063791e38de1461052257806389296eec1461054557005b80635c975abb1461046d5780635d3035191461048557806361ab36631461049857806366de7267146104b857005b80632e185ec71161019457806336568abe1161016657806336568abe146103da57806336c5d724146103fa5780633f5cc4681461041a57806346cdf2f11461043a5780634ae05c7d1461044d57005b80632e185ec7146103655780632e5a247f1461037a5780632f2ff15d1461038d57806331038fbd146103ad57005b8063252aa530116101d8578063252aa530146102c257806326519373146102e257806327cdd8f914610302578063291d9549146103305780632c30ad5b1461035057005b806301ffc9a71461020f5780630f9da7431461024457806310154bad14610264578063248a9ca31461028457005b3661020d57005b005b34801561021b57600080fd5b5061022f61022a366004615164565b6106c9565b60405190151581526020015b60405180910390f35b34801561025057600080fd5b5061020d61025f366004615195565b610700565b34801561027057600080fd5b5061020d61027f3660046151c3565b610712565b34801561029057600080fd5b506102b461029f366004615195565b60009081526002602052604090206001015490565b60405190815260200161023b565b3480156102ce57600080fd5b5061020d6102dd3660046151ee565b610744565b3480156102ee57600080fd5b5061020d6102fd3660046152d0565b61076a565b34801561030e57600080fd5b5061032261031d3660046151c3565b610ca4565b60405161023b92919061538b565b34801561033c57600080fd5b5061020d61034b3660046151c3565b610dac565b34801561035c57600080fd5b5061020d610dd0565b34801561037157600080fd5b5061020d610eeb565b6102b46103883660046153b0565b610fbf565b34801561039957600080fd5b5061020d6103a83660046153e4565b611019565b3480156103b957600080fd5b506103cd6103c83660046151c3565b611044565b60405161023b9190615409565b3480156103e657600080fd5b5061020d6103f53660046153e4565b6110bd565b34801561040657600080fd5b5061020d610415366004615195565b6110f0565b34801561042657600080fd5b5061020d61043536600461542b565b611156565b61020d610448366004615195565b6111cb565b34801561045957600080fd5b5061020d610468366004615459565b61130d565b34801561047957600080fd5b5060015460ff1661022f565b61020d6104933660046154ce565b611385565b3480156104a457600080fd5b506102b46104b33660046151c3565b6115df565b3480156104c457600080fd5b506102b46104d3366004615514565b61163f565b3480156104e457600080fd5b5061022f6104f3366004615542565b611713565b34801561050457600080fd5b506103cd61184a565b34801561051957600080fd5b5061020d6118ac565b34801561052e57600080fd5b50610537611ba3565b60405161023b929190615576565b34801561055157600080fd5b506102b4610560366004615514565b611da0565b34801561057157600080fd5b5061022f6105803660046153e4565b611e92565b34801561059157600080fd5b5061020d6105a036600461559b565b611ebd565b3480156105b157600080fd5b506102b4600081565b3480156105c657600080fd5b5061020d6105d5366004615542565b61201c565b3480156105e657600080fd5b5061061f6105f53660046151c3565b600c6020526000908152604090206003810154600f82015460108301546011909301549192909184565b60408051948552602085019390935291830152606082015260800161023b565b34801561064b57600080fd5b506103cd612212565b34801561066057600080fd5b5061020d61066f3660046153e4565b612272565b34801561068057600080fd5b5061020d612297565b34801561069557600080fd5b506102b46106a43660046151c3565b6122cf565b3480156106b557600080fd5b5061020d6106c4366004615542565b612320565b60006001600160e01b03198216637965db0b60e01b14806106fa57506301ffc9a760e01b6001600160e01b03198316145b92915050565b60035461070c816123ff565b50600855565b60035461071e816123ff565b61072782612409565b61073f600080516020615f7f83398151915283612490565b505050565b600354610750816123ff565b81156107625761075e612524565b5050565b61075e612578565b600080516020615f7f833981519152610782816123ff565b61078a6125b1565b6107926125d7565b6000808061079f86612601565b92505091506000806107b033610ca4565b915091506000806107bf612b6e565b909250905060006107d361271060646155ea565b6127106107e08c856155ea565b6107ea91906155ea565b6107f49190615617565b905060005b8551811015610bad57600061081161271060646155ea565b6127108784815181106108265761082661562b565b60200260200101518785815181106108405761084061562b565b602002602001015161085291906155ea565b61085c91906155ea565b6108669190615617565b9050600061087761271060646155ea565b6127108e89868151811061088d5761088d61562b565b602002602001015161089f91906155ea565b6108a991906155ea565b6108b39190615617565b905083821115610a8257336000908152600c602052604081208b5161095c919084908e90889081106108e7576108e761562b565b60200260200101518c88815181106109015761090161562b565b60200260200101517f00000000000000000000000000000000000000000000000000000000000000008f8a8151811061093c5761093c61562b565b602002602001015160ff16600314610955576000612d2b565b6001612d2b565b905060015b336000908152600c60205260409020601101548111610a0657336000908152600c602052604081208b518592600590920191908d90899081106109a6576109a661562b565b60200260200101516001600160a01b03166001600160a01b03168152602001908152602001600020600083815260200190815260200160002060008282546109ee9190615641565b909155508190506109fe81615654565b915050610961565b50336000908152600c602052604081208a518492600490920191908c9088908110610a3357610a3361562b565b60200260200101516001600160a01b03166001600160a01b031681526020019081526020016000206000828254610a6a9190615641565b90915550610a7a9050818d61566d565b9b5050610ba3565b336000908152600c602052604081208b51610aac919084908e90889081106108e7576108e761562b565b905060015b336000908152600c60205260409020601101548111610b4557336000908152600c602052604081208b5160059091019082908d9089908110610af557610af561562b565b60200260200101516001600160a01b03166001600160a01b031681526020019081526020016000206000838152602001908152602001600020819055508080610b3d90615654565b915050610ab1565b50336000908152600c602052604081208a5160049091019082908c9088908110610b7157610b7161562b565b6020908102919091018101516001600160a01b0316825281019190915260400160002055610b9f818d61566d565b9b50505b50506001016107f9565b506000610bbb896002610fbf565b905060008111610bf75760405162461bcd60e51b81526020600482015260026024820152614e4560f01b60448201526064015b60405180910390fd5b60405163a9059cbb60e01b8152336004820152602481018290527f00000000000000000000000000000000000000000000000000000000000000006001600160a01b03169063a9059cbb906044016020604051808303816000875af1158015610c64573d6000803e3d6000fd5b505050506040513d601f19601f82011682018060405250810190610c889190615680565b50610c91612f08565b50505050505050505061073f6001600055565b60608060006005805480602002602001604051908101604052809291908181526020018280548015610cff57602002820191906000526020600020905b81546001600160a01b03168152600190910190602001808311610ce1575b50505050509050600081516001600160401b03811115610d2157610d2161520b565b604051908082528060200260200182016040528015610d4a578160200160208202803683370190505b50905060005b8251811015610da157610d7c86848381518110610d6f57610d6f61562b565b6020026020010151613053565b828281518110610d8e57610d8e61562b565b6020908102919091010152600101610d50565b509094909350915050565b600354610db8816123ff565b61073f600080516020615f7f83398151915283613122565b600354610ddc816123ff565b6000610de661318f565b905060008082806020019051810190610dff91906157a7565b9150915060005b8251811015610ee457828181518110610e2157610e2161562b565b60200260200101516001600160a01b031663a9059cbb600460029054906101000a90046001600160a01b0316848481518110610e5f57610e5f61562b565b60200260200101516040518363ffffffff1660e01b8152600401610e989291906001600160a01b03929092168252602082015260400190565b6020604051808303816000875af1158015610eb7573d6000803e3d6000fd5b505050506040513d601f19601f82011682018060405250810190610edb9190615680565b50600101610e06565b5050505050565b600354610ef7816123ff565b610eff6125d7565b600a5415610fb257600a805460009091556004805460405163a9059cbb60e01b81526001600160a01b0362010000909204821692810192909252602482018390527f0000000000000000000000000000000000000000000000000000000000000000169063a9059cbb906044016020604051808303816000875af1158015610f8b573d6000803e3d6000fd5b505050506040513d601f19601f82011682018060405250810190610faf9190615680565b50505b610fbc6001600055565b50565b600454600090839082906201000090046001600160a01b03163303610fe2575060005b610fec82856132c5565b905080600a6000828254611000919061566d565b9091555061101090508183615641565b95945050505050565b600082815260026020526040902060010154611034816123ff565b61103e8383612490565b50505050565b6001600160a01b0381166000908152600c6020908152604091829020600e018054835181840281018401909452808452606093928301828280156110b157602002820191906000526020600020905b81546001600160a01b03168152600190910190602001808311611093575b50505050509050919050565b6001600160a01b03811633146110e65760405163334bd91960e11b815260040160405180910390fd5b61073f8282613122565b604051630f5a905960e11b81526005600482015260248101829052731a84415a04a98af6dbc477875dd9edbf6df1337790631eb520b29060440160006040518083038186803b15801561114257600080fd5b505af4158015610ee4573d6000803e3d6000fd5b600354611162816123ff565b600f60ff841660000361118957805463ffff0000191660ff8416620100000217815561103e565b8260ff166000036111a757805461ffff191660ff851617815561103e565b805460ff94851663ffffffff19909116179290931662010000029190911790915550565b6003546111d7816123ff565b34156112f2577f00000000000000000000000000000000000000000000000000000000000000006001600160a01b031663d0e30db0346040518263ffffffff1660e01b81526004016000604051808303818588803b15801561123857600080fd5b505af115801561124c573d6000803e3d6000fd5b505060405163a9059cbb60e01b8152306004820152346024820152600093507f00000000000000000000000000000000000000000000000000000000000000006001600160a01b0316925063a9059cbb91506044016020604051808303816000875af11580156112c0573d6000803e3d6000fd5b505050506040513d601f19601f820116820180604052508101906112e49190615680565b9050806112f057600080fd5b505b8160096000828254611304919061566d565b90915550505050565b600354611319816123ff565b60005b8281101561103e5760058484838181106113385761133861562b565b905060200201602081019061134d91906151c3565b815460018082018455600093845260209093200180546001600160a01b0319166001600160a01b03929092169190911790550161131c565b61138d6125b1565b600080516020615f7f8339815191526113a5816123ff565b34156114c0577f00000000000000000000000000000000000000000000000000000000000000006001600160a01b031663d0e30db0346040518263ffffffff1660e01b81526004016000604051808303818588803b15801561140657600080fd5b505af115801561141a573d6000803e3d6000fd5b505060405163a9059cbb60e01b8152306004820152346024820152600093507f00000000000000000000000000000000000000000000000000000000000000006001600160a01b0316925063a9059cbb91506044016020604051808303816000875af115801561148e573d6000803e3d6000fd5b505050506040513d601f19601f820116820180604052508101906114b29190615680565b9050806114be57600080fd5b505b60008060006114ce85612601565b336000908152600c60205260408120601181018054959850939650919450909291906114f983615654565b90915550879050600061150d826001610fbf565b905080836000016000856011015481526020019081526020016000206000828254611538919061566d565b9091555050600f8301829055306000908152600e602052604081208651600590910191908790829061156c5761156c61562b565b60200260200101516001600160a01b03166001600160a01b03168152602001908152602001600020546000036115a6576115a68289613321565b6115d48382887f000000000000000000000000000000000000000000000000000000000000000089896133b7565b505050505050505050565b600080805b60055481101561163857600061162185600584815481106116075761160761562b565b6000918252602090912001546001600160a01b031661163f565b905061162d818461566d565b9250506001016115e4565b5092915050565b600080826001600160a01b031663313ce5676040518163ffffffff1660e01b8152600401602060405180830381865afa158015611680573d6000803e3d6000fd5b505050506040513d601f19601f820116820180604052508101906116a49190615804565b60ff16905060006116b58585613053565b905060006116c4836012615641565b6116cf90600a615908565b6116d990836155ea565b905060006116e6866134eb565b90506000670de0b6b3a76400006116fd83856155ea565b6117079190615617565b98975050505050505050565b60008061171f83612601565b509150506000805b825181101561184257306000908152600e602052604081208451600590910190829086908590811061175b5761175b61562b565b60200260200101516001600160a01b03166001600160a01b0316815260200190815260200160002054905060006117aa85848151811061179d5761179d61562b565b60200260200101516134eb565b905060006117ba83612710615914565b6117c683612710615914565b6117d09190615944565b905060006117e084612710615914565b6117eb836064615914565b6117f59190615964565b905060008112611810576118098187615992565b955061181d565b61181a8682615944565b95505b600a86121561182d576000611830565b60015b97505060019093019250611727915050565b505050919050565b606060078054806020026020016040519081016040528092919081815260200182805480156118a257602002820191906000526020600020905b81546001600160a01b03168152600190910190602001808311611884575b5050505050905090565b600080516020615f7f8339815191526118c4816123ff565b6118cc6125b1565b6118d46125d7565b336000908152600c602090815260408083206005805483518186028101860190945280845291949390919083018282801561193857602002820191906000526020600020905b81546001600160a01b0316815260019091019060200180831161191a575b505050505090506000805b8251811015611b8d57600061196433858481518110610d6f57610d6f61562b565b9050806000036119745750611b85565b61197f8160026132c5565b925060015b85601101548111611a3f5760008660050160008786815181106119a9576119a961562b565b60200260200101516001600160a01b03166001600160a01b031681526020019081526020016000206000838152602001908152602001600020819055506000866004016000878681518110611a0057611a0061562b565b60200260200101516001600160a01b03166001600160a01b03168152602001908152602001600020819055508080611a3790615654565b915050611984565b50838281518110611a5257611a5261562b565b60200260200101516001600160a01b031663a9059cbb338584611a759190615641565b6040516001600160e01b031960e085901b1681526001600160a01b03909216600483015260248201526044016020604051808303816000875af1158015611ac0573d6000803e3d6000fd5b505050506040513d601f19601f82011682018060405250810190611ae49190615680565b50838281518110611af757611af761562b565b60209081029190910101516004805460405163a9059cbb60e01b8152620100009091046001600160a01b03908116928201929092526024810186905291169063a9059cbb906044016020604051808303816000875af1158015611b5e573d6000803e3d6000fd5b505050506040513d601f19601f82011682018060405250810190611b829190615680565b50505b600101611943565b50611b96612f08565b505050610fbc6001600055565b60608060006007805490506001600160401b03811115611bc557611bc561520b565b604051908082528060200260200182016040528015611bee578160200160208202803683370190505b506007549093506001600160401b03811115611c0c57611c0c61520b565b604051908082528060200260200182016040528015611c35578160200160208202803683370190505b50915060005b8351811015611d9a57600c600060078381548110611c5b57611c5b61562b565b60009182526020808320909101546001600160a01b03168352820192909252604001812092505b600e830154811015611d365760006001600160a01b031683600e018281548110611cae57611cae61562b565b6000918252602090912001546001600160a01b031614611d2e5782600e018181548110611cdd57611cdd61562b565b9060005260206000200160009054906101000a90046001600160a01b0316848281518110611d0d57611d0d61562b565b60200260200101906001600160a01b031690816001600160a01b0316815250505b600101611c82565b5060078181548110611d4a57611d4a61562b565b9060005260206000200160009054906101000a90046001600160a01b0316848281518110611d7a57611d7a61562b565b6001600160a01b0390921660209283029190910190910152600101611c3b565b50509091565b600080611dad8484613053565b90506000611dba84613582565b90506000846001600160a01b031663313ce5676040518163ffffffff1660e01b8152600401602060405180830381865afa158015611dfc573d6000803e3d6000fd5b505050506040513d601f19601f82011682018060405250810190611e209190615804565b905081600003611e3657600093505050506106fa565b6000611e438260126159b2565b611e4e90600a6159cb565b611e5890856155ea565b90506000611e678360126159b2565b611e7290600a6159cb565b611e7c90856155ea565b9050806116fd8368056bc75e2d631000006155ea565b60009182526002602090815260408084206001600160a01b0393909316845291905290205460ff1690565b600354611ec9816123ff565b6001600160a01b0383166000908152600c60205260408120600e01546001600160401b03811115611efc57611efc61520b565b604051908082528060200260200182016040528015611f25578160200160208202803683370190505b50905060008151611f56867f0000000000000000000000000000000000000000000000000000000000000000613053565b611f609190615617565b90506000806000611f7087612601565b92509250925060005b85518110156115d4576001600160a01b0389166000908152600c60205260409020611fc89086867f000000000000000000000000000000000000000000000000000000000000000087876133b7565b6001600160a01b0389166000908152600c60205260409020600e01805480611ff257611ff26159da565b600082815260209020810160001990810180546001600160a01b0319169055019055600101611f79565b600354612028816123ff565b6000808061203585612601565b9250509150600061204461318f565b90506000808280602001905181019061205d91906157a7565b9150915060005b825181101561213d5760008282815181106120815761208161562b565b602002602001015190506000811115612134576004546201000090046001600160a01b03166000908152600c602052604081208851612124919084908b90879081106120cf576120cf61562b565b60200260200101518887815181106120e9576120e961562b565b60200260200101517f00000000000000000000000000000000000000000000000000000000000000008c898151811061093c5761093c61562b565b9050612130818a61566d565b9850505b50600101612064565b50600086116121735760405162461bcd60e51b81526020600482015260026024820152614e4560f01b6044820152606401610bee565b6004805460405163a9059cbb60e01b81526001600160a01b0362010000909204821692810192909252602482018890527f0000000000000000000000000000000000000000000000000000000000000000169063a9059cbb906044016020604051808303816000875af11580156121ee573d6000803e3d6000fd5b505050506040513d601f19601f820116820180604052508101906115d49190615680565b606060058054806020026020016040519081016040528092919081815260200182805480156118a2576020028201919060005260206000209081546001600160a01b03168152600190910190602001808311611884575050505050905090565b60008281526002602052604090206001015461228d816123ff565b61103e8383613122565b6003546122a3816123ff565b60405133904780156108fc02916000818181858888f1935050505015801561075e573d6000803e3d6000fd5b6000806122db836115df565b905060006122e76135ed565b9050806000036122fb575060009392505050565b8061230e83670de0b6b3a76400006155ea565b6123189190615617565b949350505050565b60008061232c83612601565b92505091506000612396600580548060200260200160405190810160405280929190818152602001828054801561238c57602002820191906000526020600020905b81546001600160a01b0316815260019091019060200180831161236e575b505050505061370c565b905060006123a382613873565b6005549091506000906123b69083615617565b90506123c4858483876138ab565b6040514281527fc306af072396b02bf3a9782c10065cc7ff4aa842934a43f0b76f997b291237c89060200160405180910390a1505050505050565b610fbc8133613f5f565b6001600160a01b0381166000908152600b602052604090205460ff16610fbc576007805460018181019092557fa66cc928b5edb82af9bd49922954155ab7b0942694bea4ce44661d9a8736c6880180546001600160a01b0384166001600160a01b031990911681179091556000908152600b60205260409020805460ff1916909117905550565b600061249c8383611e92565b61251c5760008381526002602090815260408083206001600160a01b03861684529091529020805460ff191660011790556124d43390565b6001600160a01b0316826001600160a01b0316847f2f8788117e7eff1d82e926ec794901d17c78024a50270940304540a733656f0d60405160405180910390a45060016106fa565b5060006106fa565b61252c6125b1565b6001805460ff1916811790557f62e78cea01bee320cd4e420270b5ea74000d11b0c9f74754ebdbfc544b05a258335b6040516001600160a01b03909116815260200160405180910390a1565b612580613f98565b6001805460ff191690557f5db9ee0a495bf2e6ff9c91a7834c1ba4fdd244a5e8aa4e537bd38aeae4b073aa3361255b565b60015460ff16156125d55760405163d93c066560e01b815260040160405180910390fd5b565b6002600054036125fa57604051633ee5aeb560e01b815260040160405180910390fd5b6002600055565b60608060608380602001905181019061261a91906159f0565b8151919450915060009061263090600190615641565b6001600160401b038111156126475761264761520b565b604051908082528060200260200182016040528015612670578160200160208202803683370190505b50925060005b8451811015612b65578481815181106126915761269161562b565b602002602001015191506000807f00000000000000000000000000000000000000000000000000000000000000006001600160a01b0316846001600160a01b0316630dfe16816040518163ffffffff1660e01b8152600401602060405180830381865afa158015612706573d6000803e3d6000fd5b505050506040513d601f19601f8201168201806040525081019061272a9190615ac7565b6001600160a01b03160361280557836001600160a01b0316630dfe16816040518163ffffffff1660e01b8152600401602060405180830381865afa158015612776573d6000803e3d6000fd5b505050506040513d601f19601f8201168201806040525081019061279a9190615ac7565b9150836001600160a01b031663d21220a76040518163ffffffff1660e01b8152600401602060405180830381865afa1580156127da573d6000803e3d6000fd5b505050506040513d601f19601f820116820180604052508101906127fe9190615ac7565b90506128ce565b836001600160a01b031663d21220a76040518163ffffffff1660e01b8152600401602060405180830381865afa158015612843573d6000803e3d6000fd5b505050506040513d601f19601f820116820180604052508101906128679190615ac7565b9150836001600160a01b0316630dfe16816040518163ffffffff1660e01b8152600401602060405180830381865afa1580156128a7573d6000803e3d6000fd5b505050506040513d601f19601f820116820180604052508101906128cb9190615ac7565b90505b6001600160a01b038116732791bca1f2de4661ed88a30c99a7a9449aa84174146129ee57808684815181106129055761290561562b565b60200260200101906001600160a01b031690816001600160a01b0316815250508683815181106129375761293761562b565b6020908102919091018101516001600160a01b0380841660008181526011909452604090932080549282166001600160a01b0319938416178155600281018054928716928416929092179091556003018054909116909117905584518590849081106129a5576129a561562b565b602002602001015160116000836001600160a01b03166001600160a01b0316815260200190815260200160002060030160146101000a81548160ff021916908360ff1602179055505b6001600160a01b037f0000000000000000000000000000000000000000000000000000000000000000811660009081526011602052604090206001015416158015612a5557506001600160a01b038116732791bca1f2de4661ed88a30c99a7a9449aa84174145b15612b5b57868381518110612a6c57612a6c61562b565b6020026020010151601160007f00000000000000000000000000000000000000000000000000000000000000006001600160a01b03166001600160a01b0316815260200190815260200160002060010160006101000a8154816001600160a01b0302191690836001600160a01b03160217905550848381518110612af257612af261562b565b6020026020010151601160007f00000000000000000000000000000000000000000000000000000000000000006001600160a01b03166001600160a01b0316815260200190815260200160002060030160146101000a81548160ff021916908360ff1602179055505b5050600101612676565b50509193909250565b60606000806005805490506001600160401b03811115612b9057612b9061520b565b604051908082528060200260200182016040528015612bb9578160200160208202803683370190505b50905080516001600160401b03811115612bd557612bd561520b565b604051908082528060200260200182016040528015612bfe578160200160208202803683370190505b50925060005b600554811015611d9a576000612c4060058381548110612c2657612c2661562b565b6000918252602090912001546001600160a01b0316613fbb565b9050600060058381548110612c5757612c5761562b565b6000918252602090912001546040516370a0823160e01b81523060048201526001600160a01b03909116915081906370a0823190602401602060405180830381865afa158015612cab573d6000803e3d6000fd5b505050506040513d601f19601f82011682018060405250810190612ccf9190615ae4565b848481518110612ce157612ce161562b565b602002602001018181525050600082905080878581518110612d0557612d0561562b565b6020908102919091010152612d1a818761566d565b95505060019092019150612c049050565b604080516002808252606082018352600092839291906020830190803683370190505090508481600081518110612d6457612d6461562b565b60200260200101906001600160a01b031690816001600160a01b0316815250508381600181518110612d9857612d9861562b565b6001600160a01b03929092166020928302919091018201526040805160028082526060820183526000939192909183019080368337019050509050600084612ead5760405163d06ca61f60e01b815273edf6066a2b290c185783862c7f4776a2c8077ad19063d06ca61f90612e13908c908790600401615afd565b600060405180830381865afa158015612e30573d6000803e3d6000fd5b505050506040513d6000823e601f3d908101601f19168201604052612e589190810190615b16565b9150600082600181518110612e6f57612e6f61562b565b602002602001015111612e83576000612ea6565b612ea682600181518110612e9957612e9961562b565b6020026020010151614110565b9050612ed3565b6000612eb9898b614139565b9050612ec681600a6141e9565b6001600160a01b03169150505b8415612ef157612ee78a8a8a8a8a8661427e565b9350505050612efe565b612ee78a8a89898561459b565b9695505050505050565b60005b600754811015610fbc57600060078281548110612f2a57612f2a61562b565b60009182526020808320909101546001600160a01b0316808352600c9091526040822090925090805b60055481101561304357600060058281548110612f7257612f7261562b565b60009182526020808320909101546001600160a01b031680835260048701909152604082205490925090612fa5836134eb565b9050826001600160a01b031663313ce5676040518163ffffffff1660e01b8152600401602060405180830381865afa158015612fe5573d6000803e3d6000fd5b505050506040513d601f19601f820116820180604052508101906130099190615804565b61301490600a6159cb565b61301e82846155ea565b6130289190615617565b613032908661566d565b94505060019092019150612f539050565b505060019092019150612f0b9050565b6001600160a01b0382166000908152600c6020526040812060015b8160110154811161311a577f00000000000000000000000000000000000000000000000000000000000000006001600160a01b0316846001600160a01b03161480156130bb575080600214155b156130e0576000818152602083905260409020546130d9908461566d565b9250613108565b6001600160a01b0384166000908152600483016020526040902054613105908461566d565b92505b8061311281615654565b91505061306e565b505092915050565b600061312e8383611e92565b1561251c5760008381526002602090815260408083206001600160a01b0386168085529252808320805460ff1916905551339286917ff6391f5c32d9c69d2a47ea670b442974b53935d1edc7fd64eb21e047a839171b9190a45060016106fa565b6005546060906000906001600160401b038111156131af576131af61520b565b6040519080825280602002602001820160405280156131d8578160200160208202803683370190505b50905060005b60055481101561329b576000600582815481106131fd576131fd61562b565b6000918252602090912001546040516370a0823160e01b81523060048201526001600160a01b03909116915081906370a0823190602401602060405180830381865afa158015613251573d6000803e3d6000fd5b505050506040513d601f19601f820116820180604052508101906132759190615ae4565b8383815181106132875761328761562b565b6020908102919091010152506001016131de565b506005816040516020016132b0929190615b4a565b60405160208183030381529060405291505090565b6000600f60018360028111156132dd576132dd615ba4565b03613307578054612710906132f69061ffff16866155ea565b6133009190615617565b9150611638565b80546127109061230e9062010000900461ffff16866155ea565b306000908152600e6020526040812083905561333c82612601565b5091505060005b815181101561103e5761336182828151811061179d5761179d61562b565b306000908152600e6020526040812084516005909101919085908590811061338b5761338b61562b565b6020908102919091018101516001600160a01b0316825281019190915260400160002055600101613343565b60005b82518110156134e25760008282815181106133d7576133d761562b565b602002602001015160ff166003146133f05760006133f3565b60015b90507f00000000000000000000000000000000000000000000000000000000000000006001600160a01b03168483815181106134315761343161562b565b60200260200101516001600160a01b03161461349857613493888686518a6134599190615617565b87868151811061346b5761346b61562b565b60200260200101518a87815181106134855761348561562b565b6020026020010151866148d5565b6134d9565b6134d788868685815181106134af576134af61562b565b60200260200101518986815181106134c9576134c961562b565b6020026020010151856148e3565b505b506001016133ba565b50505050505050565b6001600160a01b038082166000908152601160205260408120549091829161351591859116614961565b6001600160a01b037f0000000000000000000000000000000000000000000000000000000000000000818116600090815260116020526040812060010154939450926135619216614961565b90506000670de0b6b3a764000061357883856155ea565b6110109190615617565b6040516370a0823160e01b81523060048201526000906001600160a01b038316906370a0823190602401602060405180830381865afa1580156135c9573d6000803e3d6000fd5b505050506040513d601f19601f820116820180604052508101906106fa9190615ae4565b600080805b600554811015613706576000600582815481106136115761361161562b565b60009182526020808320909101546040805163313ce56760e01b815290516001600160a01b039092169450849263313ce567926004808401938290030181865afa158015613663573d6000803e3d6000fd5b505050506040513d601f19601f820116820180604052508101906136879190615804565b9050600061369483613582565b905060006136a38360126159b2565b6136ae90600a6159cb565b6136b890836155ea565b905060006136c5856134eb565b90506000670de0b6b3a76400006136dc83856155ea565b6136e69190615617565b90506136f2818961566d565b975050600190950194506135f29350505050565b50919050565b606081516001600160401b038111156137275761372761520b565b604051908082528060200260200182016040528015613750578160200160208202803683370190505b50905060005b825181101561370657670de0b6b3a764000061377d84838151811061179d5761179d61562b565b84838151811061378f5761378f61562b565b60200260200101516001600160a01b031663313ce5676040518163ffffffff1660e01b8152600401602060405180830381865afa1580156137d4573d6000803e3d6000fd5b505050506040513d601f19601f820116820180604052508101906137f89190615804565b6138039060126159b2565b61380e90600a6159cb565b6138308685815181106138235761382361562b565b6020026020010151613582565b61383a91906155ea565b61384491906155ea565b61384e9190615617565b8282815181106138605761386061562b565b6020908102919091010152600101613756565b6000805b8251811015613706578281815181106138925761389261562b565b6020026020010151820191508080600101915050613877565b6040516370a0823160e01b81523060048201526000907f00000000000000000000000000000000000000000000000000000000000000006001600160a01b0316906370a08231906024016020604051808303816000875af1158015613914573d6000803e3d6000fd5b505050506040513d601f19601f820116820180604052508101906139389190615ae4565b6005549091506000906001600160401b038111156139585761395861520b565b604051908082528060200260200182016040528015613981578160200160208202803683370190505b506005549091506000906001600160401b038111156139a2576139a261520b565b6040519080825280602002602001820160405280156139cb578160200160208202803683370190505b506005549091506000906001600160401b038111156139ec576139ec61520b565b604051908082528060200260200182016040528015613a15578160200160208202803683370190505b50905060005b8151811015613a77577f0000000000000000000000000000000000000000000000000000000000000000828281518110613a5757613a5761562b565b6001600160a01b0390921660209283029190910190910152600101613a1b565b5060005b600554811015613eaa57600087898381518110613a9a57613a9a61562b565b602002602001015111613ad157888281518110613ab957613ab961562b565b602002602001015188613acc9190615641565b613af6565b87898381518110613ae457613ae461562b565b6020026020010151613af69190615641565b90506000612710613b2d60058581548110613b1357613b1361562b565b6000918252602090912001546001600160a01b03166134eb565b613b379084615617565b613b4191906155ea565b9050888a8481518110613b5657613b5661562b565b60200260200101511115613c2c576000819050613bd7600c6000600460029054906101000a90046001600160a01b03166001600160a01b03166001600160a01b03168152602001908152602001600020828e60058881548110613bbb57613bbb61562b565b6000918252602090912001546001600160a01b0316898e6133b7565b600754613be49082615617565b878581518110613bf657613bf661562b565b6020026020010181815250506000868581518110613c1657613c1661562b565b9115156020928302919091019091015250613ea0565b888a8481518110613c3f57613c3f61562b565b60200260200101511015613ea0576000613cca60058581548110613c6557613c6561562b565b9060005260206000200160009054906101000a90046001600160a01b03166011600060058881548110613c9a57613c9a61562b565b60009182526020808320909101546001600160a01b03908116845290830193909352604090910190205416614961565b613cd490836155ea565b9050600081118015613ce857508060095410155b15613e9e576004546201000090046001600160a01b03166000908152600c602052604090208c51613da1919083908f9088908110613d2857613d2861562b565b60200260200101517f000000000000000000000000000000000000000000000000000000000000000060058981548110613d6457613d6461562b565b9060005260206000200160009054906101000a90046001600160a01b03168e8a81518110613d9457613d9461562b565b6020026020010151614d06565b600754613dae9082615617565b878581518110613dc057613dc061562b565b6020026020010181815250506001868581518110613de057613de061562b565b911515602092830291909101909101526040516370a0823160e01b81523060048201527f00000000000000000000000000000000000000000000000000000000000000006001600160a01b0316906370a08231906024016020604051808303816000875af1158015613e56573d6000803e3d6000fd5b505050506040513d601f19601f82011682018060405250810190613e7a9190615ae4565b613e849089615641565b97508760096000828254613e989190615641565b90915550505b505b5050600101613a7b565b5060005b6005548110156115d45760005b600754811015613f5657613f4e60078281548110613edb57613edb61562b565b600091825260209182902001546005805460408051828602810186019091528181526001600160a01b0390931693830182828015613f4257602002820191906000526020600020905b81546001600160a01b03168152600190910190602001808311613f24575b50505050508787614d37565b600101613ebb565b50600101613eae565b613f698282611e92565b61075e5760405163e2517d3f60e01b81526001600160a01b038216600482015260248101839052604401610bee565b60015460ff166125d557604051638dfc202b60e01b815260040160405180910390fd5b6040516370a0823160e01b81523060048201526000908190819084906001600160a01b038216906370a0823190602401602060405180830381865afa158015614008573d6000803e3d6000fd5b505050506040513d601f19601f8201168201806040525081019061402c9190615ae4565b9250614037856134eb565b91506000856001600160a01b031663313ce5676040518163ffffffff1660e01b8152600401602060405180830381865afa158015614079573d6000803e3d6000fd5b505050506040513d601f19601f8201168201806040525081019061409d9190615804565b905060128160ff1611156140da5760128160ff1611156140da576140c28160126159b2565b6140cd90600a6159cb565b6140d79085615617565b93505b6000670de0b6b3a76400006140ef85876155ea565b6140f99190615617565b9050614105818761566d565b979650505050505050565b60006127106008546127106141259190615641565b61412f90846155ea565b6106fa9190615617565b6000808390506000816001600160a01b0316633850c7bd6040518163ffffffff1660e01b815260040160e060405180830381865afa15801561417f573d6000803e3d6000fd5b505050506040513d601f19601f820116820180604052508101906141a39190615bd1565b50505050505090506000816001600160a01b0316826001600160a01b03166141cb91906155ea565b905060006141dd86600160601b6155ea565b90506141058282615617565b60008060646141f8848261566d565b61420290866155ea565b61420c9190615617565b90506000606461421c8582615641565b61422690876155ea565b6142309190615617565b9050600061423d83615099565b61424b90600160601b6155ea565b9050600061425883615099565b61426690600160601b6155ea565b905060026142748284615c6a565b6141059190615c89565b60007f00000000000000000000000000000000000000000000000000000000000000006001600160a01b0316836001600160a01b0316036142ee57600e87018054600181018255600091825260209091200180546001600160a01b0319166001600160a01b03861617905561431f565b600e87018054600181018255600091825260209091200180546001600160a01b0319166001600160a01b0385161790555b6040805160c0810182528781526001600160a01b0387811660208301908152878216838501908152878316606085019081528784166080860181815260a087019182529651635e6583af60e11b81529551600487015292518416602486015290518316604485015251821660648401529251166084820152905160a482015260009073c439194cf13f3812c1888b5635b06c98687f5a399063bccb075e9060c401602060405180830381865af49250505080156143f9575060408051601f3d908101601f191682019092526143f691810190615ae4565b60015b61449357614405615cb8565b806308c379a00361445c5750614419615cd4565b80614424575061445e565b33600080516020615f5f8339815191528561443e896150ec565b8460405161444e93929190615da7565b60405180910390a250614105565b505b33600080516020615f5f83398151915284614478886150ec565b604051614486929190615ddd565b60405180910390a2614105565b6001600160a01b038516600090815260098a016020908152604080832060118d0154845290915281205491925082919003614516576001600160a01b038516600081815260058b016020908152604080832060118e01548452825280832086905592825260048c019052908120805484929061451090849061566d565b90915550505b337f9c6004e315787e1885bcde9008594c954fd1a11118bbff03456860197d43d4598984614543896150ec565b60405161455293929190615e2b565b60405180910390a288600e0180548061456d5761456d6159da565b600082815260209020810160001990810180546001600160a01b031916905501905550979650505050505050565b600e850180546001810182556000918252602082200180546001600160a01b0319166001600160a01b03868116919091179091557f000000000000000000000000000000000000000000000000000000000000000081169084160361462f57600e86018054600181018255600091825260209091200180546001600160a01b0319166001600160a01b038616179055614660565b600e86018054600181018255600091825260209091200180546001600160a01b0319166001600160a01b0385161790555b604080516080810182528681526001600160a01b0386811660208301908152868216838501908152606084018781529451635cb0482d60e11b815293516004850152905182166024840152511660448201529051606482015260009073c439194cf13f3812c1888b5635b06c98687f5a399063b960905a90608401600060405180830381865af492505050801561471957506040513d6000823e601f3d908101601f191682016040526147169190810190615b16565b60015b6147b357614725615cb8565b806308c379a00361477c5750614739615cd4565b80614744575061477e565b33600080516020615f5f8339815191528561475e896150ec565b8460405161476e93929190615e70565b60405180910390a250612efe565b505b33600080516020615f5f83398151915284614798886150ec565b6040516147a6929190615e89565b60405180910390a2612efe565b806001815181106147c6576147c661562b565b6020908102919091018101516001600160a01b038716600090815260098b018352604080822060118d01548352909352918220549093509003614851576001600160a01b038516600081815260058a016020908152604080832060118d01548452825280832086905592825260048b019052908120805484929061484b90849061566d565b90915550505b337f9c6004e315787e1885bcde9008594c954fd1a11118bbff03456860197d43d459888461487e896150ec565b60405161488d93929190615ea2565b60405180910390a287600e018054806148a8576148a86159da565b600082815260209020810160001990810180546001600160a01b0319169055019055509695505050505050565b6134e2868584888786612d2b565b6001600160a01b038085166000908152600587016020908152604080832060118a01548452909152812054600454919290918391614928916201000090041688613053565b821161494f5760045461494a906201000090046001600160a01b031688613053565b614951565b815b90506117078882878a8a89612d2b565b600080836001600160a01b031663313ce5676040518163ffffffff1660e01b8152600401602060405180830381865afa1580156149a2573d6000803e3d6000fd5b505050506040513d601f19601f820116820180604052508101906149c69190615804565b905060126001600160a01b03841615614b405760008490506000816001600160a01b0316633850c7bd6040518163ffffffff1660e01b815260040160e060405180830381865afa158015614a1e573d6000803e3d6000fd5b505050506040513d601f19601f82011682018060405250810190614a429190615bd1565b50505050505090506000816001600160a01b0316826001600160a01b0316614a6a91906155ea565b9050876001600160a01b0316836001600160a01b0316630dfe16816040518163ffffffff1660e01b8152600401602060405180830381865afa158015614ab4573d6000803e3d6000fd5b505050506040513d601f19601f82011682018060405250810190614ad89190615ac7565b6001600160a01b031603614b1157600160c01b614af685600a6159cb565b614b0090836155ea565b614b0a9190615617565b9550614b38565b80614b1d86600a6159cb565b614b2b90600160c01b6155ea565b614b359190615617565b95505b505050614ca5565b6000614b5060ff8416600a615908565b60408051600280825260608201835292935060009290916020830190803683370190505090508681600081518110614b8a57614b8a61562b565b60200260200101906001600160a01b031690816001600160a01b0316815250507f000000000000000000000000000000000000000000000000000000000000000081600181518110614bde57614bde61562b565b6001600160a01b03928316602091820292909201015260405163d06ca61f60e01b81526000917f0000000000000000000000000000000000000000000000000000000000000000169063d06ca61f90614c3d9086908690600401615afd565b600060405180830381865afa158015614c5a573d6000803e3d6000fd5b505050506040513d6000823e601f3d908101601f19168201604052614c829190810190615b16565b905080600181518110614c9757614c9761562b565b602002602001015195505050505b8060ff168260ff161015614cd957614cbd82826159b2565b614cc890600a6159cb565b614cd290846155ea565b925061311a565b8060ff168260ff16111561311a57614cf181836159b2565b614cfc90600a6159cb565b6110109084615617565b60008160ff16600314614d1a576000614d1d565b60015b9050614d2d878786868986615154565b5050505050505050565b60005b8351811015610ee457818181518110614d5557614d5561562b565b602002602001015115156000151503614f045760015b6001600160a01b0386166000908152600c60205260409020601101548111614e6b576001600160a01b0386166000908152600c60205260409020601101548451859084908110614dbd57614dbd61562b565b6020026020010151614dcf9190615617565b600c6000886001600160a01b03166001600160a01b031681526020019081526020016000206005016000878581518110614e0b57614e0b61562b565b60200260200101516001600160a01b03166001600160a01b0316815260200190815260200160002060008381526020019081526020016000206000828254614e539190615641565b90915550819050614e6381615654565b915050614d6b565b50828181518110614e7e57614e7e61562b565b6020026020010151600c6000876001600160a01b03166001600160a01b031681526020019081526020016000206004016000868481518110614ec257614ec261562b565b60200260200101516001600160a01b03166001600160a01b031681526020019081526020016000206000828254614ef99190615641565b909155506150919050565b60015b6001600160a01b0386166000908152600c6020526040902060110154811015614ffd576001600160a01b0386166000908152600c60205260409020601101548451859084908110614f5a57614f5a61562b565b6020026020010151614f6c9190615617565b600c6000886001600160a01b03166001600160a01b031681526020019081526020016000206005016000878581518110614fa857614fa861562b565b60200260200101516001600160a01b03166001600160a01b0316815260200190815260200160002060008381526020019081526020016000206000828254614ff0919061566d565b9091555050600101614f07565b508281815181106150105761501061562b565b6020026020010151600c6000876001600160a01b03166001600160a01b0316815260200190815260200160002060040160008684815181106150545761505461562b565b60200260200101516001600160a01b03166001600160a01b03168152602001908152602001600020600082825461508b919061566d565b90915550505b600101614d3a565b60008060026150a984600161566d565b6150b39190615617565b90508291505b81811015613706579050806002816150d18186615617565b6150db919061566d565b6150e59190615617565b90506150b9565b6060816001600160a01b03166395d89b416040518163ffffffff1660e01b8152600401600060405180830381865afa15801561512c573d6000803e3d6000fd5b505050506040513d6000823e601f3d908101601f191682016040526106fa9190810190615ee7565b6000614105878785888887612d2b565b60006020828403121561517657600080fd5b81356001600160e01b03198116811461518e57600080fd5b9392505050565b6000602082840312156151a757600080fd5b5035919050565b6001600160a01b0381168114610fbc57600080fd5b6000602082840312156151d557600080fd5b813561518e816151ae565b8015158114610fbc57600080fd5b60006020828403121561520057600080fd5b813561518e816151e0565b634e487b7160e01b600052604160045260246000fd5b601f8201601f191681016001600160401b03811182821017156152465761524661520b565b6040525050565b60006001600160401b038211156152665761526661520b565b50601f01601f191660200190565b600082601f83011261528557600080fd5b81356152908161524d565b60405161529d8282615221565b8281528560208487010111156152b257600080fd5b82602086016020830137600092810160200192909252509392505050565b600080604083850312156152e357600080fd5b82356001600160401b038111156152f957600080fd5b61530585828601615274565b95602094909401359450505050565b600081518084526020840193506020830160005b8281101561534f5781516001600160a01b0316865260209586019590910190600101615328565b5093949350505050565b600081518084526020840193506020830160005b8281101561534f57815186526020958601959091019060010161536d565b60408152600061539e6040830185615314565b82810360208401526110108185615359565b600080604083850312156153c357600080fd5b823591506020830135600381106153d957600080fd5b809150509250929050565b600080604083850312156153f757600080fd5b8235915060208301356153d9816151ae565b60208152600061518e6020830184615314565b60ff81168114610fbc57600080fd5b6000806040838503121561543e57600080fd5b82356154498161541c565b915060208301356153d98161541c565b6000806020838503121561546c57600080fd5b82356001600160401b0381111561548257600080fd5b8301601f8101851361549357600080fd5b80356001600160401b038111156154a957600080fd5b8560208260051b84010111156154be57600080fd5b6020919091019590945092505050565b600080604083850312156154e157600080fd5b8235915060208301356001600160401b038111156154fe57600080fd5b61550a85828601615274565b9150509250929050565b6000806040838503121561552757600080fd5b8235615532816151ae565b915060208301356153d9816151ae565b60006020828403121561555457600080fd5b81356001600160401b0381111561556a57600080fd5b61231884828501615274565b6040815260006155896040830185615314565b82810360208401526110108185615314565b600080604083850312156155ae57600080fd5b82356155b9816151ae565b915060208301356001600160401b038111156154fe57600080fd5b634e487b7160e01b600052601160045260246000fd5b80820281158282048414176106fa576106fa6155d4565b634e487b7160e01b600052601260045260246000fd5b60008261562657615626615601565b500490565b634e487b7160e01b600052603260045260246000fd5b818103818111156106fa576106fa6155d4565b600060018201615666576156666155d4565b5060010190565b808201808211156106fa576106fa6155d4565b60006020828403121561569257600080fd5b815161518e816151e0565b60006001600160401b038211156156b6576156b661520b565b5060051b60200190565b600082601f8301126156d157600080fd5b81516156dc8161569d565b6040516156e98282615221565b80915082815260208101915060208360051b86010192508583111561570d57600080fd5b602085015b83811015615733578051615725816151ae565b835260209283019201615712565b5095945050505050565b600082601f83011261574e57600080fd5b81516157598161569d565b6040516157668282615221565b80915082815260208101915060208360051b86010192508583111561578a57600080fd5b602085015b8381101561573357805183526020928301920161578f565b600080604083850312156157ba57600080fd5b82516001600160401b038111156157d057600080fd5b6157dc858286016156c0565b92505060208301516001600160401b038111156157f857600080fd5b61550a8582860161573d565b60006020828403121561581657600080fd5b815161518e8161541c565b6001815b600184111561585c57808504811115615840576158406155d4565b600184161561584e57908102905b60019390931c928002615825565b935093915050565b600082615873575060016106fa565b81615880575060006106fa565b816001811461589657600281146158a0576158bc565b60019150506106fa565b60ff8411156158b1576158b16155d4565b50506001821b6106fa565b5060208310610133831016604e8410600b84101617156158df575081810a6106fa565b6158ec6000198484615821565b8060001904821115615900576159006155d4565b029392505050565b600061518e8383615864565b80820260008212600160ff1b84141615615930576159306155d4565b81810583148215176106fa576106fa6155d4565b8181036000831280158383131683831282161715611638576116386155d4565b60008261597357615973615601565b600160ff1b82146000198414161561598d5761598d6155d4565b500590565b808201828112600083128015821682158216171561311a5761311a6155d4565b60ff82811682821603908111156106fa576106fa6155d4565b600061518e60ff841683615864565b634e487b7160e01b600052603160045260246000fd5b60008060408385031215615a0357600080fd5b82516001600160401b03811115615a1957600080fd5b615a25858286016156c0565b92505060208301516001600160401b03811115615a4157600080fd5b8301601f81018513615a5257600080fd5b8051615a5d8161569d565b604051615a6a8282615221565b80915082815260208101915060208360051b850101925087831115615a8e57600080fd5b6020840193505b82841015615ab9578351615aa88161541c565b825260209384019390910190615a95565b809450505050509250929050565b600060208284031215615ad957600080fd5b815161518e816151ae565b600060208284031215615af657600080fd5b5051919050565b8281526040602082015260006123186040830184615314565b600060208284031215615b2857600080fd5b81516001600160401b03811115615b3e57600080fd5b6123188482850161573d565b6040808252835490820181905260008481526020812090916060840190835b81811015615b905783546001600160a01b0316835260019384019360209093019201615b69565b50508381036020850152612efe8186615359565b634e487b7160e01b600052602160045260246000fd5b805161ffff81168114615bcc57600080fd5b919050565b600080600080600080600060e0888a031215615bec57600080fd5b8751615bf7816151ae565b8097505060208801518060020b8114615c0f57600080fd5b9550615c1d60408901615bba565b9450615c2b60608901615bba565b9350615c3960808901615bba565b925060a0880151615c498161541c565b60c0890151909250615c5a816151e0565b8091505092959891949750929550565b6001600160a01b0381811683821601908111156106fa576106fa6155d4565b60006001600160a01b03831680615ca257615ca2615601565b6001600160a01b03929092169190910492915050565b600060033d1115615cd15760046000803e5060005160e01c5b90565b600060443d1015615ce25790565b6040513d600319016004823e80513d60248201116001600160401b0382111715615d0b57505090565b80820180516001600160401b03811115615d26575050505090565b3d8401600319018282016020011115615d40575050505090565b615d4f60208285010185615221565b509392505050565b60005b83811015615d72578181015183820152602001615d5a565b50506000910152565b60008151808452615d93816020860160208601615d57565b601f01601f19169290920160200192915050565b6001600160a01b0384168152606060208201819052600090615dcb90830185615d7b565b8281036040840152612efe8185615d7b565b6001600160a01b0383168152606060208201819052600090615e0190830184615d7b565b828103604084015261101081600b81526a14ddd85c0819985a5b195960aa1b602082015260400190565b838152826020820152608060408201526000615e4a6080830184615d7b565b82810360608401526002815261563360f01b602082015260408101915050949350505050565b838152606060208201526000615dcb6060830185615d7b565b828152606060208201526000615e016060830184615d7b565b838152826020820152608060408201526000615ec16080830184615d7b565b828103606084015260028152612b1960f11b602082015260408101915050949350505050565b600060208284031215615ef957600080fd5b81516001600160401b03811115615f0f57600080fd5b8201601f81018413615f2057600080fd5b8051615f2b8161524d565b604051615f388282615221565b828152866020848601011115615f4d57600080fd5b612efe836020830160208701615d5756fed24517bb053209af5f1d6b05c7180d697782d89045c90b2885f8ac5f3d0e52e7679b4db551486bdc8b8c3d86cea88bd774cea7c203e4aa4e3b39b7bb5f64bc14a264697066735822122051cd6566c03ee6b3b2c9b4a6568fc6dccfa9c826f6b27a6453ad12ae98a2816e64736f6c634300081a0033",
    "linkReferences": {}
  },
  "methodIdentifiers": {
    "DEFAULT_ADMIN_ROLE()": "a217fddf",
    "addTokens(address[])": "4ae05c7d",
    "addWhitelisted(address)": "10154bad",
    "adminWithdrawWholeFundTokens()": "2c30ad5b",
    "adminWithdrawWholeFundWETH(bytes)": "a2ae2770",
    "calculateUserTotalValueInUSD(address)": "61ab3663",
    "checkSwapQueue(address)": "31038fbd",
    "checkUsersWithSwapQueue()": "791e38de",
    "deposit(uint256,bytes)": "5d303519",
    "depositRecoveryBalance(uint256)": "46cdf2f1",
    "doRebalance(bytes)": "fc228e6b",
    "getFee(uint256,uint8)": "2e5a247f",
    "getRoleAdmin(bytes32)": "248a9ca3",
    "getUserPortfolioShare(address)": "e1081353",
    "getUserTokenShare(address,address)": "89296eec",
    "getUserTokenTotalValueInUSDC(address,address)": "66de7267",
    "grantRole(bytes32,address)": "2f2ff15d",
    "hasRole(bytes32,address)": "91d14854",
    "needToRebalance(bytes)": "6a4e9b7a",
    "pauseOrUnpause(bool)": "252aa530",
    "paused()": "5c975abb",
    "removeToken(uint256)": "36c5d724",
    "removeWhitelisted(address)": "291d9549",
    "renounceRole(bytes32,address)": "36568abe",
    "revokeRole(bytes32,address)": "d547741f",
    "setFeeData(uint8,uint8)": "3f5cc468",
    "supportsInterface(bytes4)": "01ffc9a7",
    "swapUserQueueBuy(address,bytes)": "99303e9d",
    "tokensList()": "bd5dc202",
    "updateSlippageTolerance(uint256)": "0f9da743",
    "userTokensBalance(address)": "27cdd8f9",
    "userWithdrawWholeFundWETH(bytes,uint256)": "26519373",
    "users(address)": "a87430ba",
    "usersList()": "77b6af52",
    "withdrawAccumulatedFees()": "2e185ec7",
    "withdrawAllInKind()": "78d254b1",
    "withdrawETH()": "e086e5ec"
  },
  "id": 33
}