{
  "abi": [
    {
      "type": "constructor",
      "inputs": [],
      "stateMutability": "nonpayable"
    },
    {
      "type": "fallback",
      "stateMutability": "payable"
    },
    {
      "type": "receive",
      "stateMutability": "payable"
    },
    {
      "type": "function",
      "name": "DEFAULT_ADMIN_ROLE",
      "inputs": [],
      "outputs": [
        {
          "name": "",
          "type": "bytes32",
          "internalType": "bytes32"
        }
      ],
      "stateMutability": "view"
    },
    {
      "type": "function",
      "name": "addInitialValues",
      "inputs": [
        {
          "name": "_usd",
          "type": "uint256",
          "internalType": "uint256"
        },
        {
          "name": "_token",
          "type": "address[]",
          "internalType": "address[]"
        },
        {
          "name": "_tUsdt",
          "type": "uint256[]",
          "internalType": "uint256[]"
        }
      ],
      "outputs": [],
      "stateMutability": "nonpayable"
    },
    {
      "type": "function",
      "name": "addTokens",
      "inputs": [
        {
          "name": "_tokens",
          "type": "address[]",
          "internalType": "address[]"
        }
      ],
      "outputs": [],
      "stateMutability": "nonpayable"
    },
    {
      "type": "function",
      "name": "addWhitelisted",
      "inputs": [
        {
          "name": "_user",
          "type": "address",
          "internalType": "address"
        }
      ],
      "outputs": [],
      "stateMutability": "nonpayable"
    },
    {
      "type": "function",
      "name": "adminWithdrawWholeFundTokens",
      "inputs": [],
      "outputs": [],
      "stateMutability": "nonpayable"
    },
    {
      "type": "function",
      "name": "adminWithdrawWholeFundWETH",
      "inputs": [
        {
          "name": "tokensData",
          "type": "bytes",
          "internalType": "bytes"
        }
      ],
      "outputs": [],
      "stateMutability": "nonpayable"
    },
    {
      "type": "function",
      "name": "checkSwapQueue",
      "inputs": [
        {
          "name": "_user",
          "type": "address",
          "internalType": "address"
        }
      ],
      "outputs": [
        {
          "name": "",
          "type": "address[]",
          "internalType": "address[]"
        }
      ],
      "stateMutability": "view"
    },
    {
      "type": "function",
      "name": "deposit",
      "inputs": [
        {
          "name": "wethAmount",
          "type": "uint256",
          "internalType": "uint256"
        },
        {
          "name": "tokensData",
          "type": "bytes",
          "internalType": "bytes"
        }
      ],
      "outputs": [],
      "stateMutability": "payable"
    },
    {
      "type": "function",
      "name": "depositETH",
      "inputs": [],
      "outputs": [],
      "stateMutability": "payable"
    },
    {
      "type": "function",
      "name": "depositRecoveryBalance",
      "inputs": [
        {
          "name": "wethAmount",
          "type": "uint256",
          "internalType": "uint256"
        }
      ],
      "outputs": [],
      "stateMutability": "payable"
    },
    {
      "type": "function",
      "name": "doRebalance",
      "inputs": [
        {
          "name": "tokensData",
          "type": "bytes",
          "internalType": "bytes"
        }
      ],
      "outputs": [],
      "stateMutability": "nonpayable"
    },
    {
      "type": "function",
      "name": "getFee",
      "inputs": [
        {
          "name": "wethAmount",
          "type": "uint256",
          "internalType": "uint256"
        }
      ],
      "outputs": [
        {
          "name": "",
          "type": "uint256",
          "internalType": "uint256"
        }
      ],
      "stateMutability": "payable"
    },
    {
      "type": "function",
      "name": "getRoleAdmin",
      "inputs": [
        {
          "name": "role",
          "type": "bytes32",
          "internalType": "bytes32"
        }
      ],
      "outputs": [
        {
          "name": "",
          "type": "bytes32",
          "internalType": "bytes32"
        }
      ],
      "stateMutability": "view"
    },
    {
      "type": "function",
      "name": "grantRole",
      "inputs": [
        {
          "name": "role",
          "type": "bytes32",
          "internalType": "bytes32"
        },
        {
          "name": "account",
          "type": "address",
          "internalType": "address"
        }
      ],
      "outputs": [],
      "stateMutability": "nonpayable"
    },
    {
      "type": "function",
      "name": "hasRole",
      "inputs": [
        {
          "name": "role",
          "type": "bytes32",
          "internalType": "bytes32"
        },
        {
          "name": "account",
          "type": "address",
          "internalType": "address"
        }
      ],
      "outputs": [
        {
          "name": "",
          "type": "bool",
          "internalType": "bool"
        }
      ],
      "stateMutability": "view"
    },
    {
      "type": "function",
      "name": "liquidate",
      "inputs": [
        {
          "name": "tokensData",
          "type": "bytes",
          "internalType": "bytes"
        }
      ],
      "outputs": [],
      "stateMutability": "nonpayable"
    },
    {
      "type": "function",
      "name": "paused",
      "inputs": [],
      "outputs": [
        {
          "name": "",
          "type": "bool",
          "internalType": "bool"
        }
      ],
      "stateMutability": "view"
    },
    {
      "type": "function",
      "name": "removeTokens",
      "inputs": [
        {
          "name": "_index",
          "type": "uint256[]",
          "internalType": "uint256[]"
        }
      ],
      "outputs": [],
      "stateMutability": "nonpayable"
    },
    {
      "type": "function",
      "name": "removeWhitelisted",
      "inputs": [
        {
          "name": "_user",
          "type": "address",
          "internalType": "address"
        }
      ],
      "outputs": [],
      "stateMutability": "nonpayable"
    },
    {
      "type": "function",
      "name": "renounceRole",
      "inputs": [
        {
          "name": "role",
          "type": "bytes32",
          "internalType": "bytes32"
        },
        {
          "name": "callerConfirmation",
          "type": "address",
          "internalType": "address"
        }
      ],
      "outputs": [],
      "stateMutability": "nonpayable"
    },
    {
      "type": "function",
      "name": "revokeRole",
      "inputs": [
        {
          "name": "role",
          "type": "bytes32",
          "internalType": "bytes32"
        },
        {
          "name": "account",
          "type": "address",
          "internalType": "address"
        }
      ],
      "outputs": [],
      "stateMutability": "nonpayable"
    },
    {
      "type": "function",
      "name": "setFeeData",
      "inputs": [
        {
          "name": "depositFee",
          "type": "uint8",
          "internalType": "uint8"
        },
        {
          "name": "WithdrawFee",
          "type": "uint8",
          "internalType": "uint8"
        }
      ],
      "outputs": [],
      "stateMutability": "nonpayable"
    },
    {
      "type": "function",
      "name": "supportsInterface",
      "inputs": [
        {
          "name": "interfaceId",
          "type": "bytes4",
          "internalType": "bytes4"
        }
      ],
      "outputs": [
        {
          "name": "",
          "type": "bool",
          "internalType": "bool"
        }
      ],
      "stateMutability": "view"
    },
    {
      "type": "function",
      "name": "swapUserQueueBuy",
      "inputs": [
        {
          "name": "_user",
          "type": "address",
          "internalType": "address"
        },
        {
          "name": "tokensData",
          "type": "bytes",
          "internalType": "bytes"
        }
      ],
      "outputs": [],
      "stateMutability": "nonpayable"
    },
    {
      "type": "function",
      "name": "tokens",
      "inputs": [
        {
          "name": "",
          "type": "uint256",
          "internalType": "uint256"
        }
      ],
      "outputs": [
        {
          "name": "",
          "type": "address",
          "internalType": "address"
        }
      ],
      "stateMutability": "view"
    },
    {
      "type": "function",
      "name": "tokensList",
      "inputs": [],
      "outputs": [
        {
          "name": "",
          "type": "address[]",
          "internalType": "address[]"
        }
      ],
      "stateMutability": "view"
    },
    {
      "type": "function",
      "name": "updateFee",
      "inputs": [
        {
          "name": "_feeAmount",
          "type": "uint16",
          "internalType": "uint16"
        }
      ],
      "outputs": [],
      "stateMutability": "nonpayable"
    },
    {
      "type": "function",
      "name": "updateSlippageTolerance",
      "inputs": [
        {
          "name": "_slippageTolerance",
          "type": "uint256",
          "internalType": "uint256"
        }
      ],
      "outputs": [],
      "stateMutability": "nonpayable"
    },
    {
      "type": "function",
      "name": "updateUserValues",
      "inputs": [
        {
          "name": "_user",
          "type": "address",
          "internalType": "address"
        }
      ],
      "outputs": [],
      "stateMutability": "nonpayable"
    },
    {
      "type": "function",
      "name": "userAddresses",
      "inputs": [
        {
          "name": "",
          "type": "uint256",
          "internalType": "uint256"
        }
      ],
      "outputs": [
        {
          "name": "",
          "type": "address",
          "internalType": "address"
        }
      ],
      "stateMutability": "view"
    },
    {
      "type": "function",
      "name": "userTokensBalance",
      "inputs": [
        {
          "name": "_user",
          "type": "address",
          "internalType": "address"
        }
      ],
      "outputs": [
        {
          "name": "",
          "type": "address[]",
          "internalType": "address[]"
        },
        {
          "name": "",
          "type": "uint256[]",
          "internalType": "uint256[]"
        }
      ],
      "stateMutability": "nonpayable"
    },
    {
      "type": "function",
      "name": "userWithdrawWholeFundWETH",
      "inputs": [
        {
          "name": "tokensData",
          "type": "bytes",
          "internalType": "bytes"
        },
        {
          "name": "percentage",
          "type": "uint256",
          "internalType": "uint256"
        }
      ],
      "outputs": [],
      "stateMutability": "nonpayable"
    },
    {
      "type": "function",
      "name": "users",
      "inputs": [
        {
          "name": "",
          "type": "address",
          "internalType": "address"
        }
      ],
      "outputs": [
        {
          "name": "tSharePortfo",
          "type": "uint256",
          "internalType": "uint256"
        },
        {
          "name": "wethValueFirst",
          "type": "uint256",
          "internalType": "uint256"
        },
        {
          "name": "usdtValueFirst",
          "type": "uint256",
          "internalType": "uint256"
        },
        {
          "name": "round",
          "type": "uint256",
          "internalType": "uint256"
        }
      ],
      "stateMutability": "view"
    },
    {
      "type": "function",
      "name": "withdraw",
      "inputs": [
        {
          "name": "tokensData",
          "type": "bytes",
          "internalType": "bytes"
        }
      ],
      "outputs": [],
      "stateMutability": "nonpayable"
    },
    {
      "type": "function",
      "name": "withdrawAccumulatedFees",
      "inputs": [],
      "outputs": [],
      "stateMutability": "nonpayable"
    },
    {
      "type": "function",
      "name": "withdrawAllInKind",
      "inputs": [],
      "outputs": [],
      "stateMutability": "nonpayable"
    },
    {
      "type": "function",
      "name": "withdrawInKind",
      "inputs": [
        {
          "name": "_token",
          "type": "address",
          "internalType": "address"
        },
        {
          "name": "_amount",
          "type": "uint256",
          "internalType": "uint256"
        },
        {
          "name": "_round",
          "type": "uint256",
          "internalType": "uint256"
        }
      ],
      "outputs": [],
      "stateMutability": "nonpayable"
    },
    {
      "type": "event",
      "name": "AMTout",
      "inputs": [
        {
          "name": "amtOut",
          "type": "uint256",
          "indexed": false,
          "internalType": "uint256"
        }
      ],
      "anonymous": false
    },
    {
      "type": "event",
      "name": "Balance",
      "inputs": [
        {
          "name": "sender",
          "type": "address",
          "indexed": false,
          "internalType": "address"
        },
        {
          "name": "bal",
          "type": "uint256",
          "indexed": false,
          "internalType": "uint256"
        }
      ],
      "anonymous": false
    },
    {
      "type": "event",
      "name": "BoughtAmount",
      "inputs": [
        {
          "name": "buyer",
          "type": "address",
          "indexed": true,
          "internalType": "address"
        },
        {
          "name": "BoughtAmt",
          "type": "uint256",
          "indexed": false,
          "internalType": "uint256"
        },
        {
          "name": "tokenSymb",
          "type": "string",
          "indexed": false,
          "internalType": "string"
        },
        {
          "name": "uniV",
          "type": "string",
          "indexed": false,
          "internalType": "string"
        }
      ],
      "anonymous": false
    },
    {
      "type": "event",
      "name": "CurrentValuesSet",
      "inputs": [
        {
          "name": "currentUSD",
          "type": "uint256",
          "indexed": false,
          "internalType": "uint256"
        },
        {
          "name": "tokens",
          "type": "address[]",
          "indexed": false,
          "internalType": "address[]"
        },
        {
          "name": "tUSD",
          "type": "uint256[]",
          "indexed": false,
          "internalType": "uint256[]"
        }
      ],
      "anonymous": false
    },
    {
      "type": "event",
      "name": "DepositReceived",
      "inputs": [
        {
          "name": "user",
          "type": "address",
          "indexed": true,
          "internalType": "address"
        },
        {
          "name": "amount",
          "type": "uint256",
          "indexed": false,
          "internalType": "uint256"
        }
      ],
      "anonymous": false
    },
    {
      "type": "event",
      "name": "FeeReceived",
      "inputs": [
        {
          "name": "owner",
          "type": "address",
          "indexed": true,
          "internalType": "address"
        },
        {
          "name": "amount",
          "type": "uint256",
          "indexed": false,
          "internalType": "uint256"
        }
      ],
      "anonymous": false
    },
    {
      "type": "event",
      "name": "FeesWithdrawn",
      "inputs": [
        {
          "name": "owner",
          "type": "address",
          "indexed": true,
          "internalType": "address"
        },
        {
          "name": "amount",
          "type": "uint256",
          "indexed": false,
          "internalType": "uint256"
        },
        {
          "name": "tokenType",
          "type": "string",
          "indexed": false,
          "internalType": "string"
        }
      ],
      "anonymous": false
    },
    {
      "type": "event",
      "name": "FundsRecieved",
      "inputs": [
        {
          "name": "sender",
          "type": "address",
          "indexed": true,
          "internalType": "address"
        },
        {
          "name": "ethAmount",
          "type": "uint256",
          "indexed": false,
          "internalType": "uint256"
        }
      ],
      "anonymous": false
    },
    {
      "type": "event",
      "name": "GetPortfoTotalValueEvent",
      "inputs": [
        {
          "name": "vals",
          "type": "uint256[]",
          "indexed": false,
          "internalType": "uint256[]"
        },
        {
          "name": "tValue",
          "type": "uint256",
          "indexed": false,
          "internalType": "uint256"
        }
      ],
      "anonymous": false
    },
    {
      "type": "event",
      "name": "InitValuesSet",
      "inputs": [
        {
          "name": "initUSD",
          "type": "uint256",
          "indexed": false,
          "internalType": "uint256"
        },
        {
          "name": "tokens",
          "type": "address[]",
          "indexed": false,
          "internalType": "address[]"
        },
        {
          "name": "tUSD",
          "type": "uint256[]",
          "indexed": false,
          "internalType": "uint256[]"
        }
      ],
      "anonymous": false
    },
    {
      "type": "event",
      "name": "PRICE",
      "inputs": [
        {
          "name": "price",
          "type": "uint256",
          "indexed": false,
          "internalType": "uint256"
        }
      ],
      "anonymous": false
    },
    {
      "type": "event",
      "name": "Paused",
      "inputs": [
        {
          "name": "account",
          "type": "address",
          "indexed": false,
          "internalType": "address"
        }
      ],
      "anonymous": false
    },
    {
      "type": "event",
      "name": "Pool",
      "inputs": [
        {
          "name": "pool",
          "type": "address",
          "indexed": false,
          "internalType": "address"
        }
      ],
      "anonymous": false
    },
    {
      "type": "event",
      "name": "PortfoTokenBalances",
      "inputs": [
        {
          "name": "daiCount",
          "type": "uint256",
          "indexed": false,
          "internalType": "uint256"
        }
      ],
      "anonymous": false
    },
    {
      "type": "event",
      "name": "PortfoTokenInitialUSDTPrices",
      "inputs": [
        {
          "name": "daiInitialUsdtPrice",
          "type": "uint256",
          "indexed": false,
          "internalType": "uint256"
        }
      ],
      "anonymous": false
    },
    {
      "type": "event",
      "name": "PortfoTokenPricesETH",
      "inputs": [
        {
          "name": "daiETHPrice",
          "type": "uint256",
          "indexed": false,
          "internalType": "uint256"
        }
      ],
      "anonymous": false
    },
    {
      "type": "event",
      "name": "Rebalanced",
      "inputs": [
        {
          "name": "OccureTime",
          "type": "uint256",
          "indexed": false,
          "internalType": "uint256"
        }
      ],
      "anonymous": false
    },
    {
      "type": "event",
      "name": "RemovedFromWhitelist",
      "inputs": [
        {
          "name": "account",
          "type": "address",
          "indexed": true,
          "internalType": "address"
        }
      ],
      "anonymous": false
    },
    {
      "type": "event",
      "name": "RoleAdminChanged",
      "inputs": [
        {
          "name": "role",
          "type": "bytes32",
          "indexed": true,
          "internalType": "bytes32"
        },
        {
          "name": "previousAdminRole",
          "type": "bytes32",
          "indexed": true,
          "internalType": "bytes32"
        },
        {
          "name": "newAdminRole",
          "type": "bytes32",
          "indexed": true,
          "internalType": "bytes32"
        }
      ],
      "anonymous": false
    },
    {
      "type": "event",
      "name": "RoleGranted",
      "inputs": [
        {
          "name": "role",
          "type": "bytes32",
          "indexed": true,
          "internalType": "bytes32"
        },
        {
          "name": "account",
          "type": "address",
          "indexed": true,
          "internalType": "address"
        },
        {
          "name": "sender",
          "type": "address",
          "indexed": true,
          "internalType": "address"
        }
      ],
      "anonymous": false
    },
    {
      "type": "event",
      "name": "RoleRevoked",
      "inputs": [
        {
          "name": "role",
          "type": "bytes32",
          "indexed": true,
          "internalType": "bytes32"
        },
        {
          "name": "account",
          "type": "address",
          "indexed": true,
          "internalType": "address"
        },
        {
          "name": "sender",
          "type": "address",
          "indexed": true,
          "internalType": "address"
        }
      ],
      "anonymous": false
    },
    {
      "type": "event",
      "name": "SQRTPriceX",
      "inputs": [
        {
          "name": "SQRT",
          "type": "uint256",
          "indexed": false,
          "internalType": "uint256"
        }
      ],
      "anonymous": false
    },
    {
      "type": "event",
      "name": "ShowDepositedTokensData",
      "inputs": [
        {
          "name": "tokenIn",
          "type": "address[]",
          "indexed": false,
          "internalType": "address[]"
        },
        {
          "name": "tokenOut",
          "type": "address[]",
          "indexed": false,
          "internalType": "address[]"
        }
      ],
      "anonymous": false
    },
    {
      "type": "event",
      "name": "ShowTokensDataEvent",
      "inputs": [
        {
          "name": "pool",
          "type": "address[]",
          "indexed": false,
          "internalType": "address[]"
        },
        {
          "name": "uniV",
          "type": "uint8[]",
          "indexed": false,
          "internalType": "uint8[]"
        }
      ],
      "anonymous": false
    },
    {
      "type": "event",
      "name": "SwapFailed",
      "inputs": [
        {
          "name": "user",
          "type": "address",
          "indexed": true,
          "internalType": "address"
        },
        {
          "name": "amount",
          "type": "uint256",
          "indexed": false,
          "internalType": "uint256"
        },
        {
          "name": "tokenName",
          "type": "string",
          "indexed": false,
          "internalType": "string"
        },
        {
          "name": "reason",
          "type": "string",
          "indexed": false,
          "internalType": "string"
        }
      ],
      "anonymous": false
    },
    {
      "type": "event",
      "name": "SwapSuccessful",
      "inputs": [
        {
          "name": "user",
          "type": "address",
          "indexed": true,
          "internalType": "address"
        },
        {
          "name": "wethAmountPerToken",
          "type": "uint256",
          "indexed": false,
          "internalType": "uint256"
        },
        {
          "name": "receivedTokenAmount",
          "type": "int256",
          "indexed": false,
          "internalType": "int256"
        },
        {
          "name": "tokenName",
          "type": "string",
          "indexed": false,
          "internalType": "string"
        },
        {
          "name": "uniswapV",
          "type": "string",
          "indexed": false,
          "internalType": "string"
        }
      ],
      "anonymous": false
    },
    {
      "type": "event",
      "name": "TOTALETH",
      "inputs": [
        {
          "name": "Total",
          "type": "uint256",
          "indexed": false,
          "internalType": "uint256"
        },
        {
          "name": "admin",
          "type": "address",
          "indexed": false,
          "internalType": "address"
        },
        {
          "name": "ContractBalance",
          "type": "uint256",
          "indexed": false,
          "internalType": "uint256"
        }
      ],
      "anonymous": false
    },
    {
      "type": "event",
      "name": "TokenData",
      "inputs": [
        {
          "name": "route",
          "type": "address",
          "indexed": false,
          "internalType": "address"
        },
        {
          "name": "tokenOut",
          "type": "address",
          "indexed": false,
          "internalType": "address"
        },
        {
          "name": "usdVal",
          "type": "uint256",
          "indexed": false,
          "internalType": "uint256"
        },
        {
          "name": "wethVal",
          "type": "uint256",
          "indexed": false,
          "internalType": "uint256"
        },
        {
          "name": "uniV",
          "type": "uint8",
          "indexed": false,
          "internalType": "uint8"
        }
      ],
      "anonymous": false
    },
    {
      "type": "event",
      "name": "TokenDataBytes",
      "inputs": [
        {
          "name": "tokenData",
          "type": "bytes",
          "indexed": false,
          "internalType": "bytes"
        }
      ],
      "anonymous": false
    },
    {
      "type": "event",
      "name": "TokenRemoved",
      "inputs": [
        {
          "name": "tokens",
          "type": "address",
          "indexed": false,
          "internalType": "address"
        }
      ],
      "anonymous": false
    },
    {
      "type": "event",
      "name": "TokenSharesUpdated",
      "inputs": [
        {
          "name": "status",
          "type": "bool",
          "indexed": false,
          "internalType": "bool"
        }
      ],
      "anonymous": false
    },
    {
      "type": "event",
      "name": "TokensAdded",
      "inputs": [
        {
          "name": "addedTokens",
          "type": "address[]",
          "indexed": false,
          "internalType": "address[]"
        }
      ],
      "anonymous": false
    },
    {
      "type": "event",
      "name": "TokensList",
      "inputs": [
        {
          "name": "list",
          "type": "address[]",
          "indexed": false,
          "internalType": "address[]"
        }
      ],
      "anonymous": false
    },
    {
      "type": "event",
      "name": "TokensWithdrawAllInKindEvent",
      "inputs": [
        {
          "name": "token",
          "type": "address",
          "indexed": false,
          "internalType": "address"
        },
        {
          "name": "bal",
          "type": "uint256",
          "indexed": false,
          "internalType": "uint256"
        }
      ],
      "anonymous": false
    },
    {
      "type": "event",
      "name": "Unpaused",
      "inputs": [
        {
          "name": "account",
          "type": "address",
          "indexed": false,
          "internalType": "address"
        }
      ],
      "anonymous": false
    },
    {
      "type": "event",
      "name": "UserAdded",
      "inputs": [
        {
          "name": "user",
          "type": "address",
          "indexed": true,
          "internalType": "address"
        }
      ],
      "anonymous": false
    },
    {
      "type": "event",
      "name": "UserDataCheck",
      "inputs": [
        {
          "name": "buyer",
          "type": "address",
          "indexed": true,
          "internalType": "address"
        },
        {
          "name": "tokens",
          "type": "address[]",
          "indexed": false,
          "internalType": "address[]"
        },
        {
          "name": "wethValueFirst",
          "type": "uint256",
          "indexed": false,
          "internalType": "uint256"
        },
        {
          "name": "usdtValueFirst",
          "type": "uint256",
          "indexed": false,
          "internalType": "uint256"
        }
      ],
      "anonymous": false
    },
    {
      "type": "event",
      "name": "UserRound",
      "inputs": [
        {
          "name": "userRound",
          "type": "uint256",
          "indexed": false,
          "internalType": "uint256"
        }
      ],
      "anonymous": false
    },
    {
      "type": "event",
      "name": "UserTokenBalance",
      "inputs": [
        {
          "name": "token",
          "type": "address",
          "indexed": false,
          "internalType": "address"
        },
        {
          "name": "round",
          "type": "uint256",
          "indexed": false,
          "internalType": "uint256"
        },
        {
          "name": "tokenbalance",
          "type": "uint256",
          "indexed": false,
          "internalType": "uint256"
        }
      ],
      "anonymous": false
    },
    {
      "type": "event",
      "name": "UserTokenBalance",
      "inputs": [
        {
          "name": "user",
          "type": "address",
          "indexed": false,
          "internalType": "address"
        },
        {
          "name": "token",
          "type": "address",
          "indexed": false,
          "internalType": "address"
        },
        {
          "name": "userTokenBalance",
          "type": "uint256",
          "indexed": false,
          "internalType": "uint256"
        }
      ],
      "anonymous": false
    },
    {
      "type": "event",
      "name": "UserTokenBalanceRound",
      "inputs": [
        {
          "name": "user",
          "type": "address",
          "indexed": false,
          "internalType": "address"
        },
        {
          "name": "token",
          "type": "address",
          "indexed": false,
          "internalType": "address"
        },
        {
          "name": "round",
          "type": "uint256",
          "indexed": false,
          "internalType": "uint256"
        },
        {
          "name": "userTokenBalance",
          "type": "uint256",
          "indexed": false,
          "internalType": "uint256"
        }
      ],
      "anonymous": false
    },
    {
      "type": "event",
      "name": "UserTokensBalance",
      "inputs": [
        {
          "name": "user",
          "type": "address",
          "indexed": false,
          "internalType": "address"
        },
        {
          "name": "tokens",
          "type": "address[]",
          "indexed": false,
          "internalType": "address[]"
        },
        {
          "name": "userTokensBalance",
          "type": "uint256[]",
          "indexed": false,
          "internalType": "uint256[]"
        }
      ],
      "anonymous": false
    },
    {
      "type": "event",
      "name": "UserWhitelisted",
      "inputs": [
        {
          "name": "account",
          "type": "address",
          "indexed": true,
          "internalType": "address"
        }
      ],
      "anonymous": false
    },
    {
      "type": "event",
      "name": "V3ETH",
      "inputs": [
        {
          "name": "isV3",
          "type": "bool",
          "indexed": false,
          "internalType": "bool"
        }
      ],
      "anonymous": false
    },
    {
      "type": "event",
      "name": "WETHVALUE",
      "inputs": [
        {
          "name": "wethVal",
          "type": "uint256",
          "indexed": false,
          "internalType": "uint256"
        }
      ],
      "anonymous": false
    },
    {
      "type": "event",
      "name": "WethBalanceAdmin",
      "inputs": [
        {
          "name": "wethBalance",
          "type": "uint256",
          "indexed": false,
          "internalType": "uint256"
        },
        {
          "name": "admin",
          "type": "address",
          "indexed": false,
          "internalType": "address"
        }
      ],
      "anonymous": false
    },
    {
      "type": "event",
      "name": "WithdrawEvent",
      "inputs": [
        {
          "name": "user",
          "type": "address",
          "indexed": false,
          "internalType": "address"
        },
        {
          "name": "withAmt",
          "type": "int256",
          "indexed": false,
          "internalType": "int256"
        }
      ],
      "anonymous": false
    },
    {
      "type": "event",
      "name": "WithdrawEvent",
      "inputs": [
        {
          "name": "token",
          "type": "address",
          "indexed": false,
          "internalType": "address"
        },
        {
          "name": "withAmt",
          "type": "uint256",
          "indexed": false,
          "internalType": "uint256"
        }
      ],
      "anonymous": false
    },
    {
      "type": "event",
      "name": "handleSwapEvent",
      "inputs": [
        {
          "name": "amount",
          "type": "uint256",
          "indexed": false,
          "internalType": "uint256"
        },
        {
          "name": "tokenIn",
          "type": "address",
          "indexed": false,
          "internalType": "address"
        },
        {
          "name": "tokenOut",
          "type": "address",
          "indexed": false,
          "internalType": "address"
        },
        {
          "name": "minAmtOut",
          "type": "uint256",
          "indexed": false,
          "internalType": "uint256"
        }
      ],
      "anonymous": false
    },
    {
      "type": "event",
      "name": "handleSwapEventAmtOut",
      "inputs": [
        {
          "name": "minAmtOut",
          "type": "uint256[]",
          "indexed": false,
          "internalType": "uint256[]"
        },
        {
          "name": "pairAddress",
          "type": "address[]",
          "indexed": false,
          "internalType": "address[]"
        }
      ],
      "anonymous": false
    },
    {
      "type": "event",
      "name": "handleTokenToTokenSwapEvent",
      "inputs": [
        {
          "name": "token",
          "type": "address",
          "indexed": false,
          "internalType": "address"
        },
        {
          "name": "userTokenBalance",
          "type": "uint256",
          "indexed": false,
          "internalType": "uint256"
        },
        {
          "name": "tokenOut",
          "type": "address",
          "indexed": false,
          "internalType": "address"
        }
      ],
      "anonymous": false
    },
    {
      "type": "event",
      "name": "handleWETHToTokenSwapEvent",
      "inputs": [
        {
          "name": "token",
          "type": "address",
          "indexed": false,
          "internalType": "address"
        },
        {
          "name": "ethAmtPerToken",
          "type": "uint256",
          "indexed": false,
          "internalType": "uint256"
        },
        {
          "name": "tokenOut",
          "type": "address",
          "indexed": false,
          "internalType": "address"
        }
      ],
      "anonymous": false
    },
    {
      "type": "event",
      "name": "howMuch",
      "inputs": [
        {
          "name": "sender",
          "type": "address",
          "indexed": true,
          "internalType": "address"
        },
        {
          "name": "amt",
          "type": "uint256",
          "indexed": false,
          "internalType": "uint256"
        }
      ],
      "anonymous": false
    },
    {
      "type": "event",
      "name": "trace",
      "inputs": [
        {
          "name": "sender",
          "type": "address",
          "indexed": true,
          "internalType": "address"
        },
        {
          "name": "amt",
          "type": "uint256",
          "indexed": false,
          "internalType": "uint256"
        },
        {
          "name": "line",
          "type": "string",
          "indexed": false,
          "internalType": "string"
        }
      ],
      "anonymous": false
    },
    {
      "type": "event",
      "name": "trace4",
      "inputs": [
        {
          "name": "sender",
          "type": "address",
          "indexed": true,
          "internalType": "address"
        },
        {
          "name": "amt",
          "type": "int256",
          "indexed": false,
          "internalType": "int256"
        },
        {
          "name": "line",
          "type": "string",
          "indexed": false,
          "internalType": "string"
        }
      ],
      "anonymous": false
    },
    {
      "type": "event",
      "name": "withdrawAllInKindEvent",
      "inputs": [
        {
          "name": "token",
          "type": "address",
          "indexed": false,
          "internalType": "address"
        },
        {
          "name": "remained",
          "type": "uint256",
          "indexed": false,
          "internalType": "uint256"
        }
      ],
      "anonymous": false
    },
    {
      "type": "event",
      "name": "withdrawInKindEvent",
      "inputs": [
        {
          "name": "token",
          "type": "address",
          "indexed": false,
          "internalType": "address"
        },
        {
          "name": "beforeWithAmt",
          "type": "uint256",
          "indexed": false,
          "internalType": "uint256"
        },
        {
          "name": "withAmt",
          "type": "uint256",
          "indexed": false,
          "internalType": "uint256"
        },
        {
          "name": "remained",
          "type": "uint256",
          "indexed": false,
          "internalType": "uint256"
        }
      ],
      "anonymous": false
    },
    {
      "type": "error",
      "name": "AccessControlBadConfirmation",
      "inputs": []
    },
    {
      "type": "error",
      "name": "AccessControlUnauthorizedAccount",
      "inputs": [
        {
          "name": "account",
          "type": "address",
          "internalType": "address"
        },
        {
          "name": "neededRole",
          "type": "bytes32",
          "internalType": "bytes32"
        }
      ]
    },
    {
      "type": "error",
      "name": "EnforcedPause",
      "inputs": []
    },
    {
      "type": "error",
      "name": "ExpectedPause",
      "inputs": []
    },
    {
      "type": "error",
      "name": "ReentrancyGuardReentrantCall",
      "inputs": []
    }
  ],
  "bytecode": {
    "object": "0x60e06040527ff23ec0bb4210edd5cba85afd05127efcd2fc6a781bfed49188da1081670b22d86003556004805461ffff191660641790556103e860085534801561004857600080fd5b5060016000819055805460ff191690556004805462010000600160b01b03191633620100000217815573edf6066a2b290c185783862c7f4776a2c8077ad160a0819052604080516315ab88c960e31b81529051919263ad5c46489282820192602092908290030181865afa1580156100c4573d6000803e3d6000fd5b505050506040513d601f19601f820116820180604052508101906100e891906101e7565b6001600160a01b03908116608081905260c0526004546101119160009162010000900416610137565b5060035460045461013191906201000090046001600160a01b0316610137565b50610217565b60008281526002602090815260408083206001600160a01b038516845290915281205460ff166101dd5760008381526002602090815260408083206001600160a01b03861684529091529020805460ff191660011790556101953390565b6001600160a01b0316826001600160a01b0316847f2f8788117e7eff1d82e926ec794901d17c78024a50270940304540a733656f0d60405160405180910390a45060016101e1565b5060005b92915050565b6000602082840312156101f957600080fd5b81516001600160a01b038116811461021057600080fd5b9392505050565b60805160a05160c051615fcc6102f56000396000818161190601528181611bec015281816128a6015261293001526000614360015260008181610848015281816108d80152818161098901528181610bd001528181610c4001528181610cf201528181610f6a0152818161125b01528181611615015281816119e301528181611cc901528181611e15015281816121980152818161220801528181612359015281816123df01528181612be401528181612f2d0152818161343a015281816134be01528181613f150152818161403d01526143060152615fcc6000f3fe6080604052600436106102065760003560e01c80634f64b2be11610117578063a87430ba116100a5578063edf8e8a41161006c578063edf8e8a414610696578063f6326fb3146106b6578063fc228e6b146106be578063fcee45f4146106de578063ff59bcd0146106f157005b8063a87430ba146105bc578063bd5dc20214610621578063d547741f14610636578063d8575ded14610656578063e9075b631461067657005b806378d254b1116100e957806378d254b11461053257806391d148541461054757806399303e9d14610567578063a217fddf14610587578063a2ae27701461059c57005b80634f64b2be146104af578063502c9bd5146104e75780635c975abb146105075780635d3035191461051f57005b80632c30ad5b1161019457806331038fbd1161016657806331038fbd1461040f57806336568abe1461043c5780633f5cc4681461045c57806346cdf2f11461047c5780634ae05c7d1461048f57005b80632c30ad5b146103a55780632c6cda93146103ba5780632e185ec7146103da5780632f2ff15d146103ef57005b80631721539b116101d85780631721539b146102d9578063248a9ca3146102f9578063265193731461033757806327cdd8f914610357578063291d95491461038557005b806301ffc9a7146102445780630968f264146102795780630f9da7431461029957806310154bad146102b957005b366102425760405134815233907ff6f2f45bd3eb780a1d109af5711b045983100a7d1e5a1b5fa5b9f1dd3debd0679060200160405180910390a2005b005b34801561025057600080fd5b5061026461025f36600461501b565b610711565b60405190151581526020015b60405180910390f35b34801561028557600080fd5b50610242610294366004615111565b610748565b3480156102a557600080fd5b506102426102b4366004615145565b610a17565b3480156102c557600080fd5b506102426102d4366004615173565b610a29565b3480156102e557600080fd5b506102426102f4366004615111565b610a5b565b34801561030557600080fd5b50610329610314366004615145565b60009081526002602052604090206001015490565b604051908152602001610270565b34801561034357600080fd5b50610242610352366004615190565b610d77565b34801561036357600080fd5b50610377610372366004615173565b611307565b60405161027092919061524b565b34801561039157600080fd5b506102426103a0366004615173565b61143d565b3480156103b157600080fd5b50610242611461565b3480156103c657600080fd5b506102426103d5366004615280565b61156e565b3480156103e657600080fd5b506102426115d5565b3480156103fb57600080fd5b5061024261040a36600461529d565b61171a565b34801561041b57600080fd5b5061042f61042a366004615173565b611745565b60405161027091906152cd565b34801561044857600080fd5b5061024261045736600461529d565b6117be565b34801561046857600080fd5b506102426104773660046152ef565b6117f1565b61024261048a366004615145565b611888565b34801561049b57600080fd5b506102426104aa366004615368565b611ac0565b3480156104bb57600080fd5b506104cf6104ca366004615145565b611b38565b6040516001600160a01b039091168152602001610270565b3480156104f357600080fd5b506104cf610502366004615145565b611b62565b34801561051357600080fd5b5060015460ff16610264565b61024261052d3660046153a9565b611b72565b34801561053e57600080fd5b50610242611e45565b34801561055357600080fd5b5061026461056236600461529d565b6120f8565b34801561057357600080fd5b506102426105823660046153ef565b612123565b34801561059357600080fd5b50610329600081565b3480156105a857600080fd5b506102426105b7366004615111565b612282565b3480156105c857600080fd5b506106016105d7366004615173565b600c6020526000908152604090206003810154600f82015460108301546011909301549192909184565b604080519485526020850193909352918301526060820152608001610270565b34801561062d57600080fd5b5061042f61241e565b34801561064257600080fd5b5061024261065136600461529d565b612480565b34801561066257600080fd5b50610242610671366004615428565b6124a5565b34801561068257600080fd5b506102426106913660046154a5565b6125a0565b3480156106a257600080fd5b506102426106b1366004615173565b612783565b61024261285f565b3480156106ca57600080fd5b506102426106d9366004615111565b6129f2565b6103296106ec366004615145565b6130f8565b3480156106fd57600080fd5b5061024261070c3660046154fd565b613196565b60006001600160e01b03198216637965db0b60e01b148061074257506301ffc9a760e01b6001600160e01b03198316145b92915050565b600080516020615f77833981519152610760816131d8565b6107686131e2565b610770613208565b336000908152600c60209081526040808320600580548351818602810186019094528084529194939091908301828280156107d457602002820191906000526020600020905b81546001600160a01b031681526001909101906020018083116107b6575b50505050509050600080806107e887613232565b925050915060005b845181101561094857600061081e3387848151811061081157610811615594565b6020026020010151613496565b9050801561093f5760006108b38888858151811061083e5761083e615594565b60200260200101517f000000000000000000000000000000000000000000000000000000000000000088878151811061087957610879615594565b602002602001015188888151811061089357610893615594565b602002602001015160ff166003146108ac5760006135a2565b60016135a2565b90507f4f7a3cd4c558c24335e118a71cd17a390ebc7fa3b5f1f928e3d2616cc28839647f0000000000000000000000000000000000000000000000000000000000000000826040516109069291906155aa565b60405180910390a161091881876155d9565b955061093d3388858151811061093057610930615594565b602002602001015161362c565b505b506001016107f0565b50600083116109725760405162461bcd60e51b8152600401610969906155ec565b60405180910390fd5b60405163a9059cbb60e01b81526001600160a01b037f0000000000000000000000000000000000000000000000000000000000000000169063a9059cbb906109c090339087906004016155aa565b6020604051808303816000875af11580156109df573d6000803e3d6000fd5b505050506040513d601f19601f82011682018060405250810190610a03919061562d565b505050505050610a136001600055565b5050565b600354610a23816131d8565b50600855565b600354610a35816131d8565b610a3e826136a5565b610a56600080516020615f7783398151915283613754565b505050565b600354610a67816131d8565b6000806005805480602002602001604051908101604052809291908181526020018280548015610ac057602002820191906000526020600020905b81546001600160a01b03168152600190910190602001808311610aa2575b5050505050905060006007805490506001600160401b03811115610ae657610ae661504c565b604051908082528060200260200182016040528015610b0f578160200160208202803683370190505b50905060008080610b1f88613232565b925050915060005b8451811015610cba57600c6000868381518110610b4657610b46615594565b60200260200101516001600160a01b03166001600160a01b03168152602001908152602001600020965060005b8651811015610cb1576000878281518110610b9057610b90615594565b602002602001015190506000610bbf888581518110610bb157610bb1615594565b602002602001015183613496565b90508015610ca7576000610c1b8b847f00000000000000000000000000000000000000000000000000000000000000008a8881518110610c0157610c01615594565b60200260200101518a898151811061089357610893615594565b90507f4f7a3cd4c558c24335e118a71cd17a390ebc7fa3b5f1f928e3d2616cc28839647f000000000000000000000000000000000000000000000000000000000000000082604051610c6e9291906155aa565b60405180910390a1610c8081896155d9565b9750610ca5898681518110610c9757610c97615594565b60200260200101518461362c565b505b5050600101610b73565b50600101610b27565b5060008311610cdb5760405162461bcd60e51b8152600401610969906155ec565b60405163a9059cbb60e01b81526001600160a01b037f0000000000000000000000000000000000000000000000000000000000000000169063a9059cbb90610d2990339087906004016155aa565b6020604051808303816000875af1158015610d48573d6000803e3d6000fd5b505050506040513d601f19601f82011682018060405250810190610d6c919061562d565b505050505050505050565b600080516020615f77833981519152610d8f816131d8565b610d976131e2565b610d9f613208565b600082118015610db0575060648211155b610df15760405162461bcd60e51b8152602060048201526012602482015271496e76616c69642070657263656e7461676560701b6044820152606401610969565b60008080610dfe86613232565b9250509150600080610e0f33611307565b91509150600080610e1e6137e8565b90925090506000610e326127106064615648565b612710610e3f8c85615648565b610e499190615648565b610e539190615675565b905060005b855181101561120c576000610e706127106064615648565b612710878481518110610e8557610e85615594565b6020026020010151878581518110610e9f57610e9f615594565b6020026020010151610eb19190615648565b610ebb9190615648565b610ec59190615675565b90506000610ed66127106064615648565b6127108e898681518110610eec57610eec615594565b6020026020010151610efe9190615648565b610f089190615648565b610f129190615675565b9050838211156110e157336000908152600c602052604081208b51610fbb919084908e9088908110610f4657610f46615594565b60200260200101518c8881518110610f6057610f60615594565b60200260200101517f00000000000000000000000000000000000000000000000000000000000000008f8a81518110610f9b57610f9b615594565b602002602001015160ff16600314610fb45760006139ab565b60016139ab565b905060015b336000908152600c6020526040902060110154811161106557336000908152600c602052604081208b518592600590920191908d908990811061100557611005615594565b60200260200101516001600160a01b03166001600160a01b031681526020019081526020016000206000838152602001908152602001600020600082825461104d9190615689565b9091555081905061105d8161569c565b915050610fc0565b50336000908152600c602052604081208a518492600490920191908c908890811061109257611092615594565b60200260200101516001600160a01b03166001600160a01b0316815260200190815260200160002060008282546110c99190615689565b909155506110d99050818d6155d9565b9b5050611202565b336000908152600c602052604081208b5161110b919084908e9088908110610f4657610f46615594565b905060015b336000908152600c602052604090206011015481116111a457336000908152600c602052604081208b5160059091019082908d908990811061115457611154615594565b60200260200101516001600160a01b03166001600160a01b03168152602001908152602001600020600083815260200190815260200160002081905550808061119c9061569c565b915050611110565b50336000908152600c602052604081208a5160049091019082908c90889081106111d0576111d0615594565b6020908102919091018101516001600160a01b03168252810191909152604001600020556111fe818d6155d9565b9b50505b5050600101610e58565b50600454600090612710906112259061ffff168b615648565b61122f9190615675565b9050600089116112515760405162461bcd60e51b8152600401610969906155ec565b6001600160a01b037f00000000000000000000000000000000000000000000000000000000000000001663a9059cbb3361128b848d615689565b6040518363ffffffff1660e01b81526004016112a89291906155aa565b6020604051808303816000875af11580156112c7573d6000803e3d6000fd5b505050506040513d601f19601f820116820180604052508101906112eb919061562d565b506112f4613b88565b505050505050505050610a566001600055565b6060806000600580548060200260200160405190810160405280929190818152602001828054801561136257602002820191906000526020600020905b81546001600160a01b03168152600190910190602001808311611344575b50505050509050600081516001600160401b038111156113845761138461504c565b6040519080825280602002602001820160405280156113ad578160200160208202803683370190505b50905060005b82518110156113f7576113d28684838151811061081157610811615594565b8282815181106113e4576113e4615594565b60209081029190910101526001016113b3565b507f26784236629ddf6658746bfdfbc768fabc38620c54387ee41fdbe476606c9d5985838360405161142b939291906156b5565b60405180910390a19094909350915050565b600354611449816131d8565b610a56600080516020615f7783398151915283613d32565b60035461146d816131d8565b6000611477613d9f565b90506000808280602001905181019061149091906157d2565b9150915060005b82518110156115675760008382815181106114b4576114b4615594565b60200260200101519050806001600160a01b031663a9059cbb600460029054906101000a90046001600160a01b03168585815181106114f5576114f5615594565b60200260200101516040518363ffffffff1660e01b815260040161151a9291906155aa565b6020604051808303816000875af1158015611539573d6000803e3d6000fd5b505050506040513d601f19601f8201168201806040525081019061155d919061562d565b5050600101611497565b5050505050565b60035461157a816131d8565b61012c61ffff831611156115bc5760405162461bcd60e51b8152602060048201526009602482015268139bdd0815985b1a5960ba1b6044820152606401610969565b506004805461ffff191661ffff92909216919091179055565b6003546115e1816131d8565b6115e9613208565b600a541561170d57600a805460009091556004805460405163a9059cbb60e01b81526001600160a01b037f000000000000000000000000000000000000000000000000000000000000000081169363a9059cbb936116549362010000909104909216918691016155aa565b6020604051808303816000875af1158015611673573d6000803e3d6000fd5b505050506040513d601f19601f82011682018060405250810190611697919061562d565b50600460029054906101000a90046001600160a01b03166001600160a01b03167f9e867e8e0a115b5cb14109a604aecdea04be725ade4a067698956588887b5750826040516117039181526040602082018190526003908201526208aa8960eb1b606082015260800190565b60405180910390a2505b6117176001600055565b50565b600082815260026020526040902060010154611735816131d8565b61173f8383613754565b50505050565b6001600160a01b0381166000908152600c6020908152604091829020600e018054835181840281018401909452808452606093928301828280156117b257602002820191906000526020600020905b81546001600160a01b03168152600190910190602001808311611794575b50505050509050919050565b6001600160a01b03811633146117e75760405163334bd91960e11b815260040160405180910390fd5b610a568282613d32565b6003546117fd816131d8565b61012c60ff841611801590611817575061012c60ff831611155b6118635760405162461bcd60e51b815260206004820152601960248201527f4465706f73697420666565206d757374206265203c3d203325000000000000006044820152606401610969565b50600f805460ff9283166101000261ffff199091169290931691909117919091179055565b600354611894816131d8565b34156118ef57306001600160a01b031663f6326fb3346040518263ffffffff1660e01b81526004016000604051808303818588803b1580156118d557600080fd5b505af11580156118e9573d6000803e3d6000fd5b50505050505b6040516370a0823160e01b815233600482015282907f00000000000000000000000000000000000000000000000000000000000000006001600160a01b0316906370a08231906024016020604051808303816000875af1158015611957573d6000803e3d6000fd5b505050506040513d601f19601f8201168201806040525081019061197b919061582f565b116119c15760405162461bcd60e51b8152602060048201526016602482015275131858dac81bd98819195c1bdcda5d08185b5bdd5b9d60521b6044820152606401610969565b6040516323b872dd60e01b8152336004820152306024820152604481018390527f00000000000000000000000000000000000000000000000000000000000000006001600160a01b0316906323b872dd906064016020604051808303816000875af1158015611a34573d6000803e3d6000fd5b505050506040513d601f19601f82011682018060405250810190611a58919061562d565b50341580611a6557508134145b611aa55760405162461bcd60e51b815260206004820152601160248201527015dc9bdb99c8185b5bdd5b9d081cd95b9d607a1b6044820152606401610969565b8160096000828254611ab791906155d9565b90915550505050565b600354611acc816131d8565b60005b8281101561173f576005848483818110611aeb57611aeb615594565b9050602002016020810190611b009190615173565b815460018082018455600093845260209093200180546001600160a01b0319166001600160a01b039290921691909117905501611acf565b60058181548110611b4857600080fd5b6000918252602090912001546001600160a01b0316905081565b60078181548110611b4857600080fd5b611b7a6131e2565b3415611bd557306001600160a01b031663f6326fb3346040518263ffffffff1660e01b81526004016000604051808303818588803b158015611bbb57600080fd5b505af1158015611bcf573d6000803e3d6000fd5b50505050505b6040516370a0823160e01b815233600482015282907f00000000000000000000000000000000000000000000000000000000000000006001600160a01b0316906370a08231906024016020604051808303816000875af1158015611c3d573d6000803e3d6000fd5b505050506040513d601f19601f82011682018060405250810190611c61919061582f565b11611ca75760405162461bcd60e51b8152602060048201526016602482015275131858dac81bd98819195c1bdcda5d08185b5bdd5b9d60521b6044820152606401610969565b6040516323b872dd60e01b8152336004820152306024820152604481018390527f00000000000000000000000000000000000000000000000000000000000000006001600160a01b0316906323b872dd906064016020604051808303816000875af1158015611d1a573d6000803e3d6000fd5b505050506040513d601f19601f82011682018060405250810190611d3e919061562d565b50341580611d4b57508134145b611d8b5760405162461bcd60e51b815260206004820152601160248201527015dc9bdb99c8185b5bdd5b9d081cd95b9d607a1b6044820152606401610969565b6000806000611d9984613232565b336000908152600c6020526040812060118101805495985093965091945090929190611dc48361569c565b909155508690506000611dd6826130f8565b905080836000016000856011015481526020019081526020016000206000828254611e0191906155d9565b9091555050600f8301829055611e3b8382887f00000000000000000000000000000000000000000000000000000000000000008989613ed5565b5050505050505050565b600080516020615f77833981519152611e5d816131d8565b611e656131e2565b611e6d613208565b336000908152600c6020908152604080832060058054835181860281018601909452808452919493909190830182828015611ed157602002820191906000526020600020905b81546001600160a01b03168152600190910190602001808311611eb3575b505050505090506000805b82518110156120ea576000611efd3385848151811061081157610811615594565b905080600003611f0d57506120e2565b60045461271090611f229061ffff1683615648565b611f2c9190615675565b925060015b85601101548111611fec576000866005016000878681518110611f5657611f56615594565b60200260200101516001600160a01b03166001600160a01b031681526020019081526020016000206000838152602001908152602001600020819055506000866004016000878681518110611fad57611fad615594565b60200260200101516001600160a01b03166001600160a01b03168152602001908152602001600020819055508080611fe49061569c565b915050611f31565b50838281518110611fff57611fff615594565b60200260200101516001600160a01b031663a9059cbb3385846120229190615689565b6040518363ffffffff1660e01b815260040161203f9291906155aa565b6020604051808303816000875af115801561205e573d6000803e3d6000fd5b505050506040513d601f19601f82011682018060405250810190612082919061562d565b507f5a8b8a408d12238048a9febf3b2803b72102a8439110af59c063eb5efb963cc88483815181106120b6576120b6615594565b602002602001015184836120ca9190615689565b6040516120d89291906155aa565b60405180910390a1505b600101611edc565b505050506117176001600055565b60009182526002602090815260408084206001600160a01b0393909316845291905290205460ff1690565b60035461212f816131d8565b6001600160a01b0383166000908152600c60205260408120600e01546001600160401b038111156121625761216261504c565b60405190808252806020026020018201604052801561218b578160200160208202803683370190505b509050600081516121bc867f0000000000000000000000000000000000000000000000000000000000000000613496565b6121c69190615675565b905060008060006121d687613232565b92509250925060005b8551811015610d6c576001600160a01b0389166000908152600c6020526040902061222e9086867f00000000000000000000000000000000000000000000000000000000000000008787613ed5565b6001600160a01b0389166000908152600c60205260409020600e0180548061225857612258615848565b600082815260209020810160001990810180546001600160a01b03191690550190556001016121df565b60035461228e816131d8565b6000808061229b85613232565b925050915060006122aa613d9f565b9050600080828060200190518101906122c391906157d2565b9150915060005b82518110156123a35760008282815181106122e7576122e7615594565b60200260200101519050600081111561239a576004546201000090046001600160a01b03166000908152600c60205260408120885161238a919084908b908790811061233557612335615594565b602002602001015188878151811061234f5761234f615594565b60200260200101517f00000000000000000000000000000000000000000000000000000000000000008c8981518110610f9b57610f9b615594565b9050612396818a6155d9565b9850505b506001016122ca565b50600086116123c45760405162461bcd60e51b8152600401610969906155ec565b6004805460405163a9059cbb60e01b81526001600160a01b037f000000000000000000000000000000000000000000000000000000000000000081169363a9059cbb93610d299362010000909104909216918b91016155aa565b6060600580548060200260200160405190810160405280929190818152602001828054801561247657602002820191906000526020600020905b81546001600160a01b03168152600190910190602001808311612458575b5050505050905090565b60008281526002602052604090206001015461249b816131d8565b61173f8383613d32565b6003546124b1816131d8565b306000908152600e602052604081208790555b84811015612558578383828181106124de576124de615594565b90506020020135600e6000306001600160a01b03166001600160a01b03168152602001908152602001600020600501600088888581811061252157612521615594565b90506020020160208101906125369190615173565b6001600160a01b031681526020810191909152604001600020556001016124c4565b507fb3f38411015d2860720d2457652810e1ebbb90f57a5e6bf56a2296f53e0e0b0a868686868660405161259095949392919061585e565b60405180910390a1505050505050565b600080516020615f778339815191526125b8816131d8565b6125c06131e2565b6125c8613208565b336000818152600c60205260408120916125e29087613496565b9050848110156126345760405162461bcd60e51b815260206004820152601a60248201527f496e73756666696369656e7420746f6b656e2062616c616e63650000000000006044820152606401610969565b60405163a9059cbb60e01b81526001600160a01b0387169063a9059cbb9061266290339089906004016155aa565b6020604051808303816000875af1158015612681573d6000803e3d6000fd5b505050506040513d601f19601f820116820180604052508101906126a5919061562d565b506001600160a01b03861660009081526005830160209081526040808320878452909152812080548792906126db908490615689565b90915550506001600160a01b03861660009081526004830160205260408120805487929061270a908490615689565b90915550506001600160a01b038616600081815260058401602090815260408083208884528252918290205482519384529083018490528282018890526060830152517f530796677cf45a1d5bbe24a3dc7f9696fee24a5d8e181bd974d066bc7fc936219181900360800190a1505061173f6001600055565b600061278d6137e8565b506001600160a01b0383166000908152600c60205260408120919250805b600554811015612845576000836004016000600584815481106127d0576127d0615594565b60009182526020808320909101546001600160a01b031683528201929092526040018120548651909250606490839088908690811061281157612811615594565b60200260200101516128239190615648565b61282d9190615675565b905061283981856155d9565b935050506001016127ab565b5060016000908152600d9092016020526040909120555050565b600034116128a45760405162461bcd60e51b815260206004820152601260248201527109aeae6e840e6cadcc840e6dedaca408aa8960731b6044820152606401610969565b7f00000000000000000000000000000000000000000000000000000000000000006001600160a01b031663d0e30db0346040518263ffffffff1660e01b81526004016000604051808303818588803b1580156128ff57600080fd5b505af1158015612913573d6000803e3d6000fd5b505060405163a9059cbb60e01b8152600093506001600160a01b037f000000000000000000000000000000000000000000000000000000000000000016925063a9059cbb915061296990339034906004016155aa565b6020604051808303816000875af1158015612988573d6000803e3d6000fd5b505050506040513d601f19601f820116820180604052508101906129ac919061562d565b9050806117175760405162461bcd60e51b815260206004820152601460248201527315d15512081d1c985b9cd9995c8819985a5b195960621b6044820152606401610969565b6003546129fe816131d8565b600080612a0a84613232565b92505091506000806005805490506001600160401b03811115612a2f57612a2f61504c565b604051908082528060200260200182016040528015612a58578160200160208202803683370190505b50905060005b600554811015612b79576000612a9a60058381548110612a8057612a80615594565b6000918252602090912001546001600160a01b0316614009565b90508060058381548110612ab057612ab0615594565b6000918252602090912001546040516370a0823160e01b81523060048201526001600160a01b03909116906370a0823190602401602060405180830381865afa158015612b01573d6000803e3d6000fd5b505050506040513d601f19601f82011682018060405250810190612b25919061582f565b612b2f9190615648565b838381518110612b4157612b41615594565b602002602001018181525050828281518110612b5f57612b5f615594565b602002602001015184019350508080600101915050612a5e565b50600554600090612b8a9084615675565b6005549091506000906001600160401b03811115612baa57612baa61504c565b604051908082528060200260200182016040528015612bd3578160200160208202803683370190505b50905060005b8151811015612c35577f0000000000000000000000000000000000000000000000000000000000000000828281518110612c1557612c15615594565b6001600160a01b0390921660209283029190910190910152600101612bd9565b5060055447906000906001600160401b03811115612c5557612c5561504c565b604051908082528060200260200182016040528015612c7e578160200160208202803683370190505b506005549091506000906001600160401b03811115612c9f57612c9f61504c565b604051908082528060200260200182016040528015612cc8578160200160208202803683370190505b50905060005b6005548110156130185785878281518110612ceb57612ceb615594565b60200260200101511115612df0576000612d1160058381548110612a8057612a80615594565b87898481518110612d2457612d24615594565b6020026020010151612d369190615689565b612d409190615675565b6004546201000090046001600160a01b03166000908152600c6020526040902060058054929350612d9b9284918f9187908110612d7f57612d7f615594565b6000918252602090912001546001600160a01b03168a8f613ed5565b600754612da89082615675565b848381518110612dba57612dba615594565b6020026020010181815250506000838381518110612dda57612dda615594565b9115156020928302919091019091015250613010565b6000612710612e7060058481548110612e0b57612e0b615594565b9060005260206000200160009054906101000a90046001600160a01b03166011600060058781548110612e4057612e40615594565b60009182526020808320909101546001600160a01b03908116845290830193909352604090910190205416614172565b612e7a9190615648565b612710612e9360058581548110612a8057612a80615594565b8a8581518110612ea557612ea5615594565b60200260200101518a612eb89190615689565b612ec29190615675565b612ecc9190615648565b612ed69190615648565b9050806009541015612ee85750613010565b6004546201000090046001600160a01b03166000908152600c602052604090208b51612f9c919083908e9086908110612f2357612f23615594565b60200260200101517f000000000000000000000000000000000000000000000000000000000000000060058781548110612f5f57612f5f615594565b9060005260206000200160009054906101000a90046001600160a01b03168f8881518110612f8f57612f8f615594565b602002602001015161441d565b600754612fa99082615675565b848381518110612fbb57612fbb615594565b6020026020010181815250506001838381518110612fdb57612fdb615594565b91151560209283029190910190910152612ff54786615689565b945084600960008282546130099190615689565b9091555050505b600101612cce565b5060005b6007548110156130b7576130af6007828154811061303c5761303c615594565b600091825260209182902001546005805460408051828602810186019091528181526001600160a01b03909316938301828280156130a357602002820191906000526020600020905b81546001600160a01b03168152600190910190602001808311613085575b50505050508585614444565b60010161301c565b506040514281527fc306af072396b02bf3a9782c10065cc7ff4aa842934a43f0b76f997b291237c89060200160405180910390a15050505050505050505050565b600454600090829082906201000090046001600160a01b0316330361311b575060005b613124826147b1565b905080600a600082825461313891906155d9565b9091555050600454604051828152620100009091046001600160a01b0316907fbb527541f6cc244ae00ab689f8c23d072a30a3b4176021df62ea1c2bac8aa2269060200160405180910390a261318e8183615689565b949350505050565b6003546131a2816131d8565b60005b8251811015610a56576131d08382815181106131c3576131c3615594565b60200260200101516147d3565b6001016131a5565b6117178133614893565b60015460ff16156132065760405163d93c066560e01b815260040160405180910390fd5b565b60026000540361322b57604051633ee5aeb560e01b815260040160405180910390fd5b6002600055565b60608060608380602001905181019061324b91906158e4565b815183519396509194509250148015613265575080518251145b6132aa5760405162461bcd60e51b8152602060048201526016602482015275082e4e4c2f240d8cadccee8d0e640dad2e6dac2e8c6d60531b6044820152606401610969565b60005b825181101561342f578381815181106132c8576132c8615594565b6020026020010151601160008584815181106132e6576132e6615594565b60200260200101516001600160a01b03166001600160a01b0316815260200190815260200160002060000160006101000a8154816001600160a01b0302191690836001600160a01b0316021790555082818151811061334757613347615594565b60200260200101516011600085848151811061336557613365615594565b60200260200101516001600160a01b03166001600160a01b0316815260200190815260200160002060030160006101000a8154816001600160a01b0302191690836001600160a01b031602179055508181815181106133c6576133c6615594565b6020026020010151601160008584815181106133e4576133e4615594565b6020908102919091018101516001600160a01b03168252810191909152604001600020600301805460ff92909216600160a01b0260ff60a01b199092169190911790556001016132ad565b506001600160a01b037f000000000000000000000000000000000000000000000000000000000000000016600090815260116020526040902060010180546001600160a01b03191673a374094527e1673a86de625aa59517c5de346d321790559193909250565b6001600160a01b0382166000908152600c6020526040812060015b8160110154811161354f577f00000000000000000000000000000000000000000000000000000000000000006001600160a01b0316846001600160a01b0316036135155760008181526020839052604090205461350e90846155d9565b925061353d565b6001600160a01b038416600090815260048301602052604090205461353a90846155d9565b92505b806135478161569c565b9150506134b1565b50604080516001600160a01b038087168252851660208201529081018390527f79d8fd5972edfe880f72cea137f4db05f170a97f8d77fef3f357a1da3f75e9f39060600160405180910390a15092915050565b6001600160a01b038085166000908152600587016020908152604080832060118a015484529091528120546004549192909183916135e7916201000090041688613496565b821161360e57600454613609906201000090046001600160a01b031688613496565b613610565b815b90506136208882878a8a896139ab565b98975050505050505050565b6001600160a01b0382166000908152600c60205260408120905b8160110154811015613684576001600160a01b0383166000908152600583016020908152604080832060118601548452909152812055600101613646565b506001600160a01b0390911660009081526004909101602052604081205550565b6001600160a01b0381166000908152600b602052604090205460ff16611717576007805460018082019092557fa66cc928b5edb82af9bd49922954155ab7b0942694bea4ce44661d9a8736c6880180546001600160a01b0319166001600160a01b0384169081179091556000818152600b6020526040808220805460ff1916909417909355915190917f19ef9a4877199f89440a26acb26895ec02ed86f2df1aeaa90dc18041b892f71f91a250565b600061376083836120f8565b6137e05760008381526002602090815260408083206001600160a01b03861684529091529020805460ff191660011790556137983390565b6001600160a01b0316826001600160a01b0316847f2f8788117e7eff1d82e926ec794901d17c78024a50270940304540a733656f0d60405160405180910390a4506001610742565b506000610742565b60606000806005805490506001600160401b0381111561380a5761380a61504c565b604051908082528060200260200182016040528015613833578160200160208202803683370190505b50905080516001600160401b0381111561384f5761384f61504c565b604051908082528060200260200182016040528015613878578160200160208202803683370190505b50925060005b6005548110156139a55760006005828154811061389d5761389d615594565b6000918252602090912001546040516370a0823160e01b81523060048201526001600160a01b03909116915081906370a0823190602401602060405180830381865afa1580156138f1573d6000803e3d6000fd5b505050506040513d601f19601f82011682018060405250810190613915919061582f565b83838151811061392757613927615594565b602002602001018181525050600061394b60058481548110612a8057612a80615594565b84848151811061395d5761395d615594565b602002602001015161396f9190615648565b90508086848151811061398457613984615594565b602090810291909101015261399981866155d9565b9450505060010161387e565b50509091565b6040805160028082526060820183526000928392919060208301908036833701905050905084816000815181106139e4576139e4615594565b60200260200101906001600160a01b031690816001600160a01b0316815250508381600181518110613a1857613a18615594565b6001600160a01b03929092166020928302919091018201526040805160028082526060820183526000939192909183019080368337019050509050600084613b2d5760405163d06ca61f60e01b815273edf6066a2b290c185783862c7f4776a2c8077ad19063d06ca61f90613a93908c9087906004016159e5565b600060405180830381865afa158015613ab0573d6000803e3d6000fd5b505050506040513d6000823e601f3d908101601f19168201604052613ad891908101906159fe565b9150600082600181518110613aef57613aef615594565b602002602001015111613b03576000613b26565b613b2682600181518110613b1957613b19615594565b60200260200101516148be565b9050613b53565b6000613b39898b6148dd565b9050613b4681600a61498a565b6001600160a01b03169150505b8415613b7157613b678a8a8a8a8a86614a2a565b9350505050613b7e565b613b678a8a898985614c9c565b9695505050505050565b600080613b936137e8565b9150915060005b600754811015610a5657600060078281548110613bb957613bb9615594565b60009182526020808320909101546001600160a01b0316808352600c90915260408220909250905b600554811015613c2d57600060058281548110613c0057613c00615594565b60009182526020808320909101546001600160a01b03168252600485019052604081205550600101613be1565b506000805b600554811015613d2257600060058281548110613c5157613c51615594565b60009182526020808320909101546001600160a01b031680835260048701909152604082205490925090613c8483614009565b9050826001600160a01b031663313ce5676040518163ffffffff1660e01b8152600401602060405180830381865afa158015613cc4573d6000803e3d6000fd5b505050506040513d601f19601f82011682018060405250810190613ce89190615a32565b613cf390600a615b36565b613cfd8284615648565b613d079190615675565b613d1190866155d9565b94505060019092019150613c329050565b505060019092019150613b9a9050565b6000613d3e83836120f8565b156137e05760008381526002602090815260408083206001600160a01b0386168085529252808320805460ff1916905551339286917ff6391f5c32d9c69d2a47ea670b442974b53935d1edc7fd64eb21e047a839171b9190a4506001610742565b6005546060906000906001600160401b03811115613dbf57613dbf61504c565b604051908082528060200260200182016040528015613de8578160200160208202803683370190505b50905060005b600554811015613eab57600060058281548110613e0d57613e0d615594565b6000918252602090912001546040516370a0823160e01b81523060048201526001600160a01b03909116915081906370a0823190602401602060405180830381865afa158015613e61573d6000803e3d6000fd5b505050506040513d601f19601f82011682018060405250810190613e85919061582f565b838381518110613e9757613e97615594565b602090810291909101015250600101613dee565b50600581604051602001613ec0929190615b45565b60405160208183030381529060405291505090565b60005b8251811015614000576000828281518110613ef557613ef5615594565b602002602001015160ff16600314613f0e576000613f11565b60015b90507f00000000000000000000000000000000000000000000000000000000000000006001600160a01b0316848381518110613f4f57613f4f615594565b60200260200101516001600160a01b031614613fb657613fb1888686518a613f779190615675565b878681518110613f8957613f89615594565b60200260200101518a8781518110613fa357613fa3615594565b602002602001015186614f3c565b613ff7565b613ff58886868581518110613fcd57613fcd615594565b6020026020010151898681518110613fe757613fe7615594565b6020026020010151856135a2565b505b50600101613ed8565b50505050505050565b6001600160a01b038082166000908152601160205260408120549091829161403391859116614172565b6001600160a01b037f00000000000000000000000000000000000000000000000000000000000000008116600090815260116020526040812060010154929350916140949173c2132d05d31c914a87c6611c10748aeb04b58e8f9116614172565b90506000846001600160a01b031663313ce5676040518163ffffffff1660e01b8152600401602060405180830381865afa1580156140d6573d6000803e3d6000fd5b505050506040513d601f19601f820116820180604052508101906140fa9190615a32565b905060126006600061410c8484615b9f565b61411790600a615b36565b6141219087615648565b9050600061412f8385615b9f565b61413a90600a615b36565b6141449087615648565b905061415184600a615b36565b61415b8284615648565b6141659190615675565b9998505050505050505050565b6000806000846001600160a01b031663313ce5676040518163ffffffff1660e01b8152600401602060405180830381865afa1580156141b5573d6000803e3d6000fd5b505050506040513d601f19601f820116820180604052508101906141d99190615a32565b90506001600160a01b0384161561429a5760008490506000816001600160a01b0316633850c7bd6040518163ffffffff1660e01b815260040160e060405180830381865afa15801561422f573d6000803e3d6000fd5b505050506040513d601f19601f820116820180604052508101906142539190615bb8565b50505050505090506000816001600160a01b0316826001600160a01b031661427b9190615648565b9050614290816503782dace9d960d21b615675565b94505050506143ff565b60006142aa60ff8316600a615c56565b604080516002808252606082018352929350600092909160208301908036833701905050905086816000815181106142e4576142e4615594565b60200260200101906001600160a01b031690816001600160a01b0316815250507f00000000000000000000000000000000000000000000000000000000000000008160018151811061433857614338615594565b6001600160a01b03928316602091820292909201015260405163d06ca61f60e01b81526000917f0000000000000000000000000000000000000000000000000000000000000000169063d06ca61f9061439790869086906004016159e5565b600060405180830381865afa1580156143b4573d6000803e3d6000fd5b505050506040513d6000823e601f3d908101601f191682016040526143dc91908101906159fe565b9050806001815181106143f1576143f1615594565b602002602001015194505050505b61440a81600a615b36565b6144149083615675565b95945050505050565b60008160ff16600314614431576000614434565b60015b9050611e3b878786868986614f4a565b60005b6005548110156115675781818151811061446357614463615594565b6020026020010151151560001515036146125760015b6001600160a01b0386166000908152600c60205260409020601101548111614579576001600160a01b0386166000908152600c602052604090206011015484518590849081106144cb576144cb615594565b60200260200101516144dd9190615675565b600c6000886001600160a01b03166001600160a01b03168152602001908152602001600020600501600087858151811061451957614519615594565b60200260200101516001600160a01b03166001600160a01b03168152602001908152602001600020600083815260200190815260200160002060008282546145619190615689565b909155508190506145718161569c565b915050614479565b5082818151811061458c5761458c615594565b6020026020010151600c6000876001600160a01b03166001600160a01b0316815260200190815260200160002060040160008684815181106145d0576145d0615594565b60200260200101516001600160a01b03166001600160a01b0316815260200190815260200160002060008282546146079190615689565b909155506147a99050565b60015b6001600160a01b0386166000908152600c60205260409020601101548111614715576001600160a01b0386166000908152600c6020526040902060110154845185908490811061466757614667615594565b60200260200101516146799190615675565b600c6000886001600160a01b03166001600160a01b0316815260200190815260200160002060050160008785815181106146b5576146b5615594565b60200260200101516001600160a01b03166001600160a01b03168152602001908152602001600020600083815260200190815260200160002060008282546146fd91906155d9565b9091555081905061470d8161569c565b915050614615565b5082818151811061472857614728615594565b6020026020010151600c6000876001600160a01b03166001600160a01b03168152602001908152602001600020600401600086848151811061476c5761476c615594565b60200260200101516001600160a01b03166001600160a01b0316815260200190815260200160002060008282546147a391906155d9565b90915550505b600101614447565b600454600090612710906147c99061ffff1684615648565b6107429190615675565b7f4c910b69fe65a61f7531b9c5042b2329ca7179c77290aa7e2eb3afa3c8511fd36005828154811061480757614807615594565b600091825260209182902001546040516001600160a01b0390911681520160405180910390a1604051630f5a905960e11b81526005600482015260248101829052731a84415a04a98af6dbc477875dd9edbf6df1337790631eb520b29060440160006040518083038186803b15801561487f57600080fd5b505af4158015611567573d6000803e3d6000fd5b61489d82826120f8565b610a1357808260405163e2517d3f60e01b81526004016109699291906155aa565b60006127106008546127106148d39190615689565b6147c99084615648565b6000808390506000816001600160a01b0316633850c7bd6040518163ffffffff1660e01b815260040160e060405180830381865afa158015614923573d6000803e3d6000fd5b505050506040513d601f19601f820116820180604052508101906149479190615bb8565b50505050505090506000816001600160a01b0316826001600160a01b031661496f9190615648565b90508061498086600160c01b615648565b613b7e9190615675565b600080606461499984826155d9565b6149a39086615648565b6149ad9190615675565b9050600060646149bd8582615689565b6149c79087615648565b6149d19190615675565b905060006149de83614f5a565b6149ec90600160601b615648565b905060006149f983614f5a565b614a0790600160601b615648565b90506002614a158284615c62565b614a1f9190615c81565b979650505050505050565b600e860180546001810182556000918252602080832090910180546001600160a01b0319166001600160a01b038781169182179092556040805160c0810182528a8152898416948101948552808201928352878416606082019081528785166080830181815260a084019182529351635e6583af60e11b815292516004840152955185166024830152925184166044820152915183166064830152519091166084820152905160a4820152819073c439194cf13f3812c1888b5635b06c98687f5a399063bccb075e9060c401602060405180830381865af4925050508015614b2f575060408051601f3d908101601f19168201909252614b2c9181019061582f565b60015b614bc957614b3b615cb0565b806308c379a003614b925750614b4f615ccc565b80614b5a5750614b94565b33600080516020615f5783398151915285614b7489614fb3565b84604051614b8493929190615d9f565b60405180910390a250614a1f565b505b33600080516020615f5783398151915284614bae88614fb3565b604051614bbc929190615dd5565b60405180910390a2614a1f565b6001600160a01b038516600090815260098a016020908152604080832060118d0154845290915281205491925082919003614c4c576001600160a01b038516600081815260058b016020908152604080832060118e01548452825280832086905592825260048c0190529081208054849290614c469084906155d9565b90915550505b337f9c6004e315787e1885bcde9008594c954fd1a11118bbff03456860197d43d4598984614c7989614fb3565b604051614c8893929190615e23565b60405180910390a250979650505050505050565b600e850180546001810182556000918252602080832090910180546001600160a01b0319166001600160a01b0387811691821790925560408051608081018252898152938401918252868316848201908152606085018781529151635cb0482d60e11b81529451600486015291518316602485015290519091166044830152516064820152819073c439194cf13f3812c1888b5635b06c98687f5a399063b960905a90608401600060405180830381865af4925050508015614d8057506040513d6000823e601f3d908101601f19168201604052614d7d91908101906159fe565b60015b614e1a57614d8c615cb0565b806308c379a003614de35750614da0615ccc565b80614dab5750614de5565b33600080516020615f5783398151915285614dc589614fb3565b84604051614dd593929190615e68565b60405180910390a250613b7e565b505b33600080516020615f5783398151915284614dff88614fb3565b604051614e0d929190615e81565b60405180910390a2613b7e565b80600181518110614e2d57614e2d615594565b6020908102919091018101516001600160a01b038716600090815260098b018352604080822060118d01548352909352918220549093509003614eb8576001600160a01b038516600081815260058a016020908152604080832060118d01548452825280832086905592825260048b0190529081208054849290614eb29084906155d9565b90915550505b337f9c6004e315787e1885bcde9008594c954fd1a11118bbff03456860197d43d4598884614ee589614fb3565b604051614ef493929190615e9a565b60405180910390a287600e01805480614f0f57614f0f615848565b600082815260209020810160001990810180546001600160a01b0319169055019055509695505050505050565b6140008685848887866139ab565b6000614a1f8787858888876139ab565b6000806002614f6a8460016155d9565b614f749190615675565b90508291505b81811015614fad57905080600281614f928186615675565b614f9c91906155d9565b614fa69190615675565b9050614f7a565b50919050565b6060816001600160a01b03166395d89b416040518163ffffffff1660e01b8152600401600060405180830381865afa158015614ff3573d6000803e3d6000fd5b505050506040513d6000823e601f3d908101601f191682016040526107429190810190615edf565b60006020828403121561502d57600080fd5b81356001600160e01b03198116811461504557600080fd5b9392505050565b634e487b7160e01b600052604160045260246000fd5b601f8201601f191681016001600160401b03811182821017156150875761508761504c565b6040525050565b60006001600160401b038211156150a7576150a761504c565b50601f01601f191660200190565b600082601f8301126150c657600080fd5b81356150d18161508e565b6040516150de8282615062565b8281528560208487010111156150f357600080fd5b82602086016020830137600092810160200192909252509392505050565b60006020828403121561512357600080fd5b81356001600160401b0381111561513957600080fd5b61318e848285016150b5565b60006020828403121561515757600080fd5b5035919050565b6001600160a01b038116811461171757600080fd5b60006020828403121561518557600080fd5b81356150458161515e565b600080604083850312156151a357600080fd5b82356001600160401b038111156151b957600080fd5b6151c5858286016150b5565b95602094909401359450505050565b600081518084526020840193506020830160005b8281101561520f5781516001600160a01b03168652602095860195909101906001016151e8565b5093949350505050565b600081518084526020840193506020830160005b8281101561520f57815186526020958601959091019060010161522d565b60408152600061525e60408301856151d4565b82810360208401526144148185615219565b61ffff8116811461171757600080fd5b60006020828403121561529257600080fd5b813561504581615270565b600080604083850312156152b057600080fd5b8235915060208301356152c28161515e565b809150509250929050565b60208152600061504560208301846151d4565b60ff8116811461171757600080fd5b6000806040838503121561530257600080fd5b823561530d816152e0565b915060208301356152c2816152e0565b60008083601f84011261532f57600080fd5b5081356001600160401b0381111561534657600080fd5b6020830191508360208260051b850101111561536157600080fd5b9250929050565b6000806020838503121561537b57600080fd5b82356001600160401b0381111561539157600080fd5b61539d8582860161531d565b90969095509350505050565b600080604083850312156153bc57600080fd5b8235915060208301356001600160401b038111156153d957600080fd5b6153e5858286016150b5565b9150509250929050565b6000806040838503121561540257600080fd5b823561540d8161515e565b915060208301356001600160401b038111156153d957600080fd5b60008060008060006060868803121561544057600080fd5b8535945060208601356001600160401b0381111561545d57600080fd5b6154698882890161531d565b90955093505060408601356001600160401b0381111561548857600080fd5b6154948882890161531d565b969995985093965092949392505050565b6000806000606084860312156154ba57600080fd5b83356154c58161515e565b95602085013595506040909401359392505050565b60006001600160401b038211156154f3576154f361504c565b5060051b60200190565b60006020828403121561550f57600080fd5b81356001600160401b0381111561552557600080fd5b8201601f8101841361553657600080fd5b8035615541816154da565b60405161554e8282615062565b80915082815260208101915060208360051b85010192508683111561557257600080fd5b6020840193505b82841015613b7e578335825260209384019390910190615579565b634e487b7160e01b600052603260045260246000fd5b6001600160a01b03929092168252602082015260400190565b634e487b7160e01b600052601160045260246000fd5b80820180821115610742576107426155c3565b6020808252601290820152714e6f2045544820746f20776974686472617760701b604082015260600190565b8051801515811461562857600080fd5b919050565b60006020828403121561563f57600080fd5b61504582615618565b8082028115828204841417610742576107426155c3565b634e487b7160e01b600052601260045260246000fd5b6000826156845761568461565f565b500490565b81810381811115610742576107426155c3565b6000600182016156ae576156ae6155c3565b5060010190565b6001600160a01b03841681526060602082018190526000906156d9908301856151d4565b8281036040840152613b7e8185615219565b600082601f8301126156fc57600080fd5b8151615707816154da565b6040516157148282615062565b80915082815260208101915060208360051b86010192508583111561573857600080fd5b602085015b8381101561575e5780516157508161515e565b83526020928301920161573d565b5095945050505050565b600082601f83011261577957600080fd5b8151615784816154da565b6040516157918282615062565b80915082815260208101915060208360051b8601019250858311156157b557600080fd5b602085015b8381101561575e5780518352602092830192016157ba565b600080604083850312156157e557600080fd5b82516001600160401b038111156157fb57600080fd5b615807858286016156eb565b92505060208301516001600160401b0381111561582357600080fd5b6153e585828601615768565b60006020828403121561584157600080fd5b5051919050565b634e487b7160e01b600052603160045260246000fd5b858152606060208201819052810184905260008560808301825b878110156158a857823561588b8161515e565b6001600160a01b0316825260209283019290910190600101615878565b5083810360408501528481526001600160fb1b038511156158c857600080fd5b8460051b91508186602083013701602001979650505050505050565b6000806000606084860312156158f957600080fd5b83516001600160401b0381111561590f57600080fd5b61591b868287016156eb565b93505060208401516001600160401b0381111561593757600080fd5b615943868287016156eb565b92505060408401516001600160401b0381111561595f57600080fd5b8401601f8101861361597057600080fd5b805161597b816154da565b6040516159888282615062565b80915082815260208101915060208360051b8501019250888311156159ac57600080fd5b6020840193505b828410156159d75783516159c6816152e0565b8252602093840193909101906159b3565b809450505050509250925092565b82815260406020820152600061318e60408301846151d4565b600060208284031215615a1057600080fd5b81516001600160401b03811115615a2657600080fd5b61318e84828501615768565b600060208284031215615a4457600080fd5b8151615045816152e0565b6001815b6001841115615a8a57808504811115615a6e57615a6e6155c3565b6001841615615a7c57908102905b60019390931c928002615a53565b935093915050565b600082615aa157506001610742565b81615aae57506000610742565b8160018114615ac45760028114615ace57615aea565b6001915050610742565b60ff841115615adf57615adf6155c3565b50506001821b610742565b5060208310610133831016604e8410600b8410161715615b0d575081810a610742565b615b1a6000198484615a4f565b8060001904821115615b2e57615b2e6155c3565b029392505050565b600061504560ff841683615a92565b6040808252835490820181905260008481526020812090916060840190835b81811015615b8b5783546001600160a01b0316835260019384019360209093019201615b64565b50508381036020850152613b7e8186615219565b60ff8281168282160390811115610742576107426155c3565b600080600080600080600060e0888a031215615bd357600080fd5b8751615bde8161515e565b8097505060208801518060020b8114615bf657600080fd5b6040890151909650615c0781615270565b6060890151909550615c1881615270565b6080890151909450615c2981615270565b60a0890151909350615c3a816152e0565b9150615c4860c08901615618565b905092959891949750929550565b60006150458383615a92565b6001600160a01b038181168382160190811115610742576107426155c3565b60006001600160a01b03831680615c9a57615c9a61565f565b6001600160a01b03929092169190910492915050565b600060033d1115615cc95760046000803e5060005160e01c5b90565b600060443d1015615cda5790565b6040513d600319016004823e80513d60248201116001600160401b0382111715615d0357505090565b80820180516001600160401b03811115615d1e575050505090565b3d8401600319018282016020011115615d38575050505090565b615d4760208285010185615062565b509392505050565b60005b83811015615d6a578181015183820152602001615d52565b50506000910152565b60008151808452615d8b816020860160208601615d4f565b601f01601f19169290920160200192915050565b6001600160a01b0384168152606060208201819052600090615dc390830185615d73565b8281036040840152613b7e8185615d73565b6001600160a01b0383168152606060208201819052600090615df990830184615d73565b828103604084015261441481600b81526a14ddd85c0819985a5b195960aa1b602082015260400190565b838152826020820152608060408201526000615e426080830184615d73565b82810360608401526002815261563360f01b602082015260408101915050949350505050565b838152606060208201526000615dc36060830185615d73565b828152606060208201526000615df96060830184615d73565b838152826020820152608060408201526000615eb96080830184615d73565b828103606084015260028152612b1960f11b602082015260408101915050949350505050565b600060208284031215615ef157600080fd5b81516001600160401b03811115615f0757600080fd5b8201601f81018413615f1857600080fd5b8051615f238161508e565b604051615f308282615062565b828152866020848601011115615f4557600080fd5b613b7e836020830160208701615d4f56fed24517bb053209af5f1d6b05c7180d697782d89045c90b2885f8ac5f3d0e52e7679b4db551486bdc8b8c3d86cea88bd774cea7c203e4aa4e3b39b7bb5f64bc14a26469706673582212209faefdbd5597a0be8dc78127f5d78f5e7c1237202449b036c2fd86045b6b49f764736f6c634300081a0033",
    "linkReferences": {}
  },
  "methodIdentifiers": {
    "DEFAULT_ADMIN_ROLE()": "a217fddf",
    "addInitialValues(uint256,address[],uint256[])": "d8575ded",
    "addTokens(address[])": "4ae05c7d",
    "addWhitelisted(address)": "10154bad",
    "adminWithdrawWholeFundTokens()": "2c30ad5b",
    "adminWithdrawWholeFundWETH(bytes)": "a2ae2770",
    "checkSwapQueue(address)": "31038fbd",
    "deposit(uint256,bytes)": "5d303519",
    "depositETH()": "f6326fb3",
    "depositRecoveryBalance(uint256)": "46cdf2f1",
    "doRebalance(bytes)": "fc228e6b",
    "getFee(uint256)": "fcee45f4",
    "getRoleAdmin(bytes32)": "248a9ca3",
    "grantRole(bytes32,address)": "2f2ff15d",
    "hasRole(bytes32,address)": "91d14854",
    "liquidate(bytes)": "1721539b",
    "paused()": "5c975abb",
    "removeTokens(uint256[])": "ff59bcd0",
    "removeWhitelisted(address)": "291d9549",
    "renounceRole(bytes32,address)": "36568abe",
    "revokeRole(bytes32,address)": "d547741f",
    "setFeeData(uint8,uint8)": "3f5cc468",
    "supportsInterface(bytes4)": "01ffc9a7",
    "swapUserQueueBuy(address,bytes)": "99303e9d",
    "tokens(uint256)": "4f64b2be",
    "tokensList()": "bd5dc202",
    "updateFee(uint16)": "2c6cda93",
    "updateSlippageTolerance(uint256)": "0f9da743",
    "updateUserValues(address)": "edf8e8a4",
    "userAddresses(uint256)": "502c9bd5",
    "userTokensBalance(address)": "27cdd8f9",
    "userWithdrawWholeFundWETH(bytes,uint256)": "26519373",
    "users(address)": "a87430ba",
    "withdraw(bytes)": "0968f264",
    "withdrawAccumulatedFees()": "2e185ec7",
    "withdrawAllInKind()": "78d254b1",
    "withdrawInKind(address,uint256,uint256)": "e9075b63"
  },
  "id": 33
}