{
  "abi": [
    {
      "type": "constructor",
      "inputs": [],
      "stateMutability": "nonpayable"
    },
    {
      "type": "fallback",
      "stateMutability": "payable"
    },
    {
      "type": "receive",
      "stateMutability": "payable"
    },
    {
      "type": "function",
      "name": "DEFAULT_ADMIN_ROLE",
      "inputs": [],
      "outputs": [
        {
          "name": "",
          "type": "bytes32",
          "internalType": "bytes32"
        }
      ],
      "stateMutability": "view"
    },
    {
      "type": "function",
      "name": "addTokens",
      "inputs": [
        {
          "name": "_tokens",
          "type": "address[]",
          "internalType": "address[]"
        }
      ],
      "outputs": [],
      "stateMutability": "nonpayable"
    },
    {
      "type": "function",
      "name": "addWhitelisted",
      "inputs": [
        {
          "name": "_user",
          "type": "address",
          "internalType": "address"
        }
      ],
      "outputs": [],
      "stateMutability": "nonpayable"
    },
    {
      "type": "function",
      "name": "adminWithdrawWholeFundTokens",
      "inputs": [],
      "outputs": [],
      "stateMutability": "nonpayable"
    },
    {
      "type": "function",
      "name": "adminWithdrawWholeFundWETH",
      "inputs": [
        {
          "name": "tokensData",
          "type": "bytes",
          "internalType": "bytes"
        }
      ],
      "outputs": [],
      "stateMutability": "nonpayable"
    },
    {
      "type": "function",
      "name": "calculateUserTotalValueInUSD",
      "inputs": [
        {
          "name": "_user",
          "type": "address",
          "internalType": "address"
        }
      ],
      "outputs": [
        {
          "name": "",
          "type": "uint256",
          "internalType": "uint256"
        }
      ],
      "stateMutability": "view"
    },
    {
      "type": "function",
      "name": "checkSwapQueue",
      "inputs": [
        {
          "name": "_user",
          "type": "address",
          "internalType": "address"
        }
      ],
      "outputs": [
        {
          "name": "",
          "type": "address[]",
          "internalType": "address[]"
        }
      ],
      "stateMutability": "view"
    },
    {
      "type": "function",
      "name": "checkUsersWithSwapQueue",
      "inputs": [],
      "outputs": [
        {
          "name": "_user",
          "type": "address[]",
          "internalType": "address[]"
        },
        {
          "name": "_swpQueue",
          "type": "address[]",
          "internalType": "address[]"
        }
      ],
      "stateMutability": "view"
    },
    {
      "type": "function",
      "name": "deposit",
      "inputs": [
        {
          "name": "wethAmount",
          "type": "uint256",
          "internalType": "uint256"
        },
        {
          "name": "tokensData",
          "type": "bytes",
          "internalType": "bytes"
        }
      ],
      "outputs": [],
      "stateMutability": "payable"
    },
    {
      "type": "function",
      "name": "depositRecoveryBalance",
      "inputs": [
        {
          "name": "wethAmount",
          "type": "uint256",
          "internalType": "uint256"
        }
      ],
      "outputs": [],
      "stateMutability": "payable"
    },
    {
      "type": "function",
      "name": "doRebalance",
      "inputs": [
        {
          "name": "tokensData",
          "type": "bytes",
          "internalType": "bytes"
        }
      ],
      "outputs": [],
      "stateMutability": "nonpayable"
    },
    {
      "type": "function",
      "name": "getFee",
      "inputs": [
        {
          "name": "wethAmount",
          "type": "uint256",
          "internalType": "uint256"
        },
        {
          "name": "_direction",
          "type": "uint8",
          "internalType": "enum PM5.FeeDirection"
        }
      ],
      "outputs": [
        {
          "name": "",
          "type": "uint256",
          "internalType": "uint256"
        }
      ],
      "stateMutability": "payable"
    },
    {
      "type": "function",
      "name": "getRoleAdmin",
      "inputs": [
        {
          "name": "role",
          "type": "bytes32",
          "internalType": "bytes32"
        }
      ],
      "outputs": [
        {
          "name": "",
          "type": "bytes32",
          "internalType": "bytes32"
        }
      ],
      "stateMutability": "view"
    },
    {
      "type": "function",
      "name": "getUserPortfolioShare",
      "inputs": [
        {
          "name": "user",
          "type": "address",
          "internalType": "address"
        }
      ],
      "outputs": [
        {
          "name": "",
          "type": "uint256",
          "internalType": "uint256"
        }
      ],
      "stateMutability": "view"
    },
    {
      "type": "function",
      "name": "getUserTokenShare",
      "inputs": [
        {
          "name": "_user",
          "type": "address",
          "internalType": "address"
        },
        {
          "name": "_token",
          "type": "address",
          "internalType": "address"
        }
      ],
      "outputs": [
        {
          "name": "",
          "type": "uint256",
          "internalType": "uint256"
        }
      ],
      "stateMutability": "view"
    },
    {
      "type": "function",
      "name": "getUserTokenTotalValueInUSDC",
      "inputs": [
        {
          "name": "_user",
          "type": "address",
          "internalType": "address"
        },
        {
          "name": "_token",
          "type": "address",
          "internalType": "address"
        }
      ],
      "outputs": [
        {
          "name": "",
          "type": "uint256",
          "internalType": "uint256"
        }
      ],
      "stateMutability": "view"
    },
    {
      "type": "function",
      "name": "grantRole",
      "inputs": [
        {
          "name": "role",
          "type": "bytes32",
          "internalType": "bytes32"
        },
        {
          "name": "account",
          "type": "address",
          "internalType": "address"
        }
      ],
      "outputs": [],
      "stateMutability": "nonpayable"
    },
    {
      "type": "function",
      "name": "hasRole",
      "inputs": [
        {
          "name": "role",
          "type": "bytes32",
          "internalType": "bytes32"
        },
        {
          "name": "account",
          "type": "address",
          "internalType": "address"
        }
      ],
      "outputs": [
        {
          "name": "",
          "type": "bool",
          "internalType": "bool"
        }
      ],
      "stateMutability": "view"
    },
    {
      "type": "function",
      "name": "needToRebalance",
      "inputs": [
        {
          "name": "tokensData",
          "type": "bytes",
          "internalType": "bytes"
        }
      ],
      "outputs": [
        {
          "name": "need",
          "type": "bool",
          "internalType": "bool"
        }
      ],
      "stateMutability": "nonpayable"
    },
    {
      "type": "function",
      "name": "pauseOrUnpause",
      "inputs": [
        {
          "name": "_pState",
          "type": "bool",
          "internalType": "bool"
        }
      ],
      "outputs": [],
      "stateMutability": "nonpayable"
    },
    {
      "type": "function",
      "name": "paused",
      "inputs": [],
      "outputs": [
        {
          "name": "",
          "type": "bool",
          "internalType": "bool"
        }
      ],
      "stateMutability": "view"
    },
    {
      "type": "function",
      "name": "removeTokens",
      "inputs": [
        {
          "name": "_index",
          "type": "uint256[]",
          "internalType": "uint256[]"
        }
      ],
      "outputs": [],
      "stateMutability": "nonpayable"
    },
    {
      "type": "function",
      "name": "removeUser",
      "inputs": [
        {
          "name": "index",
          "type": "uint256",
          "internalType": "uint256"
        }
      ],
      "outputs": [],
      "stateMutability": "nonpayable"
    },
    {
      "type": "function",
      "name": "removeWhitelisted",
      "inputs": [
        {
          "name": "_user",
          "type": "address",
          "internalType": "address"
        }
      ],
      "outputs": [],
      "stateMutability": "nonpayable"
    },
    {
      "type": "function",
      "name": "renounceRole",
      "inputs": [
        {
          "name": "role",
          "type": "bytes32",
          "internalType": "bytes32"
        },
        {
          "name": "callerConfirmation",
          "type": "address",
          "internalType": "address"
        }
      ],
      "outputs": [],
      "stateMutability": "nonpayable"
    },
    {
      "type": "function",
      "name": "revokeRole",
      "inputs": [
        {
          "name": "role",
          "type": "bytes32",
          "internalType": "bytes32"
        },
        {
          "name": "account",
          "type": "address",
          "internalType": "address"
        }
      ],
      "outputs": [],
      "stateMutability": "nonpayable"
    },
    {
      "type": "function",
      "name": "setFeeData",
      "inputs": [
        {
          "name": "depositFee",
          "type": "uint8",
          "internalType": "uint8"
        },
        {
          "name": "WithdrawFee",
          "type": "uint8",
          "internalType": "uint8"
        }
      ],
      "outputs": [],
      "stateMutability": "nonpayable"
    },
    {
      "type": "function",
      "name": "supportsInterface",
      "inputs": [
        {
          "name": "interfaceId",
          "type": "bytes4",
          "internalType": "bytes4"
        }
      ],
      "outputs": [
        {
          "name": "",
          "type": "bool",
          "internalType": "bool"
        }
      ],
      "stateMutability": "view"
    },
    {
      "type": "function",
      "name": "swapUserQueueBuy",
      "inputs": [
        {
          "name": "_user",
          "type": "address",
          "internalType": "address"
        },
        {
          "name": "tokensData",
          "type": "bytes",
          "internalType": "bytes"
        }
      ],
      "outputs": [],
      "stateMutability": "nonpayable"
    },
    {
      "type": "function",
      "name": "tokensList",
      "inputs": [],
      "outputs": [
        {
          "name": "",
          "type": "address[]",
          "internalType": "address[]"
        }
      ],
      "stateMutability": "view"
    },
    {
      "type": "function",
      "name": "updateSlippageTolerance",
      "inputs": [
        {
          "name": "_slippageTolerance",
          "type": "uint256",
          "internalType": "uint256"
        }
      ],
      "outputs": [],
      "stateMutability": "nonpayable"
    },
    {
      "type": "function",
      "name": "userTokensBalance",
      "inputs": [
        {
          "name": "_user",
          "type": "address",
          "internalType": "address"
        }
      ],
      "outputs": [
        {
          "name": "",
          "type": "address[]",
          "internalType": "address[]"
        },
        {
          "name": "",
          "type": "uint256[]",
          "internalType": "uint256[]"
        }
      ],
      "stateMutability": "view"
    },
    {
      "type": "function",
      "name": "userWithdrawWholeFundWETH",
      "inputs": [
        {
          "name": "tokensData",
          "type": "bytes",
          "internalType": "bytes"
        },
        {
          "name": "percentage",
          "type": "uint256",
          "internalType": "uint256"
        }
      ],
      "outputs": [],
      "stateMutability": "nonpayable"
    },
    {
      "type": "function",
      "name": "users",
      "inputs": [
        {
          "name": "",
          "type": "address",
          "internalType": "address"
        }
      ],
      "outputs": [
        {
          "name": "tSharePortfo",
          "type": "uint256",
          "internalType": "uint256"
        },
        {
          "name": "wethValueFirst",
          "type": "uint256",
          "internalType": "uint256"
        },
        {
          "name": "usdtValueFirst",
          "type": "uint256",
          "internalType": "uint256"
        },
        {
          "name": "round",
          "type": "uint256",
          "internalType": "uint256"
        }
      ],
      "stateMutability": "view"
    },
    {
      "type": "function",
      "name": "usersList",
      "inputs": [],
      "outputs": [
        {
          "name": "",
          "type": "address[]",
          "internalType": "address[]"
        }
      ],
      "stateMutability": "view"
    },
    {
      "type": "function",
      "name": "withdrawAccumulatedFees",
      "inputs": [],
      "outputs": [],
      "stateMutability": "nonpayable"
    },
    {
      "type": "function",
      "name": "withdrawAllInKind",
      "inputs": [],
      "outputs": [],
      "stateMutability": "nonpayable"
    },
    {
      "type": "function",
      "name": "withdrawETH",
      "inputs": [],
      "outputs": [],
      "stateMutability": "nonpayable"
    },
    {
      "type": "event",
      "name": "AMTout",
      "inputs": [
        {
          "name": "amtOut",
          "type": "uint256",
          "indexed": false,
          "internalType": "uint256"
        }
      ],
      "anonymous": false
    },
    {
      "type": "event",
      "name": "Balance",
      "inputs": [
        {
          "name": "sender",
          "type": "address",
          "indexed": false,
          "internalType": "address"
        },
        {
          "name": "bal",
          "type": "uint256",
          "indexed": false,
          "internalType": "uint256"
        }
      ],
      "anonymous": false
    },
    {
      "type": "event",
      "name": "CurrentValuesSet",
      "inputs": [
        {
          "name": "currentUSD",
          "type": "uint256",
          "indexed": false,
          "internalType": "uint256"
        },
        {
          "name": "tokens",
          "type": "address[]",
          "indexed": false,
          "internalType": "address[]"
        },
        {
          "name": "tUSD",
          "type": "uint256[]",
          "indexed": false,
          "internalType": "uint256[]"
        }
      ],
      "anonymous": false
    },
    {
      "type": "event",
      "name": "DepositReceived",
      "inputs": [
        {
          "name": "user",
          "type": "address",
          "indexed": true,
          "internalType": "address"
        },
        {
          "name": "amount",
          "type": "uint256",
          "indexed": false,
          "internalType": "uint256"
        }
      ],
      "anonymous": false
    },
    {
      "type": "event",
      "name": "FeeReceived",
      "inputs": [
        {
          "name": "owner",
          "type": "address",
          "indexed": true,
          "internalType": "address"
        },
        {
          "name": "amount",
          "type": "uint256",
          "indexed": false,
          "internalType": "uint256"
        }
      ],
      "anonymous": false
    },
    {
      "type": "event",
      "name": "FeesWithdrawn",
      "inputs": [
        {
          "name": "owner",
          "type": "address",
          "indexed": true,
          "internalType": "address"
        },
        {
          "name": "amount",
          "type": "uint256",
          "indexed": false,
          "internalType": "uint256"
        },
        {
          "name": "tokenType",
          "type": "string",
          "indexed": false,
          "internalType": "string"
        }
      ],
      "anonymous": false
    },
    {
      "type": "event",
      "name": "FundsRecieved",
      "inputs": [
        {
          "name": "sender",
          "type": "address",
          "indexed": true,
          "internalType": "address"
        },
        {
          "name": "ethAmount",
          "type": "uint256",
          "indexed": false,
          "internalType": "uint256"
        }
      ],
      "anonymous": false
    },
    {
      "type": "event",
      "name": "InitValuesSet",
      "inputs": [
        {
          "name": "initUSD",
          "type": "uint256",
          "indexed": false,
          "internalType": "uint256"
        },
        {
          "name": "tokens",
          "type": "address[]",
          "indexed": false,
          "internalType": "address[]"
        },
        {
          "name": "tUSD",
          "type": "uint256[]",
          "indexed": false,
          "internalType": "uint256[]"
        }
      ],
      "anonymous": false
    },
    {
      "type": "event",
      "name": "PRICE",
      "inputs": [
        {
          "name": "price",
          "type": "uint256",
          "indexed": false,
          "internalType": "uint256"
        }
      ],
      "anonymous": false
    },
    {
      "type": "event",
      "name": "Paused",
      "inputs": [
        {
          "name": "account",
          "type": "address",
          "indexed": false,
          "internalType": "address"
        }
      ],
      "anonymous": false
    },
    {
      "type": "event",
      "name": "Pool",
      "inputs": [
        {
          "name": "pool",
          "type": "address",
          "indexed": false,
          "internalType": "address"
        }
      ],
      "anonymous": false
    },
    {
      "type": "event",
      "name": "PortfoTokenBalances",
      "inputs": [
        {
          "name": "daiCount",
          "type": "uint256",
          "indexed": false,
          "internalType": "uint256"
        }
      ],
      "anonymous": false
    },
    {
      "type": "event",
      "name": "PortfoTokenInitialUSDTPrices",
      "inputs": [
        {
          "name": "daiInitialUsdtPrice",
          "type": "uint256",
          "indexed": false,
          "internalType": "uint256"
        }
      ],
      "anonymous": false
    },
    {
      "type": "event",
      "name": "PortfoTokenPricesETH",
      "inputs": [
        {
          "name": "daiETHPrice",
          "type": "uint256",
          "indexed": false,
          "internalType": "uint256"
        }
      ],
      "anonymous": false
    },
    {
      "type": "event",
      "name": "Rebalanced",
      "inputs": [
        {
          "name": "OccureTime",
          "type": "uint256",
          "indexed": false,
          "internalType": "uint256"
        }
      ],
      "anonymous": false
    },
    {
      "type": "event",
      "name": "RemovedFromWhitelist",
      "inputs": [
        {
          "name": "account",
          "type": "address",
          "indexed": true,
          "internalType": "address"
        }
      ],
      "anonymous": false
    },
    {
      "type": "event",
      "name": "RoleAdminChanged",
      "inputs": [
        {
          "name": "role",
          "type": "bytes32",
          "indexed": true,
          "internalType": "bytes32"
        },
        {
          "name": "previousAdminRole",
          "type": "bytes32",
          "indexed": true,
          "internalType": "bytes32"
        },
        {
          "name": "newAdminRole",
          "type": "bytes32",
          "indexed": true,
          "internalType": "bytes32"
        }
      ],
      "anonymous": false
    },
    {
      "type": "event",
      "name": "RoleGranted",
      "inputs": [
        {
          "name": "role",
          "type": "bytes32",
          "indexed": true,
          "internalType": "bytes32"
        },
        {
          "name": "account",
          "type": "address",
          "indexed": true,
          "internalType": "address"
        },
        {
          "name": "sender",
          "type": "address",
          "indexed": true,
          "internalType": "address"
        }
      ],
      "anonymous": false
    },
    {
      "type": "event",
      "name": "RoleRevoked",
      "inputs": [
        {
          "name": "role",
          "type": "bytes32",
          "indexed": true,
          "internalType": "bytes32"
        },
        {
          "name": "account",
          "type": "address",
          "indexed": true,
          "internalType": "address"
        },
        {
          "name": "sender",
          "type": "address",
          "indexed": true,
          "internalType": "address"
        }
      ],
      "anonymous": false
    },
    {
      "type": "event",
      "name": "SQRTPriceX",
      "inputs": [
        {
          "name": "SQRT",
          "type": "uint256",
          "indexed": false,
          "internalType": "uint256"
        }
      ],
      "anonymous": false
    },
    {
      "type": "event",
      "name": "ShowDepositedTokensData",
      "inputs": [
        {
          "name": "tokenIn",
          "type": "address[]",
          "indexed": false,
          "internalType": "address[]"
        },
        {
          "name": "tokenOut",
          "type": "address[]",
          "indexed": false,
          "internalType": "address[]"
        }
      ],
      "anonymous": false
    },
    {
      "type": "event",
      "name": "ShowTokensDataEvent",
      "inputs": [
        {
          "name": "pool",
          "type": "address[]",
          "indexed": false,
          "internalType": "address[]"
        },
        {
          "name": "uniV",
          "type": "uint8[]",
          "indexed": false,
          "internalType": "uint8[]"
        }
      ],
      "anonymous": false
    },
    {
      "type": "event",
      "name": "SwapFailed",
      "inputs": [
        {
          "name": "user",
          "type": "address",
          "indexed": true,
          "internalType": "address"
        },
        {
          "name": "amount",
          "type": "uint256",
          "indexed": false,
          "internalType": "uint256"
        },
        {
          "name": "tokenName",
          "type": "string",
          "indexed": false,
          "internalType": "string"
        },
        {
          "name": "reason",
          "type": "string",
          "indexed": false,
          "internalType": "string"
        }
      ],
      "anonymous": false
    },
    {
      "type": "event",
      "name": "SwapSuccessful",
      "inputs": [
        {
          "name": "user",
          "type": "address",
          "indexed": true,
          "internalType": "address"
        },
        {
          "name": "wethAmountPerToken",
          "type": "uint256",
          "indexed": false,
          "internalType": "uint256"
        },
        {
          "name": "receivedTokenAmount",
          "type": "int256",
          "indexed": false,
          "internalType": "int256"
        },
        {
          "name": "tokenName",
          "type": "string",
          "indexed": false,
          "internalType": "string"
        },
        {
          "name": "uniswapV",
          "type": "string",
          "indexed": false,
          "internalType": "string"
        }
      ],
      "anonymous": false
    },
    {
      "type": "event",
      "name": "TOTALETH",
      "inputs": [
        {
          "name": "Total",
          "type": "uint256",
          "indexed": false,
          "internalType": "uint256"
        },
        {
          "name": "admin",
          "type": "address",
          "indexed": false,
          "internalType": "address"
        },
        {
          "name": "ContractBalance",
          "type": "uint256",
          "indexed": false,
          "internalType": "uint256"
        }
      ],
      "anonymous": false
    },
    {
      "type": "event",
      "name": "TokenData",
      "inputs": [
        {
          "name": "route",
          "type": "address",
          "indexed": false,
          "internalType": "address"
        },
        {
          "name": "tokenOut",
          "type": "address",
          "indexed": false,
          "internalType": "address"
        },
        {
          "name": "usdVal",
          "type": "uint256",
          "indexed": false,
          "internalType": "uint256"
        },
        {
          "name": "wethVal",
          "type": "uint256",
          "indexed": false,
          "internalType": "uint256"
        },
        {
          "name": "uniV",
          "type": "uint8",
          "indexed": false,
          "internalType": "uint8"
        }
      ],
      "anonymous": false
    },
    {
      "type": "event",
      "name": "TokenDataBytes",
      "inputs": [
        {
          "name": "tokenData",
          "type": "bytes",
          "indexed": false,
          "internalType": "bytes"
        }
      ],
      "anonymous": false
    },
    {
      "type": "event",
      "name": "TokenRemoved",
      "inputs": [
        {
          "name": "tokens",
          "type": "address",
          "indexed": false,
          "internalType": "address"
        }
      ],
      "anonymous": false
    },
    {
      "type": "event",
      "name": "TokenSharesUpdated",
      "inputs": [
        {
          "name": "status",
          "type": "bool",
          "indexed": false,
          "internalType": "bool"
        }
      ],
      "anonymous": false
    },
    {
      "type": "event",
      "name": "TokensAdded",
      "inputs": [
        {
          "name": "addedTokens",
          "type": "address[]",
          "indexed": false,
          "internalType": "address[]"
        }
      ],
      "anonymous": false
    },
    {
      "type": "event",
      "name": "TokensList",
      "inputs": [
        {
          "name": "list",
          "type": "address[]",
          "indexed": false,
          "internalType": "address[]"
        }
      ],
      "anonymous": false
    },
    {
      "type": "event",
      "name": "TokensWithdrawAllInKindEvent",
      "inputs": [
        {
          "name": "token",
          "type": "address",
          "indexed": false,
          "internalType": "address"
        },
        {
          "name": "bal",
          "type": "uint256",
          "indexed": false,
          "internalType": "uint256"
        }
      ],
      "anonymous": false
    },
    {
      "type": "event",
      "name": "Unpaused",
      "inputs": [
        {
          "name": "account",
          "type": "address",
          "indexed": false,
          "internalType": "address"
        }
      ],
      "anonymous": false
    },
    {
      "type": "event",
      "name": "UserAdded",
      "inputs": [
        {
          "name": "user",
          "type": "address",
          "indexed": true,
          "internalType": "address"
        }
      ],
      "anonymous": false
    },
    {
      "type": "event",
      "name": "UserTokenBalance",
      "inputs": [
        {
          "name": "token",
          "type": "address",
          "indexed": false,
          "internalType": "address"
        },
        {
          "name": "round",
          "type": "uint256",
          "indexed": false,
          "internalType": "uint256"
        },
        {
          "name": "tokenbalance",
          "type": "uint256",
          "indexed": false,
          "internalType": "uint256"
        }
      ],
      "anonymous": false
    },
    {
      "type": "event",
      "name": "UserTokenBalance",
      "inputs": [
        {
          "name": "user",
          "type": "address",
          "indexed": false,
          "internalType": "address"
        },
        {
          "name": "token",
          "type": "address",
          "indexed": false,
          "internalType": "address"
        },
        {
          "name": "userTokenBalance",
          "type": "uint256",
          "indexed": false,
          "internalType": "uint256"
        }
      ],
      "anonymous": false
    },
    {
      "type": "event",
      "name": "UserTokenBalanceRound",
      "inputs": [
        {
          "name": "user",
          "type": "address",
          "indexed": false,
          "internalType": "address"
        },
        {
          "name": "token",
          "type": "address",
          "indexed": false,
          "internalType": "address"
        },
        {
          "name": "round",
          "type": "uint256",
          "indexed": false,
          "internalType": "uint256"
        },
        {
          "name": "userTokenBalance",
          "type": "uint256",
          "indexed": false,
          "internalType": "uint256"
        }
      ],
      "anonymous": false
    },
    {
      "type": "event",
      "name": "UserTokensBalance",
      "inputs": [
        {
          "name": "user",
          "type": "address",
          "indexed": false,
          "internalType": "address"
        },
        {
          "name": "tokens",
          "type": "address[]",
          "indexed": false,
          "internalType": "address[]"
        },
        {
          "name": "userTokensBalance",
          "type": "uint256[]",
          "indexed": false,
          "internalType": "uint256[]"
        }
      ],
      "anonymous": false
    },
    {
      "type": "event",
      "name": "UserWhitelisted",
      "inputs": [
        {
          "name": "account",
          "type": "address",
          "indexed": true,
          "internalType": "address"
        }
      ],
      "anonymous": false
    },
    {
      "type": "event",
      "name": "V3ETH",
      "inputs": [
        {
          "name": "isV3",
          "type": "bool",
          "indexed": false,
          "internalType": "bool"
        }
      ],
      "anonymous": false
    },
    {
      "type": "event",
      "name": "WETHVALUE",
      "inputs": [
        {
          "name": "wethVal",
          "type": "uint256",
          "indexed": false,
          "internalType": "uint256"
        }
      ],
      "anonymous": false
    },
    {
      "type": "event",
      "name": "WethBalanceAdmin",
      "inputs": [
        {
          "name": "wethBalance",
          "type": "uint256",
          "indexed": false,
          "internalType": "uint256"
        },
        {
          "name": "admin",
          "type": "address",
          "indexed": false,
          "internalType": "address"
        }
      ],
      "anonymous": false
    },
    {
      "type": "event",
      "name": "WithdrawEvent",
      "inputs": [
        {
          "name": "user",
          "type": "address",
          "indexed": false,
          "internalType": "address"
        },
        {
          "name": "withAmt",
          "type": "int256",
          "indexed": false,
          "internalType": "int256"
        }
      ],
      "anonymous": false
    },
    {
      "type": "event",
      "name": "WithdrawEvent",
      "inputs": [
        {
          "name": "token",
          "type": "address",
          "indexed": false,
          "internalType": "address"
        },
        {
          "name": "withAmt",
          "type": "uint256",
          "indexed": false,
          "internalType": "uint256"
        }
      ],
      "anonymous": false
    },
    {
      "type": "event",
      "name": "handleSwapEvent",
      "inputs": [
        {
          "name": "amount",
          "type": "uint256",
          "indexed": false,
          "internalType": "uint256"
        },
        {
          "name": "tokenIn",
          "type": "address",
          "indexed": false,
          "internalType": "address"
        },
        {
          "name": "tokenOut",
          "type": "address",
          "indexed": false,
          "internalType": "address"
        },
        {
          "name": "minAmtOut",
          "type": "uint256",
          "indexed": false,
          "internalType": "uint256"
        }
      ],
      "anonymous": false
    },
    {
      "type": "event",
      "name": "handleSwapEventAmtOut",
      "inputs": [
        {
          "name": "minAmtOut",
          "type": "uint256[]",
          "indexed": false,
          "internalType": "uint256[]"
        },
        {
          "name": "pairAddress",
          "type": "address[]",
          "indexed": false,
          "internalType": "address[]"
        }
      ],
      "anonymous": false
    },
    {
      "type": "event",
      "name": "handleTokenToTokenSwapEvent",
      "inputs": [
        {
          "name": "token",
          "type": "address",
          "indexed": false,
          "internalType": "address"
        },
        {
          "name": "userTokenBalance",
          "type": "uint256",
          "indexed": false,
          "internalType": "uint256"
        },
        {
          "name": "tokenOut",
          "type": "address",
          "indexed": false,
          "internalType": "address"
        }
      ],
      "anonymous": false
    },
    {
      "type": "event",
      "name": "handleWETHToTokenSwapEvent",
      "inputs": [
        {
          "name": "token",
          "type": "address",
          "indexed": false,
          "internalType": "address"
        },
        {
          "name": "ethAmtPerToken",
          "type": "uint256",
          "indexed": false,
          "internalType": "uint256"
        },
        {
          "name": "tokenOut",
          "type": "address",
          "indexed": false,
          "internalType": "address"
        }
      ],
      "anonymous": false
    },
    {
      "type": "event",
      "name": "howMuch",
      "inputs": [
        {
          "name": "sender",
          "type": "address",
          "indexed": true,
          "internalType": "address"
        },
        {
          "name": "amt",
          "type": "uint256",
          "indexed": false,
          "internalType": "uint256"
        }
      ],
      "anonymous": false
    },
    {
      "type": "event",
      "name": "withdrawAllInKindEvent",
      "inputs": [
        {
          "name": "token",
          "type": "address",
          "indexed": false,
          "internalType": "address"
        },
        {
          "name": "remained",
          "type": "uint256",
          "indexed": false,
          "internalType": "uint256"
        }
      ],
      "anonymous": false
    },
    {
      "type": "event",
      "name": "withdrawInKindEvent",
      "inputs": [
        {
          "name": "token",
          "type": "address",
          "indexed": false,
          "internalType": "address"
        },
        {
          "name": "beforeWithAmt",
          "type": "uint256",
          "indexed": false,
          "internalType": "uint256"
        },
        {
          "name": "withAmt",
          "type": "uint256",
          "indexed": false,
          "internalType": "uint256"
        },
        {
          "name": "remained",
          "type": "uint256",
          "indexed": false,
          "internalType": "uint256"
        }
      ],
      "anonymous": false
    },
    {
      "type": "error",
      "name": "AccessControlBadConfirmation",
      "inputs": []
    },
    {
      "type": "error",
      "name": "AccessControlUnauthorizedAccount",
      "inputs": [
        {
          "name": "account",
          "type": "address",
          "internalType": "address"
        },
        {
          "name": "neededRole",
          "type": "bytes32",
          "internalType": "bytes32"
        }
      ]
    },
    {
      "type": "error",
      "name": "EnforcedPause",
      "inputs": []
    },
    {
      "type": "error",
      "name": "ExpectedPause",
      "inputs": []
    },
    {
      "type": "error",
      "name": "ReentrancyGuardReentrantCall",
      "inputs": []
    }
  ],
  "bytecode": {
    "object": "0x60e06040527ff23ec0bb4210edd5cba85afd05127efcd2fc6a781bfed49188da1081670b22d86003556004805461ffff191660641790556103e860085534801561004857600080fd5b5060016000819055805460ff191690556004805462010000600160b01b03191633620100000217815573edf6066a2b290c185783862c7f4776a2c8077ad160a0819052604080516315ab88c960e31b81529051919263ad5c46489282820192602092908290030181865afa1580156100c4573d6000803e3d6000fd5b505050506040513d601f19601f820116820180604052508101906100e8919061021d565b6001600160a01b03908116608081905260c052600454610111916000916201000090041661016d565b5060035460045461013191906201000090046001600160a01b031661016d565b506040805180820190915260045461ffff168082526020909101819052600f805463ffffffff191682176201000090920291909117905561024d565b60008281526002602090815260408083206001600160a01b038516845290915281205460ff166102135760008381526002602090815260408083206001600160a01b03861684529091529020805460ff191660011790556101cb3390565b6001600160a01b0316826001600160a01b0316847f2f8788117e7eff1d82e926ec794901d17c78024a50270940304540a733656f0d60405160405180910390a4506001610217565b5060005b92915050565b60006020828403121561022f57600080fd5b81516001600160a01b038116811461024657600080fd5b9392505050565b60805160a05160c051615fe861030f6000396000818161129801528181611326015281816114760152818161150401526115c80152600061424b0152600081816109eb01528181610cee015281816110160152818161179b0152818161211e0152818161218e015281816122ea0152818161239c0152818161270c01528181612a5501528181612f3a01528181613292015281816133140152818161339a0152818161391501528181613c9101528181613db901526141f10152615fe86000f3fe6080604052600436106102115760003560e01c80635d3035191161011757806399303e9d116100a5578063d547741f1161006c578063d547741f1461065f578063e086e5ec1461067f578063e108135314610694578063fc228e6b146106b4578063ff59bcd0146106d457005b806399303e9d14610590578063a217fddf146105b0578063a2ae2770146105c5578063a87430ba146105e5578063bd5dc2021461064a57005b806377b6af52116100e957806377b6af521461050357806378d254b114610518578063791e38de1461052d57806389296eec1461055057806391d148541461057057005b80635d3035191461049057806361ab3663146104a357806366de7267146104c35780636a4e9b7a146104e357005b80632c30ad5b1161019f57806336568abe1161016657806336568abe146104055780633f5cc4681461042557806346cdf2f1146104455780634ae05c7d146104585780635c975abb1461047857005b80632c30ad5b1461037b5780632e185ec7146103905780632e5a247f146103a55780632f2ff15d146103b857806331038fbd146103d857005b8063248a9ca3116101e3578063248a9ca3146102af578063252aa530146102ed578063265193731461030d57806327cdd8f91461032d578063291d95491461035b57005b806301ffc9a71461021a5780630f9da7431461024f57806310154bad1461026f57806311dc47031461028f57005b3661021857005b005b34801561022657600080fd5b5061023a6102353660046150e1565b6106f4565b60405190151581526020015b60405180910390f35b34801561025b57600080fd5b5061021861026a366004615112565b61072b565b34801561027b57600080fd5b5061021861028a366004615140565b61073d565b34801561029b57600080fd5b506102186102aa366004615112565b61076f565b3480156102bb57600080fd5b506102df6102ca366004615112565b60009081526002602052604090206001015490565b604051908152602001610246565b3480156102f957600080fd5b5061021861030836600461516b565b6107dd565b34801561031957600080fd5b5061021861032836600461524d565b610803565b34801561033957600080fd5b5061034d610348366004615140565b610d7f565b604051610246929190615308565b34801561036757600080fd5b50610218610376366004615140565b610e87565b34801561038757600080fd5b50610218610eab565b34801561039c57600080fd5b50610218610fbf565b6102df6103b336600461532d565b611093565b3480156103c457600080fd5b506102186103d3366004615361565b6110ed565b3480156103e457600080fd5b506103f86103f3366004615140565b611118565b6040516102469190615386565b34801561041157600080fd5b50610218610420366004615361565b611191565b34801561043157600080fd5b506102186104403660046153a8565b6111c4565b610218610453366004615112565b611284565b34801561046457600080fd5b506102186104733660046153d6565b6113ee565b34801561048457600080fd5b5060015460ff1661023a565b61021861049e36600461544b565b611466565b3480156104af57600080fd5b506102df6104be366004615140565b6117cb565b3480156104cf57600080fd5b506102df6104de366004615491565b61182b565b3480156104ef57600080fd5b5061023a6104fe3660046154bf565b6118ff565b34801561050f57600080fd5b506103f8611a36565b34801561052457600080fd5b50610218611a98565b34801561053957600080fd5b50610542611d8f565b6040516102469291906154f3565b34801561055c57600080fd5b506102df61056b366004615491565b611f8c565b34801561057c57600080fd5b5061023a61058b366004615361565b61207e565b34801561059c57600080fd5b506102186105ab366004615518565b6120a9565b3480156105bc57600080fd5b506102df600081565b3480156105d157600080fd5b506102186105e03660046154bf565b612213565b3480156105f157600080fd5b5061062a610600366004615140565b600c6020526000908152604090206003810154600f82015460108301546011909301549192909184565b604080519485526020850193909352918301526060820152608001610246565b34801561065657600080fd5b506103f8612409565b34801561066b57600080fd5b5061021861067a366004615361565b612469565b34801561068b57600080fd5b5061021861248e565b3480156106a057600080fd5b506102df6106af366004615140565b6124c9565b3480156106c057600080fd5b506102186106cf3660046154bf565b61251a565b3480156106e057600080fd5b506102186106ef366004615574565b612c20565b60006001600160e01b03198216637965db0b60e01b148061072557506301ffc9a760e01b6001600160e01b03198316145b92915050565b60035461073781612c62565b50600855565b60035461074981612c62565b61075282612c6c565b61076a600080516020615f9383398151915283612cf3565b505050565b604051630f5a905960e11b81526007600482015260248101829052731a84415a04a98af6dbc477875dd9edbf6df1337790631eb520b2906044015b60006040518083038186803b1580156107c257600080fd5b505af41580156107d6573d6000803e3d6000fd5b5050505050565b6003546107e981612c62565b81156107fb576107f7612d87565b5050565b6107f7612ddb565b600080516020615f9383398151915261081b81612c62565b610823612e14565b61082b612e3a565b60008211801561083c575060648211155b6108725760405162461bcd60e51b8152602060048201526002602482015261049560f41b60448201526064015b60405180910390fd5b6000808061087f86612e64565b925050915060008061089033610d7f565b9150915060008061089f613408565b909250905060006108b36127106064615621565b6127106108c08c85615621565b6108ca9190615621565b6108d4919061564e565b905060005b8551811015610c8d5760006108f16127106064615621565b61271087848151811061090657610906615662565b602002602001015187858151811061092057610920615662565b60200260200101516109329190615621565b61093c9190615621565b610946919061564e565b905060006109576127106064615621565b6127108e89868151811061096d5761096d615662565b602002602001015161097f9190615621565b6109899190615621565b610993919061564e565b905083821115610b6257336000908152600c602052604081208b51610a3c919084908e90889081106109c7576109c7615662565b60200260200101518c88815181106109e1576109e1615662565b60200260200101517f00000000000000000000000000000000000000000000000000000000000000008f8a81518110610a1c57610a1c615662565b602002602001015160ff16600314610a355760006135c5565b60016135c5565b905060015b336000908152600c60205260409020601101548111610ae657336000908152600c602052604081208b518592600590920191908d9089908110610a8657610a86615662565b60200260200101516001600160a01b03166001600160a01b0316815260200190815260200160002060008381526020019081526020016000206000828254610ace9190615678565b90915550819050610ade8161568b565b915050610a41565b50336000908152600c602052604081208a518492600490920191908c9088908110610b1357610b13615662565b60200260200101516001600160a01b03166001600160a01b031681526020019081526020016000206000828254610b4a9190615678565b90915550610b5a9050818d6156a4565b9b5050610c83565b336000908152600c602052604081208b51610b8c919084908e90889081106109c7576109c7615662565b905060015b336000908152600c60205260409020601101548111610c2557336000908152600c602052604081208b5160059091019082908d9089908110610bd557610bd5615662565b60200260200101516001600160a01b03166001600160a01b031681526020019081526020016000206000838152602001908152602001600020819055508080610c1d9061568b565b915050610b91565b50336000908152600c602052604081208a5160049091019082908c9088908110610c5157610c51615662565b6020908102919091018101516001600160a01b0316825281019190915260400160002055610c7f818d6156a4565b9b50505b50506001016108d9565b506000610c9b896002611093565b905060008111610cd25760405162461bcd60e51b81526020600482015260026024820152614e4560f01b6044820152606401610869565b60405163a9059cbb60e01b8152336004820152602481018290527f00000000000000000000000000000000000000000000000000000000000000006001600160a01b03169063a9059cbb906044016020604051808303816000875af1158015610d3f573d6000803e3d6000fd5b505050506040513d601f19601f82011682018060405250810190610d6391906156b7565b50610d6c6137a2565b50505050505050505061076a6001600055565b60608060006005805480602002602001604051908101604052809291908181526020018280548015610dda57602002820191906000526020600020905b81546001600160a01b03168152600190910190602001808311610dbc575b50505050509050600081516001600160401b03811115610dfc57610dfc615188565b604051908082528060200260200182016040528015610e25578160200160208202803683370190505b50905060005b8251811015610e7c57610e5786848381518110610e4a57610e4a615662565b60200260200101516138ed565b828281518110610e6957610e69615662565b6020908102919091010152600101610e2b565b509094909350915050565b600354610e9381612c62565b61076a600080516020615f93833981519152836139bc565b600354610eb781612c62565b6000610ec1613a29565b905060008082806020019051810190610eda91906157bb565b9150915060005b82518110156107d657828181518110610efc57610efc615662565b60200260200101516001600160a01b031663a9059cbb600460029054906101000a90046001600160a01b0316848481518110610f3a57610f3a615662565b60200260200101516040518363ffffffff1660e01b8152600401610f739291906001600160a01b03929092168252602082015260400190565b6020604051808303816000875af1158015610f92573d6000803e3d6000fd5b505050506040513d601f19601f82011682018060405250810190610fb691906156b7565b50600101610ee1565b600354610fcb81612c62565b610fd3612e3a565b600a541561108657600a805460009091556004805460405163a9059cbb60e01b81526001600160a01b0362010000909204821692810192909252602482018390527f0000000000000000000000000000000000000000000000000000000000000000169063a9059cbb906044016020604051808303816000875af115801561105f573d6000803e3d6000fd5b505050506040513d601f19601f8201168201806040525081019061108391906156b7565b50505b6110906001600055565b50565b600454600090839082906201000090046001600160a01b031633036110b6575060005b6110c08285613b5f565b905080600a60008282546110d491906156a4565b909155506110e490508183615678565b95945050505050565b60008281526002602052604090206001015461110881612c62565b6111128383612cf3565b50505050565b6001600160a01b0381166000908152600c6020908152604091829020600e0180548351818402810184019094528084526060939283018282801561118557602002820191906000526020600020905b81546001600160a01b03168152600190910190602001808311611167575b50505050509050919050565b6001600160a01b03811633146111ba5760405163334bd91960e11b815260040160405180910390fd5b61076a82826139bc565b6003546111d081612c62565b61012c60ff8416118015906111ea575061012c60ff831611155b61121b5760405162461bcd60e51b8152602060048201526002602482015261533360f01b6044820152606401610869565b600f60ff841660000361124257805463ffff0000191660ff84166201000002178155611112565b8260ff1660000361126057805461ffff191660ff8516178155611112565b805460ff94851663ffffffff19909116179290931662010000029190911790915550565b60035461129081612c62565b34156113d3577f00000000000000000000000000000000000000000000000000000000000000006001600160a01b031663d0e30db0346040518263ffffffff1660e01b81526004016000604051808303818588803b1580156112f157600080fd5b505af1158015611305573d6000803e3d6000fd5b505060405163a9059cbb60e01b8152306004820152346024820152600093507f00000000000000000000000000000000000000000000000000000000000000006001600160a01b0316925063a9059cbb91506044016020604051808303816000875af1158015611379573d6000803e3d6000fd5b505050506040513d601f19601f8201168201806040525081019061139d91906156b7565b9050806113d15760405162461bcd60e51b8152602060048201526002602482015261444560f01b6044820152606401610869565b505b81600960008282546113e591906156a4565b90915550505050565b6003546113fa81612c62565b60005b8281101561111257600584848381811061141957611419615662565b905060200201602081019061142e9190615140565b815460018082018455600093845260209093200180546001600160a01b0319166001600160a01b0392909216919091179055016113fd565b61146e612e14565b34156115b1577f00000000000000000000000000000000000000000000000000000000000000006001600160a01b031663d0e30db0346040518263ffffffff1660e01b81526004016000604051808303818588803b1580156114cf57600080fd5b505af11580156114e3573d6000803e3d6000fd5b505060405163a9059cbb60e01b8152306004820152346024820152600093507f00000000000000000000000000000000000000000000000000000000000000006001600160a01b0316925063a9059cbb91506044016020604051808303816000875af1158015611557573d6000803e3d6000fd5b505050506040513d601f19601f8201168201806040525081019061157b91906156b7565b9050806115af5760405162461bcd60e51b8152602060048201526002602482015261115160f21b6044820152606401610869565b505b6040516370a0823160e01b815230600482015282907f00000000000000000000000000000000000000000000000000000000000000006001600160a01b0316906370a08231906024016020604051808303816000875af1158015611619573d6000803e3d6000fd5b505050506040513d601f19601f8201168201806040525081019061163d9190615818565b10156116705760405162461bcd60e51b8152602060048201526002602482015261131160f21b6044820152606401610869565b34158061167c57508134145b6116ad5760405162461bcd60e51b8152602060048201526002602482015261574160f01b6044820152606401610869565b60008060006116bb84612e64565b336000908152600c60205260408120601181018054959850939650919450909291906116e68361568b565b9091555086905060006116fa826001611093565b90508083600001600085601101548152602001908152602001600020600082825461172591906156a4565b9091555050600f8301829055306000908152600e602052604081208651600590910191908790829061175957611759615662565b60200260200101516001600160a01b03166001600160a01b0316815260200190815260200160002054600003611793576117938288613bbb565b6117c18382887f00000000000000000000000000000000000000000000000000000000000000008989613c51565b5050505050505050565b600080805b60055481101561182457600061180d85600584815481106117f3576117f3615662565b6000918252602090912001546001600160a01b031661182b565b905061181981846156a4565b9250506001016117d0565b5092915050565b600080826001600160a01b031663313ce5676040518163ffffffff1660e01b8152600401602060405180830381865afa15801561186c573d6000803e3d6000fd5b505050506040513d601f19601f820116820180604052508101906118909190615831565b60ff16905060006118a185856138ed565b905060006118b0836012615678565b6118bb90600a615935565b6118c59083615621565b905060006118d286613d85565b90506000670de0b6b3a76400006118e98385615621565b6118f3919061564e565b98975050505050505050565b60008061190b83612e64565b509150506000805b8251811015611a2e57306000908152600e602052604081208451600590910190829086908590811061194757611947615662565b60200260200101516001600160a01b03166001600160a01b03168152602001908152602001600020549050600061199685848151811061198957611989615662565b6020026020010151613d85565b905060006119a683612710615941565b6119b283612710615941565b6119bc9190615971565b905060006119cc84612710615941565b6119d7836064615941565b6119e19190615991565b9050600081126119fc576119f581876159bf565b9550611a09565b611a068682615971565b95505b600a861215611a19576000611a1c565b60015b97505060019093019250611913915050565b505050919050565b60606007805480602002602001604051908101604052809291908181526020018280548015611a8e57602002820191906000526020600020905b81546001600160a01b03168152600190910190602001808311611a70575b5050505050905090565b600080516020615f93833981519152611ab081612c62565b611ab8612e14565b611ac0612e3a565b336000908152600c6020908152604080832060058054835181860281018601909452808452919493909190830182828015611b2457602002820191906000526020600020905b81546001600160a01b03168152600190910190602001808311611b06575b505050505090506000805b8251811015611d79576000611b5033858481518110610e4a57610e4a615662565b905080600003611b605750611d71565b611b6b816002613b5f565b925060015b85601101548111611c2b576000866005016000878681518110611b9557611b95615662565b60200260200101516001600160a01b03166001600160a01b031681526020019081526020016000206000838152602001908152602001600020819055506000866004016000878681518110611bec57611bec615662565b60200260200101516001600160a01b03166001600160a01b03168152602001908152602001600020819055508080611c239061568b565b915050611b70565b50838281518110611c3e57611c3e615662565b60200260200101516001600160a01b031663a9059cbb338584611c619190615678565b6040516001600160e01b031960e085901b1681526001600160a01b03909216600483015260248201526044016020604051808303816000875af1158015611cac573d6000803e3d6000fd5b505050506040513d601f19601f82011682018060405250810190611cd091906156b7565b50838281518110611ce357611ce3615662565b60209081029190910101516004805460405163a9059cbb60e01b8152620100009091046001600160a01b03908116928201929092526024810186905291169063a9059cbb906044016020604051808303816000875af1158015611d4a573d6000803e3d6000fd5b505050506040513d601f19601f82011682018060405250810190611d6e91906156b7565b50505b600101611b2f565b50611d826137a2565b5050506110906001600055565b60608060006007805490506001600160401b03811115611db157611db1615188565b604051908082528060200260200182016040528015611dda578160200160208202803683370190505b506007549093506001600160401b03811115611df857611df8615188565b604051908082528060200260200182016040528015611e21578160200160208202803683370190505b50915060005b8351811015611f8657600c600060078381548110611e4757611e47615662565b60009182526020808320909101546001600160a01b03168352820192909252604001812092505b600e830154811015611f225760006001600160a01b031683600e018281548110611e9a57611e9a615662565b6000918252602090912001546001600160a01b031614611f1a5782600e018181548110611ec957611ec9615662565b9060005260206000200160009054906101000a90046001600160a01b0316848281518110611ef957611ef9615662565b60200260200101906001600160a01b031690816001600160a01b0316815250505b600101611e6e565b5060078181548110611f3657611f36615662565b9060005260206000200160009054906101000a90046001600160a01b0316848281518110611f6657611f66615662565b6001600160a01b0390921660209283029190910190910152600101611e27565b50509091565b600080611f9984846138ed565b90506000611fa684613e1c565b90506000846001600160a01b031663313ce5676040518163ffffffff1660e01b8152600401602060405180830381865afa158015611fe8573d6000803e3d6000fd5b505050506040513d601f19601f8201168201806040525081019061200c9190615831565b9050816000036120225760009350505050610725565b600061202f8260126159df565b61203a90600a6159f8565b6120449085615621565b905060006120538360126159df565b61205e90600a6159f8565b6120689085615621565b9050806118e98368056bc75e2d63100000615621565b60009182526002602090815260408084206001600160a01b0393909316845291905290205460ff1690565b6003546120b581612c62565b6001600160a01b0383166000908152600c60205260408120600e01546001600160401b038111156120e8576120e8615188565b604051908082528060200260200182016040528015612111578160200160208202803683370190505b50905060008151612142867f00000000000000000000000000000000000000000000000000000000000000006138ed565b61214c919061564e565b9050600080600061215c87612e64565b92509250925060005b8551811015612208576001600160a01b0389166000908152600c602052604090206121b49086867f00000000000000000000000000000000000000000000000000000000000000008787613c51565b6001600160a01b0389166000908152600c60205260409020600e018054806121de576121de615a07565b600082815260209020810160001990810180546001600160a01b0319169055019055600101612165565b505050505050505050565b60035461221f81612c62565b6000808061222c85612e64565b9250509150600061223b613a29565b90506000808280602001905181019061225491906157bb565b9150915060005b825181101561233457600082828151811061227857612278615662565b60200260200101519050600081111561232b576004546201000090046001600160a01b03166000908152600c60205260408120885161231b919084908b90879081106122c6576122c6615662565b60200260200101518887815181106122e0576122e0615662565b60200260200101517f00000000000000000000000000000000000000000000000000000000000000008c8981518110610a1c57610a1c615662565b9050612327818a6156a4565b9850505b5060010161225b565b506000861161236a5760405162461bcd60e51b81526020600482015260026024820152614e4560f01b6044820152606401610869565b6004805460405163a9059cbb60e01b81526001600160a01b0362010000909204821692810192909252602482018890527f0000000000000000000000000000000000000000000000000000000000000000169063a9059cbb906044016020604051808303816000875af11580156123e5573d6000803e3d6000fd5b505050506040513d601f19601f8201168201806040525081019061220891906156b7565b60606005805480602002602001604051908101604052809291908181526020018280548015611a8e576020028201919060005260206000209081546001600160a01b03168152600190910190602001808311611a70575050505050905090565b60008281526002602052604090206001015461248481612c62565b61111283836139bc565b60035461249a81612c62565b6040514790339082156108fc029083906000818181858888f1935050505015801561076a573d6000803e3d6000fd5b6000806124d5836117cb565b905060006124e1613e87565b9050806000036124f5575060009392505050565b8061250883670de0b6b3a7640000615621565b612512919061564e565b949350505050565b60035461252681612c62565b60008061253284612e64565b92505091506000806005805490506001600160401b0381111561255757612557615188565b604051908082528060200260200182016040528015612580578160200160208202803683370190505b50905060005b6005548110156126a15760006125c2600583815481106125a8576125a8615662565b6000918252602090912001546001600160a01b0316613d85565b905080600583815481106125d8576125d8615662565b6000918252602090912001546040516370a0823160e01b81523060048201526001600160a01b03909116906370a0823190602401602060405180830381865afa158015612629573d6000803e3d6000fd5b505050506040513d601f19601f8201168201806040525081019061264d9190615818565b6126579190615621565b83838151811061266957612669615662565b60200260200101818152505082828151811061268757612687615662565b602002602001015184019350508080600101915050612586565b506005546000906126b2908461564e565b6005549091506000906001600160401b038111156126d2576126d2615188565b6040519080825280602002602001820160405280156126fb578160200160208202803683370190505b50905060005b815181101561275d577f000000000000000000000000000000000000000000000000000000000000000082828151811061273d5761273d615662565b6001600160a01b0390921660209283029190910190910152600101612701565b5060055447906000906001600160401b0381111561277d5761277d615188565b6040519080825280602002602001820160405280156127a6578160200160208202803683370190505b506005549091506000906001600160401b038111156127c7576127c7615188565b6040519080825280602002602001820160405280156127f0578160200160208202803683370190505b50905060005b600554811015612b40578587828151811061281357612813615662565b60200260200101511115612918576000612839600583815481106125a8576125a8615662565b8789848151811061284c5761284c615662565b602002602001015161285e9190615678565b612868919061564e565b6004546201000090046001600160a01b03166000908152600c60205260409020600580549293506128c39284918f91879081106128a7576128a7615662565b6000918252602090912001546001600160a01b03168a8f613c51565b6007546128d0908261564e565b8483815181106128e2576128e2615662565b602002602001018181525050600083838151811061290257612902615662565b9115156020928302919091019091015250612b38565b60006127106129986005848154811061293357612933615662565b9060005260206000200160009054906101000a90046001600160a01b0316601160006005878154811061296857612968615662565b60009182526020808320909101546001600160a01b03908116845290830193909352604090910190205416613fa6565b6129a29190615621565b6127106129bb600585815481106125a8576125a8615662565b8a85815181106129cd576129cd615662565b60200260200101518a6129e09190615678565b6129ea919061564e565b6129f49190615621565b6129fe9190615621565b9050806009541015612a105750612b38565b6004546201000090046001600160a01b03166000908152600c602052604090208b51612ac4919083908e9086908110612a4b57612a4b615662565b60200260200101517f000000000000000000000000000000000000000000000000000000000000000060058781548110612a8757612a87615662565b9060005260206000200160009054906101000a90046001600160a01b03168f8881518110612ab757612ab7615662565b602002602001015161434b565b600754612ad1908261564e565b848381518110612ae357612ae3615662565b6020026020010181815250506001838381518110612b0357612b03615662565b91151560209283029190910190910152612b1d4786615678565b94508460096000828254612b319190615678565b9091555050505b6001016127f6565b5060005b600754811015612bdf57612bd760078281548110612b6457612b64615662565b600091825260209182902001546005805460408051828602810186019091528181526001600160a01b0390931693830182828015612bcb57602002820191906000526020600020905b81546001600160a01b03168152600190910190602001808311612bad575b50505050508585614372565b600101612b44565b506040514281527fc306af072396b02bf3a9782c10065cc7ff4aa842934a43f0b76f997b291237c89060200160405180910390a15050505050505050505050565b600354612c2c81612c62565b60005b825181101561076a57612c5a838281518110612c4d57612c4d615662565b60200260200101516146de565b600101612c2f565b611090813361471d565b6001600160a01b0381166000908152600b602052604090205460ff16611090576007805460018181019092557fa66cc928b5edb82af9bd49922954155ab7b0942694bea4ce44661d9a8736c6880180546001600160a01b0384166001600160a01b031990911681179091556000908152600b60205260409020805460ff1916909117905550565b6000612cff838361207e565b612d7f5760008381526002602090815260408083206001600160a01b03861684529091529020805460ff19166001179055612d373390565b6001600160a01b0316826001600160a01b0316847f2f8788117e7eff1d82e926ec794901d17c78024a50270940304540a733656f0d60405160405180910390a4506001610725565b506000610725565b612d8f612e14565b6001805460ff1916811790557f62e78cea01bee320cd4e420270b5ea74000d11b0c9f74754ebdbfc544b05a258335b6040516001600160a01b03909116815260200160405180910390a1565b612de3614756565b6001805460ff191690557f5db9ee0a495bf2e6ff9c91a7834c1ba4fdd244a5e8aa4e537bd38aeae4b073aa33612dbe565b60015460ff1615612e385760405163d93c066560e01b815260040160405180910390fd5b565b600260005403612e5d57604051633ee5aeb560e01b815260040160405180910390fd5b6002600055565b606080606083806020019051810190612e7d9190615a1d565b8051825192955090925014612eba5760405162461bcd60e51b8152602060048201526003602482015262414c4d60e81b6044820152606401610869565b600060018451612eca9190615678565b6001600160401b03811115612ee157612ee1615188565b604051908082528060200260200182016040528015612f0a578160200160208202803683370190505b50925060005b84518110156133ff57848181518110612f2b57612f2b615662565b602002602001015191506000807f00000000000000000000000000000000000000000000000000000000000000006001600160a01b0316846001600160a01b0316630dfe16816040518163ffffffff1660e01b8152600401602060405180830381865afa158015612fa0573d6000803e3d6000fd5b505050506040513d601f19601f82011682018060405250810190612fc49190615af4565b6001600160a01b03160361309f57836001600160a01b0316630dfe16816040518163ffffffff1660e01b8152600401602060405180830381865afa158015613010573d6000803e3d6000fd5b505050506040513d601f19601f820116820180604052508101906130349190615af4565b9150836001600160a01b031663d21220a76040518163ffffffff1660e01b8152600401602060405180830381865afa158015613074573d6000803e3d6000fd5b505050506040513d601f19601f820116820180604052508101906130989190615af4565b9050613168565b836001600160a01b031663d21220a76040518163ffffffff1660e01b8152600401602060405180830381865afa1580156130dd573d6000803e3d6000fd5b505050506040513d601f19601f820116820180604052508101906131019190615af4565b9150836001600160a01b0316630dfe16816040518163ffffffff1660e01b8152600401602060405180830381865afa158015613141573d6000803e3d6000fd5b505050506040513d601f19601f820116820180604052508101906131659190615af4565b90505b6001600160a01b038116732791bca1f2de4661ed88a30c99a7a9449aa8417414613288578086848151811061319f5761319f615662565b60200260200101906001600160a01b031690816001600160a01b0316815250508683815181106131d1576131d1615662565b6020908102919091018101516001600160a01b0380841660008181526011909452604090932080549282166001600160a01b03199384161781556002810180549287169284169290921790915560030180549091169091179055845185908490811061323f5761323f615662565b602002602001015160116000836001600160a01b03166001600160a01b0316815260200190815260200160002060030160146101000a81548160ff021916908360ff1602179055505b6001600160a01b037f00000000000000000000000000000000000000000000000000000000000000008116600090815260116020526040902060010154161580156132ef57506001600160a01b038116732791bca1f2de4661ed88a30c99a7a9449aa84174145b156133f55786838151811061330657613306615662565b6020026020010151601160007f00000000000000000000000000000000000000000000000000000000000000006001600160a01b03166001600160a01b0316815260200190815260200160002060010160006101000a8154816001600160a01b0302191690836001600160a01b0316021790555084838151811061338c5761338c615662565b6020026020010151601160007f00000000000000000000000000000000000000000000000000000000000000006001600160a01b03166001600160a01b0316815260200190815260200160002060030160146101000a81548160ff021916908360ff1602179055505b5050600101612f10565b50509193909250565b60606000806005805490506001600160401b0381111561342a5761342a615188565b604051908082528060200260200182016040528015613453578160200160208202803683370190505b50905080516001600160401b0381111561346f5761346f615188565b604051908082528060200260200182016040528015613498578160200160208202803683370190505b50925060005b600554811015611f865760006134da600583815481106134c0576134c0615662565b6000918252602090912001546001600160a01b0316614779565b90506000600583815481106134f1576134f1615662565b6000918252602090912001546040516370a0823160e01b81523060048201526001600160a01b03909116915081906370a0823190602401602060405180830381865afa158015613545573d6000803e3d6000fd5b505050506040513d601f19601f820116820180604052508101906135699190615818565b84848151811061357b5761357b615662565b60200260200101818152505060008290508087858151811061359f5761359f615662565b60209081029190910101526135b481876156a4565b9550506001909201915061349e9050565b6040805160028082526060820183526000928392919060208301908036833701905050905084816000815181106135fe576135fe615662565b60200260200101906001600160a01b031690816001600160a01b031681525050838160018151811061363257613632615662565b6001600160a01b039290921660209283029190910182015260408051600280825260608201835260009391929091830190803683370190505090506000846137475760405163d06ca61f60e01b815273edf6066a2b290c185783862c7f4776a2c8077ad19063d06ca61f906136ad908c908790600401615b11565b600060405180830381865afa1580156136ca573d6000803e3d6000fd5b505050506040513d6000823e601f3d908101601f191682016040526136f29190810190615b2a565b915060008260018151811061370957613709615662565b60200260200101511161371d576000613740565b6137408260018151811061373357613733615662565b60200260200101516148ce565b905061376d565b6000613753898b6148f7565b905061376081600a6149e3565b6001600160a01b03169150505b841561378b576137818a8a8a8a8a86614a78565b9350505050613798565b6137818a8a898985614cea565b9695505050505050565b60005b600754811015611090576000600782815481106137c4576137c4615662565b60009182526020808320909101546001600160a01b0316808352600c9091526040822090925090805b6005548110156138dd5760006005828154811061380c5761380c615662565b60009182526020808320909101546001600160a01b03168083526004870190915260408220549092509061383f83613d85565b9050826001600160a01b031663313ce5676040518163ffffffff1660e01b8152600401602060405180830381865afa15801561387f573d6000803e3d6000fd5b505050506040513d601f19601f820116820180604052508101906138a39190615831565b6138ae90600a6159f8565b6138b88284615621565b6138c2919061564e565b6138cc90866156a4565b945050600190920191506137ed9050565b5050600190920191506137a59050565b6001600160a01b0382166000908152600c6020526040812060015b816011015481116139b4577f00000000000000000000000000000000000000000000000000000000000000006001600160a01b0316846001600160a01b0316148015613955575080600214155b1561397a5760008181526020839052604090205461397390846156a4565b92506139a2565b6001600160a01b038416600090815260048301602052604090205461399f90846156a4565b92505b806139ac8161568b565b915050613908565b505092915050565b60006139c8838361207e565b15612d7f5760008381526002602090815260408083206001600160a01b0386168085529252808320805460ff1916905551339286917ff6391f5c32d9c69d2a47ea670b442974b53935d1edc7fd64eb21e047a839171b9190a4506001610725565b6005546060906000906001600160401b03811115613a4957613a49615188565b604051908082528060200260200182016040528015613a72578160200160208202803683370190505b50905060005b600554811015613b3557600060058281548110613a9757613a97615662565b6000918252602090912001546040516370a0823160e01b81523060048201526001600160a01b03909116915081906370a0823190602401602060405180830381865afa158015613aeb573d6000803e3d6000fd5b505050506040513d601f19601f82011682018060405250810190613b0f9190615818565b838381518110613b2157613b21615662565b602090810291909101015250600101613a78565b50600581604051602001613b4a929190615b5e565b60405160208183030381529060405291505090565b6000600f6001836002811115613b7757613b77615bb8565b03613ba157805461271090613b909061ffff1686615621565b613b9a919061564e565b9150611824565b8054612710906125089062010000900461ffff1686615621565b306000908152600e60205260408120839055613bd682612e64565b5091505060005b815181101561111257613bfb82828151811061198957611989615662565b306000908152600e60205260408120845160059091019190859085908110613c2557613c25615662565b6020908102919091018101516001600160a01b0316825281019190915260400160002055600101613bdd565b60005b8251811015613d7c576000828281518110613c7157613c71615662565b602002602001015160ff16600314613c8a576000613c8d565b60015b90507f00000000000000000000000000000000000000000000000000000000000000006001600160a01b0316848381518110613ccb57613ccb615662565b60200260200101516001600160a01b031614613d3257613d2d888686518a613cf3919061564e565b878681518110613d0557613d05615662565b60200260200101518a8781518110613d1f57613d1f615662565b602002602001015186614f8a565b613d73565b613d718886868581518110613d4957613d49615662565b6020026020010151898681518110613d6357613d63615662565b602002602001015185614f98565b505b50600101613c54565b50505050505050565b6001600160a01b0380821660009081526011602052604081205490918291613daf91859116613fa6565b6001600160a01b037f000000000000000000000000000000000000000000000000000000000000000081811660009081526011602052604081206001015493945092613dfb9216613fa6565b90506000670de0b6b3a7640000613e128385615621565b6110e4919061564e565b6040516370a0823160e01b81523060048201526000906001600160a01b038316906370a0823190602401602060405180830381865afa158015613e63573d6000803e3d6000fd5b505050506040513d601f19601f820116820180604052508101906107259190615818565b600080805b600554811015613fa057600060058281548110613eab57613eab615662565b60009182526020808320909101546040805163313ce56760e01b815290516001600160a01b039092169450849263313ce567926004808401938290030181865afa158015613efd573d6000803e3d6000fd5b505050506040513d601f19601f82011682018060405250810190613f219190615831565b90506000613f2e83613e1c565b90506000613f3d8360126159df565b613f4890600a6159f8565b613f529083615621565b90506000613f5f85613d85565b90506000670de0b6b3a7640000613f768385615621565b613f80919061564e565b9050613f8c81896156a4565b97505060019095019450613e8c9350505050565b50919050565b600080836001600160a01b031663313ce5676040518163ffffffff1660e01b8152600401602060405180830381865afa158015613fe7573d6000803e3d6000fd5b505050506040513d601f19601f8201168201806040525081019061400b9190615831565b905060126001600160a01b038416156141855760008490506000816001600160a01b0316633850c7bd6040518163ffffffff1660e01b815260040160e060405180830381865afa158015614063573d6000803e3d6000fd5b505050506040513d601f19601f820116820180604052508101906140879190615be5565b50505050505090506000816001600160a01b0316826001600160a01b03166140af9190615621565b9050876001600160a01b0316836001600160a01b0316630dfe16816040518163ffffffff1660e01b8152600401602060405180830381865afa1580156140f9573d6000803e3d6000fd5b505050506040513d601f19601f8201168201806040525081019061411d9190615af4565b6001600160a01b03160361415657600160c01b61413b85600a6159f8565b6141459083615621565b61414f919061564e565b955061417d565b8061416286600a6159f8565b61417090600160c01b615621565b61417a919061564e565b95505b5050506142ea565b600061419560ff8416600a615935565b604080516002808252606082018352929350600092909160208301908036833701905050905086816000815181106141cf576141cf615662565b60200260200101906001600160a01b031690816001600160a01b0316815250507f00000000000000000000000000000000000000000000000000000000000000008160018151811061422357614223615662565b6001600160a01b03928316602091820292909201015260405163d06ca61f60e01b81526000917f0000000000000000000000000000000000000000000000000000000000000000169063d06ca61f906142829086908690600401615b11565b600060405180830381865afa15801561429f573d6000803e3d6000fd5b505050506040513d6000823e601f3d908101601f191682016040526142c79190810190615b2a565b9050806001815181106142dc576142dc615662565b602002602001015195505050505b8060ff168260ff16101561431e5761430282826159df565b61430d90600a6159f8565b6143179084615621565b92506139b4565b8060ff168260ff1611156139b45761433681836159df565b61434190600a6159f8565b6110e4908461564e565b60008160ff1660031461435f576000614362565b60015b90506117c1878786868986615016565b60005b83518110156107d65781818151811061439057614390615662565b60200260200101511515600015150361453f5760015b6001600160a01b0386166000908152600c602052604090206011015481116144a6576001600160a01b0386166000908152600c602052604090206011015484518590849081106143f8576143f8615662565b602002602001015161440a919061564e565b600c6000886001600160a01b03166001600160a01b03168152602001908152602001600020600501600087858151811061444657614446615662565b60200260200101516001600160a01b03166001600160a01b031681526020019081526020016000206000838152602001908152602001600020600082825461448e9190615678565b9091555081905061449e8161568b565b9150506143a6565b508281815181106144b9576144b9615662565b6020026020010151600c6000876001600160a01b03166001600160a01b0316815260200190815260200160002060040160008684815181106144fd576144fd615662565b60200260200101516001600160a01b03166001600160a01b0316815260200190815260200160002060008282546145349190615678565b909155506146d69050565b60015b6001600160a01b0386166000908152600c60205260409020601101548111614642576001600160a01b0386166000908152600c6020526040902060110154845185908490811061459457614594615662565b60200260200101516145a6919061564e565b600c6000886001600160a01b03166001600160a01b0316815260200190815260200160002060050160008785815181106145e2576145e2615662565b60200260200101516001600160a01b03166001600160a01b031681526020019081526020016000206000838152602001908152602001600020600082825461462a91906156a4565b9091555081905061463a8161568b565b915050614542565b5082818151811061465557614655615662565b6020026020010151600c6000876001600160a01b03166001600160a01b03168152602001908152602001600020600401600086848151811061469957614699615662565b60200260200101516001600160a01b03166001600160a01b0316815260200190815260200160002060008282546146d091906156a4565b90915550505b600101614375565b604051630f5a905960e11b81526005600482015260248101829052731a84415a04a98af6dbc477875dd9edbf6df1337790631eb520b2906044016107aa565b614727828261207e565b6107f75760405163e2517d3f60e01b81526001600160a01b038216600482015260248101839052604401610869565b60015460ff16612e3857604051638dfc202b60e01b815260040160405180910390fd5b6040516370a0823160e01b81523060048201526000908190819084906001600160a01b038216906370a0823190602401602060405180830381865afa1580156147c6573d6000803e3d6000fd5b505050506040513d601f19601f820116820180604052508101906147ea9190615818565b92506147f585613d85565b91506000856001600160a01b031663313ce5676040518163ffffffff1660e01b8152600401602060405180830381865afa158015614837573d6000803e3d6000fd5b505050506040513d601f19601f8201168201806040525081019061485b9190615831565b905060128160ff1611156148985760128160ff161115614898576148808160126159df565b61488b90600a6159f8565b614895908561564e565b93505b6000670de0b6b3a76400006148ad8587615621565b6148b7919061564e565b90506148c381876156a4565b979650505050505050565b60006127106008546127106148e39190615678565b6148ed9084615621565b610725919061564e565b6000808390506000816001600160a01b0316633850c7bd6040518163ffffffff1660e01b815260040160e060405180830381865afa15801561493d573d6000803e3d6000fd5b505050506040513d601f19601f820116820180604052508101906149619190615be5565b50505050505090506000816001600160a01b0316826001600160a01b03166149899190615621565b9050600160c01b85106149c75760405162461bcd60e51b8152600401610869906020808252600490820152631155121360e21b604082015260600190565b60006149d786600160601b615621565b90506148c3828261564e565b60008060646149f284826156a4565b6149fc9086615621565b614a06919061564e565b905060006064614a168582615678565b614a209087615621565b614a2a919061564e565b90506000614a3783615026565b614a4590600160601b615621565b90506000614a5283615026565b614a6090600160601b615621565b90506002614a6e8284615c7e565b6148c39190615c9d565b600e860180546001810182556000918252602080832090910180546001600160a01b0319166001600160a01b038781169182179092556040805160c0810182528a8152898416948101948552808201928352878416606082019081528785166080830181815260a084019182529351635e6583af60e11b815292516004840152955185166024830152925184166044820152915183166064830152519091166084820152905160a4820152819073c439194cf13f3812c1888b5635b06c98687f5a399063bccb075e9060c401602060405180830381865af4925050508015614b7d575060408051601f3d908101601f19168201909252614b7a91810190615818565b60015b614c1757614b89615ccc565b806308c379a003614be05750614b9d615ce8565b80614ba85750614be2565b33600080516020615f7383398151915285614bc289615079565b84604051614bd293929190615dbb565b60405180910390a2506148c3565b505b33600080516020615f7383398151915284614bfc88615079565b604051614c0a929190615df1565b60405180910390a26148c3565b6001600160a01b038516600090815260098a016020908152604080832060118d0154845290915281205491925082919003614c9a576001600160a01b038516600081815260058b016020908152604080832060118e01548452825280832086905592825260048c0190529081208054849290614c949084906156a4565b90915550505b337f9c6004e315787e1885bcde9008594c954fd1a11118bbff03456860197d43d4598984614cc789615079565b604051614cd693929190615e3f565b60405180910390a250979650505050505050565b600e850180546001810182556000918252602080832090910180546001600160a01b0319166001600160a01b0387811691821790925560408051608081018252898152938401918252868316848201908152606085018781529151635cb0482d60e11b81529451600486015291518316602485015290519091166044830152516064820152819073c439194cf13f3812c1888b5635b06c98687f5a399063b960905a90608401600060405180830381865af4925050508015614dce57506040513d6000823e601f3d908101601f19168201604052614dcb9190810190615b2a565b60015b614e6857614dda615ccc565b806308c379a003614e315750614dee615ce8565b80614df95750614e33565b33600080516020615f7383398151915285614e1389615079565b84604051614e2393929190615e84565b60405180910390a250613798565b505b33600080516020615f7383398151915284614e4d88615079565b604051614e5b929190615e9d565b60405180910390a2613798565b80600181518110614e7b57614e7b615662565b6020908102919091018101516001600160a01b038716600090815260098b018352604080822060118d01548352909352918220549093509003614f06576001600160a01b038516600081815260058a016020908152604080832060118d01548452825280832086905592825260048b0190529081208054849290614f009084906156a4565b90915550505b337f9c6004e315787e1885bcde9008594c954fd1a11118bbff03456860197d43d4598884614f3389615079565b604051614f4293929190615eb6565b60405180910390a287600e01805480614f5d57614f5d615a07565b600082815260209020810160001990810180546001600160a01b0319169055019055509695505050505050565b613d7c8685848887866135c5565b6001600160a01b038085166000908152600587016020908152604080832060118a01548452909152812054600454919290918391614fdd9162010000900416886138ed565b821161500457600454614fff906201000090046001600160a01b0316886138ed565b615006565b815b90506118f38882878a8a896135c5565b60006148c38787858888876135c5565b60008060026150368460016156a4565b615040919061564e565b90508291505b81811015613fa05790508060028161505e818661564e565b61506891906156a4565b615072919061564e565b9050615046565b6060816001600160a01b03166395d89b416040518163ffffffff1660e01b8152600401600060405180830381865afa1580156150b9573d6000803e3d6000fd5b505050506040513d6000823e601f3d908101601f191682016040526107259190810190615efb565b6000602082840312156150f357600080fd5b81356001600160e01b03198116811461510b57600080fd5b9392505050565b60006020828403121561512457600080fd5b5035919050565b6001600160a01b038116811461109057600080fd5b60006020828403121561515257600080fd5b813561510b8161512b565b801515811461109057600080fd5b60006020828403121561517d57600080fd5b813561510b8161515d565b634e487b7160e01b600052604160045260246000fd5b601f8201601f191681016001600160401b03811182821017156151c3576151c3615188565b6040525050565b60006001600160401b038211156151e3576151e3615188565b50601f01601f191660200190565b600082601f83011261520257600080fd5b813561520d816151ca565b60405161521a828261519e565b82815285602084870101111561522f57600080fd5b82602086016020830137600092810160200192909252509392505050565b6000806040838503121561526057600080fd5b82356001600160401b0381111561527657600080fd5b615282858286016151f1565b95602094909401359450505050565b600081518084526020840193506020830160005b828110156152cc5781516001600160a01b03168652602095860195909101906001016152a5565b5093949350505050565b600081518084526020840193506020830160005b828110156152cc5781518652602095860195909101906001016152ea565b60408152600061531b6040830185615291565b82810360208401526110e481856152d6565b6000806040838503121561534057600080fd5b8235915060208301356003811061535657600080fd5b809150509250929050565b6000806040838503121561537457600080fd5b8235915060208301356153568161512b565b60208152600061510b6020830184615291565b60ff8116811461109057600080fd5b600080604083850312156153bb57600080fd5b82356153c681615399565b9150602083013561535681615399565b600080602083850312156153e957600080fd5b82356001600160401b038111156153ff57600080fd5b8301601f8101851361541057600080fd5b80356001600160401b0381111561542657600080fd5b8560208260051b840101111561543b57600080fd5b6020919091019590945092505050565b6000806040838503121561545e57600080fd5b8235915060208301356001600160401b0381111561547b57600080fd5b615487858286016151f1565b9150509250929050565b600080604083850312156154a457600080fd5b82356154af8161512b565b915060208301356153568161512b565b6000602082840312156154d157600080fd5b81356001600160401b038111156154e757600080fd5b612512848285016151f1565b6040815260006155066040830185615291565b82810360208401526110e48185615291565b6000806040838503121561552b57600080fd5b82356155368161512b565b915060208301356001600160401b0381111561547b57600080fd5b60006001600160401b0382111561556a5761556a615188565b5060051b60200190565b60006020828403121561558657600080fd5b81356001600160401b0381111561559c57600080fd5b8201601f810184136155ad57600080fd5b80356155b881615551565b6040516155c5828261519e565b80915082815260208101915060208360051b8501019250868311156155e957600080fd5b6020840193505b828410156137985783358252602093840193909101906155f0565b634e487b7160e01b600052601160045260246000fd5b80820281158282048414176107255761072561560b565b634e487b7160e01b600052601260045260246000fd5b60008261565d5761565d615638565b500490565b634e487b7160e01b600052603260045260246000fd5b818103818111156107255761072561560b565b60006001820161569d5761569d61560b565b5060010190565b808201808211156107255761072561560b565b6000602082840312156156c957600080fd5b815161510b8161515d565b600082601f8301126156e557600080fd5b81516156f081615551565b6040516156fd828261519e565b80915082815260208101915060208360051b86010192508583111561572157600080fd5b602085015b838110156157475780516157398161512b565b835260209283019201615726565b5095945050505050565b600082601f83011261576257600080fd5b815161576d81615551565b60405161577a828261519e565b80915082815260208101915060208360051b86010192508583111561579e57600080fd5b602085015b838110156157475780518352602092830192016157a3565b600080604083850312156157ce57600080fd5b82516001600160401b038111156157e457600080fd5b6157f0858286016156d4565b92505060208301516001600160401b0381111561580c57600080fd5b61548785828601615751565b60006020828403121561582a57600080fd5b5051919050565b60006020828403121561584357600080fd5b815161510b81615399565b6001815b60018411156158895780850481111561586d5761586d61560b565b600184161561587b57908102905b60019390931c928002615852565b935093915050565b6000826158a057506001610725565b816158ad57506000610725565b81600181146158c357600281146158cd576158e9565b6001915050610725565b60ff8411156158de576158de61560b565b50506001821b610725565b5060208310610133831016604e8410600b841016171561590c575081810a610725565b615919600019848461584e565b806000190482111561592d5761592d61560b565b029392505050565b600061510b8383615891565b80820260008212600160ff1b8414161561595d5761595d61560b565b81810583148215176107255761072561560b565b81810360008312801583831316838312821617156118245761182461560b565b6000826159a0576159a0615638565b600160ff1b8214600019841416156159ba576159ba61560b565b500590565b80820182811260008312801582168215821617156139b4576139b461560b565b60ff82811682821603908111156107255761072561560b565b600061510b60ff841683615891565b634e487b7160e01b600052603160045260246000fd5b60008060408385031215615a3057600080fd5b82516001600160401b03811115615a4657600080fd5b615a52858286016156d4565b92505060208301516001600160401b03811115615a6e57600080fd5b8301601f81018513615a7f57600080fd5b8051615a8a81615551565b604051615a97828261519e565b80915082815260208101915060208360051b850101925087831115615abb57600080fd5b6020840193505b82841015615ae6578351615ad581615399565b825260209384019390910190615ac2565b809450505050509250929050565b600060208284031215615b0657600080fd5b815161510b8161512b565b8281526040602082015260006125126040830184615291565b600060208284031215615b3c57600080fd5b81516001600160401b03811115615b5257600080fd5b61251284828501615751565b6040808252835490820181905260008481526020812090916060840190835b81811015615ba45783546001600160a01b0316835260019384019360209093019201615b7d565b5050838103602085015261379881866152d6565b634e487b7160e01b600052602160045260246000fd5b805161ffff81168114615be057600080fd5b919050565b600080600080600080600060e0888a031215615c0057600080fd5b8751615c0b8161512b565b8097505060208801518060020b8114615c2357600080fd5b9550615c3160408901615bce565b9450615c3f60608901615bce565b9350615c4d60808901615bce565b925060a0880151615c5d81615399565b60c0890151909250615c6e8161515d565b8091505092959891949750929550565b6001600160a01b0381811683821601908111156107255761072561560b565b60006001600160a01b03831680615cb657615cb6615638565b6001600160a01b03929092169190910492915050565b600060033d1115615ce55760046000803e5060005160e01c5b90565b600060443d1015615cf65790565b6040513d600319016004823e80513d60248201116001600160401b0382111715615d1f57505090565b80820180516001600160401b03811115615d3a575050505090565b3d8401600319018282016020011115615d54575050505090565b615d636020828501018561519e565b509392505050565b60005b83811015615d86578181015183820152602001615d6e565b50506000910152565b60008151808452615da7816020860160208601615d6b565b601f01601f19169290920160200192915050565b6001600160a01b0384168152606060208201819052600090615ddf90830185615d8f565b82810360408401526137988185615d8f565b6001600160a01b0383168152606060208201819052600090615e1590830184615d8f565b82810360408401526110e481600b81526a14ddd85c0819985a5b195960aa1b602082015260400190565b838152826020820152608060408201526000615e5e6080830184615d8f565b82810360608401526002815261563360f01b602082015260408101915050949350505050565b838152606060208201526000615ddf6060830185615d8f565b828152606060208201526000615e156060830184615d8f565b838152826020820152608060408201526000615ed56080830184615d8f565b828103606084015260028152612b1960f11b602082015260408101915050949350505050565b600060208284031215615f0d57600080fd5b81516001600160401b03811115615f2357600080fd5b8201601f81018413615f3457600080fd5b8051615f3f816151ca565b604051615f4c828261519e565b828152866020848601011115615f6157600080fd5b613798836020830160208701615d6b56fed24517bb053209af5f1d6b05c7180d697782d89045c90b2885f8ac5f3d0e52e7679b4db551486bdc8b8c3d86cea88bd774cea7c203e4aa4e3b39b7bb5f64bc14a264697066735822122083dcc599dd0b66e68fbbd59f6fca45db8d6ee9e74eeee5b2a48b5b8e0cc7552164736f6c634300081a0033",
    "linkReferences": {}
  },
  "methodIdentifiers": {
    "DEFAULT_ADMIN_ROLE()": "a217fddf",
    "addTokens(address[])": "4ae05c7d",
    "addWhitelisted(address)": "10154bad",
    "adminWithdrawWholeFundTokens()": "2c30ad5b",
    "adminWithdrawWholeFundWETH(bytes)": "a2ae2770",
    "calculateUserTotalValueInUSD(address)": "61ab3663",
    "checkSwapQueue(address)": "31038fbd",
    "checkUsersWithSwapQueue()": "791e38de",
    "deposit(uint256,bytes)": "5d303519",
    "depositRecoveryBalance(uint256)": "46cdf2f1",
    "doRebalance(bytes)": "fc228e6b",
    "getFee(uint256,uint8)": "2e5a247f",
    "getRoleAdmin(bytes32)": "248a9ca3",
    "getUserPortfolioShare(address)": "e1081353",
    "getUserTokenShare(address,address)": "89296eec",
    "getUserTokenTotalValueInUSDC(address,address)": "66de7267",
    "grantRole(bytes32,address)": "2f2ff15d",
    "hasRole(bytes32,address)": "91d14854",
    "needToRebalance(bytes)": "6a4e9b7a",
    "pauseOrUnpause(bool)": "252aa530",
    "paused()": "5c975abb",
    "removeTokens(uint256[])": "ff59bcd0",
    "removeUser(uint256)": "11dc4703",
    "removeWhitelisted(address)": "291d9549",
    "renounceRole(bytes32,address)": "36568abe",
    "revokeRole(bytes32,address)": "d547741f",
    "setFeeData(uint8,uint8)": "3f5cc468",
    "supportsInterface(bytes4)": "01ffc9a7",
    "swapUserQueueBuy(address,bytes)": "99303e9d",
    "tokensList()": "bd5dc202",
    "updateSlippageTolerance(uint256)": "0f9da743",
    "userTokensBalance(address)": "27cdd8f9",
    "userWithdrawWholeFundWETH(bytes,uint256)": "26519373",
    "users(address)": "a87430ba",
    "usersList()": "77b6af52",
    "withdrawAccumulatedFees()": "2e185ec7",
    "withdrawAllInKind()": "78d254b1",
    "withdrawETH()": "e086e5ec"
  },
  "id": 33
}