{
  "abi": [
    {
      "type": "constructor",
      "inputs": [],
      "stateMutability": "nonpayable"
    },
    {
      "type": "fallback",
      "stateMutability": "payable"
    },
    {
      "type": "receive",
      "stateMutability": "payable"
    },
    {
      "type": "function",
      "name": "DEFAULT_ADMIN_ROLE",
      "inputs": [],
      "outputs": [
        {
          "name": "",
          "type": "bytes32",
          "internalType": "bytes32"
        }
      ],
      "stateMutability": "view"
    },
    {
      "type": "function",
      "name": "addTokens",
      "inputs": [
        {
          "name": "_tokens",
          "type": "address[]",
          "internalType": "address[]"
        }
      ],
      "outputs": [],
      "stateMutability": "nonpayable"
    },
    {
      "type": "function",
      "name": "addWhitelisted",
      "inputs": [
        {
          "name": "_user",
          "type": "address",
          "internalType": "address"
        }
      ],
      "outputs": [],
      "stateMutability": "nonpayable"
    },
    {
      "type": "function",
      "name": "adminWithdrawWholeFundTokens",
      "inputs": [],
      "outputs": [],
      "stateMutability": "nonpayable"
    },
    {
      "type": "function",
      "name": "adminWithdrawWholeFundWETH",
      "inputs": [
        {
          "name": "tokensData",
          "type": "bytes",
          "internalType": "bytes"
        }
      ],
      "outputs": [],
      "stateMutability": "nonpayable"
    },
    {
      "type": "function",
      "name": "calcCurrentTokenShareOfPortfoByToken",
      "inputs": [
        {
          "name": "_user",
          "type": "address",
          "internalType": "address"
        },
        {
          "name": "_token",
          "type": "address",
          "internalType": "address"
        }
      ],
      "outputs": [
        {
          "name": "tokenShare",
          "type": "uint256",
          "internalType": "uint256"
        }
      ],
      "stateMutability": "nonpayable"
    },
    {
      "type": "function",
      "name": "calcCurrentTokensShareOfPortfo",
      "inputs": [
        {
          "name": "_user",
          "type": "address",
          "internalType": "address"
        }
      ],
      "outputs": [
        {
          "name": "_tokens",
          "type": "address[]",
          "internalType": "address[]"
        },
        {
          "name": "tokensShare",
          "type": "uint256[]",
          "internalType": "uint256[]"
        }
      ],
      "stateMutability": "nonpayable"
    },
    {
      "type": "function",
      "name": "calcUsersShareOfTotalPortfo",
      "inputs": [],
      "outputs": [
        {
          "name": "_users",
          "type": "address[]",
          "internalType": "address[]"
        },
        {
          "name": "_userShareOfTotalPortfo",
          "type": "uint256[]",
          "internalType": "uint256[]"
        }
      ],
      "stateMutability": "view"
    },
    {
      "type": "function",
      "name": "checkSwapQueue",
      "inputs": [
        {
          "name": "_user",
          "type": "address",
          "internalType": "address"
        }
      ],
      "outputs": [
        {
          "name": "",
          "type": "address[]",
          "internalType": "address[]"
        }
      ],
      "stateMutability": "view"
    },
    {
      "type": "function",
      "name": "deposit",
      "inputs": [
        {
          "name": "wethAmount",
          "type": "uint256",
          "internalType": "uint256"
        },
        {
          "name": "tokensData",
          "type": "bytes",
          "internalType": "bytes"
        }
      ],
      "outputs": [],
      "stateMutability": "payable"
    },
    {
      "type": "function",
      "name": "depositETH",
      "inputs": [],
      "outputs": [],
      "stateMutability": "payable"
    },
    {
      "type": "function",
      "name": "depositRecoveryBalance",
      "inputs": [
        {
          "name": "wethAmount",
          "type": "uint256",
          "internalType": "uint256"
        }
      ],
      "outputs": [],
      "stateMutability": "payable"
    },
    {
      "type": "function",
      "name": "doRebalance",
      "inputs": [
        {
          "name": "tokensData",
          "type": "bytes",
          "internalType": "bytes"
        }
      ],
      "outputs": [],
      "stateMutability": "nonpayable"
    },
    {
      "type": "function",
      "name": "getFee",
      "inputs": [
        {
          "name": "wethAmount",
          "type": "uint256",
          "internalType": "uint256"
        },
        {
          "name": "_direction",
          "type": "uint8",
          "internalType": "enum PM5.FeeDirection"
        }
      ],
      "outputs": [
        {
          "name": "",
          "type": "uint256",
          "internalType": "uint256"
        }
      ],
      "stateMutability": "payable"
    },
    {
      "type": "function",
      "name": "getRoleAdmin",
      "inputs": [
        {
          "name": "role",
          "type": "bytes32",
          "internalType": "bytes32"
        }
      ],
      "outputs": [
        {
          "name": "",
          "type": "bytes32",
          "internalType": "bytes32"
        }
      ],
      "stateMutability": "view"
    },
    {
      "type": "function",
      "name": "grantRole",
      "inputs": [
        {
          "name": "role",
          "type": "bytes32",
          "internalType": "bytes32"
        },
        {
          "name": "account",
          "type": "address",
          "internalType": "address"
        }
      ],
      "outputs": [],
      "stateMutability": "nonpayable"
    },
    {
      "type": "function",
      "name": "hasRole",
      "inputs": [
        {
          "name": "role",
          "type": "bytes32",
          "internalType": "bytes32"
        },
        {
          "name": "account",
          "type": "address",
          "internalType": "address"
        }
      ],
      "outputs": [
        {
          "name": "",
          "type": "bool",
          "internalType": "bool"
        }
      ],
      "stateMutability": "view"
    },
    {
      "type": "function",
      "name": "pauseOrUnpause",
      "inputs": [
        {
          "name": "_pState",
          "type": "bool",
          "internalType": "bool"
        }
      ],
      "outputs": [],
      "stateMutability": "nonpayable"
    },
    {
      "type": "function",
      "name": "paused",
      "inputs": [],
      "outputs": [
        {
          "name": "",
          "type": "bool",
          "internalType": "bool"
        }
      ],
      "stateMutability": "view"
    },
    {
      "type": "function",
      "name": "removeTokens",
      "inputs": [
        {
          "name": "_index",
          "type": "uint256[]",
          "internalType": "uint256[]"
        }
      ],
      "outputs": [],
      "stateMutability": "nonpayable"
    },
    {
      "type": "function",
      "name": "removeUser",
      "inputs": [
        {
          "name": "index",
          "type": "uint256",
          "internalType": "uint256"
        }
      ],
      "outputs": [],
      "stateMutability": "nonpayable"
    },
    {
      "type": "function",
      "name": "removeWhitelisted",
      "inputs": [
        {
          "name": "_user",
          "type": "address",
          "internalType": "address"
        }
      ],
      "outputs": [],
      "stateMutability": "nonpayable"
    },
    {
      "type": "function",
      "name": "renounceRole",
      "inputs": [
        {
          "name": "role",
          "type": "bytes32",
          "internalType": "bytes32"
        },
        {
          "name": "callerConfirmation",
          "type": "address",
          "internalType": "address"
        }
      ],
      "outputs": [],
      "stateMutability": "nonpayable"
    },
    {
      "type": "function",
      "name": "revokeRole",
      "inputs": [
        {
          "name": "role",
          "type": "bytes32",
          "internalType": "bytes32"
        },
        {
          "name": "account",
          "type": "address",
          "internalType": "address"
        }
      ],
      "outputs": [],
      "stateMutability": "nonpayable"
    },
    {
      "type": "function",
      "name": "setFeeData",
      "inputs": [
        {
          "name": "depositFee",
          "type": "uint8",
          "internalType": "uint8"
        },
        {
          "name": "WithdrawFee",
          "type": "uint8",
          "internalType": "uint8"
        }
      ],
      "outputs": [],
      "stateMutability": "nonpayable"
    },
    {
      "type": "function",
      "name": "supportsInterface",
      "inputs": [
        {
          "name": "interfaceId",
          "type": "bytes4",
          "internalType": "bytes4"
        }
      ],
      "outputs": [
        {
          "name": "",
          "type": "bool",
          "internalType": "bool"
        }
      ],
      "stateMutability": "view"
    },
    {
      "type": "function",
      "name": "swapUserQueueBuy",
      "inputs": [
        {
          "name": "_user",
          "type": "address",
          "internalType": "address"
        },
        {
          "name": "tokensData",
          "type": "bytes",
          "internalType": "bytes"
        }
      ],
      "outputs": [],
      "stateMutability": "nonpayable"
    },
    {
      "type": "function",
      "name": "tokens",
      "inputs": [
        {
          "name": "",
          "type": "uint256",
          "internalType": "uint256"
        }
      ],
      "outputs": [
        {
          "name": "",
          "type": "address",
          "internalType": "address"
        }
      ],
      "stateMutability": "view"
    },
    {
      "type": "function",
      "name": "tokensList",
      "inputs": [],
      "outputs": [
        {
          "name": "",
          "type": "address[]",
          "internalType": "address[]"
        }
      ],
      "stateMutability": "view"
    },
    {
      "type": "function",
      "name": "updateSlippageTolerance",
      "inputs": [
        {
          "name": "_slippageTolerance",
          "type": "uint256",
          "internalType": "uint256"
        }
      ],
      "outputs": [],
      "stateMutability": "nonpayable"
    },
    {
      "type": "function",
      "name": "userTokensBalance",
      "inputs": [
        {
          "name": "_user",
          "type": "address",
          "internalType": "address"
        }
      ],
      "outputs": [
        {
          "name": "",
          "type": "address[]",
          "internalType": "address[]"
        },
        {
          "name": "",
          "type": "uint256[]",
          "internalType": "uint256[]"
        }
      ],
      "stateMutability": "nonpayable"
    },
    {
      "type": "function",
      "name": "userWithdrawWholeFundWETH",
      "inputs": [
        {
          "name": "tokensData",
          "type": "bytes",
          "internalType": "bytes"
        },
        {
          "name": "percentage",
          "type": "uint256",
          "internalType": "uint256"
        }
      ],
      "outputs": [],
      "stateMutability": "nonpayable"
    },
    {
      "type": "function",
      "name": "users",
      "inputs": [
        {
          "name": "",
          "type": "address",
          "internalType": "address"
        }
      ],
      "outputs": [
        {
          "name": "tSharePortfo",
          "type": "uint256",
          "internalType": "uint256"
        },
        {
          "name": "wethValueFirst",
          "type": "uint256",
          "internalType": "uint256"
        },
        {
          "name": "usdtValueFirst",
          "type": "uint256",
          "internalType": "uint256"
        },
        {
          "name": "round",
          "type": "uint256",
          "internalType": "uint256"
        }
      ],
      "stateMutability": "view"
    },
    {
      "type": "function",
      "name": "usersList",
      "inputs": [],
      "outputs": [
        {
          "name": "",
          "type": "address[]",
          "internalType": "address[]"
        }
      ],
      "stateMutability": "view"
    },
    {
      "type": "function",
      "name": "withdrawAccumulatedFees",
      "inputs": [],
      "outputs": [],
      "stateMutability": "nonpayable"
    },
    {
      "type": "function",
      "name": "withdrawAllInKind",
      "inputs": [],
      "outputs": [],
      "stateMutability": "nonpayable"
    },
    {
      "type": "function",
      "name": "withdrawETH",
      "inputs": [],
      "outputs": [],
      "stateMutability": "nonpayable"
    },
    {
      "type": "event",
      "name": "AMTout",
      "inputs": [
        {
          "name": "amtOut",
          "type": "uint256",
          "indexed": false,
          "internalType": "uint256"
        }
      ],
      "anonymous": false
    },
    {
      "type": "event",
      "name": "Balance",
      "inputs": [
        {
          "name": "sender",
          "type": "address",
          "indexed": false,
          "internalType": "address"
        },
        {
          "name": "bal",
          "type": "uint256",
          "indexed": false,
          "internalType": "uint256"
        }
      ],
      "anonymous": false
    },
    {
      "type": "event",
      "name": "CurrentValuesSet",
      "inputs": [
        {
          "name": "currentUSD",
          "type": "uint256",
          "indexed": false,
          "internalType": "uint256"
        },
        {
          "name": "tokens",
          "type": "address[]",
          "indexed": false,
          "internalType": "address[]"
        },
        {
          "name": "tUSD",
          "type": "uint256[]",
          "indexed": false,
          "internalType": "uint256[]"
        }
      ],
      "anonymous": false
    },
    {
      "type": "event",
      "name": "DepositReceived",
      "inputs": [
        {
          "name": "user",
          "type": "address",
          "indexed": true,
          "internalType": "address"
        },
        {
          "name": "amount",
          "type": "uint256",
          "indexed": false,
          "internalType": "uint256"
        }
      ],
      "anonymous": false
    },
    {
      "type": "event",
      "name": "FeeReceived",
      "inputs": [
        {
          "name": "owner",
          "type": "address",
          "indexed": true,
          "internalType": "address"
        },
        {
          "name": "amount",
          "type": "uint256",
          "indexed": false,
          "internalType": "uint256"
        }
      ],
      "anonymous": false
    },
    {
      "type": "event",
      "name": "FeesWithdrawn",
      "inputs": [
        {
          "name": "owner",
          "type": "address",
          "indexed": true,
          "internalType": "address"
        },
        {
          "name": "amount",
          "type": "uint256",
          "indexed": false,
          "internalType": "uint256"
        },
        {
          "name": "tokenType",
          "type": "string",
          "indexed": false,
          "internalType": "string"
        }
      ],
      "anonymous": false
    },
    {
      "type": "event",
      "name": "FundsRecieved",
      "inputs": [
        {
          "name": "sender",
          "type": "address",
          "indexed": true,
          "internalType": "address"
        },
        {
          "name": "ethAmount",
          "type": "uint256",
          "indexed": false,
          "internalType": "uint256"
        }
      ],
      "anonymous": false
    },
    {
      "type": "event",
      "name": "InitValuesSet",
      "inputs": [
        {
          "name": "initUSD",
          "type": "uint256",
          "indexed": false,
          "internalType": "uint256"
        },
        {
          "name": "tokens",
          "type": "address[]",
          "indexed": false,
          "internalType": "address[]"
        },
        {
          "name": "tUSD",
          "type": "uint256[]",
          "indexed": false,
          "internalType": "uint256[]"
        }
      ],
      "anonymous": false
    },
    {
      "type": "event",
      "name": "PRICE",
      "inputs": [
        {
          "name": "price",
          "type": "uint256",
          "indexed": false,
          "internalType": "uint256"
        }
      ],
      "anonymous": false
    },
    {
      "type": "event",
      "name": "Paused",
      "inputs": [
        {
          "name": "account",
          "type": "address",
          "indexed": false,
          "internalType": "address"
        }
      ],
      "anonymous": false
    },
    {
      "type": "event",
      "name": "Pool",
      "inputs": [
        {
          "name": "pool",
          "type": "address",
          "indexed": false,
          "internalType": "address"
        }
      ],
      "anonymous": false
    },
    {
      "type": "event",
      "name": "PortfoTokenBalances",
      "inputs": [
        {
          "name": "daiCount",
          "type": "uint256",
          "indexed": false,
          "internalType": "uint256"
        }
      ],
      "anonymous": false
    },
    {
      "type": "event",
      "name": "PortfoTokenInitialUSDTPrices",
      "inputs": [
        {
          "name": "daiInitialUsdtPrice",
          "type": "uint256",
          "indexed": false,
          "internalType": "uint256"
        }
      ],
      "anonymous": false
    },
    {
      "type": "event",
      "name": "PortfoTokenPricesETH",
      "inputs": [
        {
          "name": "daiETHPrice",
          "type": "uint256",
          "indexed": false,
          "internalType": "uint256"
        }
      ],
      "anonymous": false
    },
    {
      "type": "event",
      "name": "Rebalanced",
      "inputs": [
        {
          "name": "OccureTime",
          "type": "uint256",
          "indexed": false,
          "internalType": "uint256"
        }
      ],
      "anonymous": false
    },
    {
      "type": "event",
      "name": "RemovedFromWhitelist",
      "inputs": [
        {
          "name": "account",
          "type": "address",
          "indexed": true,
          "internalType": "address"
        }
      ],
      "anonymous": false
    },
    {
      "type": "event",
      "name": "RoleAdminChanged",
      "inputs": [
        {
          "name": "role",
          "type": "bytes32",
          "indexed": true,
          "internalType": "bytes32"
        },
        {
          "name": "previousAdminRole",
          "type": "bytes32",
          "indexed": true,
          "internalType": "bytes32"
        },
        {
          "name": "newAdminRole",
          "type": "bytes32",
          "indexed": true,
          "internalType": "bytes32"
        }
      ],
      "anonymous": false
    },
    {
      "type": "event",
      "name": "RoleGranted",
      "inputs": [
        {
          "name": "role",
          "type": "bytes32",
          "indexed": true,
          "internalType": "bytes32"
        },
        {
          "name": "account",
          "type": "address",
          "indexed": true,
          "internalType": "address"
        },
        {
          "name": "sender",
          "type": "address",
          "indexed": true,
          "internalType": "address"
        }
      ],
      "anonymous": false
    },
    {
      "type": "event",
      "name": "RoleRevoked",
      "inputs": [
        {
          "name": "role",
          "type": "bytes32",
          "indexed": true,
          "internalType": "bytes32"
        },
        {
          "name": "account",
          "type": "address",
          "indexed": true,
          "internalType": "address"
        },
        {
          "name": "sender",
          "type": "address",
          "indexed": true,
          "internalType": "address"
        }
      ],
      "anonymous": false
    },
    {
      "type": "event",
      "name": "SQRTPriceX",
      "inputs": [
        {
          "name": "SQRT",
          "type": "uint256",
          "indexed": false,
          "internalType": "uint256"
        }
      ],
      "anonymous": false
    },
    {
      "type": "event",
      "name": "ShowDepositedTokensData",
      "inputs": [
        {
          "name": "tokenIn",
          "type": "address[]",
          "indexed": false,
          "internalType": "address[]"
        },
        {
          "name": "tokenOut",
          "type": "address[]",
          "indexed": false,
          "internalType": "address[]"
        }
      ],
      "anonymous": false
    },
    {
      "type": "event",
      "name": "ShowTokensDataEvent",
      "inputs": [
        {
          "name": "pool",
          "type": "address[]",
          "indexed": false,
          "internalType": "address[]"
        },
        {
          "name": "uniV",
          "type": "uint8[]",
          "indexed": false,
          "internalType": "uint8[]"
        }
      ],
      "anonymous": false
    },
    {
      "type": "event",
      "name": "SwapFailed",
      "inputs": [
        {
          "name": "user",
          "type": "address",
          "indexed": true,
          "internalType": "address"
        },
        {
          "name": "amount",
          "type": "uint256",
          "indexed": false,
          "internalType": "uint256"
        },
        {
          "name": "tokenName",
          "type": "string",
          "indexed": false,
          "internalType": "string"
        },
        {
          "name": "reason",
          "type": "string",
          "indexed": false,
          "internalType": "string"
        }
      ],
      "anonymous": false
    },
    {
      "type": "event",
      "name": "SwapSuccessful",
      "inputs": [
        {
          "name": "user",
          "type": "address",
          "indexed": true,
          "internalType": "address"
        },
        {
          "name": "wethAmountPerToken",
          "type": "uint256",
          "indexed": false,
          "internalType": "uint256"
        },
        {
          "name": "receivedTokenAmount",
          "type": "int256",
          "indexed": false,
          "internalType": "int256"
        },
        {
          "name": "tokenName",
          "type": "string",
          "indexed": false,
          "internalType": "string"
        },
        {
          "name": "uniswapV",
          "type": "string",
          "indexed": false,
          "internalType": "string"
        }
      ],
      "anonymous": false
    },
    {
      "type": "event",
      "name": "TOTALETH",
      "inputs": [
        {
          "name": "Total",
          "type": "uint256",
          "indexed": false,
          "internalType": "uint256"
        },
        {
          "name": "admin",
          "type": "address",
          "indexed": false,
          "internalType": "address"
        },
        {
          "name": "ContractBalance",
          "type": "uint256",
          "indexed": false,
          "internalType": "uint256"
        }
      ],
      "anonymous": false
    },
    {
      "type": "event",
      "name": "TokenData",
      "inputs": [
        {
          "name": "route",
          "type": "address",
          "indexed": false,
          "internalType": "address"
        },
        {
          "name": "tokenOut",
          "type": "address",
          "indexed": false,
          "internalType": "address"
        },
        {
          "name": "usdVal",
          "type": "uint256",
          "indexed": false,
          "internalType": "uint256"
        },
        {
          "name": "wethVal",
          "type": "uint256",
          "indexed": false,
          "internalType": "uint256"
        },
        {
          "name": "uniV",
          "type": "uint8",
          "indexed": false,
          "internalType": "uint8"
        }
      ],
      "anonymous": false
    },
    {
      "type": "event",
      "name": "TokenDataBytes",
      "inputs": [
        {
          "name": "tokenData",
          "type": "bytes",
          "indexed": false,
          "internalType": "bytes"
        }
      ],
      "anonymous": false
    },
    {
      "type": "event",
      "name": "TokenRemoved",
      "inputs": [
        {
          "name": "tokens",
          "type": "address",
          "indexed": false,
          "internalType": "address"
        }
      ],
      "anonymous": false
    },
    {
      "type": "event",
      "name": "TokenSharesUpdated",
      "inputs": [
        {
          "name": "status",
          "type": "bool",
          "indexed": false,
          "internalType": "bool"
        }
      ],
      "anonymous": false
    },
    {
      "type": "event",
      "name": "TokensAdded",
      "inputs": [
        {
          "name": "addedTokens",
          "type": "address[]",
          "indexed": false,
          "internalType": "address[]"
        }
      ],
      "anonymous": false
    },
    {
      "type": "event",
      "name": "TokensList",
      "inputs": [
        {
          "name": "list",
          "type": "address[]",
          "indexed": false,
          "internalType": "address[]"
        }
      ],
      "anonymous": false
    },
    {
      "type": "event",
      "name": "TokensWithdrawAllInKindEvent",
      "inputs": [
        {
          "name": "token",
          "type": "address",
          "indexed": false,
          "internalType": "address"
        },
        {
          "name": "bal",
          "type": "uint256",
          "indexed": false,
          "internalType": "uint256"
        }
      ],
      "anonymous": false
    },
    {
      "type": "event",
      "name": "Unpaused",
      "inputs": [
        {
          "name": "account",
          "type": "address",
          "indexed": false,
          "internalType": "address"
        }
      ],
      "anonymous": false
    },
    {
      "type": "event",
      "name": "UserAdded",
      "inputs": [
        {
          "name": "user",
          "type": "address",
          "indexed": true,
          "internalType": "address"
        }
      ],
      "anonymous": false
    },
    {
      "type": "event",
      "name": "UserTokenBalance",
      "inputs": [
        {
          "name": "token",
          "type": "address",
          "indexed": false,
          "internalType": "address"
        },
        {
          "name": "round",
          "type": "uint256",
          "indexed": false,
          "internalType": "uint256"
        },
        {
          "name": "tokenbalance",
          "type": "uint256",
          "indexed": false,
          "internalType": "uint256"
        }
      ],
      "anonymous": false
    },
    {
      "type": "event",
      "name": "UserTokenBalance",
      "inputs": [
        {
          "name": "user",
          "type": "address",
          "indexed": false,
          "internalType": "address"
        },
        {
          "name": "token",
          "type": "address",
          "indexed": false,
          "internalType": "address"
        },
        {
          "name": "userTokenBalance",
          "type": "uint256",
          "indexed": false,
          "internalType": "uint256"
        }
      ],
      "anonymous": false
    },
    {
      "type": "event",
      "name": "UserTokenBalanceRound",
      "inputs": [
        {
          "name": "user",
          "type": "address",
          "indexed": false,
          "internalType": "address"
        },
        {
          "name": "token",
          "type": "address",
          "indexed": false,
          "internalType": "address"
        },
        {
          "name": "round",
          "type": "uint256",
          "indexed": false,
          "internalType": "uint256"
        },
        {
          "name": "userTokenBalance",
          "type": "uint256",
          "indexed": false,
          "internalType": "uint256"
        }
      ],
      "anonymous": false
    },
    {
      "type": "event",
      "name": "UserTokensBalance",
      "inputs": [
        {
          "name": "user",
          "type": "address",
          "indexed": false,
          "internalType": "address"
        },
        {
          "name": "tokens",
          "type": "address[]",
          "indexed": false,
          "internalType": "address[]"
        },
        {
          "name": "userTokensBalance",
          "type": "uint256[]",
          "indexed": false,
          "internalType": "uint256[]"
        }
      ],
      "anonymous": false
    },
    {
      "type": "event",
      "name": "UserWhitelisted",
      "inputs": [
        {
          "name": "account",
          "type": "address",
          "indexed": true,
          "internalType": "address"
        }
      ],
      "anonymous": false
    },
    {
      "type": "event",
      "name": "V3ETH",
      "inputs": [
        {
          "name": "isV3",
          "type": "bool",
          "indexed": false,
          "internalType": "bool"
        }
      ],
      "anonymous": false
    },
    {
      "type": "event",
      "name": "WETHVALUE",
      "inputs": [
        {
          "name": "wethVal",
          "type": "uint256",
          "indexed": false,
          "internalType": "uint256"
        }
      ],
      "anonymous": false
    },
    {
      "type": "event",
      "name": "WethBalanceAdmin",
      "inputs": [
        {
          "name": "wethBalance",
          "type": "uint256",
          "indexed": false,
          "internalType": "uint256"
        },
        {
          "name": "admin",
          "type": "address",
          "indexed": false,
          "internalType": "address"
        }
      ],
      "anonymous": false
    },
    {
      "type": "event",
      "name": "WithdrawEvent",
      "inputs": [
        {
          "name": "user",
          "type": "address",
          "indexed": false,
          "internalType": "address"
        },
        {
          "name": "withAmt",
          "type": "int256",
          "indexed": false,
          "internalType": "int256"
        }
      ],
      "anonymous": false
    },
    {
      "type": "event",
      "name": "WithdrawEvent",
      "inputs": [
        {
          "name": "token",
          "type": "address",
          "indexed": false,
          "internalType": "address"
        },
        {
          "name": "withAmt",
          "type": "uint256",
          "indexed": false,
          "internalType": "uint256"
        }
      ],
      "anonymous": false
    },
    {
      "type": "event",
      "name": "handleSwapEvent",
      "inputs": [
        {
          "name": "amount",
          "type": "uint256",
          "indexed": false,
          "internalType": "uint256"
        },
        {
          "name": "tokenIn",
          "type": "address",
          "indexed": false,
          "internalType": "address"
        },
        {
          "name": "tokenOut",
          "type": "address",
          "indexed": false,
          "internalType": "address"
        },
        {
          "name": "minAmtOut",
          "type": "uint256",
          "indexed": false,
          "internalType": "uint256"
        }
      ],
      "anonymous": false
    },
    {
      "type": "event",
      "name": "handleSwapEventAmtOut",
      "inputs": [
        {
          "name": "minAmtOut",
          "type": "uint256[]",
          "indexed": false,
          "internalType": "uint256[]"
        },
        {
          "name": "pairAddress",
          "type": "address[]",
          "indexed": false,
          "internalType": "address[]"
        }
      ],
      "anonymous": false
    },
    {
      "type": "event",
      "name": "handleTokenToTokenSwapEvent",
      "inputs": [
        {
          "name": "token",
          "type": "address",
          "indexed": false,
          "internalType": "address"
        },
        {
          "name": "userTokenBalance",
          "type": "uint256",
          "indexed": false,
          "internalType": "uint256"
        },
        {
          "name": "tokenOut",
          "type": "address",
          "indexed": false,
          "internalType": "address"
        }
      ],
      "anonymous": false
    },
    {
      "type": "event",
      "name": "handleWETHToTokenSwapEvent",
      "inputs": [
        {
          "name": "token",
          "type": "address",
          "indexed": false,
          "internalType": "address"
        },
        {
          "name": "ethAmtPerToken",
          "type": "uint256",
          "indexed": false,
          "internalType": "uint256"
        },
        {
          "name": "tokenOut",
          "type": "address",
          "indexed": false,
          "internalType": "address"
        }
      ],
      "anonymous": false
    },
    {
      "type": "event",
      "name": "howMuch",
      "inputs": [
        {
          "name": "sender",
          "type": "address",
          "indexed": true,
          "internalType": "address"
        },
        {
          "name": "amt",
          "type": "uint256",
          "indexed": false,
          "internalType": "uint256"
        }
      ],
      "anonymous": false
    },
    {
      "type": "event",
      "name": "withdrawAllInKindEvent",
      "inputs": [
        {
          "name": "token",
          "type": "address",
          "indexed": false,
          "internalType": "address"
        },
        {
          "name": "remained",
          "type": "uint256",
          "indexed": false,
          "internalType": "uint256"
        }
      ],
      "anonymous": false
    },
    {
      "type": "event",
      "name": "withdrawInKindEvent",
      "inputs": [
        {
          "name": "token",
          "type": "address",
          "indexed": false,
          "internalType": "address"
        },
        {
          "name": "beforeWithAmt",
          "type": "uint256",
          "indexed": false,
          "internalType": "uint256"
        },
        {
          "name": "withAmt",
          "type": "uint256",
          "indexed": false,
          "internalType": "uint256"
        },
        {
          "name": "remained",
          "type": "uint256",
          "indexed": false,
          "internalType": "uint256"
        }
      ],
      "anonymous": false
    },
    {
      "type": "error",
      "name": "AccessControlBadConfirmation",
      "inputs": []
    },
    {
      "type": "error",
      "name": "AccessControlUnauthorizedAccount",
      "inputs": [
        {
          "name": "account",
          "type": "address",
          "internalType": "address"
        },
        {
          "name": "neededRole",
          "type": "bytes32",
          "internalType": "bytes32"
        }
      ]
    },
    {
      "type": "error",
      "name": "EnforcedPause",
      "inputs": []
    },
    {
      "type": "error",
      "name": "ExpectedPause",
      "inputs": []
    },
    {
      "type": "error",
      "name": "ReentrancyGuardReentrantCall",
      "inputs": []
    }
  ],
  "bytecode": {
    "object": "0x60e06040527ff23ec0bb4210edd5cba85afd05127efcd2fc6a781bfed49188da1081670b22d86003556004805461ffff191660641790556103e860085534801561004857600080fd5b5060016000819055805460ff191690556004805462010000600160b01b03191633620100000217815573edf6066a2b290c185783862c7f4776a2c8077ad160a0819052604080516315ab88c960e31b81529051919263ad5c46489282820192602092908290030181865afa1580156100c4573d6000803e3d6000fd5b505050506040513d601f19601f820116820180604052508101906100e8919061021d565b6001600160a01b03908116608081905260c052600454610111916000916201000090041661016d565b5060035460045461013191906201000090046001600160a01b031661016d565b506040805180820190915260045461ffff168082526020909101819052600f805463ffffffff191682176201000090920291909117905561024d565b60008281526002602090815260408083206001600160a01b038516845290915281205460ff166102135760008381526002602090815260408083206001600160a01b03861684529091529020805460ff191660011790556101cb3390565b6001600160a01b0316826001600160a01b0316847f2f8788117e7eff1d82e926ec794901d17c78024a50270940304540a733656f0d60405160405180910390a4506001610217565b5060005b92915050565b60006020828403121561022f57600080fd5b81516001600160a01b038116811461024657600080fd5b9392505050565b60805160a05160c051615ffe61030f600039600081816115900152818161186601528181612611015261269f015260006143f1015260008181610ba701528181610eb8015281816111e00152818161166d0152818161194301528181611af301528181611f8501528181611ff501528181612151015281816122110152818161299f01528181612ce801528181613424015281816134a60152818161352c01528181613aed01528181613e7c01528181613fa401526143970152615ffe6000f3fe6080604052600436106102065760003560e01c80634ae05c7d11610117578063a2ae2770116100a5578063d547741f1161006c578063d547741f1461063e578063e086e5ec1461065e578063f6326fb314610673578063fc228e6b1461067b578063ff59bcd01461069b57005b8063a2ae277014610564578063a87430ba14610584578063b5503e94146105e9578063bd5dc20214610609578063cece89931461061e57005b806377b6af52116100e957806377b6af52146104e557806378d254b1146104fa57806391d148541461050f57806399303e9d1461052f578063a217fddf1461054f57005b80634ae05c7d146104625780634f64b2be146104825780635c975abb146104ba5780635d303519146104d257005b8063291d9549116101945780632f2ff15d116101665780632f2ff15d146103c257806331038fbd146103e257806336568abe1461040f5780633f5cc4681461042f57806346cdf2f11461044f57005b8063291d9549146103655780632c30ad5b146103855780632e185ec71461039a5780632e5a247f146103af57005b8063248a9ca3116101d8578063248a9ca3146102a4578063252aa530146102e2578063256e75a814610302578063265193731461032557806327cdd8f91461034557005b806301ffc9a71461020f5780630f9da7431461024457806310154bad1461026457806311dc47031461028457005b3661020d57005b005b34801561021b57600080fd5b5061022f61022a36600461511b565b6106bb565b60405190151581526020015b60405180910390f35b34801561025057600080fd5b5061020d61025f366004615145565b6106f2565b34801561027057600080fd5b5061020d61027f366004615173565b610704565b34801561029057600080fd5b5061020d61029f366004615145565b610736565b3480156102b057600080fd5b506102d46102bf366004615145565b60009081526002602052604090206001015490565b60405190815260200161023b565b3480156102ee57600080fd5b5061020d6102fd36600461519e565b6107a4565b34801561030e57600080fd5b506103176107ca565b60405161023b929190615232565b34801561033157600080fd5b5061020d61034036600461531c565b6109af565b34801561035157600080fd5b50610317610360366004615173565b610f49565b34801561037157600080fd5b5061020d610380366004615173565b611051565b34801561039157600080fd5b5061020d611075565b3480156103a657600080fd5b5061020d611189565b6102d46103bd366004615360565b6112d0565b3480156103ce57600080fd5b5061020d6103dd366004615394565b611370565b3480156103ee57600080fd5b506104026103fd366004615173565b61139b565b60405161023b91906153b9565b34801561041b57600080fd5b5061020d61042a366004615394565b611414565b34801561043b57600080fd5b5061020d61044a3660046153db565b611447565b61020d61045d366004615145565b611512565b34801561046e57600080fd5b5061020d61047d366004615409565b61174a565b34801561048e57600080fd5b506104a261049d366004615145565b6117c2565b6040516001600160a01b03909116815260200161023b565b3480156104c657600080fd5b5060015460ff1661022f565b61020d6104e036600461547e565b6117ec565b3480156104f157600080fd5b50610402611b23565b34801561050657600080fd5b5061020d611b85565b34801561051b57600080fd5b5061022f61052a366004615394565b611ee5565b34801561053b57600080fd5b5061020d61054a3660046154c4565b611f10565b34801561055b57600080fd5b506102d4600081565b34801561057057600080fd5b5061020d61057f3660046154fd565b61207a565b34801561059057600080fd5b506105c961059f366004615173565b600c6020526000908152604090206003810154600f82015460108301546011909301549192909184565b60408051948552602085019390935291830152606082015260800161023b565b3480156105f557600080fd5b506102d4610604366004615531565b61227e565b34801561061557600080fd5b506104026122dd565b34801561062a57600080fd5b50610317610639366004615173565b61233d565b34801561064a57600080fd5b5061020d610659366004615394565b61250f565b34801561066a57600080fd5b5061020d612534565b61020d6125cf565b34801561068757600080fd5b5061020d6106963660046154fd565b61275c565b3480156106a757600080fd5b5061020d6106b6366004615582565b612eb4565b60006001600160e01b03198216637965db0b60e01b14806106ec57506301ffc9a760e01b6001600160e01b03198316145b92915050565b6003546106fe81612ef6565b50600855565b60035461071081612ef6565b61071982612f00565b610731600080516020615fa983398151915283612f87565b505050565b604051630f5a905960e11b81526007600482015260248101829052731a84415a04a98af6dbc477875dd9edbf6df1337790631eb520b2906044015b60006040518083038186803b15801561078957600080fd5b505af415801561079d573d6000803e3d6000fd5b5050505050565b6003546107b081612ef6565b81156107c2576107be61301b565b5050565b6107be61306f565b6060806000600780548060200260200160405190810160405280929190818152602001828054801561082557602002820191906000526020600020905b81546001600160a01b03168152600190910190602001808311610807575b5050505050905080516001600160401b0381111561084557610845615257565b60405190808252806020026020018201604052801561086e578160200160208202803683370190505b50925080516001600160401b0381111561088a5761088a615257565b6040519080825280602002602001820160405280156108b3578160200160208202803683370190505b50915060005b81518110156109a9578181815181106108d4576108d4615619565b60200260200101518482815181106108ee576108ee615619565b60200260200101906001600160a01b031690816001600160a01b03168152505061098482828151811061092357610923615619565b6020026020010151600c600085858151811061094157610941615619565b60200260200101516001600160a01b03166001600160a01b03168152602001908152602001600020600d01600060018152602001908152602001600020546130a8565b83828151811061099657610996615619565b60209081029190910101526001016108b9565b50509091565b600080516020615fa98339815191526109c781612ef6565b6109cf6130fa565b6109d7613120565b6000821180156109e8575060648211155b610a2e5760405162461bcd60e51b8152602060048201526012602482015271496e76616c69642070657263656e7461676560701b60448201526064015b60405180910390fd5b60008080610a3b8661314a565b9250509150600080610a4c33610f49565b91509150600080610a5b61359a565b90925090506000610a6f6127106064615645565b612710610a7c8c85615645565b610a869190615645565b610a909190615672565b905060005b8551811015610e49576000610aad6127106064615645565b612710878481518110610ac257610ac2615619565b6020026020010151878581518110610adc57610adc615619565b6020026020010151610aee9190615645565b610af89190615645565b610b029190615672565b90506000610b136127106064615645565b6127108e898681518110610b2957610b29615619565b6020026020010151610b3b9190615645565b610b459190615645565b610b4f9190615672565b905083821115610d1e57336000908152600c602052604081208b51610bf8919084908e9088908110610b8357610b83615619565b60200260200101518c8881518110610b9d57610b9d615619565b60200260200101517f00000000000000000000000000000000000000000000000000000000000000008f8a81518110610bd857610bd8615619565b602002602001015160ff16600314610bf1576000613757565b6001613757565b905060015b336000908152600c60205260409020601101548111610ca257336000908152600c602052604081208b518592600590920191908d9089908110610c4257610c42615619565b60200260200101516001600160a01b03166001600160a01b0316815260200190815260200160002060008381526020019081526020016000206000828254610c8a9190615686565b90915550819050610c9a81615699565b915050610bfd565b50336000908152600c602052604081208a518492600490920191908c9088908110610ccf57610ccf615619565b60200260200101516001600160a01b03166001600160a01b031681526020019081526020016000206000828254610d069190615686565b90915550610d169050818d6156b2565b9b5050610e3f565b336000908152600c602052604081208b51610d48919084908e9088908110610b8357610b83615619565b905060015b336000908152600c60205260409020601101548111610de157336000908152600c602052604081208b5160059091019082908d9089908110610d9157610d91615619565b60200260200101516001600160a01b03166001600160a01b031681526020019081526020016000206000838152602001908152602001600020819055508080610dd990615699565b915050610d4d565b50336000908152600c602052604081208a5160049091019082908c9088908110610e0d57610e0d615619565b6020908102919091018101516001600160a01b0316825281019190915260400160002055610e3b818d6156b2565b9b50505b5050600101610a95565b506000610e578960026112d0565b905060008111610e9c5760405162461bcd60e51b815260206004820152601060248201526f0aed2e8d0c8e4c2ee74409cde408aa8960831b6044820152606401610a25565b60405163a9059cbb60e01b8152336004820152602481018290527f00000000000000000000000000000000000000000000000000000000000000006001600160a01b03169063a9059cbb906044016020604051808303816000875af1158015610f09573d6000803e3d6000fd5b505050506040513d601f19601f82011682018060405250810190610f2d91906156c5565b50610f3661392a565b5050505050505050506107316001600055565b60608060006005805480602002602001604051908101604052809291908181526020018280548015610fa457602002820191906000526020600020905b81546001600160a01b03168152600190910190602001808311610f86575b50505050509050600081516001600160401b03811115610fc657610fc6615257565b604051908082528060200260200182016040528015610fef578160200160208202803683370190505b50905060005b8251811015611046576110218684838151811061101457611014615619565b6020026020010151613ac5565b82828151811061103357611033615619565b6020908102919091010152600101610ff5565b509094909350915050565b60035461105d81612ef6565b610731600080516020615fa983398151915283613b86565b60035461108181612ef6565b600061108b613bf3565b9050600080828060200190518101906110a491906157c9565b9150915060005b825181101561079d578281815181106110c6576110c6615619565b60200260200101516001600160a01b031663a9059cbb600460029054906101000a90046001600160a01b031684848151811061110457611104615619565b60200260200101516040518363ffffffff1660e01b815260040161113d9291906001600160a01b03929092168252602082015260400190565b6020604051808303816000875af115801561115c573d6000803e3d6000fd5b505050506040513d601f19601f8201168201806040525081019061118091906156c5565b506001016110ab565b60035461119581612ef6565b61119d613120565b600a54156112c357600a805460009091556004805460405163a9059cbb60e01b81526001600160a01b0362010000909204821692810192909252602482018390527f0000000000000000000000000000000000000000000000000000000000000000169063a9059cbb906044016020604051808303816000875af1158015611229573d6000803e3d6000fd5b505050506040513d601f19601f8201168201806040525081019061124d91906156c5565b50600460029054906101000a90046001600160a01b03166001600160a01b03167f9e867e8e0a115b5cb14109a604aecdea04be725ade4a067698956588887b5750826040516112b99181526040602082018190526003908201526208aa8960eb1b606082015260800190565b60405180910390a2505b6112cd6001600055565b50565b600454600090839082906201000090046001600160a01b031633036112f3575060005b6112fd8285613d29565b905080600a600082825461131191906156b2565b9091555050600454604051828152620100009091046001600160a01b0316907fbb527541f6cc244ae00ab689f8c23d072a30a3b4176021df62ea1c2bac8aa2269060200160405180910390a26113678183615686565b95945050505050565b60008281526002602052604090206001015461138b81612ef6565b6113958383612f87565b50505050565b6001600160a01b0381166000908152600c6020908152604091829020600e0180548351818402810184019094528084526060939283018282801561140857602002820191906000526020600020905b81546001600160a01b031681526001909101906020018083116113ea575b50505050509050919050565b6001600160a01b038116331461143d5760405163334bd91960e11b815260040160405180910390fd5b6107318282613b86565b60035461145381612ef6565b61012c60ff84161180159061146d575061012c60ff831611155b6114a95760405162461bcd60e51b815260206004820152600d60248201526c53657420666565203c3d20332560981b6044820152606401610a25565b600f60ff84166000036114d057805463ffff0000191660ff84166201000002178155611395565b8260ff166000036114ee57805461ffff191660ff8516178155611395565b805460ff94851663ffffffff19909116179290931662010000029190911790915550565b60035461151e81612ef6565b341561157957306001600160a01b031663f6326fb3346040518263ffffffff1660e01b81526004016000604051808303818588803b15801561155f57600080fd5b505af1158015611573573d6000803e3d6000fd5b50505050505b6040516370a0823160e01b815233600482015282907f00000000000000000000000000000000000000000000000000000000000000006001600160a01b0316906370a08231906024016020604051808303816000875af11580156115e1573d6000803e3d6000fd5b505050506040513d601f19601f820116820180604052508101906116059190615826565b1161164b5760405162461bcd60e51b8152602060048201526016602482015275131858dac81bd98819195c1bdcda5d08185b5bdd5b9d60521b6044820152606401610a25565b6040516323b872dd60e01b8152336004820152306024820152604481018390527f00000000000000000000000000000000000000000000000000000000000000006001600160a01b0316906323b872dd906064016020604051808303816000875af11580156116be573d6000803e3d6000fd5b505050506040513d601f19601f820116820180604052508101906116e291906156c5565b503415806116ef57508134145b61172f5760405162461bcd60e51b815260206004820152601160248201527015dc9bdb99c8185b5bdd5b9d081cd95b9d607a1b6044820152606401610a25565b816009600082825461174191906156b2565b90915550505050565b60035461175681612ef6565b60005b8281101561139557600584848381811061177557611775615619565b905060200201602081019061178a9190615173565b815460018082018455600093845260209093200180546001600160a01b0319166001600160a01b039290921691909117905501611759565b600581815481106117d257600080fd5b6000918252602090912001546001600160a01b0316905081565b6117f46130fa565b341561184f57306001600160a01b031663f6326fb3346040518263ffffffff1660e01b81526004016000604051808303818588803b15801561183557600080fd5b505af1158015611849573d6000803e3d6000fd5b50505050505b6040516370a0823160e01b815233600482015282907f00000000000000000000000000000000000000000000000000000000000000006001600160a01b0316906370a08231906024016020604051808303816000875af11580156118b7573d6000803e3d6000fd5b505050506040513d601f19601f820116820180604052508101906118db9190615826565b116119215760405162461bcd60e51b8152602060048201526016602482015275131858dac81bd98819195c1bdcda5d08185b5bdd5b9d60521b6044820152606401610a25565b6040516323b872dd60e01b8152336004820152306024820152604481018390527f00000000000000000000000000000000000000000000000000000000000000006001600160a01b0316906323b872dd906064016020604051808303816000875af1158015611994573d6000803e3d6000fd5b505050506040513d601f19601f820116820180604052508101906119b891906156c5565b503415806119c557508134145b611a055760405162461bcd60e51b815260206004820152601160248201527015dc9bdb99c8185b5bdd5b9d081cd95b9d607a1b6044820152606401610a25565b6000806000611a138461314a565b336000908152600c6020526040812060118101805495985093965091945090929190611a3e83615699565b909155508690506000611a528260016112d0565b905080836000016000856011015481526020019081526020016000206000828254611a7d91906156b2565b9091555050600f8301829055306000908152600e6020526040812086516005909101919087908290611ab157611ab1615619565b60200260200101516001600160a01b03166001600160a01b0316815260200190815260200160002054600003611aeb57611aeb8288613d99565b611b198382887f00000000000000000000000000000000000000000000000000000000000000008989613e3c565b5050505050505050565b60606007805480602002602001604051908101604052809291908181526020018280548015611b7b57602002820191906000526020600020905b81546001600160a01b03168152600190910190602001808311611b5d575b5050505050905090565b600080516020615fa9833981519152611b9d81612ef6565b611ba56130fa565b611bad613120565b336000908152600c6020908152604080832060058054835181860281018601909452808452919493909190830182828015611c1157602002820191906000526020600020905b81546001600160a01b03168152600190910190602001808311611bf3575b505050505090506000805b8251811015611ecf576000611c3d3385848151811061101457611014615619565b905080600003611c4d5750611ec7565b611c58816002613d29565b925060015b85601101548111611d18576000866005016000878681518110611c8257611c82615619565b60200260200101516001600160a01b03166001600160a01b031681526020019081526020016000206000838152602001908152602001600020819055506000866004016000878681518110611cd957611cd9615619565b60200260200101516001600160a01b03166001600160a01b03168152602001908152602001600020819055508080611d1090615699565b915050611c5d565b50838281518110611d2b57611d2b615619565b60200260200101516001600160a01b031663a9059cbb338584611d4e9190615686565b6040516001600160e01b031960e085901b1681526001600160a01b03909216600483015260248201526044016020604051808303816000875af1158015611d99573d6000803e3d6000fd5b505050506040513d601f19601f82011682018060405250810190611dbd91906156c5565b50838281518110611dd057611dd0615619565b60209081029190910101516004805460405163a9059cbb60e01b8152620100009091046001600160a01b03908116928201929092526024810186905291169063a9059cbb906044016020604051808303816000875af1158015611e37573d6000803e3d6000fd5b505050506040513d601f19601f82011682018060405250810190611e5b91906156c5565b507f5a8b8a408d12238048a9febf3b2803b72102a8439110af59c063eb5efb963cc8848381518110611e8f57611e8f615619565b60200260200101518483611ea39190615686565b604080516001600160a01b03909316835260208301919091520160405180910390a1505b600101611c1c565b50611ed861392a565b5050506112cd6001600055565b60009182526002602090815260408084206001600160a01b0393909316845291905290205460ff1690565b600354611f1c81612ef6565b6001600160a01b0383166000908152600c60205260408120600e01546001600160401b03811115611f4f57611f4f615257565b604051908082528060200260200182016040528015611f78578160200160208202803683370190505b50905060008151611fa9867f0000000000000000000000000000000000000000000000000000000000000000613ac5565b611fb39190615672565b90506000806000611fc38761314a565b92509250925060005b855181101561206f576001600160a01b0389166000908152600c6020526040902061201b9086867f00000000000000000000000000000000000000000000000000000000000000008787613e3c565b6001600160a01b0389166000908152600c60205260409020600e018054806120455761204561583f565b600082815260209020810160001990810180546001600160a01b0319169055019055600101611fcc565b505050505050505050565b60035461208681612ef6565b600080806120938561314a565b925050915060006120a2613bf3565b9050600080828060200190518101906120bb91906157c9565b9150915060005b825181101561219b5760008282815181106120df576120df615619565b602002602001015190506000811115612192576004546201000090046001600160a01b03166000908152600c602052604081208851612182919084908b908790811061212d5761212d615619565b602002602001015188878151811061214757612147615619565b60200260200101517f00000000000000000000000000000000000000000000000000000000000000008c8981518110610bd857610bd8615619565b905061218e818a6156b2565b9850505b506001016120c2565b50600086116121df5760405162461bcd60e51b815260206004820152601060248201526f0aed2e8d0c8e4c2ee74409cde408aa8960831b6044820152606401610a25565b6004805460405163a9059cbb60e01b81526001600160a01b0362010000909204821692810192909252602482018890527f0000000000000000000000000000000000000000000000000000000000000000169063a9059cbb906044016020604051808303816000875af115801561225a573d6000803e3d6000fd5b505050506040513d601f19601f8201168201806040525081019061206f91906156c5565b60008061228b8484613ac5565b9050600061229884613f70565b6122a29083615645565b905060006122ae61359a565b91506122bd9050816064615645565b6122c961271084615645565b6122d39190615672565b9695505050505050565b60606005805480602002602001604051908101604052809291908181526020018280548015611b7b576020028201919060005260206000209081546001600160a01b03168152600190910190602001808311611b5d575050505050905090565b6060806000612360600460029054906101000a90046001600160a01b0316610f49565b50905080516001600160401b0381111561237c5761237c615257565b6040519080825280602002602001820160405280156123a5578160200160208202803683370190505b50925080516001600160401b038111156123c1576123c1615257565b6040519080825280602002602001820160405280156123ea578160200160208202803683370190505b50915060005b81518110156125085761241c8583838151811061240f5761240f615619565b602002602001015161227e565b83828151811061242e5761242e615619565b60200260200101818152505081818151811061244c5761244c615619565b602002602001015184828151811061246657612466615619565b60200260200101906001600160a01b031690816001600160a01b03168152505082818151811061249857612498615619565b6020026020010151600e6000306001600160a01b03166001600160a01b0316815260200190815260200160002060040160008484815181106124dc576124dc615619565b6020908102919091018101516001600160a01b03168252810191909152604001600020556001016123f0565b5050915091565b60008281526002602052604090206001015461252a81612ef6565b6113958383613b86565b60035461254081612ef6565b60045447906201000090046001600160a01b031633146125a25760405162461bcd60e51b815260206004820152601860248201527f7769746864726177204554483a206f6e6c792061646d696e00000000000000006044820152606401610a25565b604051339082156108fc029083906000818181858888f19350505050158015610731573d6000803e3d6000fd5b6000341161260f5760405162461bcd60e51b815260206004820152600d60248201526c0a6cadcc840e6dedaca408aa89609b1b6044820152606401610a25565b7f00000000000000000000000000000000000000000000000000000000000000006001600160a01b031663d0e30db0346040518263ffffffff1660e01b81526004016000604051808303818588803b15801561266a57600080fd5b505af115801561267e573d6000803e3d6000fd5b505060405163a9059cbb60e01b8152336004820152346024820152600093507f00000000000000000000000000000000000000000000000000000000000000006001600160a01b0316925063a9059cbb91506044016020604051808303816000875af11580156126f2573d6000803e3d6000fd5b505050506040513d601f19601f8201168201806040525081019061271691906156c5565b9050806112cd5760405162461bcd60e51b815260206004820152601460248201527315d15512081d1c985b9cd9995c8819985a5b195960621b6044820152606401610a25565b60035461276881612ef6565b6000612773836140d9565b9050806127b95760405162461bcd60e51b81526020600482015260146024820152734e6f206e65656420746f20726562616c616e636560601b6044820152606401610a25565b6000806127c58561314a565b92505091506000806005805490506001600160401b038111156127ea576127ea615257565b604051908082528060200260200182016040528015612813578160200160208202803683370190505b50905060005b6005548110156129345760006128556005838154811061283b5761283b615619565b6000918252602090912001546001600160a01b0316613f70565b9050806005838154811061286b5761286b615619565b6000918252602090912001546040516370a0823160e01b81523060048201526001600160a01b03909116906370a0823190602401602060405180830381865afa1580156128bc573d6000803e3d6000fd5b505050506040513d601f19601f820116820180604052508101906128e09190615826565b6128ea9190615645565b8383815181106128fc576128fc615619565b60200260200101818152505082828151811061291a5761291a615619565b602002602001015184019350508080600101915050612819565b506005546000906129459084615672565b6005549091506000906001600160401b0381111561296557612965615257565b60405190808252806020026020018201604052801561298e578160200160208202803683370190505b50905060005b81518110156129f0577f00000000000000000000000000000000000000000000000000000000000000008282815181106129d0576129d0615619565b6001600160a01b0390921660209283029190910190910152600101612994565b5060055447906000906001600160401b03811115612a1057612a10615257565b604051908082528060200260200182016040528015612a39578160200160208202803683370190505b506005549091506000906001600160401b03811115612a5a57612a5a615257565b604051908082528060200260200182016040528015612a83578160200160208202803683370190505b50905060005b600554811015612dd35785878281518110612aa657612aa6615619565b60200260200101511115612bab576000612acc6005838154811061283b5761283b615619565b87898481518110612adf57612adf615619565b6020026020010151612af19190615686565b612afb9190615672565b6004546201000090046001600160a01b03166000908152600c6020526040902060058054929350612b569284918f9187908110612b3a57612b3a615619565b6000918252602090912001546001600160a01b03168a8f613e3c565b600754612b639082615672565b848381518110612b7557612b75615619565b6020026020010181815250506000838381518110612b9557612b95615619565b9115156020928302919091019091015250612dcb565b6000612710612c2b60058481548110612bc657612bc6615619565b9060005260206000200160009054906101000a90046001600160a01b03166011600060058781548110612bfb57612bfb615619565b60009182526020808320909101546001600160a01b03908116845290830193909352604090910190205416614203565b612c359190615645565b612710612c4e6005858154811061283b5761283b615619565b8a8581518110612c6057612c60615619565b60200260200101518a612c739190615686565b612c7d9190615672565b612c879190615645565b612c919190615645565b9050806009541015612ca35750612dcb565b6004546201000090046001600160a01b03166000908152600c602052604090208b51612d57919083908e9086908110612cde57612cde615619565b60200260200101517f000000000000000000000000000000000000000000000000000000000000000060058781548110612d1a57612d1a615619565b9060005260206000200160009054906101000a90046001600160a01b03168f8881518110612d4a57612d4a615619565b60200260200101516144a5565b600754612d649082615672565b848381518110612d7657612d76615619565b6020026020010181815250506001838381518110612d9657612d96615619565b91151560209283029190910190910152612db04786615686565b94508460096000828254612dc49190615686565b9091555050505b600101612a89565b5060005b600754811015612e7257612e6a60078281548110612df757612df7615619565b600091825260209182902001546005805460408051828602810186019091528181526001600160a01b0390931693830182828015612e5e57602002820191906000526020600020905b81546001600160a01b03168152600190910190602001808311612e40575b505050505085856144cc565b600101612dd7565b506040514281527fc306af072396b02bf3a9782c10065cc7ff4aa842934a43f0b76f997b291237c89060200160405180910390a1505050505050505050505050565b600354612ec081612ef6565b60005b825181101561073157612eee838281518110612ee157612ee1615619565b6020026020010151614839565b600101612ec3565b6112cd8133614878565b6001600160a01b0381166000908152600b602052604090205460ff166112cd576007805460018181019092557fa66cc928b5edb82af9bd49922954155ab7b0942694bea4ce44661d9a8736c6880180546001600160a01b0384166001600160a01b031990911681179091556000908152600b60205260409020805460ff1916909117905550565b6000612f938383611ee5565b6130135760008381526002602090815260408083206001600160a01b03861684529091529020805460ff19166001179055612fcb3390565b6001600160a01b0316826001600160a01b0316847f2f8788117e7eff1d82e926ec794901d17c78024a50270940304540a733656f0d60405160405180910390a45060016106ec565b5060006106ec565b6130236130fa565b6001805460ff1916811790557f62e78cea01bee320cd4e420270b5ea74000d11b0c9f74754ebdbfc544b05a258335b6040516001600160a01b03909116815260200160405180910390a1565b6130776148b1565b6001805460ff191690557f5db9ee0a495bf2e6ff9c91a7834c1ba4fdd244a5e8aa4e537bd38aeae4b073aa33613052565b60006130b5826064615645565b6001600160a01b0384166000908152600c60209081526040808320838052600d019091529020546130e99061271090615645565b6130f39190615672565b9392505050565b60015460ff161561311e5760405163d93c066560e01b815260040160405180910390fd5b565b60026000540361314357604051633ee5aeb560e01b815260040160405180910390fd5b6002600055565b6060806060838060200190518101906131639190615855565b80518251929550909250146131b35760405162461bcd60e51b8152602060048201526016602482015275082e4e4c2f240d8cadccee8d0e640dad2e6dac2e8c6d60531b6044820152606401610a25565b6000600184516131c39190615686565b6001600160401b038111156131da576131da615257565b604051908082528060200260200182016040528015613203578160200160208202803683370190505b50925060005b84518110156135915784818151811061322457613224615619565b602002602001015191506000826001600160a01b0316630dfe16816040518163ffffffff1660e01b8152600401602060405180830381865afa15801561326e573d6000803e3d6000fd5b505050506040513d601f19601f82011682018060405250810190613292919061592c565b90506000836001600160a01b031663d21220a76040518163ffffffff1660e01b8152600401602060405180830381865afa1580156132d4573d6000803e3d6000fd5b505050506040513d601f19601f820116820180604052508101906132f8919061592c565b90506001600160a01b038116732791bca1f2de4661ed88a30c99a7a9449aa841741461341a578086848151811061333157613331615619565b60200260200101906001600160a01b031690816001600160a01b03168152505086838151811061336357613363615619565b6020908102919091018101516001600160a01b0380841660008181526011909452604090932080549282166001600160a01b0319938416178155600281018054928716928416929092179091556003018054909116909117905584518590849081106133d1576133d1615619565b602002602001015160116000836001600160a01b03166001600160a01b0316815260200190815260200160002060030160146101000a81548160ff021916908360ff1602179055505b6001600160a01b037f000000000000000000000000000000000000000000000000000000000000000081166000908152601160205260409020600101541615801561348157506001600160a01b038116732791bca1f2de4661ed88a30c99a7a9449aa84174145b156135875786838151811061349857613498615619565b6020026020010151601160007f00000000000000000000000000000000000000000000000000000000000000006001600160a01b03166001600160a01b0316815260200190815260200160002060010160006101000a8154816001600160a01b0302191690836001600160a01b0316021790555084838151811061351e5761351e615619565b6020026020010151601160007f00000000000000000000000000000000000000000000000000000000000000006001600160a01b03166001600160a01b0316815260200190815260200160002060030160146101000a81548160ff021916908360ff1602179055505b5050600101613209565b50509193909250565b60606000806005805490506001600160401b038111156135bc576135bc615257565b6040519080825280602002602001820160405280156135e5578160200160208202803683370190505b50905080516001600160401b0381111561360157613601615257565b60405190808252806020026020018201604052801561362a578160200160208202803683370190505b50925060005b6005548110156109a95760006005828154811061364f5761364f615619565b6000918252602090912001546040516370a0823160e01b81523060048201526001600160a01b03909116915081906370a0823190602401602060405180830381865afa1580156136a3573d6000803e3d6000fd5b505050506040513d601f19601f820116820180604052508101906136c79190615826565b8383815181106136d9576136d9615619565b60200260200101818152505060006136fd6005848154811061283b5761283b615619565b84848151811061370f5761370f615619565b60200260200101516137219190615645565b90508086848151811061373657613736615619565b602090810291909101015261374b81866156b2565b94505050600101613630565b60408051600280825260608201835260009283929190602083019080368337019050509050848160008151811061379057613790615619565b60200260200101906001600160a01b031690816001600160a01b03168152505083816001815181106137c4576137c4615619565b6001600160a01b039290921660209283029190910182015260408051600280825260608201835260009391929091830190803683370190505090506000846138d95760405163d06ca61f60e01b815273edf6066a2b290c185783862c7f4776a2c8077ad19063d06ca61f9061383f908c908790600401615949565b600060405180830381865afa15801561385c573d6000803e3d6000fd5b505050506040513d6000823e601f3d908101601f19168201604052613884919081019061596a565b915060008260018151811061389b5761389b615619565b6020026020010151116138af5760006138d2565b6138d2826001815181106138c5576138c5615619565b60200260200101516148d4565b90506138ff565b60006138e5898b6148fd565b90506138f281600a614a0b565b6001600160a01b03169150505b841561391d576139138a8a8a8a8a86614aa0565b93505050506122d3565b6139138a8a898985614d12565b60005b6007548110156112cd5760006007828154811061394c5761394c615619565b60009182526020808320909101546001600160a01b0316808352600c90915260408220909250905b6005548110156139c05760006005828154811061399357613993615619565b60009182526020808320909101546001600160a01b03168252600485019052604081205550600101613974565b506000805b600554811015613ab5576000600582815481106139e4576139e4615619565b60009182526020808320909101546001600160a01b031680835260048701909152604082205490925090613a1783613f70565b9050826001600160a01b031663313ce5676040518163ffffffff1660e01b8152600401602060405180830381865afa158015613a57573d6000803e3d6000fd5b505050506040513d601f19601f82011682018060405250810190613a7b919061599e565b613a8690600a615aa2565b613a908284615645565b613a9a9190615672565b613aa490866156b2565b945050600190920191506139c59050565b50506001909201915061392d9050565b6001600160a01b0382166000908152600c6020526040812060015b81601101548111613b7e577f00000000000000000000000000000000000000000000000000000000000000006001600160a01b0316846001600160a01b031603613b4457600081815260208390526040902054613b3d90846156b2565b9250613b6c565b6001600160a01b0384166000908152600483016020526040902054613b6990846156b2565b92505b80613b7681615699565b915050613ae0565b505092915050565b6000613b928383611ee5565b156130135760008381526002602090815260408083206001600160a01b0386168085529252808320805460ff1916905551339286917ff6391f5c32d9c69d2a47ea670b442974b53935d1edc7fd64eb21e047a839171b9190a45060016106ec565b6005546060906000906001600160401b03811115613c1357613c13615257565b604051908082528060200260200182016040528015613c3c578160200160208202803683370190505b50905060005b600554811015613cff57600060058281548110613c6157613c61615619565b6000918252602090912001546040516370a0823160e01b81523060048201526001600160a01b03909116915081906370a0823190602401602060405180830381865afa158015613cb5573d6000803e3d6000fd5b505050506040513d601f19601f82011682018060405250810190613cd99190615826565b838381518110613ceb57613ceb615619565b602090810291909101015250600101613c42565b50600581604051602001613d14929190615ab1565b60405160208183030381529060405291505090565b6000600f6001836002811115613d4157613d41615b0b565b03613d6b57805461271090613d5a9061ffff1686615645565b613d649190615672565b9150613d92565b805461271090613d859062010000900461ffff1686615645565b613d8f9190615672565b91505b5092915050565b306000908152600e60205260408120839055613db48261314a565b5091505060005b815181101561139557613de6828281518110613dd957613dd9615619565b6020026020010151613f70565b306000908152600e60205260408120845160059091019190859085908110613e1057613e10615619565b6020908102919091018101516001600160a01b0316825281019190915260400160002055600101613dbb565b60005b8251811015613f67576000828281518110613e5c57613e5c615619565b602002602001015160ff16600314613e75576000613e78565b60015b90507f00000000000000000000000000000000000000000000000000000000000000006001600160a01b0316848381518110613eb657613eb6615619565b60200260200101516001600160a01b031614613f1d57613f18888686518a613ede9190615672565b878681518110613ef057613ef0615619565b60200260200101518a8781518110613f0a57613f0a615619565b602002602001015186614fb2565b613f5e565b613f5c8886868581518110613f3457613f34615619565b6020026020010151898681518110613f4e57613f4e615619565b602002602001015185614fc0565b505b50600101613e3f565b50505050505050565b6001600160a01b0380821660009081526011602052604081205490918291613f9a91859116614203565b6001600160a01b037f0000000000000000000000000000000000000000000000000000000000000000811660009081526011602052604081206001015492935091613ffb9173c2132d05d31c914a87c6611c10748aeb04b58e8f9116614203565b90506000846001600160a01b031663313ce5676040518163ffffffff1660e01b8152600401602060405180830381865afa15801561403d573d6000803e3d6000fd5b505050506040513d601f19601f82011682018060405250810190614061919061599e565b90506012600660006140738484615b21565b61407e90600a615aa2565b6140889087615645565b905060006140968385615b21565b6140a190600a615aa2565b6140ab9087615645565b90506140b884600a615aa2565b6140c28284615645565b6140cc9190615672565b9998505050505050505050565b6000806140e58361314a565b509150506000805b82518110156141fb57306000908152600e602052604081208451600590910190829086908590811061412157614121615619565b60200260200101516001600160a01b03166001600160a01b031681526020019081526020016000205490506000614163858481518110613dd957613dd9615619565b9050600061417383612710615b3a565b61417f83612710615b3a565b6141899190615b6a565b9050600061419984612710615b3a565b6141a4836064615b3a565b6141ae9190615b8a565b9050600081126141c9576141c28187615bb8565b95506141d6565b6141d38682615b6a565b95505b600a8612156141e65760006141e9565b60015b975050600190930192506140ed915050565b505050919050565b6000806000846001600160a01b031663313ce5676040518163ffffffff1660e01b8152600401602060405180830381865afa158015614246573d6000803e3d6000fd5b505050506040513d601f19601f8201168201806040525081019061426a919061599e565b90506001600160a01b0384161561432b5760008490506000816001600160a01b0316633850c7bd6040518163ffffffff1660e01b815260040160e060405180830381865afa1580156142c0573d6000803e3d6000fd5b505050506040513d601f19601f820116820180604052508101906142e49190615bef565b50505050505090506000816001600160a01b0316826001600160a01b031661430c9190615645565b9050614321816503782dace9d960d21b615672565b9450505050614490565b600061433b60ff8316600a615c88565b6040805160028082526060820183529293506000929091602083019080368337019050509050868160008151811061437557614375615619565b60200260200101906001600160a01b031690816001600160a01b0316815250507f0000000000000000000000000000000000000000000000000000000000000000816001815181106143c9576143c9615619565b6001600160a01b03928316602091820292909201015260405163d06ca61f60e01b81526000917f0000000000000000000000000000000000000000000000000000000000000000169063d06ca61f906144289086908690600401615949565b600060405180830381865afa158015614445573d6000803e3d6000fd5b505050506040513d6000823e601f3d908101601f1916820160405261446d919081019061596a565b90508060018151811061448257614482615619565b602002602001015194505050505b61449b81600a615aa2565b6113679083615672565b60008160ff166003146144b95760006144bc565b60015b9050611b1987878686898661504a565b60005b60055481101561079d578181815181106144eb576144eb615619565b60200260200101511515600015150361469a5760015b6001600160a01b0386166000908152600c60205260409020601101548111614601576001600160a01b0386166000908152600c6020526040902060110154845185908490811061455357614553615619565b60200260200101516145659190615672565b600c6000886001600160a01b03166001600160a01b0316815260200190815260200160002060050160008785815181106145a1576145a1615619565b60200260200101516001600160a01b03166001600160a01b03168152602001908152602001600020600083815260200190815260200160002060008282546145e99190615686565b909155508190506145f981615699565b915050614501565b5082818151811061461457614614615619565b6020026020010151600c6000876001600160a01b03166001600160a01b03168152602001908152602001600020600401600086848151811061465857614658615619565b60200260200101516001600160a01b03166001600160a01b03168152602001908152602001600020600082825461468f9190615686565b909155506148319050565b60015b6001600160a01b0386166000908152600c6020526040902060110154811161479d576001600160a01b0386166000908152600c602052604090206011015484518590849081106146ef576146ef615619565b60200260200101516147019190615672565b600c6000886001600160a01b03166001600160a01b03168152602001908152602001600020600501600087858151811061473d5761473d615619565b60200260200101516001600160a01b03166001600160a01b031681526020019081526020016000206000838152602001908152602001600020600082825461478591906156b2565b9091555081905061479581615699565b91505061469d565b508281815181106147b0576147b0615619565b6020026020010151600c6000876001600160a01b03166001600160a01b0316815260200190815260200160002060040160008684815181106147f4576147f4615619565b60200260200101516001600160a01b03166001600160a01b03168152602001908152602001600020600082825461482b91906156b2565b90915550505b6001016144cf565b604051630f5a905960e11b81526005600482015260248101829052731a84415a04a98af6dbc477875dd9edbf6df1337790631eb520b290604401610771565b6148828282611ee5565b6107be5760405163e2517d3f60e01b81526001600160a01b038216600482015260248101839052604401610a25565b60015460ff1661311e57604051638dfc202b60e01b815260040160405180910390fd5b60006127106008546127106148e99190615686565b6148f39084615645565b6106ec9190615672565b6000808390506000816001600160a01b0316633850c7bd6040518163ffffffff1660e01b815260040160e060405180830381865afa158015614943573d6000803e3d6000fd5b505050506040513d601f19601f820116820180604052508101906149679190615bef565b50505050505090506000816001600160a01b0316826001600160a01b031661498f9190615645565b9050600160c01b85106149e45760405162461bcd60e51b815260206004820152601e60248201527f657468416d6f756e74506572546f6b656e20697320746f6f206c6172676500006044820152606401610a25565b60006149f486600160601b615645565b9050614a008282615672565b979650505050505050565b6000806064614a1a84826156b2565b614a249086615645565b614a2e9190615672565b905060006064614a3e8582615686565b614a489087615645565b614a529190615672565b90506000614a5f8361505a565b614a6d90600160601b615645565b90506000614a7a8361505a565b614a8890600160601b615645565b90506002614a968284615c94565b614a009190615cb3565b600e860180546001810182556000918252602080832090910180546001600160a01b0319166001600160a01b038781169182179092556040805160c0810182528a8152898416948101948552808201928352878416606082019081528785166080830181815260a084019182529351635e6583af60e11b815292516004840152955185166024830152925184166044820152915183166064830152519091166084820152905160a4820152819073c439194cf13f3812c1888b5635b06c98687f5a399063bccb075e9060c401602060405180830381865af4925050508015614ba5575060408051601f3d908101601f19168201909252614ba291810190615826565b60015b614c3f57614bb1615ce2565b806308c379a003614c085750614bc5615cfe565b80614bd05750614c0a565b33600080516020615f8983398151915285614bea896150b3565b84604051614bfa93929190615dd1565b60405180910390a250614a00565b505b33600080516020615f8983398151915284614c24886150b3565b604051614c32929190615e07565b60405180910390a2614a00565b6001600160a01b038516600090815260098a016020908152604080832060118d0154845290915281205491925082919003614cc2576001600160a01b038516600081815260058b016020908152604080832060118e01548452825280832086905592825260048c0190529081208054849290614cbc9084906156b2565b90915550505b337f9c6004e315787e1885bcde9008594c954fd1a11118bbff03456860197d43d4598984614cef896150b3565b604051614cfe93929190615e55565b60405180910390a250979650505050505050565b600e850180546001810182556000918252602080832090910180546001600160a01b0319166001600160a01b0387811691821790925560408051608081018252898152938401918252868316848201908152606085018781529151635cb0482d60e11b81529451600486015291518316602485015290519091166044830152516064820152819073c439194cf13f3812c1888b5635b06c98687f5a399063b960905a90608401600060405180830381865af4925050508015614df657506040513d6000823e601f3d908101601f19168201604052614df3919081019061596a565b60015b614e9057614e02615ce2565b806308c379a003614e595750614e16615cfe565b80614e215750614e5b565b33600080516020615f8983398151915285614e3b896150b3565b84604051614e4b93929190615e9a565b60405180910390a2506122d3565b505b33600080516020615f8983398151915284614e75886150b3565b604051614e83929190615eb3565b60405180910390a26122d3565b80600181518110614ea357614ea3615619565b6020908102919091018101516001600160a01b038716600090815260098b018352604080822060118d01548352909352918220549093509003614f2e576001600160a01b038516600081815260058a016020908152604080832060118d01548452825280832086905592825260048b0190529081208054849290614f289084906156b2565b90915550505b337f9c6004e315787e1885bcde9008594c954fd1a11118bbff03456860197d43d4598884614f5b896150b3565b604051614f6a93929190615ecc565b60405180910390a287600e01805480614f8557614f8561583f565b600082815260209020810160001990810180546001600160a01b0319169055019055509695505050505050565b613f67868584888786613757565b6001600160a01b038085166000908152600587016020908152604080832060118a01548452909152812054600454919290918391615005916201000090041688613ac5565b821161502c57600454615027906201000090046001600160a01b031688613ac5565b61502e565b815b905061503e8882878a8a89613757565b98975050505050505050565b6000614a00878785888887613757565b600080600261506a8460016156b2565b6150749190615672565b90508291505b818110156150ad579050806002816150928186615672565b61509c91906156b2565b6150a69190615672565b905061507a565b50919050565b6060816001600160a01b03166395d89b416040518163ffffffff1660e01b8152600401600060405180830381865afa1580156150f3573d6000803e3d6000fd5b505050506040513d6000823e601f3d908101601f191682016040526106ec9190810190615f11565b60006020828403121561512d57600080fd5b81356001600160e01b0319811681146130f357600080fd5b60006020828403121561515757600080fd5b5035919050565b6001600160a01b03811681146112cd57600080fd5b60006020828403121561518557600080fd5b81356130f38161515e565b80151581146112cd57600080fd5b6000602082840312156151b057600080fd5b81356130f381615190565b600081518084526020840193506020830160005b828110156151f65781516001600160a01b03168652602095860195909101906001016151cf565b5093949350505050565b600081518084526020840193506020830160005b828110156151f6578151865260209586019590910190600101615214565b60408152600061524560408301856151bb565b82810360208401526113678185615200565b634e487b7160e01b600052604160045260246000fd5b601f8201601f191681016001600160401b038111828210171561529257615292615257565b6040525050565b60006001600160401b038211156152b2576152b2615257565b50601f01601f191660200190565b600082601f8301126152d157600080fd5b81356152dc81615299565b6040516152e9828261526d565b8281528560208487010111156152fe57600080fd5b82602086016020830137600092810160200192909252509392505050565b6000806040838503121561532f57600080fd5b82356001600160401b0381111561534557600080fd5b615351858286016152c0565b95602094909401359450505050565b6000806040838503121561537357600080fd5b8235915060208301356003811061538957600080fd5b809150509250929050565b600080604083850312156153a757600080fd5b8235915060208301356153898161515e565b6020815260006130f360208301846151bb565b60ff811681146112cd57600080fd5b600080604083850312156153ee57600080fd5b82356153f9816153cc565b91506020830135615389816153cc565b6000806020838503121561541c57600080fd5b82356001600160401b0381111561543257600080fd5b8301601f8101851361544357600080fd5b80356001600160401b0381111561545957600080fd5b8560208260051b840101111561546e57600080fd5b6020919091019590945092505050565b6000806040838503121561549157600080fd5b8235915060208301356001600160401b038111156154ae57600080fd5b6154ba858286016152c0565b9150509250929050565b600080604083850312156154d757600080fd5b82356154e28161515e565b915060208301356001600160401b038111156154ae57600080fd5b60006020828403121561550f57600080fd5b81356001600160401b0381111561552557600080fd5b613d8f848285016152c0565b6000806040838503121561554457600080fd5b823561554f8161515e565b915060208301356153898161515e565b60006001600160401b0382111561557857615578615257565b5060051b60200190565b60006020828403121561559457600080fd5b81356001600160401b038111156155aa57600080fd5b8201601f810184136155bb57600080fd5b80356155c68161555f565b6040516155d3828261526d565b80915082815260208101915060208360051b8501019250868311156155f757600080fd5b6020840193505b828410156122d35783358252602093840193909101906155fe565b634e487b7160e01b600052603260045260246000fd5b634e487b7160e01b600052601160045260246000fd5b80820281158282048414176106ec576106ec61562f565b634e487b7160e01b600052601260045260246000fd5b6000826156815761568161565c565b500490565b818103818111156106ec576106ec61562f565b6000600182016156ab576156ab61562f565b5060010190565b808201808211156106ec576106ec61562f565b6000602082840312156156d757600080fd5b81516130f381615190565b600082601f8301126156f357600080fd5b81516156fe8161555f565b60405161570b828261526d565b80915082815260208101915060208360051b86010192508583111561572f57600080fd5b602085015b838110156157555780516157478161515e565b835260209283019201615734565b5095945050505050565b600082601f83011261577057600080fd5b815161577b8161555f565b604051615788828261526d565b80915082815260208101915060208360051b8601019250858311156157ac57600080fd5b602085015b838110156157555780518352602092830192016157b1565b600080604083850312156157dc57600080fd5b82516001600160401b038111156157f257600080fd5b6157fe858286016156e2565b92505060208301516001600160401b0381111561581a57600080fd5b6154ba8582860161575f565b60006020828403121561583857600080fd5b5051919050565b634e487b7160e01b600052603160045260246000fd5b6000806040838503121561586857600080fd5b82516001600160401b0381111561587e57600080fd5b61588a858286016156e2565b92505060208301516001600160401b038111156158a657600080fd5b8301601f810185136158b757600080fd5b80516158c28161555f565b6040516158cf828261526d565b80915082815260208101915060208360051b8501019250878311156158f357600080fd5b6020840193505b8284101561591e57835161590d816153cc565b8252602093840193909101906158fa565b809450505050509250929050565b60006020828403121561593e57600080fd5b81516130f38161515e565b82815260406020820152600061596260408301846151bb565b949350505050565b60006020828403121561597c57600080fd5b81516001600160401b0381111561599257600080fd5b613d8f8482850161575f565b6000602082840312156159b057600080fd5b81516130f3816153cc565b6001815b60018411156159f6578085048111156159da576159da61562f565b60018416156159e857908102905b60019390931c9280026159bf565b935093915050565b600082615a0d575060016106ec565b81615a1a575060006106ec565b8160018114615a305760028114615a3a57615a56565b60019150506106ec565b60ff841115615a4b57615a4b61562f565b50506001821b6106ec565b5060208310610133831016604e8410600b8410161715615a79575081810a6106ec565b615a8660001984846159bb565b8060001904821115615a9a57615a9a61562f565b029392505050565b60006130f360ff8416836159fe565b6040808252835490820181905260008481526020812090916060840190835b81811015615af75783546001600160a01b0316835260019384019360209093019201615ad0565b505083810360208501526122d38186615200565b634e487b7160e01b600052602160045260246000fd5b60ff82811682821603908111156106ec576106ec61562f565b80820260008212600160ff1b84141615615b5657615b5661562f565b81810583148215176106ec576106ec61562f565b8181036000831280158383131683831282161715613d9257613d9261562f565b600082615b9957615b9961565c565b600160ff1b821460001984141615615bb357615bb361562f565b500590565b8082018281126000831280158216821582161715613b7e57613b7e61562f565b805161ffff81168114615bea57600080fd5b919050565b600080600080600080600060e0888a031215615c0a57600080fd5b8751615c158161515e565b8097505060208801518060020b8114615c2d57600080fd5b9550615c3b60408901615bd8565b9450615c4960608901615bd8565b9350615c5760808901615bd8565b925060a0880151615c67816153cc565b60c0890151909250615c7881615190565b8091505092959891949750929550565b60006130f383836159fe565b6001600160a01b0381811683821601908111156106ec576106ec61562f565b60006001600160a01b03831680615ccc57615ccc61565c565b6001600160a01b03929092169190910492915050565b600060033d1115615cfb5760046000803e5060005160e01c5b90565b600060443d1015615d0c5790565b6040513d600319016004823e80513d60248201116001600160401b0382111715615d3557505090565b80820180516001600160401b03811115615d50575050505090565b3d8401600319018282016020011115615d6a575050505090565b615d796020828501018561526d565b509392505050565b60005b83811015615d9c578181015183820152602001615d84565b50506000910152565b60008151808452615dbd816020860160208601615d81565b601f01601f19169290920160200192915050565b6001600160a01b0384168152606060208201819052600090615df590830185615da5565b82810360408401526122d38185615da5565b6001600160a01b0383168152606060208201819052600090615e2b90830184615da5565b828103604084015261136781600b81526a14ddd85c0819985a5b195960aa1b602082015260400190565b838152826020820152608060408201526000615e746080830184615da5565b82810360608401526002815261563360f01b602082015260408101915050949350505050565b838152606060208201526000615df56060830185615da5565b828152606060208201526000615e2b6060830184615da5565b838152826020820152608060408201526000615eeb6080830184615da5565b828103606084015260028152612b1960f11b602082015260408101915050949350505050565b600060208284031215615f2357600080fd5b81516001600160401b03811115615f3957600080fd5b8201601f81018413615f4a57600080fd5b8051615f5581615299565b604051615f62828261526d565b828152866020848601011115615f7757600080fd5b6122d3836020830160208701615d8156fed24517bb053209af5f1d6b05c7180d697782d89045c90b2885f8ac5f3d0e52e7679b4db551486bdc8b8c3d86cea88bd774cea7c203e4aa4e3b39b7bb5f64bc14a2646970667358221220d326b46a9e9d0cf64ed07ea73dceeca357ab98068776ea70f6b77b764a533f5164736f6c634300081a0033",
    "linkReferences": {}
  },
  "methodIdentifiers": {
    "DEFAULT_ADMIN_ROLE()": "a217fddf",
    "addTokens(address[])": "4ae05c7d",
    "addWhitelisted(address)": "10154bad",
    "adminWithdrawWholeFundTokens()": "2c30ad5b",
    "adminWithdrawWholeFundWETH(bytes)": "a2ae2770",
    "calcCurrentTokenShareOfPortfoByToken(address,address)": "b5503e94",
    "calcCurrentTokensShareOfPortfo(address)": "cece8993",
    "calcUsersShareOfTotalPortfo()": "256e75a8",
    "checkSwapQueue(address)": "31038fbd",
    "deposit(uint256,bytes)": "5d303519",
    "depositETH()": "f6326fb3",
    "depositRecoveryBalance(uint256)": "46cdf2f1",
    "doRebalance(bytes)": "fc228e6b",
    "getFee(uint256,uint8)": "2e5a247f",
    "getRoleAdmin(bytes32)": "248a9ca3",
    "grantRole(bytes32,address)": "2f2ff15d",
    "hasRole(bytes32,address)": "91d14854",
    "pauseOrUnpause(bool)": "252aa530",
    "paused()": "5c975abb",
    "removeTokens(uint256[])": "ff59bcd0",
    "removeUser(uint256)": "11dc4703",
    "removeWhitelisted(address)": "291d9549",
    "renounceRole(bytes32,address)": "36568abe",
    "revokeRole(bytes32,address)": "d547741f",
    "setFeeData(uint8,uint8)": "3f5cc468",
    "supportsInterface(bytes4)": "01ffc9a7",
    "swapUserQueueBuy(address,bytes)": "99303e9d",
    "tokens(uint256)": "4f64b2be",
    "tokensList()": "bd5dc202",
    "updateSlippageTolerance(uint256)": "0f9da743",
    "userTokensBalance(address)": "27cdd8f9",
    "userWithdrawWholeFundWETH(bytes,uint256)": "26519373",
    "users(address)": "a87430ba",
    "usersList()": "77b6af52",
    "withdrawAccumulatedFees()": "2e185ec7",
    "withdrawAllInKind()": "78d254b1",
    "withdrawETH()": "e086e5ec"
  },
  "id": 33
}